:020000040800F2
:1000000068900020E10100083F1900083B19000832
:100010003D190008010C0008991B000800000000B1
:10002000000000000000000000000000490100087E
:10003000030C0008000000008D01000841190008B1
:10004000FB010008FB010008FB010008FB010008A0
:10005000FB010008FB010008FB010008FB01000890
:10006000FB010008FB010008FB010008FB01000880
:10007000FB010008FB010008FB010008FB01000870
:10008000FB010008FB010008FB010008FB01000860
:10009000FB010008FB010008FB010008FB01000850
:1000A000FB010008FB010008FB010008FB01000840
:1000B000FB010008FB0100085D190008FB010008B6
:1000C000FB010008FB010008FB010008FB01000820
:1000D000FB0100088D1B0008FB010008FB01000864
:1000E000FB010008FB010008FB010008FB01000800
:1000F000FB010008FB010008FB010008FB010008F0
:10010000FB010008FB010008FB010008FB010008DF
:10011000FB010008FB010008FB010008FB010008CF
:10012000FB010008FB010008FB010008FB010008BF
:10013000DFF810D000F0B8FC00480047CD6102089D
:10014000AFF3008068900020224B19680868B0E87F
:10015000F00F80F30988BFF36F8F4FF0000080F33A
:1001600011884EF00D0E7047000000000648006830
:10017000006880F3088862B661B6BFF34F8FBFF3A3
:100180006F8F00DF00BF00BF08ED00E0EFF30980D4
:10019000BFF36F8F0F4B1A6820E9F00F106008B59E
:1001A0004FF0500080F31188BFF34F8FBFF36F8F74
:1001B0002CF074FE4FF0000080F31188BDE8084079
:1001C00019680868B0E8F00F80F30988BFF36F8FF3
:1001D000704700BFB8030020EFF3058070470000B0
:1001E0000648804706480047FEE7FEE7FEE7FEE7D1
:1001F000FEE7FEE7FEE7FEE7FEE7FEE75919000827
:10020000310100082DE9F05F0546002092469B462B
:1002100088460646814640241BE02846414647461C
:10022000224600F0A6FA53465A46C01A914110D30E
:1002300011461846224600F08DFA2D1A67EB010888
:100240004F4622460120002100F084FA17EB0009F6
:100250004E41201EA4F10104DFDC484631462A4607
:100260004346BDE8F09F000000487047D84C0308A3
:1002700040EA01039B0703D009E008C9121F08C028
:10028000042AFAD203E011F8013B00F8013B521EA8
:10029000F9D27047D2B201E000F8012B491EFBD21F
:1002A00070470022F6E710B513460A460446194681
:1002B000FFF7F0FF204610BD421E12F8013F002B51
:1002C000FBD111F8013B02F8013B002BF9D170473B
:1002D000421C10F8011B0029FBD1801A704710B591
:1002E000002200E0521C835C8C5CA34201D1002BF5
:1002F000F8D1D8B2E1B2401A10BD034611F8012B73
:1003000000F8012B002AF9D11846704770B506464F
:1003100001F078FC046805460A220021304600F00E
:1003200038FA2C6070BDF0B480EA0102D40F4200AC
:10033000B2EB410F02D20246084611464A0042D0B3
:10034000C30DDDB2C1F3C752AD1A202D35DAC1F3AA
:10035000160141F4000204B15242C5F1200602FA2E
:1003600006F12A411044B3EBD05F23D0C4B1012D74
:10037000A0EBC35009DCF0BC4FF0004202EAC352CC
:10038000DBB200F5000000F045BA400000F18070DB
:1003900000EBC350A0F1807040EAD170490009E041
:1003A000490841EAC071A0EBC35000F500004008C5
:1003B00000EBC350F0BC00F024BA6142012202EB12
:1003C0004101001BF6E7F0BC704781F00041AAE74D
:1003D00080F00040A7E730B480EA010202F0004557
:1003E00030F0004221F0004013D090B1C30DD40D85
:1003F000C2F31601C0F31600E41A41F4000140F400
:1004000000027D34914201D3641C00E04900002CBD
:1004100002DA30BC002070474FF400000023914204
:1004200001D3891A034340084FEA4101F7D151B182
:10043000914202D14FF0004105E002D24FF001019C
:1004400001E06FF0010103EBC450284430BC00F020
:10045000D8B92DE9FE4F81EA030404F0004421F0ED
:10046000004100944FF0000B23F0004350EA0104D8
:100470005ED052EA03045BD0C3F30A54C1F30A55B9
:100480002C44A4F2F3340194A0FB0254C1F31301F1
:1004900041F48011C3F3130343F4801301FB0244BE
:1004A00000FB034E840A970A44EA815447EA8357C3
:1004B000A4FB076802958D0A05FB07854FEA932C7C
:1004C00004FB0C542705029D4FEA065847EA1637ED
:1004D000B5EB08056EEB070C870E920E47EA811705
:1004E00042EA8312A7FB0201B6EB0B0164EB0004A6
:1004F0002B0D43EA0C335E1844EB1C50DA46514690
:10050000E7FB0201C5F313044FEA0B3343EA14532C
:100510004FEA0432019C43EA0603A4F10C0402945E
:10052000009CCDE900B400F0B2F903B0BDE8F08F53
:1005300000200146F9E72DE9F04D81EA030404F0BB
:10054000004B21F0004514464FF0000A23F0004113
:1005500050EA050220D054EA01021DD0C5F30A5723
:100560000246C5F31303C1F31300C1F30A5640F466
:10057000801543F48013A7EB0608101BD64608F23B
:10058000FD3873EB050002D308F1010801E0921871
:100590005B41B8F1000F03DA00200146BDE8F08DA1
:1005A00000204FF48011064684460EE0171B73EBC3
:1005B000050705D3121B63EB050306434CEA010C48
:1005C00049084FEA300092185B4150EA0107EDD12B
:1005D00052EA030012D082EA040083EA05010843CC
:1005E00005D0101BAB4106D20122002306E00022F9
:1005F0004FF0004302E06FF0010253101AEB0600C7
:100600004CEB085110EB0A0041EB0B01BDE8F04D3B
:1006100000F02EB9C10F80EAE0700844CA079623A3
:10062000002100F0F7B896230022114600F0F2B83E
:100630000EB5C10F80EAE0700844CA07002140F2FD
:1006400033438DE80E000A460B4600F020F903B054
:1006500000BD0EB540F2334102910021CDE90011F9
:100660000A460B4600F013F903B000BD20F000402D
:10067000C10DC0F3160040F400007F2901DA00200C
:100680007047962903DCC1F19601C840704796393E
:1006900088407047C1F30A5210B5C1F3130140F20C
:1006A000FF3341F480119A4201DA002010BD40F27C
:1006B00033439A42A2F2334203DC524200F059F82B
:1006C00010BD904010BD000030B5041E71F1000453
:1006D00004DB4FF00044404264EB0101141E73F14F
:1006E000000405DB1C464FF00043524263EB040359
:1006F0008B4208BF824230BD30B5041E71F1000448
:1007000004DB4FF00044404264EB0101141E73F11E
:10071000000405DB1C464FF00043524263EB040328
:10072000994208BF904230BD30B50B4601460020CB
:100730002022012409E021FA02F59D4205D303FAA3
:1007400002F5491B04FA02F52844151EA2F1010224
:10075000F1DC30BD202A04DB203A00FA02F100204F
:1007600070479140C2F1200320FA03F319439040EF
:100770007047202A04DB203A21FA02F0002170475A
:1007800021FA02F3D040C2F12002914008431946F9
:1007900070472DE9F04791460F46804604460026F3
:1007A00014F8015B2DB1FFF75FFD0068405DC007E5
:1007B000F6D12B2D02D02D2D18D0641E4A46394675
:1007C000204600F095F927B13968A14201D1C7F858
:1007D000008071054FF002040BD54042002803DD74
:1007E00001F010FA0460A007BDE8F08746F48066C7
:1007F000E4E70028F8DA01F005FA04606FF0004041
:10080000F2E70029A8BF7047401C490008BF20F04C
:100810000100704710B4B0FA80FC00FA0CF050EA06
:10082000010404BF10BC704749B1CCF1200421FA87
:1008300004F411FA0CF118BF012121430843A3EB82
:100840000C01CB1D4FEA00614FEA102042BF00208F
:1008500010BC704700EBC35010440029A4BF10BC6B
:100860007047401C490008BF20F0010010BC7047D1
:1008700010B5141E73F1000408DA401C41F10001A8
:1008800092185B411A4301D120F0010010BD2DE9FF
:10089000F04D92469B4611B1B1FA81F202E0B0FAF6
:1008A00080F220329046FFF755FF04460F4640EA9B
:1008B0000A0041EA0B0153465A46084313D0114639
:1008C00053EA010019D0C8F140025046FFF751FF2A
:1008D00005460E46504659464246FFF73BFF084341
:1008E00005D0012004E020463946BDE8F08D002007
:1008F000054346EAE0762C4337430A986305E40A49
:10090000A0EB08000022FD0A44EA47540A3002D551
:1009100000200146E9E7010510196941DDE90845B4
:1009200000196941BDE8F04DA2E72DE9FE4F804670
:1009300081EA0300C00F0C46009021F0004123F033
:100940000045B8EB0200A94105D240462146904639
:100950001C460B46024623F00040104347D0270DAB
:10096000C7F30A00C3F30A510290401A01904028CD
:100970006BDAC3F3130040F4801B0098924620B159
:100980000023D2EB030A63EB0B0B01985946C0F12D
:1009900040025046FFF7DEFE06460D4650465946D9
:1009A000019A00F093F810EB08006141002487EAF7
:1009B000115284EAE7731A4340D0009A62B3019A55
:1009C000012A4FEA075215DC001B61EB02014FF0D0
:1009D000004202EA0752CDE90042001C41F58011B5
:1009E00032462B46FFF753FF03B0BDE8F08F404679
:1009F0002146F9E7001B61EB0201001C41F5801361
:100A000000185B412018A2F5001747EB030140EAEC
:100A1000D570B6196D4111E06D084FEA360645EA0A
:100A2000C0754FEA0752001B61EB0201001C41F543
:100A3000801149084FEA30000019514132462B46D7
:100A400003B0BDE8F04FFFF713BF0098012240004C
:100A50000023D0EB020263EBE073009821464FEADB
:100A6000E074B8EB000061EB0401E9E783F00043B8
:100A70005BE781F0004158E7C1F30A52C1F313016B
:100A800040F2FF3341F480119A4202DA002001461D
:100A9000704740F233439A42A2F2334202DC5242A0
:100AA000FFF767BEFFF756BE064C074D06E0E0684D
:100AB00040F0010394E8070098471034AC42F6D3A5
:100AC000FFF73AFB4453030864530308202A06DB6C
:100AD000CB17203A41FA02F043EAE07306E041FA0C
:100AE00002F3D040C2F120029140084319467047FA
:100AF0002DE9F05F82460078002715468B460AF103
:100B00000104B946302801D09DB113E014F8010B5F
:100B10000127782803D0582801D045B10AE00DB14B
:100B2000102D07D10027102514F8010B02E008252D
:100B300000E00A250026B0460EE005FB080005FB94
:100B400006F1012701EB10461FFA80F8B6F5803F49
:100B500000D3B94614F8010B294600F018F8002814
:100B6000EBDABBF1000F05D00FB1641E00E0544674
:100B7000CBF80040B9F1000F06D001F043F8022194
:100B80000160C81EBDE8F09F48EA0640FAE73A282F
:100B900000D2303820F02002412A01D3A2F13700E0
:100BA000884201D34FF0FF30704770B58C1810F8B1
:100BB000015B15F0070301D110F8013B2A1106D1A2
:100BC00010F8012B03E010F8016B01F8016B5B1EBC
:100BD000F9D12B0705D40023521E0DD401F8013B97
:100BE000FAE710F8013BCB1A921C03E013F8015B03
:100BF00001F8015B521EF9D5A142D8D3002070BD87
:100C0000FEE770472DE9F05F90F8211000240229DB
:100C100003D004218163012485E001680A6822F081
:100C20000E020A6001680A6822F001020A603F4E63
:100C30003E4FB215DFF8F4C0DFF8F090DFF8ECA01B
:100C4000DFF8E8B0DFF8E4E00168783F130115024F
:100C5000ACF1640CA9F15009AAF13C0AABF1280BE4
:100C6000AEF1140E4FF48018B14227D9B9420ED01C
:100C7000614512D049451DD0514518D0594518D06D
:100C8000714501D1424615E0294EB14201D1012200
:100C900010E0274E1436B14201D110220AE0244E52
:100CA0002836B14206D0224A3C32914201D11A463E
:100CB00000E02A461E49091F0A602BE0B94213D002
:100CC000614517D0494522D051451DD059451DD009
:100CD000714501D142461AE0B14202D14FF0807213
:100CE00015E0134EB14201D1012210E0104E14362E
:100CF000B14201D110220AE00D4E2836B14206D091
:100D00000B4A3C32914201D11A4600E02A4607497B
:100D100080394A60012180F82110002180F82010DC
:100D2000416B01B188472046BDE8F09F800002403A
:100D3000080402402DE9F84FDFF8C091002409F1C2
:100D4000040A0AF1040B23464FF00F080BF1040EBE
:100D5000CCE00127A7403A40BA4272D1DFF8A0C1E7
:100D60004D68A5EB0C0665452BD00DDC032D34D06A
:100D700005DC35B3012D19D0022D2FD11BE0112D2B
:100D800016D0122D2AD119E0B6F5881F19D006DC2D
:100D9000B6F5803F15D0B6F5801F1FD111E0B6F52E
:100DA000001F0ED0B6F5041F18D10AE0CB6815E07D
:100DB000CB681B1D12E0CB6808330FE0CB680C3307
:100DC0000CE08B682BB1012B4FF0080303D0476177
:100DD00004E0042302E0076100E00023FF2A01D8B9
:100DE000064601E000F104064FEA840501D9A5F1A9
:100DF0002005376808FA05FC27EA0C0703FA05F511
:100E000047EA050737604D68ED006ED53D4DAE6988
:100E100046F00106AE61AD6924F0030605F0010558
:100E20000095394D7719BE68A5072D0F08FA05FC06
:100E300026EA0C06DFF8D4C0604503D14FF0000C61
:100E400025E052E0DFF8C8C0604502D14FF0010C48
:100E50001DE0DFF8C0C0604502D14FF0020C16E083
:100E6000DFF8B4C0604502D14FF0030C0FE0DFF8AB
:100E7000ACC0604502D14FF0040C08E0DFF8A0C020
:100E8000604502D14FF0050C01E04FF0060C0CFA62
:100E900005FC4CEA060CC7F808C04D68D9F800609C
:100EA000ED034D4601D5164300E096432E604D6894
:100EB000DAF80060AD03554601D5164300E09643CD
:100EC0002E604D68DBF80060ED025D4601D51643EB
:100ED00000E096432E604D68DEF80060AD02754676
:100EE00001D5164300E096432E60641C0A6832FA6E
:100EF00004F57FF42EAFBDE8F88F00000004014038
:100F000000001110001002400000014000080140E4
:100F1000000C014000100140001401400018014085
:100F2000001C01408068084000D0012070470AB1D1
:100F3000016170470904FBE70148806870470000C1
:100F40001C000020024881680278114481607047CB
:100F50001C000020074810B5016841F01001016035
:100F6000052000F057F80F2000F006F800F024F8F4
:100F7000002010BD0020024070B50D4D04464FF416
:100F80007A712878B1FBF0F00A490968B1FBF0F0FA
:100F900000F0DCFA48B9102C07D200222146501E7E
:100FA00000F018F800206C6070BD012070BD0000DA
:100FB0001C000020000000207047002809DB00F022
:100FC0001F02012191404009800000F1E020C0F89B
:100FD00000117047F0B40E4B1B68C3F30223C3F13A
:100FE0000704042C00D904241D1D072D01D2002361
:100FF00000E0DB1E012606FA04F56D1E0D409D4043
:101000009E40761E164045EA0601F0BC00F0EABD9F
:101010000CED00E0064A00F0070110684FF6FF03F0
:10102000184040EA0120034908431060704700005F
:101030000CED00E00000FA052DE9F0470D46040034
:1010400067D0DFF81881D8F8000000F00700A84248
:101050000CD2D8F8001021F007012943C8F800107D
:10106000D8F8000000F00700A84252D120683C4E9A
:10107000810712D5400703D5706840F4E0607060C6
:101080002078000703D5706840F460507060706885
:10109000A16820F0F000084370602078C00727D0D6
:1010A0006068012810D03168022810D08907002913
:1010B0002FDA716821F0030101437160FFF73CFFF3
:1010C000074641F288390CE031688903EFE789016E
:1010D000EDE7FFF731FFC11B494502D90320BDE809
:1010E000F0877068616800F00C00B0EB810FF0D100
:1010F000D8F80010404601F00701A9420BD9016859
:1011000021F0070129430160006800F00700A842B0
:1011100001D00120E3E72078400705D57068E16839
:1011200020F4E060084370602078000706D57068FE
:10113000216920F4605040EAC100706000F038F886
:101140007168084AC1F30311515CC8400649086040
:1011500006480068FFF710FF0020C0E700200240AB
:101160000010024008DB02080000002020000020E0
:101170000448054900684968044AC1F30221515CEA
:10118000C8407047000000200010024018DB020831
:101190000448054900684968044AC1F3C221515C0A
:1011A000C8407047000000200010024018DB020811
:1011B00012A085B00FC88DE80F0014A0144B006872
:1011C00004905968134801F00C02042A10D0082A30
:1011D0000ED1C1F38342C9031DF802000AD5596834
:1011E00004AAC1F34041515C0A4A5043B0FBF1F0FC
:1011F00005B0704708494843FAE7000002030405B8
:10120000060708090A0B0C0D0E0F10100102000052
:101210000010024000127A0000093D002DE9F84F4D
:1012200004006FD02078BE4DC00747D06868C0F377
:101230008100012807D06868C0F38100022809D125
:101240006868C00306D52868800337D56068002821
:10125000E7D033E06068B0F5803F0BD010B1B0F557
:10126000A02F11D0286820F480302860286820F44E
:10127000802002E0286840F480302860606888B1EF
:10128000FFF75AFE064609E0286840F480202860EF
:10129000F0E7FFF751FE801B642873D828688003AD
:1012A000F7D50BE0FFF748FE064604E0FFF744FEE3
:1012B000801B6428F1D828688003F7D42078DFF8F1
:1012C000648280074FF0010A4FF0000939D5686841
:1012D00010F00C0F07D06868C0F38100022809D114
:1012E0006868C00306D42868800714D520690128DF
:1012F00008D110E02069B0B1C8F800A0FFF71CFECB
:10130000064605E007E1FFF717FE801B0228C4D858
:1013100028688007F7D52868616920F0F80040EA5E
:10132000C10028600DE0C8F80090FFF705FE0646F2
:1013300004E0FFF701FE801B022823D828688007FD
:10134000F7D4207800072CD57748A169D9B1C0F827
:1013500000A0FFF7F1FD064604E0FFF7EDFD801B5E
:1013600002280FD8686A8007F7D570484FF4FA5101
:101370000068B0FBF1F0009000BF0098411E0091A2
:10138000FAD20EE07CE0C0F80090FFF7D5FD0646EB
:1013900004E0FFF7D1FD801B022871D8686A80073E
:1013A000F7D4207840075BD5E8690027C00008D44F
:1013B000E86940F08050E861E869012700F080505A
:1013C00000905B480168C90511D40168834641F467
:1013D00080710160FFF7B0FD064604E0FFF7ACFD49
:1013E000801B64284CD8DBF80000C005F6D5E06807
:1013F00001280AD008B1052813D0286A20F001007E
:101400002862286A20F0040002E0286A40F0010007
:101410002862E06841F2883B88B1FFF78DFD0646FF
:1014200009E0286A40F004002862EEE7FFF784FD37
:10143000811B59455BD8286A8007F7D50BE0FFF779
:101440007BFD064604E0FFF777FD811B59454ED82A
:10145000286A8007F7D41FB1E86920F08050E8615E
:10146000E069A8B36968C1F38101022946D0022866
:10147000484606D0C8F86000FFF75EFD044639E034
:1014800035E04746C8F86000FFF756FD064604E021
:10149000FFF752FD801B022829D828688001F7D465
:1014A000206AB0F5803F05D16868A16820F400305B
:1014B00008436860D4E908010843696821F474119D
:1014C00008436860C7F860A0FFF736FD044605E0F2
:1014D00023E0FFF731FD001B022808D828688001AF
:1014E000F7D51AE0FFF728FD001B022802D90320D8
:1014F000BDE8F88F28688001F4D40EE00128F7D009
:101500006868226A00F48031914204D1616A00F473
:101510007010884201D00120EAE70020E8E70000CF
:1015200000100240000042428004424200000020BD
:10153000007000404FF0E0210428086903D020F03B
:1015400004000861704740F00400FAE710B5401E3F
:10155000B0F1807F01D3012010BD4FF0E024606125
:101560000F21601700F03EFB0020A06107202061E2
:10157000002010BD10B5040003D094F83D0010B158
:1015800007E0012010BD002084F83C00204600F058
:101590001EF8022084F83D00211D206800F0F8F9B3
:1015A000012084F8460084F83E0084F83F0084F867
:1015B000400084F8410084F8420084F8430084F835
:1015C000440084F8450084F83D00002010BD7047B9
:1015D00090F83D10012901D001207047022180F8C8
:1015E0003D100168CA6842F00102CA6000680E49F5
:1015F00088420ED00D4988420BD0B0F1804F08D000
:101600000B49884205D00B49884202D00A498842DA
:1016100004D1816801F00701062903D0016841F077
:101620000101016000207047002C0140003401409E
:101630000004004000080040000C0040704700001B
:1016400070B5026804461068D168536910F00F0F36
:1016500052D003F0010501F490762E435FD0C2070B
:1016600005D0CA0503D5E26B42F00102E2634207EE
:1016700005D5DA0703D0E26B42F00202E26382078B
:1016800005D5DA0703D0E26B42F00402E2630207F9
:1016900007D501F020022A4303D0E26B42F0080292
:1016A000E263E26B002A33D0800604D5880602D5B7
:1016B000204600F0C9F920684069E16BC0F3801052
:1016C000090700D428B3204600F0B0F9206841692A
:1016D00049061AD5416921F040014161606BA0B112
:1016E0002D494163606BFFF78DFA002810D0606BC5
:1016F000416BBDE870400847830610D58B060ED5B8
:101700002046BDE8704000F09FB92046FFF796FFE5
:1017100070BD2046FFF792FF0020E06370BD030616
:101720002BD50B0629D594F839002128F6D1A068CD
:10173000B0F5805F01D12069B0B1206A411C2162FF
:10174000216800784860E08C401E0004000CE084B2
:10175000E4D12068C16821F08001C1602068C168BF
:1017600041F04001C16070BD206A0088C0F30800EC
:101770005060206A801C2062E5E74006F3D54806E9
:10178000F1D5D168204621F04001D160202184F8B4
:10179000391000F0D1F870BD1D1A000870B50400B2
:1017A00004D094F83900002510B106E0012070BD86
:1017B00084F83850204600F023F8242084F83900BB
:1017C0002068C16821F40051C160204600F082F910
:1017D0002068016921F4904101612068416921F08C
:1017E0002A0141612068C16841F40051C160E5638C
:1017F000202084F8390084F83A00002070BD0000F1
:1018000010B500681A4986B088422ED119488169FE
:1018100041F004018161816901F004010491816951
:1018200041F004018161816901F004010491816941
:1018300041F48041816180690F4C00F48040049044
:101840004FF40070009002200190012002900320CC
:10185000039069462046FFF76DFA2115009100219B
:10186000019169462046FFF765FA06B010BD0000F9
:1018700000380140001002400008014090F83A3062
:10188000202B22D1F9B1F2B190F83830012B1CD0C5
:1018900081628285C2850021C163222280F83A20BC
:1018A00080F838100168CA6842F48072CA60016822
:1018B0004A6942F001024A610068C16841F02001B2
:1018C000C16000207047012070470220704700006F
:1018D00030B400681549884225D1154A5088010462
:1018E00016D41146440409784FF0000304D50A29A0
:1018F0000DD140F4004014E00D2910D0C0F30D04C8
:101900000C4D401C80B229555080C72800D9538007
:101910000848012230BC0649C830FFF7AFBF40F489
:1019200080405080F4E730BC704700000038014030
:1019300012000020A00400207047FEE7FEE7704779
:1019400010B5FFF7FFFA2BF01DFE012803D0BDE80C
:1019500010402BF00DBC10BD7047000010B50A4CB4
:101960002068C068C043C00709D1084800698047A3
:1019700021680020486221686420C862E060216814
:101980006FF00100086110BD400E0020D80000205B
:10199000F0B502681C4D1D4E1D4FDFF878C01E4B80
:1019A0004FF0804EA84209D0984207D0704505D02C
:1019B000B04203D0B84201D0604503D122F0700498
:1019C0004A682243A84209D0984207D0704505D002
:1019D000B04203D0B84201D0604503D122F4407434
:1019E000CA6822434C6922F08002224302608A685E
:1019F000C2620A688262A84201D0984201D1096994
:101A0000016301214161F0BD002C01400004004050
:101A100000080040000C00400034014010B5406A4E
:101A20000021C185C184FFF709FE10BD0168CA68A5
:101A300022F49072CA6001684A6922F001024A6188
:101A4000202180F83A10704710B590F83A102229FA
:101A500001D0022010BD81684FF48053994201D11A
:101A6000026922B1826A99421BD049B10AE0026838
:101A7000816A5268C2F308020A80816A891C08E000
:101A8000016971B10168496801F07F011170816AD3
:101A9000491C8162C18D491E0904090CC18503D00E
:101AA00016E001684968F1E70168CA6822F020027F
:101AB000CA600168CA6822F48072CA6001684A6913
:101AC00022F001024A61202180F83A10FFF700FF5E
:101AD000002010BD70B5044600680169E26821F479
:101AE000405111430161A1682069014360690143CC
:101AF0002068C26841F20C639A430A43C2602068BE
:101B00004169A26921F44071114341611E49206875
:101B1000884202D1FFF73CFB01E0FFF729FB00EB15
:101B2000C00101EB0011606864228000B1FBF0F39A
:101B3000B3FBF2F36FF018067343B1FBF0F5B1FBA2
:101B4000F0F605EB8305322303EB0515B5FBF2F543
:101B5000B6FBF2F605F0F00505EB0615B1FBF0F665
:101B6000B1FBF0F0B0FBF2F06FF01801484306EB68
:101B7000800003EB0010B0FBF2F0216800F00F00D2
:101B80002844886070BD0000003801400148FFF71C
:101B900057BD000068050020FEE700000FB4054BAC
:101BA00010B503A9044A029801F058FE10BC5DF874
:101BB00014FB00003DDD0008180000200FB4084BA6
:101BC00010B504A902AA039801F048FE044602A930
:101BD000002002F0C6F9204610BC5DF814FB00009E
:101BE000633F00080907090E002804DB00F1E0202C
:101BF00080F80014704700F00F0000F1E02080F83A
:101C0000141D7047004870479C04002002E008C87B
:101C1000121F08C1002AFAD170477047002001E066
:101C200001C1121F002AFBD1704770B50446002580
:101C30006FF02F0608E02068411C2160007805EB5A
:101C4000850106EB410145182068007800F0C6F8D0
:101C50000028F0D1284670BD2DE9FF5F82B0002139
:101C6000DDE90430020DDDF840B0034318D044F63E
:101C70001050A2F2FF3242431514119801281FD0D0
:101C8000A5EB0B00401C5FEA000A4FF000064E4F28
:101C9000DFF83891B046504615D5CAF1000413E07C
:101CA000119801244AA3012801D16FEA0B0102987F
:101CB000119AC0E90031C0E9024206B0BDE8F09FC8
:101CC000CBF10000DFE704460021404A491842EB0F
:101CD0000450CDE9001012E0E00707D032463B4641
:101CE00040464946FEF7B5FB8046894632463B46AC
:101CF00010461946FEF7ADFB06460F466410002C51
:101D0000EAD1DDE90401DDE90023BAF1000F06DACA
:101D1000FEF79FFB42464B46FEF79BFB05E0FEF7B6
:101D20000AFC42464B46FEF706FC04460E460022DD
:101D3000284BFEF7E1FC03D84FF0FF30014607E0E7
:101D40000022254B20463146FEF7EFFDFEF794FEBC
:101D5000102409E0002C0ADB0A220023FEF752FAC5
:101D6000039B30321A55641E50EA0102F2D1641C02
:101D7000039AC4F111031444119A012A03D00122D9
:101D800008430DD10AE0084304D000204FF0110BA6
:101D9000119072E7A3EB0B056D1E0DE05B4504DDB2
:101DA0004FF0000205F1010504E003DA4FF00002F4
:101DB000A5F10105002AECD002981199C0E9023181
:101DC000C0E9004579E70000000014400000F03F42
:101DD000300000000000F0430000E03F30380928E8
:101DE00001D80120704700207047000010B5402145
:101DF000074801F079F800220421064823F0F4FC9A
:101E0000054CA06002F012FC0020207010BD000004
:101E10004C230020D54600083C03002070B5B1F9E2
:101E20000040B2F900309C4200DD23460380B1F946
:101E30000240B2F90250AC4200DC2C464480B1F9B9
:101E40000450B2F90460B54200DB35468580B1F933
:101E50000610B2F90620914200DB1146C180012034
:101E6000AB4201DC8C4200DD002070BDF8B50D46B0
:101E70000446B0F90000B1F900101646884247DB6D
:101E8000B4F90210B5F90220914241DBB4F9041013
:101E9000B5F9042091423BDCB4F90610B5F90620EF
:101EA000914235DC96B3ADF800006088ADF80200D1
:101EB00032466946284600F099F8002827D0A088C5
:101EC000ADF800006088ADF8020032466946284649
:101ED00000F08CF800281AD02088ADF80000E088C7
:101EE000ADF8020032466946284600F07FF8002827
:101EF0000DD0A088ADF80000E088ADF802003246B1
:101F00006946284600F072F8002800D00120F8BD8C
:101F10000020F8BDB0F90020B1F904309A4213DC7A
:101F2000B0F90420B1F900309A420DDBB0F902207B
:101F3000B1F906309A4207DCB0F90600B1F9021097
:101F4000884201DB0120704700207047F8B50D463C
:101F50000446B0F90400B1F900101646884243DB8C
:101F6000B4F90600B5F9021088423DDBB4F900006F
:101F7000B5F90410884237DCB4F90210B5F906202F
:101F8000914231DC76B3ADF800006088ADF8020014
:101F900032466946284600F029F818BBA088ADF8FB
:101FA00000006088ADF8020032466946284600F01D
:101FB0001DF8B8B92088ADF80000E088ADF802003F
:101FC00032466946284600F011F858B9A088ADF8A5
:101FD0000000E088ADF8020032466946284600F06D
:101FE00005F808B10020F8BD0120F8BD2DE9FC413D
:101FF00005460F46B1F90000B5F9001014468842B5
:102000003BDBB5F90410884237DCB7F90200B5F9BB
:102010000210884231DBB5F9061088422DDC002C15
:1020200076DD284614F076FB00EBD070461028468B
:1020300014F026FB00EBD0704010864200DA3046E8
:10204000844200DD04462888ADF80000288800227C
:102050002044ADF804006888ADF80200688839466D
:102060002044ADF806006846FFF7C0FF40B1BDF858
:1020700004002044ADF804003FE00020BDE8FC81EE
:10208000E8880022001BADF80200E888ADF80600E1
:1020900039466846FFF7AAFF28B1BDF8040020447E
:1020A000ADF8040011E0A8880022001BADF8000084
:1020B000A888ADF8040039466846FFF797FF50B18D
:1020C000BDF80000001BADF80000BDF80200001BC9
:1020D000ADF8020016E06888ADF8020068880022BA
:1020E0002044ADF8060039466846FFF77FFF70B11F
:1020F000BDF80000001BADF80000BDF8060020444C
:10210000ADF806003946684620F07AFEB6E7FFE7EC
:102110000120B3E710B5B1F90030B2F90040A34295
:1021200000DB23460380B1F90230B2F90240A3423A
:1021300000DB23464380B1F90430B2F90440A342E6
:1021400000DC23468380B1F90610B2F906209142E3
:1021500000DC1146C18010BDFEB5054623F0F2FA41
:102160000024354E0746009435B1E8687060284673
:1021700023F008FC706802E016F042FC7060006911
:1021800020F0DAFD7068406908B120F0D5FD706874
:10219000C06920F0D1FD7068006A20F0CDFD706844
:1021A0000169E1B321F084F820F0FEFF7068B0F817
:1021B000501199B30168097C890715D516F07EFC8A
:1021C000401E05B2706816F033FC401E03B20022B8
:1021D000114601A8009514F0CFFA706801A90268B1
:1021E000926B516004F07AFF70684FF48071303068
:1021F0001CF0B8FB7068202100F598701CF0B2FB51
:102200007068A0F85041384623F096FA0090706844
:102210000068436A13B132680099984700E007E00C
:102220001CF0E6F900F034F8BDE8FE4000F006B816
:10223000A0F85041FEBD00000002002070B5094E1C
:102240000024C4EBC40556F8250008B11CF044FA7C
:1022500006EB85001C211CF085FB641CE4B2042CF9
:10226000EFD370BD28240020084949680AE04A6875
:10227000824202D00A68824203D10A7E42F0010201
:102280000A7649690029F2D170470000D401002084
:10229000704700000421014800F026BE40230020C2
:1022A0001C21014800F020BE582300202DE9FE4FDC
:1022B0000446DDE90C0513B9B0F5807F7ED0B5F991
:1022C00000604FF0FF3C764246430CEB262636B2C8
:1022D0002680B5F902707F4247430CEB27273FB2B7
:1022E0006780B5F900C0A1EB0C0141434FF0020C2F
:1022F0000CEB212109B2A180B5F90280A2EB080202
:1023000042430CEB222000B2E080002B7ED04FF045
:102310000A0A93FBFAF6704200EB800003EB4007D9
:1023200006F1010930B223F079FC00900FFA89F030
:1023300023F074FC83465A3630B223F06FFC80469B
:1023400009F15A0000B223F069FC0146009AC7F176
:102350000A0000FB02F300FB08F001FB07010BFB86
:10236000073393FBFAF291FBFAF15011B4F9002014
:102370004FEA611BB4F902100BFB02F6B5F800C07E
:1023800000FB11630CEBA323E646B5F802C00FFA7D
:1023900083FACDF800C0B4F9043000FB02F90BFB5E
:1023A00001920BFB03F800FB11850CEBA2220EEB54
:1023B000A52512B22DB200FB03FC00E02EE0CDE912
:1023C00001C80BFB01C1DDF800C0B4F906700CEBCD
:1023D000A1210BB200FB17610EEBA1210EB2DDF8BB
:1023E00008800BFB079100FB17800CEBA121DDF8A7
:1023F00004C00EEBA0200BFB07C7DDF800C009B23C
:102400000CEBA72700B23FB2D44600E00FE05645E0
:1024100000DAB446A84217DA804616E00020208091
:10242000491E6080A180521EE280BDE8FE8F2A888E
:10243000324422806A883A4462802A881144A1800A
:1024400069880844E080F0E7A846C44504DAD44629
:10245000564506DAB44604E0A84201DA844600E0B4
:10246000AC46A4F800C0D446564500DDB446A842A8
:1024700001DD804600E0A846C44504DD50465645CF
:1024800004DD304602E0A84200DC2846A0809142EC
:1024900001DA084600E010469F4201DA3D4600E0BE
:1024A0001D46A84205DA914201DA084606E01046C8
:1024B00004E09F4201DA384600E01846608091420D
:1024C00001DD084600E010469F4201DD3D4600E088
:1024D0001D46A84203DD914206DC114604E09F42FE
:1024E00001DD394600E01946E1809EE72DE9FE4F07
:1024F0000446D0F800B0B0F90800E589081AB4F92C
:102500000A10511AD4E90932B5F5807F3AD0A5896D
:10251000002DA56B05FB00F005FB01F54FEA6010EF
:102520004FEA65113CD0256BE66A05FB00F706FB18
:102530001177464305FB016003EBA72902EBA020BE
:10254000B4F904104FEA292706128046B94246DD45
:10255000002F44DBB4F90600B04240DD002E3EDB24
:1025600094F8340042073DD5820704F114001BD4CF
:1025700001FB067102224D0092460BEB05011CF097
:10258000AAF921E0256BE66A05FB00F706FB117747
:10259000464305FB016003EBA70902EBA000CFE770
:1025A00003EB00095018CBE701FB067101EB410575
:1025B0004FF0030A0BEB050102221CF08CF9E81C1A
:1025C000584410F8010CA07594F83400C0071FD0CF
:1025D0004FF4FC60ADF80000A18A814218D10020C0
:1025E000BDE8FE8F32B204F118002369CDE9010283
:1025F000002539B2AA468B4619F010FD0090BDF8AF
:102600000000A082DDE90102594619F09FFCDAE7DB
:10261000E07C78B1A4F83C90A4F83E80A4F8407027
:10262000A4F84260656484F848A02046BDE8FE4FE7
:1026300000F002B80120D3E72DE9F04F044690F8EE
:102640003C10D0F8009090F83E0087B04FF0FF3675
:10265000702907DAB4F940203546012A00D5002553
:1026600080310DE0902916DDB4F94020B4F9043032
:102670000125521C9A4200DB0025A1F27F1149423C
:10268000C9B28846702809DAB4F94210012900D588
:102690000026803010E00025FF21F2E790280DDDB4
:1026A000B4F94210B4F906200126491C914200DB1E
:1026B0000026A0F27F104042C7B201E00026FF27AB
:1026C00060690590A07D01900020824683460090BD
:1026D00094F83400400744D594F84810606C022206
:1026E00001FB0501494404A81CF0F5F8B4F9040005
:1026F00094F8481002224843616C06FB00114944DB
:1027000003A81CF0E8F8B4F9041094F84800626CCF
:10271000414306FB012200FB05901118022202A88A
:102720001CF0D9F894F83400800761D594F848007B
:10273000626C00EB090100FB05230B4413F8013C1C
:102740000093B4F90430434306FB0322114400FB19
:10275000050011F801AC111801EB090010F8010C8B
:1027600045E0B4F84000B4F94220284401B204F135
:1027700018008146236919F051FC0490B4F8420016
:10278000B4F94010304402B254F8103F484619F0F2
:1027900045FC0390608E2368304402B2208E2844AA
:1027A00001B2484619F03AFC029094F82400103C1B
:1027B00080071DD5B4F9422034F8400F284401B2F7
:1027C000484619F0C3FB00906088B4F9001030440B
:1027D00002B2484619F0BAFB82466088304402B221
:1027E00034F84009284401B2484619F0AFFB83464B
:1027F00094F8340042464546800735D50199009B40
:1028000001FB08F1C8F1FF0003FB00110AFB08F30C
:102810000BFB0030C1F30721C0F3072001FB07F3D6
:10282000C7F1FF0600FB06331B0AA375022907D870
:10283000022803D8002007B0BDE8F08F002702E08F
:10284000022800D8FF270198022800D8002200980B
:10285000022800D8FF22BAF1020F00D80025BBF1F0
:10286000020F03D8FF2501E0FF20A075DAB1FF2A8F
:102870001BD0DDE9041015F09BFC0190BDB1FF2DCC
:1028800017D0DDE902102A4615F092FC00903FB106
:10289000FF2F10D001463A46019815F089FC0090B0
:1028A000BDF8000009E00498E7E70598E5E702981D
:1028B000ECE70398EAE7BDF80400A0820120BAE73C
:1028C0002DE9F0470446B0F908000A2700026062CB
:1028D000B4F90A000002A062B4F90C0090FBF7F50D
:1028E000694201EB810100EB4106684205F10108F4
:1028F00000B223F093F98246E84300B223F08EF948
:102900008146C5F15A0000B223F088F90546C8F1A6
:102910005A0000B223F082F90146C6F10A0000FB1A
:102920000AF3684301FB060009FB063292FBF7F24B
:1029300090FBF7F051114011C4E90B10A07C19F085
:1029400019FC94F8341060F3000184F83410A07C72
:1029500019F000FC94F8341060F3410184F834104D
:10296000A07C042823D0052821D006281FD021F0E0
:10297000040184F8341021682162A16921F0E0018A
:1029800060F30401A08860F39421E08860F35F5154
:10299000A161E0894FF4001101EB5001B1FBF0F0AF
:1029A000A063FF20A075208AA082BDE8F08741F0D7
:1029B0000401DEE72DE9F04115460E460746114CAD
:1029C00022F0C0FE80462B4632463946204619F09A
:1029D0004FFF20B10020A062E06950B110E02C212F
:1029E00020461BF0BFFF4FF00040A0620020BDE872
:1029F000F081404622F0A0FEE06108B90120E061CC
:102A00002046F4E77C23002010B51421074800F08D
:102A10006BFA19F0F3FE40B10549016005494160C8
:102A2000054981600549C16010BDFEE764230020AF
:102A300031C20108A5C501081DC70108FDC1010873
:102A400070B50D460446102128461BF08BFF206808
:102A50000078012804D0022807D0042807D008E015
:102A6000208A2880608A688003E0E06800E00A200D
:102A7000686020684268002A03D02946BDE870409B
:102A8000104770BDFEB5856A0446BDB9A08A218A8B
:102A90000844A082E08A618A0844E08220460AF065
:102AA0006DFC050079D020460DF056FB002209216F
:102AB000284618F095FD607880076ED4208A10B9FA
:102AC000608A002869D00026ADF80860ADF804607F
:102AD00094F83C0000F00F000328284616D01DF0A3
:102AE000C7FC074628461DF07DFB03460C200090DE
:102AF000B4F912103A4628460AF01AF8ADF8040064
:102B000028461DF0C1FBC10712D017E01DF044FCA0
:102B1000074628461DF0E0FB024603200090B4F96A
:102B200010103B4628460AF003F8ADF80800E7E726
:102B3000BDF90810002901DDADF80860810705D452
:102B4000BDF90810002901DAADF80860410705D485
:102B5000BDF90410002901DDADF80460000705D4BB
:102B6000BDF90400002801DAADF8046001AA02A949
:102B7000204625F02AFB0023BDF90420BDF90810EA
:102B800028461FF063FCA08ABDF808100844A08204
:102B9000E08ABDF804100844E082FEBD2DE9FC5F28
:102BA0000446806A5FEA000B71D094F83C0000078D
:102BB0006DD01AF017F9019000684021457E584603
:102BC0001EF0F4FB4FF0000818B9A4F81A80A4F81E
:102BD000188058461DF03EFC824658461DF041FCC8
:102BE000064694F83C004FF0640900F00F000C28F2
:102BF00002D003284CD09AE0A4F8188056B1B4F95A
:102C00001A5000271AF0EEF800684946407EC0F1DD
:102C1000640222E0B4F91A00C5F16401484390FB54
:102C2000F9F0608358461DF0DDFA054658461DF060
:102C30001FFC02460C200090B4F91A102B4658468F
:102C400009F076FF6083024600231EE0781907B280
:102C500002FB05F090FBF1F005B2002DF6D1ADF8C6
:102C60000070A4F81A806A460021204625F0ADFACB
:102C700041F6FF72BDF90030514258460AF0E2FCBD
:102C8000BDF800100123084402B200214CE09AE094
:102C9000A4F81A80BAF1000F0AD0B4F9185000272E
:102CA0001AF0A0F800684946407EC0F1640222E0B4
:102CB000B4F91800C5F16401484390FBF9F0208392
:102CC00058461DF009FB054658461DF065FB0346B6
:102CD00003200090B4F918102A46584609F028FF3E
:102CE0002083014600231EE0781907B202FB05F09D
:102CF00090FBF1F005B2002DF6D1ADF80070A4F80C
:102D0000188000226946204625F05FFA41F6FF72DE
:102D1000BDF90030514258460AF012FCBDF80010CF
:102D20000123084401B2002258461FF08FFB208B7C
:102D3000002848D1608B002845D1C6B958461DF0FF
:102D400097FB054658461DF04DFA002D06DC00287D
:102D50000DDD002D02DA01232A4604E0002806DA00
:102D60000123404202B2002158461FF06FFBBAF126
:102D7000000F19D158461DF0AFFA054658461DF010
:102D80000BFB002D07DC00280EDD002D03DA0123EC
:102D90000022294605E0002806DA012300224042ED
:102DA00001B258461FF052FB0A215846019A18F00A
:102DB00017FC6078800706D414F83C0F20F00F0051
:102DC000207044F8148CBDE8FC9F7FB50D460400CC
:102DD00003D115F015FE040023D00026FDB1ADF897
:102DE0000060ADF8026015F023FE401EADF804004F
:102DF000204615F063FE401EADF806006A462946DF
:102E000002A8FFF70BF800280BD02068017C890787
:102E100008D5DDE90001C4E90C01012029E0A0F892
:102E200050617FBD82690AB102A9904700250AE07E
:102E300004EBC501002202A83031FFF717F8002883
:102E4000EFD16D1CADB2B4F85001A842F0D880B2F9
:102E5000202804D204EBC00002A9303004E0A4F81A
:102E6000506104F13000694613F09BFBB4F8500147
:102E7000401CA4F8500160680028D2D022F08EFDDA
:102E80007FBD70B5054600F012F804460CE02146FF
:102E9000284600F01EF806462146284600F071F844
:102EA00020461BF019FC3446002CF0D170BD0028E0
:102EB00000D04068704700B503460022FFF7F7FFD7
:102EC00003E01846521C00F004F80100F9D1104646
:102ED00000BD0068091D40587047006840587047A1
:102EE000002800D08068704700224260C91C21F091
:102EF000030182600160704770B5044600680830C5
:102F00001BF060FB050013D001460022204623F091
:102F10000AFE29462046626823F0FCFD616819B16B
:102F20002A46204623F0FFFD6560A06800B9A56031
:102F3000284670BD70B50446006808301BF042FB9F
:102F4000050013D001460022204623F0E3FD294668
:102F50002046A26823F0E7FDA16819B12A46204661
:102F600023F0D8FDA560606800B96560284670BD93
:102F700028B1416809B9806808B100207047012074
:102F8000704770B504000DD0FFF791FF0022884212
:102F9000204608D1FFF79DFF606010B10022014676
:102FA0001EE0A26070BDFFF79BFF884220680844C6
:102FB0000AD10168A16029B12046BDE87040002215
:102FC00023F0A8BD626070BD05682046FFF781FF51
:102FD000064602462946204623F09CFD2A463146F5
:102FE0002046BDE8704023F09EBD10B50446006841
:102FF00082680AB12146904720680068002801D005
:103000002060F5E710BD8068002801D0B0F91600F7
:10301000704700002DE9F047054690B0408C189CA1
:1030200040F00400688490462A8499468A462289A2
:1030300028461EF02FF80646A5F820902289514612
:1030400028461EF027F80746688CBE4220F0040090
:10305000688403D13104B1EB074F68D0A5F8208014
:103060002289514628461EF015F806468046A5F8E6
:103070002090514628460BF016FE21890068324602
:1030800021F08AFA2089602823D147F6FF794E453E
:1030900001D04F451DD128461EF042F900EBD070FB
:1030A000461028461EF03CF900EBD0704010C84591
:1030B00006D1711C431C994200DA00E0194688468B
:1030C0004F4506D1711C421C914201DA0F4600E0C7
:1030D00017461948FFF710FF06002BD03560C6E9E8
:1030E00003872089B0806846C6F808A012F070FDFA
:1030F0001248FF21CDE90060114802901148039069
:1031000000200790CDE9080120880A9060889DF88A
:103110003E1040420B90E0680690002060F30001F2
:103120008DF83E1020690590684612F0C9FD10B078
:10313000BDE8F087FEE7000070230020B9B4020864
:10314000A9B6020801B6020814210148FFF7CCBE57
:10315000702300202DE9F84F00249046894606464A
:10316000254643F60F0A43F60E0B00E10420F168F2
:1031700000EBC500085881017ED480B230EA090115
:1031800012D0002130EA080010D00020814273D014
:10319000F0686A4641F6100150F83570384620F064
:1031A000E5FF002869D103E00121EBE70120EDE70D
:1031B0006A4641F61101384620F0D8FF002873D145
:1031C0006A4641F61201384620F0D0FF00286BD144
:1031D0006A4641F61301384620F0C8FF002863D143
:1031E0006A4641F61501384620F0C0FF00285BD141
:1031F0006A4641F61401384620F0B8FFE8BB6A463B
:1032000041F26901384620F0B1FFB0BB6A4643F293
:103210000C01384620F0AAFF78BB6A4643F20D0144
:10322000384620F0A3FF40BB6A4641F20101384610
:1032300020F09CFF08BB6A4641F20401384620F0AA
:1032400095FFD0B96A4641F20201384620F08EFF60
:1032500098B96A4641F20301384620F087FF60B909
:103260006A4641F20501384620F080FF28B96A46D7
:1032700041F20601384601E078E015E020F076FFE3
:1032800090B96A4641F23201384620F06FFF58B9D2
:103290006A465146384620F069FF28B96A465946C1
:1032A000384620F063FF10B10320BDE8F88F6A466E
:1032B00040F60A01384620F059FFE8BB6A4640F65E
:1032C0000B01384620F052FFB0BB6A4651463846E3
:1032D00020F04CFF80BB6A465946384620F046FF36
:1032E00050BB6A4640F63C01384620F03FFF18BB11
:1032F0006A4640F63D01384620F038FFE0B96A469C
:1033000040F63A01384620F031FFA8B96A464FF43A
:103310000461384620F02AFF70B96A4640F645013C
:10332000384620F023FF38B96A4640F64101384656
:1033300020F01CFF00B900E014E06A4640F64201AC
:10334000384620F013FF68B96A4640F64301384614
:1033500020F00CFF30B96A4640F64901384620F0AB
:1033600005FF08B1022401E004B901246D1C708C32
:10337000C0F3C500A8423FF6F9AE204695E700002D
:103380000148406870470000000200207047C0F309
:103390000410072800D907207047000010B5182135
:1033A0000348FFF7A1FD03490120087010BD00008C
:1033B0001C230020680300202DE9F04190460D46B3
:1033C000040016D0FCF784FF29460B4D0646204624
:1033D000AA6890470746AA68E01941469047014607
:1033E0003846721A03E04318E35C2354401C8242BF
:1033F000F9D2BDE8F08100007C0300202DE9F04106
:10340000094C90460E4662681D460746194690478D
:10341000306020B128686268384400219047C8F8BD
:103420000000BDE8F08100007C0300202DE9F04F92
:1034300087B08A46DDE910581F46934604460021AE
:1034400005B129805CB12078002809D0BAF1000FBD
:1034500005D0002618F0060F15D0002004E000204B
:1034600007B0BDE8F08F401C215C0A2904D00D296B
:1034700002D00029F7D100E0401C002DF0D04FF021
:10348000FF312980ECE75FEA887001D541F6FF77CC
:10349000894608468DF81010059125E00598CDF86D
:1034A000189058B3002104ABCDE902310DF1180C8E
:1034B000CDE9008C20443B465A46514622F0D8FBC9
:1034C00006997A1A314417B20EB288B105990844A8
:1034D000059021780A290BD00D2909D0205C0A28F3
:1034E0000ED00D280CD00598205C08B1002FD5DC3B
:1034F000059848B105B12E800598B1E70121D2E7C2
:103500000598401C0590F3E7064A05A92046526835
:1035100090470146002DEFD00022504618F039F9AF
:1035200006B2E8E77C0300202DE9F0411746884603
:1035300006001ED0002F1CD0FCF7CAFE04463846F9
:10354000FCF7C6FE050014D00B4A2C444146926895
:1035500030469047411903E0621BB25C3255641E4D
:10356000A142F9D930442A463946BDE8F0411BF062
:10357000BDB9BDE8F08100007C0300200023027883
:10358000232902D0012A0DD00FE02AB10021012AFF
:1035900004D0022A04D008E0012101E0017004E017
:1035A000017001E0202902D0012318467047022152
:1035B000F6E72DE9F0410B460F4680460246002112
:1035C000084622F09BFD05460026401C1AF0FAFF33
:1035D000040008D066553B464246691C22F08EFD29
:1035E0002046BDE8F081FEE72DE9F04798461446F5
:1035F0000D468246DDF8209013E0660806FB08576A
:10360000394650464A469047002808DD44F30000FA
:10361000C0EB540407EB0805A4F1010401E005DA4E
:103620003446002CE9D12046BDE8F0873846FBE758
:103630002DE9FC5F0CAD9E4692468B4695E8120143
:10364000DDE91132DDE90F7C96074FF0300519D422
:1036500053B1D60708D002F00C0656EA080603D08C
:103660005B1E01E00D55641C644504D2202CF9D387
:1036700001E00D55641C5FEAC27903D09C4201D27F
:10368000202CF6D3D60624D556050AD44CB1644571
:1036900001D09C4205D1641E03D0102F03D1641EBB
:1036A00004E0102F02D0022F0AD00EE0960603D4B9
:1036B000202C1ED2782606E0202C1AD2582602E0B2
:1036C000202C16D262260E55641C202C11D20D55CA
:1036D000641C202C0DD2B8F1000F01D02D2506E07E
:1036E000550701D52B2502E0150702D520250D55DC
:1036F000641CCDE900EB064655468B46984691463C
:10370000900713D1274606E02A46DDE900316D1CFB
:103710002020B0477F1C4745F6D307E02A466D1CA2
:10372000641EDDE900311BF80400B047002CF5D120
:103730005FEA897006D409E02A46DDE900316D1C94
:103740002020B047A5EB0A014145F5D32846BDE846
:10375000FC9F2DE9F04F8FB099468B46DDE9181894
:10376000DDE91C63DDE91A4786469246002009B967
:1037700023F010035A0507AD00D5C9B1B1FBF4F22F
:1037800004FB1212D2B20A2A01D2303209E05FEAF7
:10379000836C02D54FF0410C01E04FF0610C6244A4
:1037A0000A3AB1FBF4F12A54401C09B12028E5D3B0
:1037B000CDF80880CDE90563CDE90050CDE9034798
:1037C0004B46524659467046FFF732FF0FB0BDE8F0
:1037D000F08F2DE9FF4F8FB01CACDDE9239594E805
:1037E000030820AC94E8C004002450EA010201D18F
:1037F00025F010056A050DF11C0802D550EA0102FA
:1038000017D032463B46FCF7FDFCD2B20A2A01D261
:10381000303206E0AB0601D5412300E061231A44B3
:103820000A3A08F80420641C50EA010201D0202C56
:10383000E7D3CDE90084CDF808B0CDE90595CDE911
:10384000036A0FAF97E80F00FFF7F2FE13B0BDE871
:10385000F08F9A4200D28854704770472DE9FF4F8D
:1038600095B09A46884606460025EEE1252877D190
:1038700000242746F94A0121039400E0044316F886
:10388000013F203B01FA03F01042F7D130782A289B
:1038900011D06FF02F033078A0F13002092A16D82A
:1038A000039A44F0020402EB820203EB420210444A
:1038B000761C0390EFE758F8042B0392002A03DAF2
:1038C000504244F40054039044F00204761C3078D3
:1038D0002E2816D116F8010F44F004042A280DD022
:1038E0006FF02F023078A0F13003092B09D807EBD5
:1038F000870302EB4303C718761CF3E758F8047BF1
:10390000761C30786C280FD006DC4C2817D068283D
:103910000DD06A2814D104E0742810D07A280FD171
:103920000DE044F400140AE044F4801401E044F48F
:1039300040147278824202D104F58014761C761C01
:10394000307866280BD013DC582877D009DC0028A3
:1039500075D04528F6D04628F4D047281AD193E1EF
:1039600018E0632835D0642879D0652812D18BE11E
:10397000702873D008DC6728F1D069286FD06E28D2
:103980000DD06F2806D1ACE073282CD0752874D0E8
:10399000782853D05246179990476D1C54E1C4F3D0
:1039A0000250022809D003280DD0D8F800100428AE
:1039B0000DD00D6008F1040846E1D8F80010EA17B0
:1039C000C1E90052F6E7D8F800100D80F2E70D705B
:1039D000F0E718F8041B8DF8001000208DF80100A6
:1039E000EB46012003E058F804BB4FF0FF306107BD
:1039F0004FF0000102D40DE009F101018946B942FE
:103A00000FDA8145F8DB1BF809100029F4D108E032
:103A100009F1010189468142FADB1BF809100029EE
:103A2000F6D103985346A0EB090721463846179A6A
:103A300000F080FA284400EB090507E044E008E1C3
:103A40000DE01BF8010B524617999047B9F1010997
:103A5000F7D2534621463846179AF2E039E00A2158
:103A6000C4F302524FF0000B0091022A06D058F81E
:103A7000040BC117032A09D00AE023E008F107006C
:103A800020F00702F2E80201904605E000B2C117FB
:103A9000042A01D140B2C117002906DA0A460021E2
:103AA000404261EB02012D2202E0220504D52B22C7
:103AB0008DF80420012203E0E20701D02022F7E77D
:103AC000914657E00A2100E010214FF0000B0091D1
:103AD0000BE010214FF0000B44F004040827009184
:103AE00003E008204FF0000B0090C4F30252022ABA
:103AF00005D058F8040B0021032A08D008E008F18B
:103B0000070020F00702F2E80201904603E080B2CD
:103B1000042A00D1C0B24FF0000922072AD532781A
:103B2000702A07D0DDF800C08CF0100C5CEA0B0C9A
:103B300005D00EE040228DF80420012208E050EA72
:103B4000010306D030238DF804308DF805200222C1
:103B50009146009B83F0080353EA0B030AD150EA15
:103B6000010201D1620705D530228DF804204FF003
:103B700001097F1E3278582A04D039A20C920CAA6F
:103B800002920BE03BA2F9E75B46009AFCF73AFB96
:103B90000C9B9B5C029A521E0292137050EA010227
:103BA000F2D1029804A9081A00F1200B600702D58F
:103BB00024F4803400E001275F4502DDA7EB0B0011
:103BC00000E0002000EB0B01009003984944401AEC
:103BD0000390E00306D453462146179A039800F059
:103BE000A9F90544002706E001A85246C05D1799CF
:103BF00090476D1C7F1C4F45F6DBE0030CD5534608
:103C00002146179A039800F095F9054404E0302006
:103C10005246179990476D1C0099481E0090002944
:103C2000F5DC08E00298029952460078491C02919E
:103C3000179990476D1CBBF10001ABF1010BF1DC52
:103C40005BE100F065F90544761C307800287FF4CC
:103C50000DAE19B02846BDE8F08F0000092801001C
:103C600030313233343536373839616263646566F2
:103C700000000000303132333435363738394142B4
:103C80004344454600000000600700D4062708F1C1
:103C9000070020F00700F0E80223804603F0004C04
:103CA0005FEA0C0001D097A009E0200501D596A09D
:103CB00005E0E00701D095A001E0AFF24C001390C1
:103CC000307823F0004365280CD006DC452809D065
:103CD00046281DD047287FD13BE0662818D06728AA
:103CE0007AD136E00021112F01DB112000E0781C91
:103CF000CDE9000104A90CA8FDF7AEFFDDE90D0137
:103D00000C9A4FF0000B07F10109109200914EE060
:103D10004FF000400097CDE9011004A90CA8FDF771
:103D20009BFFDDE90D020C9B0F994FF0000B9146B4
:103D30001093009211B9791C00EB0109B7EB09004F
:103D400003D4C0F1FF3B07F10109A9EB0700019083
:103D500042E0012F00DA01270021112F01DD11209F
:103D600000E03846CDE9000104A90CA8FDF774FF76
:103D7000DDE90D010C9A00914FF0000BB94610924D
:103D800021070FD4009A4A4503DA914601E0A9F1D0
:103D90000109B9F1010F05DD109AA9F10101515C8A
:103DA0003029F4D0B84202DA10F1040F03DA01210D
:103DB000CDE9011010E0002803DC8344A9EB0001E9
:103DC00002E0411C494500DD8946A0EB0B00401C88
:103DD00001904FF000400290200705D4019848451B
:103DE00002DB4FF0FF30019000208DF84B0002986D
:103DF0000DF14B07B0F1004F25D002200C902B2085
:103E00000D90029800280CDA404202902D200D906F
:103E100007E00A210298FCF787FC3031029007F88E
:103E2000011D0C99481E0C900029F2DC0298002814
:103E3000EFD1791E0D980870307800F0200040F026
:103E4000450007F8020D11A8C01BC01D0290139871
:103E5000007800B1012000EB0901019801EBE0714D
:103E6000029801440398401A401E0390E00306D4D0
:103E700053462146179A039800F05CF805441398BE
:103E8000007818B15246179990476D1CE00323D56E
:103E900053462146179A039800F04CF805441BE05E
:103EA000BBF1000F07DB0098584504DD1098179907
:103EB00010F80B0001E01799302052469047019806
:103EC0000BF1010B401E05F10105019004D12E20DC
:103ED0005246179990476D1CB9F10001A9F10109EB
:103EE000DEDC05E017F8010B5246179990476D1C70
:103EF0000299481E02900029F4DC53462146179A85
:103F000003989EE62D0000002B000000200000001A
:103F10002DE9F041044600251E461746880404D4C6
:103F200005E039462020B0476D1C641EF9D52846AF
:103F3000BDE8F0812DE9F041044600251E4690467B
:103F4000C80301D5302700E02027880404D505E008
:103F500041463846B0476D1C641EF9D52846BDE879
:103F6000F0810A68531C0B60107070472DE9FF4FF9
:103F700089B082460A980024169D002801D1DFF8F6
:103F8000F0A367E1252802D02246641CE2E1491C27
:103F9000002608460C9101782B291BD004DC20292F
:103FA0001BD0232904D11BE02D290ED0302909D0A4
:103FB0000027C8B2FDF712FFA8B10CA8FDF735FE27
:103FC00007461CE046F0010601E046F00206401CF0
:103FD0000C90E0E746F00406F9E746F00806F6E73D
:103FE00046F01006F3E70C9801782A2907D180CD16
:103FF000002F02DA46F002067F42401C0C900C981B
:104000004FF0000801782E2917D1401C0C9046F47F
:1040100080660078FDF7E2FE20B10CA8FDF705FEF2
:1040200080460AE00C9908782A2806D101CD00289C
:1040300000DC0020491C80460C910C9801786C290A
:104040000AD004DC68290FD06A2918D127E0742926
:1040500028D07A2913D125E0401C0C90017846F431
:1040600080766C291BD00AE0401C0C90017846F049
:104070008006682903D146F04006401C0C90024699
:104080000078692822D015DC62281FD00DDC252895
:1040900077D050281AD058287FF476AF16E046F42F
:1040A0000076EAE746F48076E7E763286AD064287A
:1040B000F2D10BE073286FD004DC6F2806D0702893
:1040C000EAD103E0752801D07828E5D178280DD011
:1040D00058280BD070280BD0502809D06F2816D044
:1040E000622816D00A2126F0100616E0102107E0FB
:1040F0005078102146F48876562804D1521C0C9230
:104100001078582807D01078502804D005E00821EE
:1041100008E0022106E046F020061078692803D066
:10412000642801D026F00C06700501D526F00106A2
:104130001078692813D0642811D0562854D0B005BF
:1041400060D5ED1D0020CDE90410CDF81880029057
:10415000CDE9077625F00705F5E8020121E0B00575
:1041600028D5ED1D25F007050023F5E802020DF125
:104170001009002A89E80A01CDE9077603DA01214E
:1041800002E0E4E070E000210023029119461B1ACE
:10419000914102DA114604E08EE00021404261EBD9
:1041A0000201CDE90001DDE90A1322465046FFF77E
:1041B00010FB4BE0F00503D501CD0BE0404210E0D1
:1041C000700602D515F8040B04E03006F4D535F876
:1041D000040B00B2CDE90218CDE90476C10F002826
:1041E000ECDDCDE900012BE001CD416809680091CB
:1041F00003680B98021B0A9801195046FFF7B6FE98
:10420000044424E0F00508D5CDE90218CDE9047690
:1042100002CD0020CDE9001012E0700602D515F89D
:10422000040B06E0300603D535F8040B80B200E03D
:1042300001CDCDE902180021CDE90001CDE90476D8
:10424000DDE90A1322465046FFF783FA04460C982C
:10425000401C0C900C99087800287FF493AE0B98C2
:1042600084427BD222467AE04FF00108B00707D59E
:104270000BE02246DDE90A13641C2020D446E04707
:10428000414608F10108B942F3D3DDE90A13224699
:1042900015F8040B641CD446E047B00706D4D6E7F3
:1042A0002246DDE90A13641C2020D047414608F16C
:1042B0000108B942F4D3CAE755F804BBB8F10000CD
:1042C0005A4601D0014601E04FF0FF31584600E068
:1042D000401C03780BB1491EFAD2A0EB020970050D
:1042E00005D548464146C14500D308468146B0073A
:1042F00007D514E02246DDE90A13641C2020D446C9
:10430000E047494609F10109B942F3D307E0DDE985
:104310000A1322460BF1010B641CD446E0479BF8BC
:10432000000020B17105F2D5B8F10108EFD2B00755
:1043300006D48CE72246DDE90A13641C2020D0470E
:10434000494609F10109B942F4D380E706E0224663
:10435000641C2520DDE90A13D04778E7421E034696
:1043600000200A99D0470DB02046BDE8F08F00002C
:104370005B38000810B503004FF000000DD04A1E56
:10438000114200D0FEE71944491E91430A46B1F597
:10439000804F02D20C2A01D9084610BD0C2010BD56
:1043A00008444A1E401E9043114200D0FEE7704769
:1043B0002DE9F0410446012000250F4660862E4677
:1043C0000BE01B49FBF78BFF10B16D1CADB202E097
:1043D000608E401C6086761CB6B257F8260010B17D
:1043E00001780029EDD1208EA8421ED0A06A0026B7
:1043F00010B11AF071F9A662E06A10B11AF06CF906
:10440000E662E8001AF0DEF8A06238B168001AF03F
:10441000D9F8E06218B1A16A11B102E0FEE7FEE747
:10442000002569001AF09EFA2586BDE8F08100009B
:10443000F06F01082DE9F84F8146407A0D4600F0F3
:104440000700022819D010468046954200DD2A4612
:10445000164603202A4F2B4B00EB460020F00304A6
:10446000B86819681034411A7A6804EB010C944555
:1044700005D2416821F0004124E00846E4E7944277
:1044800019D89A464FF0FF3B08197968884210D92D
:10449000002269461C48CDF800B00CF015FA002245
:1044A00069461A480CF010FAB968DAF80000091ADF
:1044B000EAE7B868DDE720461AF084F8C0B1416841
:1044C00041F0004188EA6502416089EA0201016029
:1044D000416801F04041491C31F0804141608681D2
:1044E000A0F80E8005D500F110018160BDE8F88FBD
:1044F000FEE7B96801F1100221448260B960F5E776
:1045000008020020580300206BD300084D0A010860
:1045100070B586B000228DF808208DF80C208DF83B
:104520001020414C90F83C20142502F00302A3789F
:104530004FF4B476012A23D0022A59D09A4211D0DE
:1045400010F8263F03EB031303EB4303B3FBF5F330
:104550002370407800EB001000EB4000B0FBF5F05A
:104560006070A27004AA03A8CDE9000201EB41002B
:104570004FF6FF7101EA400002AB627821781AE041
:104580009A4210D0838C03EB43035B02B3FBF6F338
:10459000A38090F8270000EB001000EB4000B0FB78
:1045A000F5F06070A27004AA03A8CDE90002C9B2B8
:1045B00002AB627836E008F00EFC9DF810009DF822
:1045C0000C10C308BDF80000890863F3040080B232
:1045D0009DF8082061F34A10D10880B261F3CF2022
:1045E000ADF8000080B20090BDF8000006B070BDCC
:1045F0009A4210D0838C03EB43035B02B3FBF6F3C8
:10460000A38090F8260000EB001000EB4000B0FB08
:10461000F5F02070A27004AA03A8CDE90002CAB286
:10462000217802ABA088C6E7B802002010B5084C7C
:10463000012020700748FEF73AFC0028A06803D04C
:10464000BDE8104021F0AAB9BDE8104021F09AB9A8
:104650003C0300204C23002010B5044690F83E0097
:10466000616B820707D4A28F3AB1A2F57F43FF3B6B
:1046700015D0521EA287A28F8AB909B182070ED522
:1046800021461348FEF77DFCFFF7D0FFE16809B132
:10469000204688472046BDE810401AF01DB8A26B9E
:1046A0005242E262002911D0820702D4226B5242A8
:1046B000E2624210521C62F3410084F83E00626ADA
:1046C000E069E2616062A06AA162606310BD0000FF
:1046D0004C23002070B5304E706821F02DF805464F
:1046E000707880F00100707047E00020307094F81E
:1046F0003E007178C0F380028A4242D061F38200AA
:1047000084F83E00E16A4A19030719D4002917DC2E
:10471000002A15DBC00709D1216939B12046884735
:10472000E1690144E161616A08446062A16809B11C
:104730002046884794F83E0040F0080084F83E0088
:10474000E06A4019E06216D4A16A884200DDE162A5
:10475000A169204688470146206A884204D0216228
:1047600062680AB120689047D4E90A01814202DBFD
:104770002046FFF771FF307818B10848FEF797FB25
:1047800003E021460548FEF7A4FB0400ADD120F06C
:10479000D9FF706070BD00003C0300204C23002056
:1047A00070B5044640680D4608B1FFF7F9FF22686E
:1047B000002A04D029462046BDE87040104770BD4D
:1047C00089B211F053BE89B211F08CBE0AF03EBE20
:1047D00070B515460E46044606E02046641CA4B299
:1047E00000F006F806F8010B6D1EADB2F5D270BDF3
:1047F00010B504460AF0DEFE200AA02101EB4000BD
:10480000C0B20AF0A7FE0AF01BFFE0B20AF0A2FE57
:104810000AF016FF0AF0CEFEA1200AF09BFE0AF075
:104820000FFF00200AF062FE04460AF0E9FE20466F
:1048300010BD70B514460D46064606E02978304690
:1048400000F007F8761CB6B26D1C641EA4B2F5D257
:1048500070BD70B50D4604460AF0ACFE200AA021DA
:1048600001EB4000C0B20AF075FE0AF0E9FEE0B2CA
:104870000AF070FE0AF0E4FE28460AF06BFE0AF029
:10488000DFFE0AF0BDFEBDE870400A2001F072BCF8
:1048900070B50D46044600F04DF800B1FEE76868BB
:1048A000616820F00300001D08446060204600F0AD
:1048B00049F8204670BD4068103120F0030088425E
:1048C00001D301207047002070472DE9FC470546C1
:1048D00048680C4620F0030001AA694621F007FF52
:1048E000DDE9006005EBC61101EB80098046D9F8CF
:1048F000340060B164B1C4E9020504F10807C46082
:1049000038460421FFF74CFD874202D0FEE7FEE760
:10491000FEE7C9F834400123286903FA06F1084389
:10492000286105EB860003FA08F142690A434261F7
:10493000BDE8FC87406830F0030001D000207047DC
:104940000120704710B5044600F08CF8046010BDDB
:104950002DE9FC474FF0000780460E0001973D46C9
:10496000009745D00C460DF1040AE946802907D38B
:10497000084626F0F3F8411F01208840401E0444F9
:104980004A465146204621F0B2FE019C082C2FDAFF
:1049900008EB8400009940694FF0FF3202FA01F100
:1049A000454608400CD1641C2869A240104016D02E
:1049B00026F0CCF80446019005EB8000406980B1F8
:1049C00026F0C4F805EBC411009001EB8000456BA4
:1049D00075B1686820F00300B04203D2FEE73D469F
:1049E000F6E7FEE7DDE900322946404623F028FAE3
:1049F0002846BDE8FC8710B50446FFF7A3FF4168D1
:104A000041F002014160606840F00100606010BD4B
:104A100010B5044600F026F8416821F0020141601B
:104A2000606820F00100606010BD70B506460D465C
:104A3000084600F017F8040008D0207910F0010FA4
:104A40000ED02846FFF776FF08B1FEE7FEE72146C5
:104A5000304600F03EF821462846FFF719FF05468C
:104A6000284670BD10B5426800F1080122F003022B
:104A7000121F8C18FFF75EFF00B1FEE7204610BD45
:104A800070B506460C004FF000001FD0FAB1207937
:104A9000154610F0010F1BD011462046FFF70BFF03
:104AA00078B12946204600F025F805462046FFF754
:104AB00049FF6868294640F0020068603046FFF709
:104AC00004FF2046FFF7A4FF04F1080070BDFEE7D5
:104AD000FEE77CB5054648680C4620F003006A46B0
:104AE00001A921F004FEDDE900322146284623F029
:104AF000A7F97CBD2DE9F0410D4604460830091F99
:104B00004618606806F1080720F00300401BA0F17A
:104B1000040838460421FFF743FC874200D0FEE733
:104B2000606808EB050120F00300091D884200D0F1
:104B3000FEE7307900F0030040EA0800706020F0E2
:104B400003000C2800D2FEE7207900F00300284380
:104B500060603046FFF74FFF3046BDE8F08138B562
:104B6000044618F03FF9054618F071F90028204670
:104B700005D0218FE1861CF0DFFE012038BD16F044
:104B8000F4FA002820461ED016F0C5F9218FE08ED9
:104B900081420CD02087E08E00906A461C2120467E
:104BA00016F01EFD0128E9D120461CF0C5FE28465E
:104BB00018F059F90428E0D120461BF0C3FA00216F
:104BC00017F0A3F9D9E716F02DFBD6E770B516F06C
:104BD00002FD05461BF0F9FA0446284612F0C0FA19
:104BE00001462046BDE87040012220F081B8000057
:104BF0002DE9F04F0C4687B0054600211BF0D5F992
:104C000060B32146284600F0FFFA2146284600F00E
:104C10001DF9002128461CF0FBF8059000212846CC
:104C20001CF0C8F90490002128461BF0BDFF0128A4
:104C300000D000208046002128461CF04EFB06468E
:104C4000002128461CF02EF842F2D17907464E4545
:104C50000BD1688C400508D4012607E007B0204638
:104C6000BDE8F04F1C2119F07DBE002628461BF040
:104C70001AFADFF878A0834628460021BAF8022005
:104C80001CF008FAD4F810C0A3682168CDF800C061
:104C9000CDF80C80CDE90131C2B231465846059BB2
:104CA0000AF072F820834F4504D1688C800501D446
:104CB000012600E0002628461BF0DBF907462846BF
:104CC0000021BAF806201CF0E5F9C2B2606900259F
:104CD0006368E1688DE82B0031463846049B0AF092
:104CE00053F8608307B0BDE8F08F00002C0200206D
:104CF000F0B589B0044616F06EFC0546204616F065
:104D00002CFC0646204616F068FC0446284612F0A5
:104D100027FA0146284612F0F9F905461C2E40D123
:104D200042A1FBF7DCFA002678B141A12846FBF747
:104D3000D6FA00284CD03FA12846FBF7D0FA00282D
:104D400051D0608F002858D062E004F13C07204623
:104D500067630546276310F034FE85F83800204667
:104D600010F011FE054694F83900E0B1324F0025ED
:104D700094F8391017F8350088420DD12FA1606AD8
:104D800020F070F807EBC5004168606A20F06AF80F
:104D90002AA1606A20F066F86D1C102DE8D384F813
:104DA000396009B0F0BDA06A20F0AFFA034624A232
:104DB000202101A800951EF0C7FF01A9606A20F01C
:104DC00051F801A9A06A20F0A3FB8021384606E033
:104DD0001DA1A06A20F09CFB802104F13C0019F089
:104DE000C1FD6687DDE7A06A20F09CF9618F04F1C0
:104DF0003B000E54608F401E15E0A06A20F085FA3B
:104E000011A1FBF76CFA18B90FA1A06A20F080FB82
:104E10002946A06A20F026F8294604F13C00FBF759
:104E20004BFA608F401C6087BBE700003D0000002C
:104E3000430000003C2D0000444C03080A00000021
:104E400025733D25640A0000000000002DE9F34FA2
:104E500081B00C46019809F011FA804601981BF0C8
:104E600022F98346404600F0F5FE2061400019F02B
:104E7000D5FB20602069400019F0D0FB002541F6E9
:104E80009A79A06035E038F91510454E49452FD183
:104E90000027DFF810A11CE0394601981BF085F8C7
:104EA000514600901CF089FA90B9009809F0F8F981
:104EB00001280DD1009809F0E9F9A84208D100981D
:104EC0001CF02EFAB04203DB00981CF029FA0646CB
:104ED0007F1C01981BF07BF8B842DDD8002E03DB65
:104EE000A06820F8156003E0A168002021F81500F3
:104EF0006D1C2069A842C6D800252F46284641F6D9
:104F00009B764A4615E038F91010B14204DB0D4497
:104F1000A5F5F8559B3D0BE0914204D1A16831F80D
:104F20001010394403E0A36823F8101039440FB27D
:104F3000401C21698142E6D8002101981BF068FFDE
:104F40002169C1F1010200FB02B0C01B01B20029BE
:104F500000DA002100224FF0FF37104610E038F948
:104F60001030B3420BDBA3F5F8539B3B1AB201FBA5
:104F700002F3B3FBF5F3A76827F810300746401C8F
:104F800023698342EBD8002F07DBA81A4843B0FB04
:104F9000F5F0081AA16821F81700BDE8FE8F00009F
:104FA00001E0FFFF010006002DE9F05F0022074647
:104FB00011461DF089FB002138461BF029FE0446EE
:104FC000002138461CF00BF820440FFA80F800212D
:104FD00038461BF0C9FE20440FFA80FB38461BF010
:104FE00089FD00EB080101EB0B000FFA80F9254C5D
:104FF00038461AF0ECFF8246002627E0B8682249BE
:10500000006850F8265028461CF0D7F9E8B9284621
:105010001CF0F4FC48BB002128461BF090FD20B397
:10502000012822D0022820D003281ED000212846A3
:105030001CF06FF948B9688BE98A401A401C00B22D
:105040004044A04200DB044624B2761C5645D5D32A
:1050500041F6FF70C44212D004EB0B0000B2494687
:10506000484500DC0846BDE8F09FB5F91A00B7F9DD
:105070001610401A411CA142E6DB0C46E4E7484604
:10508000F1E7000001E0FFFF010004002DE9F05FFF
:105090000022054611461DF001FB002128461BF0A9
:1050A000B7FD0446002128461BF030FF20440FFACC
:1050B00080F9002128461BF0CEFE20440FFA80F82C
:1050C00028461BF025FD00EB080101EB09000FFA53
:1050D00080FB4B4C28461AF07AFF82460021284676
:1050E0001BF04DFD01284FF000062CD06AE0A868A7
:1050F0004449006850F8267038461CF05EF908BB39
:1051000038461CF07BFC38BB002138461BF017FDED
:1051100010B3032820D006281ED008281CD0002158
:1051200038461CF0EFF868B907F11400074611F093
:10513000CDFA4844A04204DB384611F0C7FA00EB30
:10514000090424B2761C5645D1D341F6FF70C442FF
:1051500041D004EB08003DE0B5F91800B7F9141090
:10516000401A411CA142ECDB0C46EAE7A86825493D
:10517000006850F8267038461CF01FF908BB384606
:105180001CF03CFC88BB002138461BF0D8FC60B307
:1051900001282BD0042829D0072827D00021384601
:1051A0001CF0B7F868B907F11400074611F08EFA41
:1051B0004044A04204DB384611F088FA00EB0804B2
:1051C00024B2761C5645D1D341F6FF70C44202D0BA
:1051D00004EB090004B241F6FF70C442584602D005
:1051E0005C4500DD2046BDE8F09FFFE7B7F91800F9
:1051F000B5F91410401A411CA142E1DB0C46DFE76F
:1052000001E0FFFF010004002DE9F84F0C46834642
:1052100009F048FC804600F01DFD6061400019F077
:10522000FDF960606069400019F0F8F9002541F669
:105230009A79E06035E038F91510464E49452FD18E
:105240000027DFF814A11CE0394658461AF0ADFEDD
:10525000514600901CF0B1F890B9009809F0A6FCF6
:1052600001280DD1009809F097FCA84208D10098B8
:105270001AF06DFFB04203DB00981AF068FF064693
:105280007F1C58461AF0A3FEB842DDD8002E03DB7F
:10529000E06820F8156003E0E168002021F81500BF
:1052A0006D1C6069A842C6D800263546304641F6D6
:1052B0009B774A4615E038F91010B94204DB0E44DA
:1052C000A6F5F8569B3E0BE0914204D1E16831F817
:1052D0001010294403E0E36823F8101029440DB2AC
:1052E000401C61698142E6D8002158461BF062FEED
:1052F000814658461AF0BDFE6169C1F1010209FB01
:105300000200401B01B2002900DA002100254FF005
:10531000FF3328460FE038F91020BA420ADBA2F525
:10532000F8529B3A12B24A43B2FBF6F2D4F80CC0E0
:105330002CF81020401C62698242ECD8002B07DB5D
:10534000701B4843B0FBF6F0081AE16821F813001F
:10535000BDE8F88F01E0FFFF010006001CB50B88D7
:1053600004892344ADF800304B8844892344ADF8C8
:1053700002308B8804892344ADF80430C9884389FE
:105380001944ADF806104369694698471CBD0000F2
:10539000F8B50D46D0E90C21044682B1127872B1FD
:1053A00039B11FF0B2FF0E4909688847616B884226
:1053B00011D2206B88B100200A4E009006E061B146
:1053C000EFE7326869469047A84206D0206B009903
:1053D000415C0029F5D10020F8BD0120F8BD000096
:1053E00094030020800300202DE9FF4F87B0C87888
:1053F000189CC0070D46002801D0E64800E0E648AA
:10540000059001D0E54800E0E548824601D1E34837
:1054100000E0E34804906088A1884FF0000BA0EB07
:10542000010001B25A465846D4F810C010E000EB13
:1054300080034FF01007E66807EB8307F75DFF076F
:105440000AD0082707EB8303F35AC91A09B2401C94
:105450008445ECD8002043E00C2707EB8303F35A84
:105460001A4412B2F3E709EB89031020E66800EB57
:10547000830E16F80E00C00730D191FBF2F70C2016
:1054800000EB83000090305A7843042707EB830732
:1054900036F907C0062707EB8307F75F00B287429C
:1054A00001DD804600E0B846C44501DD674602E004
:1054B000874200DD0746874204D04FF0010C46F8D2
:1054C0000EC0E346E668082000EB83003752E3682D
:1054D0000098185A101A02B2C81B01B209F1010053
:1054E000236981464B45BED8BBF1000F93D1002103
:1054F00007981BF052FB012800D0002083460020B3
:10550000ADF80800ADF80C0003A902A8CDE9000130
:105510002089B4F9022003B22878169921F097FB6C
:10552000E97811EA0B0F07D007981AF0BCFDBDF817
:1055300008100844ADF80800099907981AF035FDDD
:105540000BE0984930461BF038FF78B1E87809AA9B
:10555000C0F38001079809F073F9060003D0DDE974
:1055600009018842EDD10BB0BDE8F08F0021304633
:105570001BF080FBE8B30027384621690FE0E268A2
:1055800000EB800352F82320B24207D100EB8002E7
:10559000E168082000EB82000F5E02E0401C8142BF
:1055A000EDD8E878C007708C02D040F4806001E04C
:1055B00040F40070708406F114008046514688471C
:1055C000B84228D030461CF0B7F9B08AADF80000D8
:1055D000F08AADF80200308BADF80400708BADF8A6
:1055E0000600059A3946404690476A4629213046CA
:1055F00000E00CE015F0F4FF30461AF0E6FD32460C
:10560000222115F0EDFF30461CF096F903E0708C76
:1056100020F4C060708468784FF0000901280FD032
:10562000022815D1049906F114008847B4F9001036
:10563000491C21F00101081A00EBD070401005E070
:10564000049906F1140088472188081A0FFA80F996
:10565000E87810EA0B0F08D006F11400514688478D
:10566000BDF80810081AADF808003046002143F2D2
:105670000C021BF00FFD0FFA80F83046002143F2B8
:105680000D021BF007FD07B230461BF049FE0090EB
:1056900030461AF05CFD0146C8F34130012810D1B4
:1056A00028F4C040B0F5FA6F0BDCB0F57A7F01DD6D
:1056B000C0F57A70009A5043642290FBF2F00FFA22
:1056C00080F8C7F3413001280ED127F4C040B0F56F
:1056D000FA6F09DCB0F57A7F01DDC0F57A704843D6
:1056E000642190FBF1F007B2B18A1498411A01EBE2
:1056F000080002B2F18A1598401A384401B2E878DD
:10570000C007002802D0BDF9080000E04846104458
:1057100007B201D0484601E0BDF9080008440FFA7D
:1057200080F857EA080019D030461CF005F9B08A15
:105730003844B082308B38443083F18A01EB080062
:10574000F082718B01EB0800708330461CF0F4F896
:1057500001234246394630461CF09EF9E87810EAAB
:105760000B0F0CD106F114005146884717990844D5
:10577000BDF80C100844BDF80810084406E0BDF858
:105780000C1017980844BDF80810081AADF8080066
:10579000DCE600009167010887670108FD660108E3
:1057A00075660108010006002DE9F04F8BB05FEA35
:1057B000010A054643D0A5F818A0286808B118F0DA
:1057C0008BFF0AEB4A00062101EB400018F0FAFEBD
:1057D000286058B3022202EB4A0101440422E96026
:1057E00002EB8A010144C5E9010101210024BAF15B
:1057F000010F1CD04FEACA00083018F00FFF064610
:1058000000EB8A074FEA8A0000B2ADF80000C0F151
:1058100001022146ADF802408010A146A346ADF832
:1058200024204C463F1D01910590B3E0FEE7B422D1
:105830000270E8680480E8684180A86804800BB0C2
:10584000BDE8F08F4FF00008BDF92400002808DC07
:10585000BDF80210032202EB41010844ADF8240018
:105860000DE0BDF80220BDF800100523521A03EB2D
:1058700042021044491EADF82400ADF80010BDF8F6
:105880000200401CADF80200684600F0F0F878B164
:10589000BDF9000005AB821043F8282001AA00F0F2
:1058A000030142F8281008F10108B8F1040FCBDB1E
:1058B000B8F1040F74D108990598884212D126F8DE
:1058C000140027F81490DDE901010844DDE9031212
:1058D0001144084469680855696800010855641C4A
:1058E00024B255E00699884219D026F8140027F80A
:1058F00014906A68019810556A6800011055641C7C
:10590000059A20B2521E26F8102027F81090DDE9E3
:1059100002120A440499091D11446A6832E0079989
:1059200026F814008842494627F8149015D0DDE97E
:10593000012010446A6810556A6800011055641C03
:10594000059A20B2521E26F8102027F81010DDE923
:105950000312114408316A6814E0DDE901021044C1
:10596000039A10446A6810556A6800011055641C57
:10597000059A20B2521E26F8102027F8101004991C
:105980006A680C3111546A6809011154401C04B250
:1059900009F10109684600F06AF800287FF452AF67
:1059A00006EB440240F2D3200AFB00F132F9022C4C
:1059B0008812824205D107EB440232F9022C82425E
:1059C0001AD0A1EB8021B1F5007F03DC494341F3FC
:1059D000CF3106E0C1F58061494341F3CF31C1F1D8
:1059E0000F0126F8140027F814006868015568684C
:1059F00009010155641C24B2A01E0DE037F81010F7
:105A000026F8141036F8101027F8141069680A5C8C
:105A10000A55641C24B2401E0028EFDAEB6800210E
:105A20000846A3F800B01CE0EA6822F81100AB6851
:105A300036F8102023F811200BE0D5F808C036F90D
:105A400010303CF811209A4200DB1A462CF8112045
:105A5000401C37F910208A4201D1A042EDDB491CDD
:105A600009B2A042E0DB304618F024FEE7E6B0F9C8
:105A70000210B0F90000814201DC012070470020D3
:105A8000704717B581B0022A03D8BDF8080004B0EA
:105A900010BDBDF80830BDF80400D90A01EBD021D3
:105AA0001F2900D31F2161F3CF20C3F34511C0F399
:105AB00045142144ADF804003F2900D33F2161F390
:105AC0004A1003F01F0100F01F031944ADF8040051
:105AD0001F2900D31F2161F30400ADF80400FF2A41
