:020000040800F2
:10000000E893002015030008D72C0008D32C000823
:10001000D52C0008A91900081D30000800000000B8
:10002000000000000000000000000000490200087D
:10003000AB190008000000008D020008B92D00086F
:100040002F0300082F0300082F030008412D00088C
:100050002F0300082F0300082F0300082F030008B8
:100060002F0300082F0300082F0300082F030008A8
:100070002F0300082F0300082F0300082F03000898
:100080002F0300082F0300082F0300082F03000888
:100090002F0300082F0300082F0300082F03000878
:1000A0002F0300082F0300082F0300082F03000868
:1000B0002F0300082F030008D52D00082F03000888
:1000C0002F0300082F0300082F0300082F03000848
:1000D0002F030008113000082F0300082F03000829
:1000E0002F0300082F0300082F0300082F03000828
:1000F0002F0300082F0300082F0300082F03000818
:100100002F0300082F030008092E00082F03000802
:100110002F0300082F0300082F0300082F030008F7
:100120002F0300082F0300082F0300082F030008E7
:1001300000F002F800F078F80AA090E8000C824481
:100140008344AAF10107DA4501D100F06DF8AFF25E
:10015000090EBAE80F0013F0010F18BFFB1A43F0A5
:10016000010318475C7003007C7003000A444FF0E1
:10017000000C10F8013B13F0070408BF10F8014B06
:100180001D1108BF10F8015B641E05D010F8016B4B
:10019000641E01F8016BF9D113F0080F1EBF10F8AF
:1001A000014BAD1C0C1B09D16D1E58BF01F801CBD2
:1001B000FAD505E014F8016B01F8016B6D1EF9D555
:1001C0009142D6D37047000000230024002500266A
:1001D000103A28BF78C1FBD8520728BF30C148BFAA
:1001E0000B60704766292FF0C083642900F09A8164
:1001F000752900F09781782900F0D081632900F0FB
:100200009C86732900F0A186002070471FB500F07E
:10021000CAFA00F0FFFB0400002000212EF034FE9B
:10022000E0601FBD10B510BD00F0C8FF1146FFF71C
:10023000EDFF26F0FBFE00F0E6FF03B4FFF7F2FF50
:1002400003BC04F06DFC0000224B19680868B0E89C
:10025000F00F80F30988BFF36F8F4FF0000080F339
:1002600011884EF00D0E704700000000064800682F
:10027000006880F3088862B661B6BFF34F8FBFF3A2
:100280006F8F00DF00BF00BF08ED00E0EFF30980D3
:10029000BFF36F8F0F4B1A6820E9F00F106008B59D
:1002A0004FF0500080F31188BFF34F8FBFF36F8F73
:1002B0002DF0B4FF4FF0000080F31188BDE8084036
:1002C00019680868B0E8F00F80F30988BFF36F8FF2
:1002D000704700BFC4030020EFF3058070470000A3
:1002E0000B49D1F800C04A685CF8043B1068184418
:1002F00042F8040B8C4528BFA1F1DC0C8A4228BFD0
:10030000A1F1DC02C1F800C04A6020F00040704753
:10031000808D00200948804709480047FEE7FEE736
:10032000FEE7FEE7FEE7FEE7FEE7FEE7FEE7FEE7A5
:1003300004480549054A064B70470000D12D0008C6
:1003400031010008E88D0020E8930020E88F0020AC
:10035000E88F0020704753EA020C00F069802DE915
:10036000F04B4FF00006002B1FBFB3FA83F503FAE2
:1003700005F424FA05F65E4012BF1643B2FA82F580
:1003800002FA05F4C5F120051EBF22FA05FC44EA75
:100390000C04203556EA044C4FEA144418BF641C80
:1003A0004FF000084FF00009904271EB030C39D375
:1003B000002919BFB1FA81F701FA07F6B0FA80F700
:1003C00000FA07F6C7F120071EBF20FA07FC46EA2D
:1003D0000C062037B6FBF4FCA7EB0507103F07F02F
:1003E0001F0BCBF120060CFA0BFB2CFA06F644BFD0
:1003F000B3460026202FA4BF5E464FF0000B5BEAF9
:10040000060C08BF4FF0010B19EB0B09ABFB027C8C
:1004100048EB0608C01B06FB02CC0BFB03CC71EBC0
:100420000C01C1E70B46024641464846BDE8F08B49
:1004300013B54FF000004FF00001AFF30080BDE8AE
:100440001C4070470FB4044910B503AA029800F08D
:1004500081FD10BC5DF814FB180000200FB41CB522
:10046000074B06AA7B4469460090059800F043FDBF
:100470000020694600F052FD1CBC5DF814FB000032
:10048000B50A000070B5044685690068C10601D54B
:10049000302600E02026C00707D070BDD4E9012136
:1004A00030469047206A401C20626D1EF6D570BD14
:1004B00070B5044685690078C00707D170BDD4E9DE
:1004C000012120209047206A401C20626D1EF6D535
:1004D00070BD70B50C460546012A05D02878800607
:1004E00000D5EA69002302E0012305E05B1C93428A
:1004F00002D2E05C0028F9D1A869E618C01AA86108
:10050000286A184428622846FFF7BCFF04E0D5E9B2
:10051000012114F8010B9047B442F8D32846FFF7A5
:10052000C7FF70BD2DE9F04106460024106875290B
:10053000314616A510D0AFF30080002802DA404201
:1005400013A507E031688A0701D512A502E0490723
:1005500004D511A5012401E0AFF3008000210A2297
:1005600006F1240709E0B0FBF2FCB0FBF2F302FB5A
:100570001C00303078541846491C0028F3D123461B
:100580002A463046BDE8F04100F048BA00000000BD
:100590002D0000002B0000002000000070B5044674
:1005A0000D4621461068AFF300802188090502D569
:1005B0000F4A7A4402E00E4A7A440E32002104F1D6
:1005C000240305E000F00F060009965D5E54491C07
:1005D0000028F7D120780023000704D5702D02D021
:1005E00009B1022311322046BDE8704000F016BA6E
:1005F000F26403002DE9F05F894604464FF0000ADB
:10060000DFF874B1FB44C0F820A02046E1688847B9
:10061000002874D0252806D0D4E901219047206A0B
:10062000401C2062F1E700265F462046E1688847CB
:100630002028054607DB312D05D2781910F8200C4B
:1006400008B10643F1E7B00701D526F00406C4F867
:100650001CA00027C4F818A02A2D09D0284602F0B3
:1006600020FD38B304EB8708303DC8F8185019E076
:1006700059F8041B204604EB87029161E168884722
:10068000012F054618D1E069002820DA26F020065F
:100690001DE0D8F8180000EB800005EB4000303872
:1006A000C8F818002046E1688847054602F0F9FCC2
:1006B0000028EED1012F0AD02E2D08D12046E16866
:1006C00088477F1C0546022F46F02006C4DBA06940
:1006D000002803DA404246F00106A061F00701D08D
:1006E00026F010066C2D0BD0682D09D04C2D39D07A
:1006F0006A2D35D0742D35D07A2D33D016E038E000
:10070000E1682F4620468847B842054609D16C2F3C
:1007100026D04FF48060E1680643204688470546AE
:1007200004E06C2F1AD04FF4807006430DB3A5F18E
:100730004100192802D8203546F400664A46294669
:10074000204626604E46FFF74DFD80B101280BD0B4
:10075000F61D26F0070000F1080956E74020E4E7FF
:100760008020D8E70020D6E706F104094DE72846A7
:1007700052E7206ABDE8F09FC86403000B4910B53A
:10078000A1F17C020A4CC2E93712372106E000EBE6
:10079000104342F82130074B00FB03400B1EA1F130
:1007A0000101F4DC10BD0120E8E70000208D0020ED
:1007B000E119D666CD0D010040EA0103024630B5CD
:1007C0009B0710D14FF0013400E008C208C91D1B7F
:1007D0009D4315EAC41FF8D013F0FF0102F8011B76
:1007E0000DD01B0AF8E711F8013B002B02F8013B82
:1007F00005D011F8013B002B02F8013BF3D130BDCD
:1008000010B5431C02E010F8011B71B18107FAD149
:100810004FF0013202C88C1A8C4314EAC211F9D08D
:10082000C01A0A0603D0C01E10BDC01A10BD0A04AB
:1008300001D0801E10BD0902FCD0401E10BD032A4D
:1008400040F2308010F0030C00F0158011F8013BED
:10085000BCF1020F624498BF11F801CB00F8013BD4
:1008600038BF11F8013BA2F1040298BF00F801CB98
:1008700038BF00F8013B11F0030300F02580083A6F
:10088000C0F0088051F8043B083A51F804CBA0E8C6
:100890000810F5E7121D5CBF51F8043B40F8043B1B
:1008A000AFF30080D20724BF11F8013B11F801CB50
:1008B00048BF11F8012B24BF00F8013B00F801CB21
:1008C00048BF00F8012B704710B5203AC0F00B80EC
:1008D000B1E81850203AA0E81850B1E81850A0E844
:1008E0001850BFF4F5AF5FEA027C24BFB1E818509E
:1008F000A0E8185044BF18C918C0BDE810405FEA0E
:10090000827C24BF51F8043B40F8043B08BF704789
:10091000D20728BF31F8023B48BF11F8012B28BF8E
:1009200020F8023B48BF00F8012B704702F0FF039C
:1009300043EA032242EA024200F020BB4FF00002E9
:1009400000B5134694469646203922BFA0E80C50C5
:10095000A0E80C50B1F12001BFF4F7AF090728BFA0
:10096000A0E80C5048BF0CC05DF804EB890028BF1C
:1009700040F8042B08BF704748BF20F8022B11F045
:10098000804F18BF00F8012B704700004FF0013C6A
:1009900050F8042B51F8043B9A4221D1A2EB0C03EE
:1009A000934313EACC1317D150F8042B51F8043BAE
:1009B0009A4215D1A2EB0C03934313EACC130BD14B
:1009C00050F8042B51F8043B9A4209D1A2EB0C03D6
:1009D000934313EACC13DBD04FF00000704700BF05
:1009E000D01A01BAB1FA81F101F0180122FA01F02E
:1009F000CB40C1F12001DBB2C0B2C01A2CFA01F326
:100A0000D11A914311EAC311E6D17047704770477C
:100A10007047704700487047A88D00202DE9F047C7
:100A20000D4699469246044600F12408016888065E
:100A300004D5E06921F01001216000E00120A84206
:100A400001DD471B00E00027A1697A1902EB0900CC
:100A5000081AA0612078C00602D42046FFF712FDD4
:100A6000002608E0D4E901211AF806009047206A20
:100A7000401C761C20624E45F4DB2078C0060AD567
:100A80002046FFF7FFFC06E0D4E901213020904723
:100A9000206A401C2062381EA7F10107F4DC07E041
:100AA000D4E9012118F805009047206A401C206213
:100AB000281EA5F10105F3DC2046FFF7F9FC20789C
:100AC000000602D50220BDE8F0870120FBE7704751
:100AD0002DE9FF4F0C461E464FF0FF378BB0D2E991
:100AE0000001DDF860800A908A46C1F30A5505B915
:100AF0003D46002108464FF00000BAF1000F00F417
:100B0000400005DA00EB80004FF4400101EA50009C
:100B10004FEA9059B9F1010F00DDB9460A9850EA41
:100B20004A000ED044F61050A5F2FF3545432F146D
:100B3000B8F1000F1ED07542291E1EDDC9F100025A
:100B40001CE0B8F1010F4FF0000001D0302103E0AC
:100B5000F24305E02154401CB042FBDB304600224A
:100B6000002121540B99C1F80880C1E900200FB081
:100B7000BDE8F08FBD1B6D1CDEE74A4600DA694216
:100B800006A800F0A5FA06AB93E8070003AB83E8DC
:100B9000070050460A9900F03FFB8DE80700A0F5DA
:100BA00000501F3800900398002D0ADD42F21F010B
:100BB0004A460844002303A90390684600F0A8FDB4
:100BC00009E0A0F500504A461F38002303A903900E
:100BD000684600F0B2FD8DE807000004000C03D069
:100BE0004FF0FF30410800E01046B8F1000F03D08D
:100BF0000022009215461EE0751E05D400F0E2F9B1
:100C0000303262556D1EF9D5B3460122084302D039
:100C100000227F1C04E02078302801D100227F1EB2
:100C2000002A099784D01DE0112D07DA00F0CAF9D7
:100C3000303262556D1C50EA0102F5D1084302D0F2
:100C40000098C8B10EE00021681E05E0235C625CDC
:100C500063542254401E491C8142F7DBAB46A81B5B
:100C6000401E0990002004F80B000B98099AC0F868
:100C70000880C0E9002B7AE711264FF0000857E7FB
:100C80002DE9F04F88460446D21D22F0070191B0AD
:100C9000D1E90001CDE90A0102F0C1F902460B9841
:100CA000C00F01D02D2007E02068810701D52B203F
:100CB00002E0202101EAC000032A099001D0072A9E
:100CC00005DB03464146204600F0C2F90BE12078DF
:100CD000800601D5E06900E00620B8F1650F814685
:100CE00006D0B8F1660F18D0B8F1670F70D131E0B7
:100CF0000020B9F1110F009001DB112301E009F18F
:100D000001030AAA01A90CA8FFF7E2FEDDE90C70B5
:100D1000002609F10105834647E001204B4600907B
:100D20004FF000470AAA01A90CA8FFF7D1FEDDE9A0
:100D30000DB00C995D46002610B909F101000D189F
:100D4000B9EB050003D4C0F1FF3609F10105A5EBAD
:100D500009002BE0B9F1010F01DA4FF00109002081
:100D6000B9F1110F0090484601DD112300E0034660
:100D70000AAA01A90CA8FFF7ABFEDDE90C704D46ED
:100D800000268346207800070AD4AB4500DA5D468A
:100D900001A8012D04DD411911F8011C302907D0EB
:100DA0004F4502DA17F1040F04DA012082460FE002
:100DB0006D1EEEE7002F02DCED1B3E4403E0781CC5
:100DC000A84200DD7D1CB81B00F1010A4FF000476E
:100DD0002078000703D4AA4501DB4FF0FF3A002139
:100DE000B7F1004F0DF143088DF8431024D00220D5
:100DF0002B23002F01DA7F422D230A21021EA0F1AE
:100E0000010000DC5FB197FBF1FC97FBF1F201FB05
:100E10001C7C17460CF1300C08F801CDEEE7A8F168
:100E2000010003702188090501D5452100E06521F5
:100E3000A0F1010800F8011C09980FA9A1EB08070F
:100E4000FF1D00B10120411901EBEA70A16938448E
:100E5000081A401EA0612078C00602D42046FFF781
:100E600011FB099828B1D4E901219047206A401C60
:100E700020622078C00622D52046FFF703FB1EE043
:100E8000002E04DBB34502DD01A8805D00E03020C8
:100E9000D4E901219047206A401C2062761CAAF107
:100EA00001005FEA000A0AD1FFF7B4FDC0680168DB
:100EB000405CD4E901219047206A401C2062281E32
:100EC000A5F10105DCDC07E0D4E9012118F8010BEC
:100ED0009047206A401C2062381EA7F10107F3DC0E
:100EE0002046FFF7E5FA032011B041E601694A1CEC
:100EF00002610878704700B58FB0CDE9013100215B
:100F0000059105497944CDE9031011466846FFF77C
:100F100071FB0FB000BD0000E5FFFFFF0A6802F89B
:100F2000010B0A60704710B5436913B1AFF300803D
:100F300001E0FFF7CEFA012010BD127800F1240184
:100F40000A7000224A700122EDE711684FF0FF326B
:100F5000E9E70000074B70B50D467B44FFF7CBFF78
:100F60000446284600F026F910B14FF0FF3070BD5E
:100F7000204670BDBBD900004FF000020429C0F02C
:100F8000128010F0030C3FF4DBACCCF1040CBCF18C
:100F9000020F18BF00F8012BA8BF20F8022BA1EB0D
:100FA0000C01FFF7CDBC5FEAC17C24BF00F8012B28
:100FB00000F8012B48BF00F8012B7047004870472C
:100FC000888D002030B5B0F10A024FEA900E71F121
:100FD00000034EEA817EB0EB0E0061EB91014FEA17
:100FE000101E4EEA017E10EB0E0041EB11114FEA8C
:100FF000102E4EEA016E10EB0E0041EB11214FEA6C
:10100000104E4EEA014E10EB0E0041EB114140181C
:1010100041F100014FEAD00040EA41704FEAD101AE
:1010200010EB80054FEA810444EA907444EB01041C
:101030006D1944EB0404521BA3414FF0000348BF59
:101040000A3200D530BD401C41F1000130BD000026
:101050002DE9F0411F46044603260168072A01F4E2
:10106000006004DB08B116A505E016A503E008B191
:1010700015A500E015A521F010002060A069C01E94
:10108000A0610FB1401EA0612046FFF7FBF94FB1F0
:10109000D4E9012138469047206A401C2062C01CD8
:1010A000206206E0206AFAE7D4E9012115F8010B75
:1010B0009047761EF8D22046FFF7FAF9BDE8F08196
:1010C0004E414E006E616E00494E4600696E6600EC
:1010D0002DE9F047814616468AB0354878440DC858
:1010E0008DE80D0032487844801C03AC0DC884E8BC
:1010F0000D0041F69B300844372190FBF1F290FB44
:10110000F1F5A5F1800501FB12041B3C02D56442F8
:10111000012000E00020DFF898A080460027FA4474
:10112000AAF1BE0A0EE0E0070AD03246684607EB95
:10113000470101230AEB810100F0FFFA8DE8070067
:1011400064107F1C002CEED1194F7F44AE3F19E094
:10115000E80715D007EB04100DF1180A90E80E000F
:101160008AE80E00C068F04201D198190890324612
:10117000012306A903A800F0E0FA03AB83E8070007
:101180006D10641C002DE3D14FF001033246694617
:10119000B8F1000F03A802D000F0BAFA01E000F0A5
:1011A000CCFAC9E90001C9F808200AB0BDE8F08707
:1011B000805A0300007B00F0800070477546FFF7FF
:1011C000FDFEAE4605006946534620F00700854601
:1011D00018B020B5FFF7ACF8BDE820404FF000068E
:1011E0004FF000074FF000084FF0000B21F007010F
:1011F000AC46ACE8C009ACE8C009ACE8C009ACE852
:10120000C0098D46704710B50446AFF300802046F4
:10121000BDE81040FFF711B85FEA400C08BF91F03D
:10122000000F4FEA8C234FEAC12243EA51514FEAA3
:101230001C5018BF00F5F0404FEA300018BF41F0D5
:1012400000415FEA6C5C00F02980BCF1FF3F08BF01
:1012500040F080407047130C06BF12044FF0100C92
:101260004FF0000C130E04BF12020CF1080C130F08
:1012700004BF12010CF1040C930F04BF92000CF197
:10128000020CD30F04BF52000CF1010C11464FF0B9
:101290000002A0F11F00A0EB0C00704711F0004FFE
:1012A00008BF704731F000413FF4D5AF0B0C06BFCB
:1012B00009044FF0100C4FF0000C0B0E04BF090294
:1012C0000CF1080C0B0F04BF09010CF1040C8B0F7F
:1012D00004BF89000CF1020CCB0F04BF49000CF1D4
:1012E000010CCCF12003A0EB0C0022FA03F302FA6C
:1012F0000CF241EA030100F10100704720F07F4C3D
:1013000080EA030023F07F47ACEB070303F57C532F
:1013100000F0004003F1FF032DE980494FEA154B2F
:1013200009B44FEA144325EA0B4E24EA03480FF2AE
:10133000042606EB132749083E785FEA320203FBD6
:101340000667C7F5000707FB06F64FEA54374FEA72
:10135000D64606F1020607FB066CCCF1005C4FEAAC
:101360001C472CEA074C07FB06F40CFB06F504EBC4
:1013700015464FEA961634BF00204FF000404FEA62
:10138000D13706FB07FC4FEA1C4C0CFB0BF7D21BBA
:1013900003FB0CF761EB07010CFB0EF7B0EB07400A
:1013A00072EB17420CFB08F734BFA2EB0742B2EB1B
:1013B000074261EB17414FEA0C444FEA910706FBE5
:1013C00007FC4FEA1C4C0CFB0BF7B0EBC74072EB71
:1013D000573203FB0CF734BFA2EBC742B2EBC74254
:1013E00061EB57310CFB0EF7B0EBC70072EB577295
:1013F0000CFB08F734BFA2EBC702B2EBC70261EBEC
:101400005771039F4FEA816141EA921104EBCC04CA
:101410004FEAD1374FEA826206FB07FC42EA90129C
:101420004FEA80604FEA1C4C0CFB0BF7D21B03FB0E
:101430000CF761EB07010CFB0EF7B0EB074072EB0A
:1014400017420CFB08F734BFA2EB0742B2EB07428E
:1014500061EB17414FEA8C554FEA910704EB9C244E
:1014600006FB07FC4FEA1C4C0CFB0BF7B0EBC7402C
:1014700072EB573203FB0CF734BFA2EBC742B2EB5F
:10148000C74261EB57310CFB0EF7B0EBC70072EBB4
:1014900057720CFB08F734BFA2EBC702B2EBC702CE
:1014A00061EB577115EB4C254FEA816141EA9211CE
:1014B0004FEA82624FEAD13742EA901206FB07FCFC
:1014C00044F100044FEA80604FEA1C4C0CFB0BF720
:1014D000D21B03FB0CF761EB07010CFB0EF7B0EB23
:1014E000074072EB17420CFB08F734BFA2EB074230
:1014F000B2EB074261EB174115EB1C154FEA813146
:1015000041EA92414FEA823242EA90424FEA803009
:101510004FEA0C7644F1000448EA03434EEA0B48D4
:101520004FF0000EB2EB080C71EB030724BF6246CC
:1015300039464EEB0E0E4FF0000B00185241494158
:101540004BEB0B0BB2EB080C71EB03077BF1000BC1
:1015500024BF624639464EEB0E0E4FF0000B0018CA
:10156000524149414BEB0B0BB2EB080C71EB0307FB
:101570007BF1000B24BF624639464EEB0E0E51EA5A
:10158000020718BF46F0010616EB0E7655F1000271
:1015900054F1000103D5BDE88901BDE80088BDE82C
:1015A0008901BDE80048B619524141EB0101A3F1A0
:1015B0000103704780807F7E7D7C7B7A79787776A7
:1015C00076757473727171706F6E6E6D6C6C6B6A20
:1015D0006A696868676666656464636362616160BE
:1015E000605F5F5E5E5D5D5C5C5B5B5A5A5959583B
:1015F00058575756565555555454535352525251A5
:10160000515050504F4F4F4E4E4D4D4D4C4C4C4BFA
:101610004B4B4A4A4A494949484848474747474641
:10162000464645454544444444434343434242427D
:1016300042414141002B9C4630D477002BD01CB551
:101640004FEA370703B44FF010004FF01001BAF122
:10165000000F06D0BCF1000FDCBF40F0080040F0E6
:1016600008014FF000000FBCBDE810400BF1010B6A
:10167000BBF1010F08BF5FEA170722BF12F1010299
:1016800011F101014FF0004143F1000300F000406F
:1016900043EA00007047F9D35708D0E746EA064608
:1016A00013F1400F4FEA16461FDD13F1200FDFBF85
:1016B00016430A46002120335B42BED0C3F1200707
:1016C00046EA064602FA07F74FEA164646EA0706D2
:1016D000C3F1200722FA03F201FA07F721FA03F116
:1016E0004FF0000342EA0702A7E746EA020646EA8D
:1016F00006464FEA164646EA0106BCBF46EA0646DB
:10170000360C4FF000034FF000024FF0000194E759
:101710002DE9804C9A46934670B491E8380007C88A
:1017200031EA400C48BF34EA430C03D5FFF7E6FD2D
:10173000FFF780FFF0BCBDE8008C2DE9804C9A4695
:10174000934670B491E8380007C810F0804F08BF86
:1017500013F0804F03D100F005F8FFF76BFFF0BCEA
:10176000BDE8008C20F07F4780EA030023F07F4C27
:1017700007EB0C03A3F57C5300F00040A3F1FE033C
:1017800092F0000F00F0B38095F0000F00F077802A
:101790002DE901494FEA11404FEA144621EA004879
:1017A00000FB06FC24EA064708FB06F607FB08F8E0
:1017B00000FB07F718EB06484CEB164C4FEA124BB0
:1017C00018EB07484FEA15464CEB174022EA0B4E40
:1017D0000BFB06FC25EA06470EFB06F607FB0EFE92
:1017E0000BFB07F71EEB064E4CEB164C4FF00006BA
:1017F0001EEB074E4CEB174B18EB0B0840F10000AB
:1018000018EB0E0B58EB000840F100008F1A4FF058
:1018100000013CBFC943661B14BFB5EB040C00219B
:101820003CBFC943F61B4FEA17444EEA8E0E27EA27
:1018300004454FEA1C4704FB07622CEA074C05FBF2
:1018400007F70CFB05F604FB0CFC16EB074642EB16
:10185000174216EB0C4642EB1C421BEB060658EBFC
:101860000202414146EA9E0601D5BDE80189B6194A
:10187000524141EB0101A3F10103BDE801894FEAA7
:1018800014454FEA114724EA054621EA074C05FBB7
:1018900007F406FB07F70CFB06F105FB0CFC11EB4C
:1018A000074144EB17444FEA124711EB0C4144EB5C
:1018B0001C4422EA074C05FB07F206FB07F70CFB6A
:1018C00006F605FB0CFC16EB074642EB174216EB3F
:1018D0000C4642EB1C456A1854F1000148BF7047A2
:1018E000B619524141EB0101A3F10103704795F094
:1018F000000F37D04FEA11424FEA144721EA02465F
:1019000024EA074C02FB07F106FB07F70CFB06F481
:1019100002FB0CFC14EB074441EB17414FEA15475F
:1019200014EB0C4441EB1C4125EA074C02FB07F584
:1019300006FB07F70CFB06F602FB0CFC16EB074652
:1019400045EB174516EB0C4645EB1C42121951F1BD
:10195000000148BF7047B619524141EB0101A3F1A4
:10196000010370474FEA14454FEA114724EA054640
:1019700021EA074C05FB07F106FB07F70CFB06F213
:101980004FF0000605FB0CFC12EB074241EB174140
:1019900012EB0C4251EB1C4148BF7047921841EBCF
:1019A0000101A3F101037047FEE770472DE9F05FE5
:1019B00090F821100024022903D00421816301241E
:1019C00085E001680A6822F00E020A6001680A6870
:1019D00022F001020A603F4E3E4FB215DFF8F4C01C
:1019E000DFF8F090DFF8ECA0DFF8E8B0DFF8E4E033
:1019F0000168783F13011502ACF1640CA9F150099C
:101A0000AAF13C0AABF1280BAEF1140E4FF480188A
:101A1000B14227D9B9420ED0614512D049451DD0F7
:101A2000514518D0594518D0714501D1424615E0AD
:101A3000294EB14201D1012210E0274E1436B142A5
:101A400001D110220AE0244E2836B14206D0224AA3
:101A50003C32914201D11A4600E02A461E49091F34
:101A60000A602BE0B94213D0614517D0494522D016
:101A700051451DD059451DD0714501D142461AE04E
:101A8000B14202D14FF0807215E0134EB14201D144
:101A9000012210E0104E1436B14201D110220AE0AA
:101AA0000D4E2836B14206D00B4A3C32914201D14C
:101AB0001A4600E02A46074980394A60012180F829
:101AC0002110002180F82010416B01B18847204689
:101AD000BDE8F09F80000240080402402DE9F84F65
:101AE000DFF8C091002409F1040A0AF1040B23462F
:101AF0004FF00F080BF1040ECCE00127A7403A404D
:101B0000BA4272D1DFF8A0C14D68A5EB0C0665455D
:101B10002BD00DDC032D34D005DC35B3012D19D0CD
:101B2000022D2FD11BE0112D16D0122D2AD119E034
:101B3000B6F5881F19D006DCB6F5803F15D0B6F58E
:101B4000801F1FD111E0B6F5001F0ED0B6F5041F9F
:101B500018D10AE0CB6815E0CB681B1D12E0CB68FA
:101B600008330FE0CB680C330CE08B682BB1012BF2
:101B70004FF0080303D0476104E0042302E007614B
:101B800000E00023FF2A01D8064601E000F1040628
:101B90004FEA840501D9A5F12005376808FA05FC4C
:101BA00027EA0C0703FA05F547EA050737604D6891
:101BB000ED006ED53D4DAE6946F00106AE61AD69F2
:101BC00024F0030605F001050095394D7719BE682C
:101BD000A5072D0F08FA05FC26EA0C06DFF8D4C08D
:101BE000604503D14FF0000C25E052E0DFF8C8C09B
:101BF000604502D14FF0010C1DE0DFF8C0C0604528
:101C000002D14FF0020C16E0DFF8B4C0604502D1FB
:101C10004FF0030C0FE0DFF8ACC0604502D14FF08D
:101C2000040C08E0DFF8A0C0604502D14FF0050CBD
:101C300001E04FF0060C0CFA05FC4CEA060CC7F864
:101C400008C04D68D9F80060ED034D4601D5164334
:101C500000E096432E604D68DAF80060AD0355460B
:101C600001D5164300E096432E604D68DBF8006016
:101C7000ED025D4601D5164300E096432E604D68A7
:101C8000DEF80060AD02754601D5164300E09643CC
:101C90002E60641C0A6832FA04F57FF42EAFBDE8AA
:101CA000F88F0000000401400000111000100240F5
:101CB0000000014000080140000C014000100140FC
:101CC0000014014000180140001C014080680840D9
:101CD00000D0012070470AB1016170470904FBE799
:101CE00001488068704700001C000020024881689D
:101CF00002781144816070471C000020074810B52D
:101D0000016841F010010160052000F057F80F2034
:101D100000F006F800F024F8002010BD002002407A
:101D200070B50D4D04464FF47A712878B1FBF0F090
:101D30000A490968B1FBF0F000F07FFC48B9102CAB
:101D400007D200222146501E00F018F800206C60D7
:101D500070BD012070BD00001C00002000000020AC
:101D60007047002809DB00F01F0201219140400963
:101D7000800000F1E020C0F800117047F0B40E4B75
:101D80001B68C3F30223C3F10704042C00D9042405
:101D90001D1D072D01D2002300E0DB1E012606FADF
:101DA00004F56D1E0D409D409E40761E164045EA8E
:101DB0000601F0BC01F047B90CED00E0064A00F066
:101DC000070110684FF6FF03184040EA012003495D
:101DD00008431060704700000CED00E00000FA05B9
:101DE000014901200862704700000E4210B501460B
:101DF0002BA086B01DC88DE81D002DA02D4C0068BD
:101E00000490002004292FD00BDC01292FD00229B7
:101E100028D100F075F96168C1F38131491C49008E
:101E20001EE0082920D010291CD161682268D20147
:101E300018D5C1F38342C9031DF8020009D56168B2
:101E400004AAC1F34041515C1B4AB2FBF1F1484383
:101E500001E01A4948436168490203D44000032164
:101E6000B0FBF1F006B010BD00F05AF9FAE7226AB3
:101E7000C2F30121012903D1920701D5C803F1E77B
:101E8000022905D1626A920702D549F64040E9E786
:101E90000329E7D121688903E4D54FF22440E1E723
:101EA00002030405060708090A0B0C0D0E0F10109B
:101EB000010200000010024000127A0000093D00FB
:101EC0002DE9F84304460078344FC00752D0F86932
:101ED0000025C00008D4F86940F08050F861F86926
:101EE000012500F0805000902D480168C90511D4EB
:101EF0000168804641F480710160FFF7F1FE0646FB
:101F000004E0FFF7EDFE801B642822D8D8F800001B
:101F1000C005F6D5386A10F4407020D0A18801F4CD
:101F2000407181421BD0386A1E49012220F4407062
:101F30000A6000220A603862C00710D0FFF7D0FEA6
:101F4000064641F2883807E0FFF7CAFE811B41458B
:101F500002D90320BDE8F883386A8007F4D5386ACF
:101F6000616820F44070084338621DB1F86920F0C0
:101F70008050F8612078800705D57868A16820F442
:101F80004040084378602078C00605D578686169CC
:101F900020F48000084378600020DBE70010024056
:101FA00000700040400442422DE9F0470D46040015
:101FB00067D0DFF81881D8F8000000F00700A842C9
:101FC0000CD2D8F8001021F007012943C8F80010FE
:101FD000D8F8000000F00700A84252D120683C4E1B
:101FE000810712D5400703D5706840F4E060706047
:101FF0002078000703D5706840F460507060706806
:10200000A16820F0F000084370602078C00727D056
:102010006068012810D03168022810D08907002993
:102020002FDA716821F0030101437160FFF758FE58
:10203000074641F288390CE031688903EFE78901EE
:10204000EDE7FFF74DFEC11B494502D90320BDE86E
:10205000F0877068616800F00C00B0EB810FF0D180
:10206000D8F80010404601F00701A9420BD90168D9
:1020700021F0070129430160006800F00700A84231
:1020800001D00120E3E72078400705D57068E168BA
:1020900020F4E060084370602078000706D570687F
:1020A000216920F4605040EAC100706000F038F807
:1020B0007168084AC1F30311515CC84006490860C1
:1020C00006480068FFF72CFE0020C0E70020024011
:1020D000001002406EF902080000002020000020DD
:1020E0000448054900684968044AC1F30221515C6B
:1020F000C840704700000020001002407EF902082E
:102100000448054900684968044AC1F3C221515C8A
:10211000C840704700000020001002407EF902080D
:1021200012A085B00FC88DE80F0014A0144B0068F2
:1021300004905968134801F00C02042A10D0082AB0
:102140000ED1C1F38342C9031DF802000AD55968B4
:1021500004AAC1F34041515C0A4A5043B0FBF1F07C
:1021600005B0704708494843FAE700000203040538
:10217000060708090A0B0C0D0E0F101001020000D3
:102180000010024000127A0000093D002DE9F84FCE
:1021900004006FD02078BE4DC00747D06868C0F3F8
:1021A0008100012807D06868C0F38100022809D1A6
:1021B0006868C00306D52868800337D560680028A2
:1021C000E7D033E06068B0F5803F0BD010B1B0F5D8
:1021D000A02F11D0286820F480302860286820F4CF
:1021E000802002E0286840F480302860606888B170
:1021F000FFF776FD064609E0286840F48020286055
:10220000F0E7FFF76DFD801B642873D82868800312
:10221000F7D50BE0FFF764FD064604E0FFF760FD2D
:10222000801B6428F1D828688003F7D42078DFF871
:10223000648280074FF0010A4FF0000939D56868C1
:1022400010F00C0F07D06868C0F38100022809D194
:102250006868C00306D42868800714D5206901285F
:1022600008D110E02069B0B1C8F800A0FFF738FD30
:10227000064605E007E1FFF733FD801B0228C4D8BE
:1022800028688007F7D52868616920F0F80040EADF
:10229000C10028600DE0C8F80090FFF721FD064658
:1022A00004E0FFF71DFD801B022823D82868800763
:1022B000F7D4207800072CD57748A169D9B1C0F8A8
:1022C00000A0FFF70DFD064604E0FFF709FD801BA7
:1022D00002280FD8686A8007F7D570484FF4FA5182
:1022E0000068B0FBF1F0009000BF0098411E009123
:1022F000FAD20EE07CE0C0F80090FFF7F1FC064651
:1023000004E0FFF7EDFC801B022871D8686A8007A3
:10231000F7D4207840075BD5E8690027C00008D4CF
:10232000E86940F08050E861E869012700F08050DA
:1023300000905B480168C90511D40168834641F4E7
:1023400080710160FFF7CCFC064604E0FFF7C8FC93
:10235000801B64284CD8DBF80000C005F6D5E06887
:1023600001280AD008B1052813D0286A20F00100FE
:102370002862286A20F0040002E0286A40F0010088
:102380002862E06841F2883B88B1FFF7A9FC064665
:1023900009E0286A40F004002862EEE7FFF7A0FC9D
:1023A000811B59455BD8286A8007F7D50BE0FFF7FA
:1023B00097FC064604E0FFF793FC811B59454ED875
:1023C000286A8007F7D41FB1E86920F08050E861DF
:1023D000E069A8B36968C1F38101022946D00228E7
:1023E000484606D0C8F86000FFF77AFC044639E09A
:1023F00035E04746C8F86000FFF772FC064604E087
:10240000FFF76EFC801B022829D828688001F7D4CA
:10241000206AB0F5803F05D16868A16820F40030DB
:1024200008436860D4E908010843696821F474111D
:1024300008436860C7F860A0FFF752FC044605E057
:1024400023E0FFF74DFC001B022808D82868800114
:10245000F7D51AE0FFF744FC001B022802D903203D
:10246000BDE8F88F28688001F4D40EE00128F7D089
:102470006868226A00F48031914204D1616A00F4F4
:102480007010884201D00120EAE70020E8E7000050
:10249000001002400000424280044242000000203E
:1024A00000700040024850F8210080B270470000E0
:1024B000006C0040024800EB810091B2016070475F
:1024C000006C004070B5040003D0607C002610B1A1
:1024D00005E0012070BD2674204600F043F802207C
:1024E0006074204600F080F8042578BB204600F098
:1024F000F3FB58BB2068416821F007014160A068E8
:1025000020B11748016821F0010101601448001F43
:102510000168A26821F46071114301606068411C88
:1025200004D10120FFF762FC80B1401E21688A6857
:1025300022F00F0242EA10428A602168CA6860F302
:102540000F02CA60204600F0E1FB08B16574C0E7E5
:10255000E67301206073A0736074002070BD0000FA
:10256000306C0040F0B51E48C82491B001250560CC
:102570001C4E306A40F001003062002705E0641E06
:10258000A4B2052004F0CAFBC4B1306A8007F6D5B6
:10259000A4B104200090079703956846FFF7F6FD65
:1025A0004FF48070CDE90A500AA8FFF789FC45F284
:1025B0005001002026F0D6FD11B0F0BD082000909B
:1025C000079703956846FFF7E1FD4FF40070CDE9EA
:1025D0000A500AA8FFF774FC45F25101E9E7000030
:1025E0003C0442420010024070B504000AD020684A
:1025F000416821F008014160FFF772FB05464FF486
:102600007A7608E0012070BDFFF76AFB401BB042FC
:1026100001D9032070BD206840680007F4D5002070
:1026200070BD4FF0E0210428086903D020F00400B9
:102630000861704740F00400FAE710B5401EB0F1A1
:10264000807F01D3012010BD4FF0E02460610F2195
:10265000601700F0F8FC0020A06107202061002036
:1026600010BD7047704710B5040003D094F83D00CA
:1026700010B107E0012010BD002084F83C00204686
:1026800000F01EF8022084F83D00211D206800F0B3
:10269000C1FB012084F8460084F83E0084F83F0026
:1026A00084F8400084F8410084F8420084F8430034
:1026B00084F8440084F8450084F83D00002010BDF3
:1026C0007047000090F83D10012901D001207047AB
:1026D000022180F83D100168CA6842F00102CA6018
:1026E00000680E4988420ED00D4988420BD0B0F1E7
:1026F000804F08D00B49884205D00B49884202D050
:102700000A49884204D1816801F00701062903D0F3
:10271000016841F00101016000207047002C014078
:10272000003401400004004000080040000C00405C
:1027300070B501682D48814257D102212C48FFF71E
:10274000C5FA2C4E2C4C002578B13068016A21F076
:10275000A00101623068016A41F020010162306825
:102760004562207840F010003EE00421214800F04E
:102770001BF9316880B20A6A22F0A0020A6231684D
:102780000A6A0A622178CA062BD50A064FF4F97341
:102790001ED5A0F22D129A4202D86068400808E0C7
:1027A000A0F27952B2F5C77F05D86068400840F0C2
:1027B0000040606015E040F2E732A0F2D170904234
:1027C0000FD26078401C607001F0F000207008E0CB
:1027D000A0F580506938984203D841F080002070FD
:1027E0006570207820F01000207070BD000C004053
:1027F00000080140600500207800002070B5044604
:10280000006801694FF00005C943890715D4C16804
:10281000C943890711D4E91E01610120207720688E
:1028200080698007204602D0FFF782FF04E000F0B5
:1028300098F8204600F096F8257720680169C9438A
:10284000490717D4C168C943490713D46FF004017D
:102850000161022020772068806910F4407F2046C3
:1028600002D0FFF765FF04E000F07BF8204600F09F
:1028700079F8257720680169C943090716D4C1682A
:10288000C943090712D46FF00801016104202077C1
:102890002068C0698007204602D0FFF749FF04E0A6
:1028A00000F05FF8204600F05DF8257720680169A8
:1028B000C943C90617D4C168C943C90613D46FF008
:1028C00010010161082020772068C06910F4407F62
:1028D000204602D0FFF72CFF04E000F042F820462B
:1028E00000F040F8257720680169C943C90708D17D
:1028F000C168C943C90704D1891E0161204600F09F
:1029000033F820680169C943090609D4C168C9437D
:10291000090605D46FF0800101612046FFF7A1FE92
:1029200020680169C943490609D4C168C9434906F9
:1029300005D46FF040010161204600F04AF820689C
:102940000169C94389060BD4C168C943890607D404
:102950006FF0200101612046BDE87040FFF782BEA4
:1029600070BD70477047000000680D49884215D15E
:102970000C490878020611D520F0100008700207F3
:1029800002D140F040000870C0B200F00F020E2AE1
:1029900001D2401C01E000F0700008707047000098
:1029A000000C0040780000200246002041B10429BC
:1029B00009D008290AD00C2901D11068006C704791
:1029C0001068406B70471068806B70471068C06B70
:1029D000704770477047000070B502680446106881
:1029E000D168536910F00F0F52D003F0010501F4C4
:1029F00090762E435FD0C20705D0CA0503D5E26B9F
:102A000042F00102E263420705D5DA0703D0E26B28
:102A100042F00202E263820705D5DA0703D0E26BD7
:102A200042F00402E263020707D501F020022A43C4
:102A300003D0E26B42F00802E263E26B002A33D07B
:102A4000800604D5880602D5204600F03FFA2068AB
:102A50004069E16BC0F38010090700D428B3204619
:102A600000F026FA2068416949061AD5416921F02B
:102A700040014161606BA0B12D494163606BFEF77D
:102A800095FF002810D0606B416BBDE8704008478F
:102A9000830610D58B060ED52046BDE8704000F0A9
:102AA00015BA2046FFF796FF70BD2046FFF792FF4C
:102AB0000020E06370BD03062BD50B0629D594F8E2
:102AC00039002128F6D1A068B0F5805F01D12069D6
:102AD000B0B1206A411C2162216800784860E08C16
:102AE000401E0004000CE084E4D12068C16821F09D
:102AF0008001C1602068C16841F04001C16070BDC3
:102B0000206A0088C0F308005060206A801C2062A0
:102B1000E5E74006F3D54806F1D5D168204621F017
:102B20004001D160202184F8391000F0D1F870BD47
:102B3000A12E000870B5040004D094F839000025D7
:102B400010B106E0012070BD84F83850204600F036
:102B500023F8242084F839002068C16821F400514A
:102B6000C160204600F0F8F92068016921F4904125
:102B700001612068416921F02A0141612068C16832
:102B800041F40051C160E563202084F8390084F8E5
:102B90003A00002070BD000010B500681A4986B0E8
:102BA00088422ED11948816941F00401816181690F
:102BB00001F004010491816941F00401816181699E
:102BC00001F004010491816941F4804181618069CF
:102BD0000F4C00F4804004904FF4007000900220ED
:102BE0000190012002900320039069462046FEF7E1
:102BF00075FF211500910021019169462046FEF7DD
:102C00006DFF06B010BD000000380140001002400A
:102C10000008014090F83A30202B22D1F9B1F2B1EE
:102C200090F83830012B1CD081628285C28500214A
:102C3000C163222280F83A2080F838100168CA68FF
:102C400042F48072CA6001684A6942F001024A6136
:102C50000068C16841F02001C16000207047012078
:102C6000704702207047000030B400681549884260
:102C700025D1154A5088010416D411464404097818
:102C80004FF0000304D50A290DD140F4004014E0B0
:102C90000D2910D0C0F30D040C4D401C80B22955F5
:102CA0005080C72800D953800848012230BC06490B
:102CB000C830FFF7AFBF40F480405080F4E730BC2D
:102CC0007047000000380140120000204804002036
:102CD0007047FEE7FEE7704770B50546FFF700F85E
:102CE00004464FF47A7606E0FEF7FAFF001BB04286
:102CF00001D9032070BD286840688006F4D5286893
:102D0000416841F010014160002070BD70B505467A
:102D10000068416821F010014160FEF7E1FF0446C0
:102D20004FF47A7606E0FEF7DBFF001BB04201D9D4
:102D3000032070BD286840688006F4D5002070BD6F
:102D40003EB5144C20684068C00705D026F0C0F896
:102D500020686FF0010141602068416889070FD544
:102D60006FF0020141600B4814300178837842789B
:102D70008DE80E00C3798279818807A0FDF762FB98
:102D800021686FF004004860206841688906FCD51E
:102D90003EBD0000A8050020416C61726D205469A1
:102DA0006D653A25642D25642D25642025643A251A
:102DB000643A25640A00000010B5FEF797FF2BF077
:102DC000A1FD012803D0BDE810402BF091BB10BD40
:102DD0007047000010B50A4C2068C068C043C007A7
:102DE00009D10848006980472168002048622168AD
:102DF0006420C862E06021686FF00100086110BDC6
:102E0000800E0020E40000200148FFF7F7BC00001E
:102E100060050020F0B502681C4D1D4E1D4FDFF807
:102E200078C01E4B4FF0804EA84209D0984207D080
:102E3000704505D0B04203D0B84201D0604503D1FF
:102E400022F070044A682243A84209D0984207D071
:102E5000704505D0B04203D0B84201D0604503D1DF
:102E600022F44074CA6822434C6922F08002224353
:102E700002608A68C2620A688262A84201D09842EF
:102E800001D10969016301214161F0BD002C0140BC
:102E90000004004000080040000C004000340140E5
:102EA00010B5406A0021C185C184FFF793FD10BDB4
:102EB0000168CA6822F49072CA6001684A6922F007
:102EC00001024A61202180F83A10704710B590F84D
:102ED0003A10222901D0022010BD81684FF480539E
:102EE000994201D1026922B1826A99421BD049B14B
:102EF0000AE00268816A5268C2F308020A80816AA5
:102F0000891C08E0016971B10168496801F07F011D
:102F10001170816A491C8162C18D491E0904090C26
:102F2000C18503D016E001684968F1E70168CA6805
:102F300022F02002CA600168CA6822F48072CA6066
:102F400001684A6922F001024A61202180F83A10A2
:102F5000FFF78AFE002010BD70B5044600680169C5
:102F6000E26821F4405111430161A16820690143E5
:102F7000606901432068C26841F20C639A430A43C6
:102F8000C26020684169A26921F440711143416126
:102F90001E492068884202D1FFF7B2F801E0FFF72E
:102FA0009FF800EBC00101EB001160686422800013
:102FB000B1FBF0F3B3FBF2F36FF018067343B1FB10
:102FC000F0F5B1FBF0F605EB8305322303EB0515B5
:102FD000B5FBF2F5B6FBF2F605F0F00505EB0615CC
:102FE000B1FBF0F6B1FBF0F0B0FBF2F06FF01801BE
:102FF000484306EB800003EB0010B0FBF2F02168C1
:1030000000F00F002844886070BD000000380140C7
:103010000148FFF7E1BC000010050020FEE7490071
:1030200050EAC12018BF04204A0D18BF40F001002B
:1030300040F2FF72B2EB515F08BF40F0020001287E
:1030400008BF052070470907090E002804DB00F1BE
:10305000E02080F80014704700F00F0000F1E0203D
:1030600080F8141D704770B5044600256FF02F06D8
:1030700008E02068411C2160007805EB850106EB23
:10308000410145182068007800F004F80028F0D1CC
:10309000284670BD3038092801D80120704700202B
:1030A000704730380A2801D201207047002070474D
:1030B00010B54021074801F079F8002204210648A4
:1030C00023F0C2FA054CA06002F0D2F80020207074
:1030D00010BD00008C230020195300084803002075
:1030E00070B5B1F90040B2F900309C4200DD2346D2
:1030F0000380B1F90240B2F90250AC4200DC2C4628
:103100004480B1F90450B2F90460B54200DB3546A1
:103110008580B1F90610B2F90620914200DB114614
:10312000C1800120AB4201DC8C4200DD002070BD7B
:10313000F8B50D460446B0F90000B1F90010164686
:10314000884247DBB4F90210B5F90220914241DB15
:10315000B4F90410B5F9042091423BDCB4F906102F
:10316000B5F90620914235DC96B3ADF800006088D1
:10317000ADF8020032466946284600F099F800286A
:1031800027D0A088ADF800006088ADF80200324674
:103190006946284600F08CF800281AD02088ADF83F
:1031A0000000E088ADF8020032466946284600F08B
:1031B0007FF800280DD0A088ADF80000E088ADF8B9
:1031C000020032466946284600F072F8002800D016
:1031D0000120F8BD0020F8BDB0F90020B1F904309D
:1031E0009A4213DCB0F90420B1F900309A420DDBA9
:1031F000B0F90220B1F906309A4207DCB0F90600B6
:10320000B1F90210884201DB0120704700207047AD
:10321000F8B50D460446B0F90400B1F900101646A1
:10322000884243DBB4F90600B5F9021088423DDB61
:10323000B4F90000B5F90410884237DCB4F9021083
:10324000B5F90620914231DC76B3ADF80000608814
:10325000ADF8020032466946284600F029F818BB4E
:10326000A088ADF800006088ADF8020032466946DB
:10327000284600F01DF8B8B92088ADF80000E088B5
:10328000ADF8020032466946284600F011F858B9F8
:10329000A088ADF80000E088ADF80200324669462B
:1032A000284600F005F808B10020F8BD0120F8BD5F
:1032B0002DE9FC4105460F46B1F90000B5F90010B3
:1032C000144688423BDBB5F90410884237DCB7F975
:1032D0000200B5F90210884231DBB5F906108842C8
:1032E0002DDC002C76DD284614F036F900EBD0708A
:1032F0004610284614F0E6F800EBD07040108642E5
:1033000000DA3046844200DD04462888ADF800002B
:10331000288800222044ADF804006888ADF8020037
:10332000688839462044ADF806006846FFF7C0FFBC
:1033300040B1BDF804002044ADF804003FE0002097
:10334000BDE8FC81E8880022001BADF80200E88897
:10335000ADF8060039466846FFF7AAFF28B1BDF868
:1033600004002044ADF8040011E0A8880022001BEE
:10337000ADF80000A888ADF8040039466846FFF7AC
:1033800097FF50B1BDF80000001BADF80000BDF87C
:103390000200001BADF8020016E06888ADF80200DC
:1033A000688800222044ADF8060039466846FFF7D9
:1033B0007FFF70B1BDF80000001BADF80000BDF844
:1033C00006002044ADF806003946684620F096FC19
:1033D000B6E7FFE70120B3E710B5B1F90030B2F965
:1033E0000040A34200DB23460380B1F90230B2F96A
:1033F0000240A34200DB23464380B1F90430B2F916
:103400000440A34200DC23468380B1F90610B2F9E0
:103410000620914200DC1146C18010BDFEB5054674
:1034200023F0C0F80024354E0746009435B1E86813
:103430007060284623F0D6F9706802E016F02CFA86
:103440007060006920F0F6FB7068406908B120F0F8
:10345000F1FB7068C06920F0EDFB7068006A20F035
:10346000E9FB70680169E1B320F0A0FE20F01AFECC
:103470007068B0F8501199B30168097C890715D5B7
:1034800016F068FA401E05B2706816F01DFA401E6C
:1034900003B20022114601A8009514F08FF870685D
:1034A00001A90268926B516004F0ECFB70684FF464
:1034B000807130301CF0B2F97068202100F59870EE
:1034C0001CF0ACF97068A0F85041384623F064F85D
:1034D000009070680068436A13B132680099984799
:1034E00000E007E01BF0E0FF00F034F8BDE8FE402C
:1034F00000F006B8A0F85041FEBD00000C0200200C
:1035000070B5094E0024C4EBC40556F8250008B177
:103510001CF03EF806EB85001C211CF07FF9641CB2
:10352000E4B2042CEFD370BD682400200849496838
:103530000AE04A68824202D00A68824203D10A7EC7
:1035400042F001020A7649690029F2D17047000071
:10355000E0010020704700000421014800F026BE71
:10356000802300201C21014800F020BE9823002069
:103570002DE9FE4F0446DDE90C0513B9B0F5807F57
:103580007ED0B5F900604FF0FF3C764246430CEB2D
:10359000262636B22680B5F902707F4247430CEBEF
:1035A00027273FB26780B5F900C0A1EB0C0141436A
:1035B0004FF0020C0CEB212109B2A180B5F9028079
:1035C000A2EB080242430CEB222000B2E080002B69
:1035D0007ED04FF00A0A93FBFAF6704200EB8000AF
:1035E00003EB400706F1010930B223F047FA0090DF
:1035F0000FFA89F023F042FA83465A3630B223F0AC
:103600003DFA804609F15A0000B223F037FA01462C
:10361000009AC7F10A0000FB02F300FB08F001FB6F
:1036200007010BFB073393FBFAF291FBFAF1501100
:10363000B4F900204FEA611BB4F902100BFB02F64B
:10364000B5F800C000FB11630CEBA323E646B5F808
:1036500002C00FFA83FACDF800C0B4F9043000FBC1
:1036600002F90BFB01920BFB03F800FB11850CEB3D
:10367000A2220EEBA52512B22DB200FB03FC00E046
:103680002EE0CDE901C80BFB01C1DDF800C0B4F9A3
:1036900006700CEBA1210BB200FB17610EEBA12110
:1036A0000EB2DDF808800BFB079100FB17800CEBD6
:1036B000A121DDF804C00EEBA0200BFB07C7DDF84D
:1036C00000C009B20CEBA72700B23FB2D44600E01D
:1036D0000FE0564500DAB446A84217DA804616E0F5
:1036E00000202080491E6080A180521EE280BDE83B
:1036F000FE8F2A88324422806A883A4462802A886F
:103700001144A18069880844E080F0E7A846C445D8
:1037100004DAD446564506DAB44604E0A84201DA93
:10372000844600E0AC46A4F800C0D446564500DD0F
:10373000B446A84201DD804600E0A846C44504DD49
:103740005046564504DD304602E0A84200DC2846DB
:10375000A080914201DA084600E010469F4201DA5B
:103760003D4600E01D46A84205DA914201DA0846CE
:1037700006E0104604E09F4201DA384600E01846B1
:103780006080914201DD084600E010469F4201DD65
:103790003D4600E01D46A84203DD914206DC11468D
:1037A00004E09F4201DD394600E01946E1809EE7D2
:1037B0002DE9FE4F0446D0F800B0B0F90800E589C5
:1037C000081AB4F90A10511AD4E90932B5F5807F04
:1037D0003AD0A589002DA56B05FB00F005FB01F58E
:1037E0004FEA60104FEA65113CD0256BE66A05FB95
:1037F00000F706FB1177464305FB016003EBA729A1
:1038000002EBA020B4F904104FEA292706128046E3
:10381000B94246DD002F44DBB4F90600B04240DD7A
:10382000002E3EDB94F8340042073DD5820704F1B8
:1038300014001BD401FB067102224D0092460BEBD3
:1038400005011BF0A4FF21E0256BE66A05FB00F7EC
:1038500006FB1177464305FB016003EBA70902EB6A
:10386000A000CFE703EB00095018CBE701FB06717E
:1038700001EB41054FF0030A0BEB050102221BF09F
:1038800086FFE81C584410F8010CA07594F8340029
:10389000C0071FD04FF4FC60ADF80000A18A814240
:1038A00018D10020BDE8FE8F32B204F11800236960
:1038B000CDE90102002539B2AA468B4619F0FAFA81
:1038C0000090BDF80000A082DDE90102594619F020
:1038D00089FADAE7E07C78B1A4F83C90A4F83E805D
:1038E000A4F84070A4F84260656484F848A02046BB
:1038F000BDE8FE4F00F002B80120D3E72DE9F04FFC
:10390000044690F83C10D0F8009090F83E0087B044
:103910004FF0FF36702907DAB4F940203546012A06
:1039200000D5002580310DE0902916DDB4F9402046
:10393000B4F904300125521C9A4200DB0025A1F2A3
:103940007F114942C9B28846702809DAB4F9421099
:10395000012900D50026803010E00025FF21F2E784
:1039600090280DDDB4F94210B4F906200126491C57
:10397000914200DB0026A0F27F104042C7B201E076
:103980000026FF2760690590A07D019000208246F7
:103990008346009094F83400400744D594F84810CA
:1039A000606C022201FB0501494404A81BF0EFFEF4
:1039B000B4F9040094F8481002224843616C06FBF5
:1039C0000011494403A81BF0E2FEB4F9041094F876
:1039D0004800626C414306FB012200FB0590111870
:1039E000022202A81BF0D3FE94F83400800761D5B0
:1039F00094F84800626C00EB090100FB05230B44BE
:103A000013F8013C0093B4F90430434306FB03224E
:103A1000114400FB050011F801AC111801EB09007D
:103A200010F8010C45E0B4F84000B4F942202844F5
:103A300001B204F118008146236919F03BFA0490A1
:103A4000B4F84200B4F94010304402B254F8103FC8
:103A5000484619F02FFA0390608E2368304402B272
:103A6000208E284401B2484619F024FA029094F8B6
:103A70002400103C80071DD5B4F9422034F8400FD3
:103A8000284401B2484619F0ADF900906088B4F9B5
:103A90000010304402B2484619F0A4F9824660880A
:103AA000304402B234F84009284401B2484619F0C3
:103AB00099F9834694F8340042464546800735D547
:103AC0000199009B01FB08F1C8F1FF0003FB001105
:103AD0000AFB08F30BFB0030C1F30721C0F30720FA
:103AE00001FB07F3C7F1FF0600FB06331B0AA375B2
:103AF000022907D8022803D8002007B0BDE8F08FBC
:103B0000002702E0022800D8FF270198022800D8E9
:103B100000220098022800D8FF22BAF1020F00D834
:103B20000025BBF1020F03D8FF2501E0FF20A0759F
:103B3000DAB1FF2A1BD0DDE9041015F06DFA01900F
:103B4000BDB1FF2D17D0DDE902102A4615F064FA49
:103B500000903FB1FF2F10D001463A46019815F072
:103B60005BFA0090BDF8000009E00498E7E70598CB
:103B7000E5E70298ECE70398EAE7BDF80400A082C5
:103B80000120BAE72DE9F0470446B0F908000A27FA
:103B900000026062B4F90A000002A062B4F90C00ED
:103BA00090FBF7F5694201EB810100EB41066842A9
:103BB00005F1010800B222F061FF8246E84300B23D
:103BC00022F05CFF8146C5F15A0000B222F056FF98
:103BD0000546C8F15A0000B222F050FF0146C6F176
:103BE0000A0000FB0AF3684301FB060009FB0632EA
:103BF00092FBF7F290FBF7F051114011C4E90B1062
:103C0000A07C19F003FA94F8341060F3000184F8F2
:103C10003410A07C19F0EAF994F8341060F34101F3
:103C200084F83410A07C042823D0052821D006284D
:103C30001FD021F0040184F8341021682162A169A9
:103C400021F0E00160F30401A08860F39421E08892
:103C500060F35F51A161E0894FF4001101EB500165
:103C6000B1FBF0F0A063FF20A075208AA082BDE820
:103C7000F08741F00401DEE72DE9F04115460E46DC
:103C80000746114C22F08EFC80462B4632463946C0
:103C9000204619F039FD20B10020A062E06950B142
:103CA00010E02C2120461BF0B9FD4FF00040A0622F
:103CB0000020BDE8F081404622F06EFCE06108B9CA
:103CC0000120E0612046F4E7BC23002010B5142158
:103CD000074800F06BFA19F0DDFC40B105490160BE
:103CE00005494160054981600549C16010BDFEE795
:103CF000A4230020C9D001083DD40108B5D501088E
:103D000095D0010870B50D460446102128461BF0D9
:103D100085FD20680078012804D0022807D00428F7
:103D200007D008E0208A2880608A688003E0E06885
:103D300000E00A20686020684268002A03D0294613
:103D4000BDE87040104770BDFEB5856A0446BDB938
:103D5000A08A218A0844A082E08A618A0844E0821D
:103D600020460AF0F8F8050079D020460DF0D2F888
:103D700000220921284618F07FFB607880076ED466
:103D8000208A10B9608A002869D00026ADF8086042
:103D9000ADF8046094F83C0000F00F0003282846BA
:103DA00016D01DF0C5FA074628461DF07BF90346DC
:103DB0000C200090B4F912103A46284609F08CFC09
:103DC000ADF8040028461DF0BFF9C10712D017E076
:103DD0001DF042FA074628461DF0DEF90246032090
:103DE0000090B4F910103B46284609F075FCADF878
:103DF0000800E7E7BDF90810002901DDADF808600B
:103E0000810705D4BDF90810002901DAADF8086072
:103E1000410705D4BDF90410002901DDADF80460A7
:103E2000000705D4BDF90400002801DAADF80460EC
:103E300001AA02A9204625F01CFB0023BDF904209D
:103E4000BDF9081028461FF061FAA08ABDF80810D5
:103E50000844A082E08ABDF804100844E082FEBD58
:103E60002DE9FC5F0446806A5FEA000B71D094F88C
:103E70003C0000076DD019F001FF0190006840215F
:103E8000457E58461EF0F2F94FF0000818B9A4F824
:103E90001A80A4F8188058461DF03CFA824658460D
:103EA0001DF03FFA064694F83C004FF0640900F01C
:103EB0000F000C2802D003284CD09AE0A4F81880F8
:103EC00056B1B4F91A50002719F0D8FE00684946D7
:103ED000407EC0F1640222E0B4F91A00C5F1640129
:103EE000484390FBF9F0608358461DF0DBF8054627
:103EF00058461DF01DFA02460C200090B4F91A1025
:103F00002B46584609F0E8FB6083024600231EE07A
:103F1000781907B202FB05F090FBF1F005B2002D15
:103F2000F6D1ADF80070A4F81A806A460021204648
:103F300025F09FFA41F6FF72BDF900305142584614
:103F40000AF06EF9BDF800100123084402B2002106
:103F50004CE09AE0A4F81A80BAF1000F0AD0B4F944
:103F60001850002719F08AFE00684946407EC0F1CB
:103F7000640222E0B4F91800C5F16401484390FBE3
:103F8000F9F0208358461DF007F9054658461DF004
:103F900063F9034603200090B4F918102A465846E6
:103FA00009F09AFB2083014600231EE0781907B22E
:103FB00002FB05F090FBF1F005B2002DF6D1ADF853
:103FC0000070A4F8188000226946204625F051FAB6
:103FD00041F6FF72BDF90030514258460AF09EF892
:103FE000BDF800100123084401B2002258461FF01A
:103FF0008DF9208B002848D1608B002845D1C6B9A7
:1040000058461DF095F9054658461DF04BF8002D11
:1040100006DC00280DDD002D02DA01232A4604E02B
:10402000002806DA0123404202B2002158461FF060
:104030006DF9BAF1000F19D158461DF0ADF80546DB
:1040400058461DF009F9002D07DC00280EDD002D73
:1040500003DA01230022294605E0002806DA0123BD
:104060000022404201B258461FF050F90A2158463A
:10407000019A18F001FA6078800706D414F83C0F12
:1040800020F00F00207044F8148CBDE8FC9F7FB531
:104090000D46040003D115F0FFFB040023D00026D9
:1040A000FDB1ADF80060ADF8026015F00DFC401EEA
:1040B000ADF80400204615F04DFC401EADF806009A
:1040C0006A46294602A8FFF70BF800280BD02068A3
:1040D000017C890708D5DDE90001C4E90C01012054
:1040E00029E0A0F850617FBD82690AB102A990471A
:1040F00000250AE004EBC501002202A83031FFF7D9
:1041000017F80028EFD16D1CADB2B4F85001A842E9
:10411000F0D880B2202804D204EBC00002A93030CD
:1041200004E0A4F8506104F13000694613F05BF933
:10413000B4F85001401CA4F8500160680028D2D0A7
:1041400022F05CFB7FBD70B5054600F012F8044616
:104150000CE02146284600F01EF806462146284677
:1041600000F071F820461BF013FA3446002CF0D111
:1041700070BD002800D04068704700B5034600229B
:10418000FFF7F7FF03E01846521C00F004F80100A7
:10419000F9D1104600BD0068091D405870470068FD
:1041A00040587047002800D0806870470022426065
:1041B000C91C21F0030182600160704770B504469C
:1041C000006808301BF05AF9050013D001460022A0
:1041D000204623F038FC29462046626823F02AFC5A
:1041E000616819B12A46204623F02DFC6560A0685D
:1041F00000B9A560284670BD70B504460068083057
:104200001BF03CF9050013D001460022204623F0A4
:1042100011FC29462046A26823F015FCA16819B1BB
:104220002A46204623F006FCA560606800B9656058
:10423000284670BD28B1416809B9806808B10020DE
:1042400070470120704770B504000DD0FFF791FF53
:1042500000228842204608D1FFF79DFF606010B120
:10426000002201461EE0A26070BDFFF79BFF88425E
:10427000206808440AD10168A16029B12046BDE840
:104280007040002223F0D6BB626070BD05682046F6
:10429000FFF781FF064602462946204623F0CAFB67
:1042A0002A4631462046BDE8704023F0CCBB10B50D
:1042B0000446006882680AB1214690472068006879
:1042C000002801D02060F5E710BD8068002801D0EB
:1042D000B0F91600704700002DE9F047054690B090
:1042E000408C189C40F00400688490462A849946CB
:1042F0008A46228928461DF02DFE0646A5F8209004
:104300002289514628461DF025FE0746688CBE428C
:1043100020F00400688403D13104B1EB074F68D06A
:10432000A5F820802289514628461DF013FE064636
:104330008046A5F82090514628460BF078FB21894D
:104340000068324621F0A6F82089602823D147F67C
:10435000FF794E4501D04F451DD128461DF040FF45
:1043600000EBD070461028461DF03AFF00EBD070ED
:104370004010C84506D1711C431C994200DA00E088
:10438000194688464F4506D1711C421C914201DAFC
:104390000F4600E017461948FFF710FF06002BD024
:1043A0003560C6E903872089B0806846C6F808A052
:1043B00012F030FB1248FF21CDE900601148029055
:1043C0001148039000200790CDE9080120880A9049
:1043D00060889DF83E1040420B90E06806900020F7
:1043E00060F300018DF83E1020690590684612F0D8
:1043F00089FB10B0BDE8F087FEE70000B023002085
:10440000D9C70208C9C9020821C9020814210148F4
:10441000FFF7CCBEB02300202DE9F84F00249046D2
:1044200089460646254643F60F0A43F60E0B00E181
:104430000420F16800EBC500085881017ED480B2E9
:1044400030EA090112D0002130EA080010D0002023
:10445000814273D0F0686A4641F6100150F8357019
:10446000384620F001FE002869D103E00121EBE786
:104470000120EDE76A4641F61101384620F0F4FDCF
:10448000002873D16A4641F61201384620F0ECFD4F
:1044900000286BD16A4641F61301384620F0E4FD4E
:1044A000002863D16A4641F61501384620F0DCFD4C
:1044B00000285BD16A4641F61401384620F0D4FD4D
:1044C000E8BB6A4641F26901384620F0CDFDB0BB39
:1044D0006A4643F20C01384620F0C6FD78BB6A46B6
:1044E00043F20D01384620F0BFFD40BB6A4641F261
:1044F0000101384620F0B8FD08BB6A4641F20401CC
:10450000384620F0B1FDD0B96A4641F20201384682
:1045100020F0AAFD98B96A4641F20301384620F01E
:10452000A3FD60B96A4641F20501384620F09CFDC2
:1045300028B96A4641F20601384601E078E015E004
:1045400020F092FD90B96A4641F23201384620F0DF
:104550008BFD58B96A465146384620F085FD28B98A
:104560006A465946384620F07FFD10B10320BDE869
:10457000F88F6A4640F60A01384620F075FDE8BB20
:104580006A4640F60B01384620F06EFDB0BB6A4625
:104590005146384620F068FD80BB6A465946384689
:1045A00020F062FD50BB6A4640F63C01384620F0E0
:1045B0005BFD18BB6A4640F63D01384620F054FDCD
:1045C000E0B96A4640F63A01384620F04DFDA8B9F8
:1045D0006A464FF40461384620F046FD70B96A46D9
:1045E00040F64501384620F03FFD38B96A4640F6AE
:1045F0004101384620F038FD00B900E014E06A4679
:1046000040F64201384620F02FFD68B96A4640F670
:104610004301384620F028FD30B96A4640F649018A
:10462000384620F021FD08B1022401E004B901243C
:104630006D1C708CC0F3C500A8423FF6F9AE204651
:1046400095E7000001484068704700000C02002018
:104650007047C0F30410072800D9072070470000F6
:1046600010B518210348FFF7A1FD03490120087088
:1046700010BD00005C230020740300202DE9F041F0
:1046800090460D46040016D0FCF7BAF829460B4DAB
:1046900006462046AA6890470746AA68E0194146A0
:1046A000904701463846721A03E04318E35C2354EE
:1046B000401C8242F9D2BDE8F0810000880300204E
:1046C0002DE9F041094C90460E4662681D460746AA
:1046D00019469047306020B128686268384400214C
:1046E0009047C8F80000BDE8F08100008803002072
:1046F0002DE9F04F87B08A46DDE910581F469346F2
:104700000446002105B129805CB12078002809D039
:10471000BAF1000F05D0002618F0060F15D00020C2
:1047200004E0002007B0BDE8F08F401C215C0A299E
:1047300004D00D2902D00029F7D100E0401C002D43
:10474000F0D04FF0FF312980ECE75FEA887001D5A7
:1047500041F6FF77894608468DF81010059125E04F
:104760000598CDF8189058B3002104ABCDE902317B
:104770000DF1180CCDE9008C20443B465A465146B9
:1047800022F0A6F906997A1A314417B20EB288B10E
:1047900005990844059021780A290BD00D2909D0E4
:1047A000205C0A280ED00D280CD00598205C08B19A
:1047B000002FD5DC059848B105B12E800598B1E7EA
:1047C0000121D2E70598401C0590F3E7064A05A9A8
:1047D0002046526890470146002DEFD000225046F7
:1047E00017F023FF06B2E8E7880300202DE9F04127
:1047F0001746884606001ED0002F1CD0FCF700F894
:1048000004463846FBF7FCFF050014D00B4A2C4445
:104810004146926830469047411903E0621BB25C02
:104820003255641EA142F9D930442A463946BDE8C2
:10483000F0411AF0B7BFBDE8F08100008803002006
:1048400000230278232902D0012A0DD00FE02AB1DB
:104850000021012A04D0022A04D008E0012101E04D
:10486000017004E0017001E0202902D00123184604
:1048700070470221F6E72DE9F0410B460F468046CE
:1048800002460021084622F069FB05460026401C2E
:104890001AF0F4FD040008D066553B464246691CF8
:1048A00022F05CFB2046BDE8F081FEE72DE9F047F1
:1048B000984614460D468246DDF8209013E06608BF
:1048C00006FB0857394650464A469047002808DDFF
:1048D00044F30000C0EB540407EB0805A4F1010405
:1048E00001E005DA3446002CE9D12046BDE8F08726
:1048F0003846FBE72DE9FC5F0CAD9E4692468B46A1
:1049000095E81201DDE91132DDE90F7C96074FF0E1
:10491000300519D453B1D60708D002F00C0656EA78
:10492000080603D05B1E01E00D55641C644504D2EB
:10493000202CF9D301E00D55641C5FEAC27903D045
:104940009C4201D2202CF6D3D60624D556050AD493
:104950004CB1644501D09C4205D1641E03D0102F98
:1049600003D1641E04E0102F02D0022F0AD00EE003
:10497000960603D4202C1ED2782606E0202C1AD2CC
:10498000582602E0202C16D262260E55641C202CDC
:1049900011D20D55641C202C0DD2B8F1000F01D09E
:1049A0002D2506E0550701D52B2502E0150702D578
:1049B00020250D55641CCDE900EB064655468B4677
:1049C00098469146900713D1274606E02A46DDE92E
:1049D00000316D1C2020B0477F1C4745F6D307E00F
:1049E0002A466D1C641EDDE900311BF80400B04747
:1049F000002CF5D15FEA897006D409E02A46DDE98A
:104A000000316D1C2020B047A5EB0A014145F5D3CC
:104A10002846BDE8FC9F2DE9F04F8FB099468B46A4
:104A2000DDE91818DDE91C63DDE91A478646924680
:104A3000002009B923F010035A0507AD00D5C9B10C
:104A4000B1FBF4F204FB1212D2B20A2A01D23032C4
:104A500009E05FEA836C02D54FF0410C01E04FF0B2
:104A6000610C62440A3AB1FBF4F12A54401C09B1CA
:104A70002028E5D3CDF80880CDE90563CDE90050C5
:104A8000CDE903474B46524659467046FFF732FF81
:104A90000FB0BDE8F08F2DE9FF4F8FB01CACDDE902
:104AA000239594E8030820AC94E8C004002450EA5D
:104AB000010201D125F010056A050DF11C0802D58F
:104AC00050EA010217D032463B46FBF744FCD2B213
:104AD0000A2A01D2303206E0AB0601D5412300E0BC
:104AE00061231A440A3A08F80420641C50EA0102BF
:104AF00001D0202CE7D3CDE90084CDF808B0CDE972
:104B00000595CDE9036A0FAF97E80F00FFF7F2FEB6
:104B100013B0BDE8F08F9A4200D2885470477047B6
:104B2000704700002DE9FF4F89B082460A980024A3
:104B3000169D002801D1DFF8F0A367E1252802D0F7
:104B40002246641CE2E1491C002608460C910178CB
:104B50002B291BD004DC20291BD0232904D11BE0E6
:104B60002D290ED0302909D00027C8B2FEF792FABD
:104B7000A8B10CA8FEF777FA07461CE046F001063C
:104B800001E046F00206401C0C90E0E746F0040607
:104B9000F9E746F00806F6E746F01006F3E70C984A
:104BA00001782A2907D180CD002F02DA46F00206CB
:104BB0007F42401C0C900C984FF0000801782E2981
:104BC00017D1401C0C9046F480660078FEF762FA1C
:104BD00020B10CA8FEF747FA80460AE00C99087845
:104BE0002A2806D101CD002800DC0020491C80467F
:104BF0000C910C9801786C290AD004DC68290FD03C
:104C00006A2918D127E0742928D07A2913D125E000
:104C1000401C0C90017846F480766C291BD00AE089
:104C2000401C0C90017846F08006682903D146F0BC
:104C30004006401C0C9002460078692822D015DC02
:104C400062281FD00DDC252877D050281AD058288C
:104C50007FF476AF16E046F40076EAE746F4807615
:104C6000E7E763286AD06428F2D10BE073286FD09D
:104C700004DC6F2806D07028EAD103E0752801D043
:104C80007828E5D178280DD058280BD070280BD083
:104C9000502809D06F2816D0622816D00A2126F095
:104CA000100616E0102107E05078102146F48876AF
:104CB000562804D1521C0C921078582807D010782E
:104CC000502804D005E0082108E0022106E046F063
:104CD00020061078692803D0642801D026F00C063D
:104CE000700501D526F001061078692813D06428D4
:104CF00011D0562854D0B00560D5ED1D0020CDE967
:104D00000410CDF818800290CDE9077625F007054C
:104D1000F5E8020121E0B00528D5ED1D25F00705D5
:104D20000023F5E802020DF11009002A89E80A01C2
:104D3000CDE9077603DA012102E0E4E070E000212A
:104D40000023029119461B1A914102DA114604E030
:104D50008EE00021404261EB0201CDE90001DDE976
:104D60000A1322465046FFF796FE4BE0F00503D5A6
:104D700001CD0BE0404210E0700602D515F8040B9F
:104D800004E03006F4D535F8040B00B2CDE9021882
:104D9000CDE90476C10F0028ECDDCDE900012BE060
:104DA00001CD41680968009103680B98021B0A98BD
:104DB00001195046FFF7B6FE044424E0F00508D57B
:104DC000CDE90218CDE9047602CD0020CDE900102E
:104DD00012E0700602D515F8040B06E0300603D584
:104DE00035F8040B80B200E001CDCDE902180021B6
:104DF000CDE90001CDE90476DDE90A1322465046EB
:104E0000FFF709FE04460C98401C0C900C9908789A
:104E100000287FF493AE0B9884427BD222467AE03E
:104E20004FF00108B00707D50BE02246DDE90A1371
:104E3000641C2020D446E047414608F10108B942ED
:104E4000F3D3DDE90A13224615F8040B641CD4469B
:104E5000E047B00706D4D6E72246DDE90A13641C12
:104E60002020D047414608F10108B942F4D3CAE7EF
:104E700055F804BBB8F100005A4601D0014601E0E4
:104E80004FF0FF31584600E0401C03780BB1491E3B
:104E9000FAD2A0EB0209700505D548464146C14546
:104EA00000D308468146B00707D514E02246DDE965
:104EB0000A13641C2020D446E047494609F1010941
:104EC000B942F3D307E0DDE90A1322460BF1010BE7
:104ED000641CD446E0479BF8000020B17105F2D570
:104EE000B8F10108EFD2B00706D48CE72246DDE91D
:104EF0000A13641C2020D047494609F10109B94230
:104F0000F4D380E706E02246641C2520DDE90A137D
:104F1000D04778E7421E034600200A99D0470DB0DB
:104F20002046BDE8F08F00001F4B000870B5214EF1
:104F3000054690B03078002428B921F033FBFBF708
:104F40001DFC0120307000206E46002105EBC002E0
:104F500032F8113033B926F8240006EB8403641CC0
:104F60005980A4B2491C89B20429F1D3401C80B2F3
:104F70000428EAD3002C1AD0FBF7B2F990FBF4F125
:104F800004FB110080B236F8204006EB8000468812
:104F9000FBF7A6F90A2190FBF1F201FB12000921AF
:104FA00090FBF1F005EBC401401C21F8160010B095
:104FB00070BD00004404002010B503004FF0000055
:104FC0000DD04A1E114200D0FEE71944491E9143FC
:104FD0000A46B1F5804F02D20C2A01D9084610BD0D
:104FE0000C2010BD08444A1E401E9043114200D0C0
:104FF000FEE770472DE9F0410446012000250F46E9
:1050000060862E460BE01B49FBF7C0FC10B16D1CFF
:10501000ADB202E0608E401C6086761CB6B257F8D6
:10502000260010B101780029EDD1208EA8421ED0B3
:10503000A06A002610B11AF0ABFAA662E06A10B1BD
:105040001AF0A6FAE662E8001AF018FAA06238B17F
:1050500068001AF013FAE06218B1A16A11B102E017
:10506000FEE7FEE7002569001AF0D8FB2586BDE8BB
:10507000F0810000347E01082DE9F84F8146407A26
:105080000D4600F00700022819D0104680469542D0
:1050900000DD2A46164603202A4F2B4B00EB460024
:1050A00020F00304B86819681034411A7A6804EBD8
:1050B000010C944505D2416821F0004124E00846E6
:1050C000E4E7944219D89A464FF0FF3B08197968F3
:1050D000884210D9002269461C48CDF800B00CF077
:1050E000FBFA002269461A480CF0F6FAB968DAF8B9
:1050F0000000091AEAE7B868DDE720461AF0BEF9B1
:10510000C0B1416841F0004188EA6502416089EA26
:1051100002010160416801F04041491C31F08041C9
:1051200041608681A0F80E8005D500F110018160F4
:10513000BDE8F88FFEE7B96801F1100221448260F2
:10514000B960F5E7140200206403002013DF0008B3
:105150005D18010870B586B000228DF808208DF822
:105160000C208DF81020414C90F83C20142502F0C2
:105170000302A3784FF4B476012A23D0022A59D02F
:105180009A4211D010F8263F03EB031303EB4303BD
:10519000B3FBF5F32370407800EB001000EB400008
:1051A000B0FBF5F06070A27004AA03A8CDE900027C
:1051B00001EB41004FF6FF7101EA400002AB62785B
:1051C00021781AE09A4210D0838C03EB43035B02F0
:1051D000B3FBF6F3A38090F8270000EB001000EB80
:1051E0004000B0FBF5F06070A27004AA03A8CDE9FE
:1051F0000002C9B202AB627836E008F0C0FB9DF84D
:1052000010009DF80C10C308BDF80000890863F376
:10521000040080B29DF8082061F34A10D10880B2E2
:1052200061F3CF20ADF8000080B20090BDF800001F
:1052300006B070BD9A4210D0838C03EB43035B022F
:10524000B3FBF6F3A38090F8260000EB001000EB10
:105250004000B0FBF5F02070A27004AA03A8CDE9CD
:105260000002CAB2217802ABA088C6E7C4020020BF
:1052700010B5084C012020700748FEF77AFF00287F
:10528000A06803D0BDE8104021F0B8BABDE81040D6
:1052900021F0A8BA480300208C23002010B5044652
:1052A00090F83E00616B820707D4A28F3AB1A2F555
:1052B0007F43FF3B15D0521EA287A28F8AB909B146
:1052C00082070ED521461348FEF7BDFFFFF7D0FF3A
:1052D000E16809B1204688472046BDE810401AF031
:1052E00057B9A26B5242E262002911D0820702D460
:1052F000226B5242E2624210521C62F3410084F877
:105300003E00626AE069E2616062A06AA162606375
:1053100010BD00008C23002070B5304E706821F065
:105320003BF90546707880F00100707047E000207E
:10533000307094F83E007178C0F380028A4242D007
:1053400061F3820084F83E00E16A4A19030719D428
:10535000002917DC002A15DBC00709D1216939B102
:1053600020468847E1690144E161616A084460625E
:10537000A16809B12046884794F83E0040F0080033
:1053800084F83E00E06A4019E06216D4A16A8842BF
:1053900000DDE162A169204688470146206A884213
:1053A00004D0216262680AB120689047D4E90A01FA
:1053B000814202DB2046FFF771FF307818B10848C0
:1053C000FEF7D7FE03E021460548FEF7E4FE0400A1
:1053D000ADD121F0E7F8706070BD000048030020F7
:1053E0008C23002070B5044640680D4608B1FFF7D5
:1053F000F9FF2268002A04D029462046BDE8704003
:10540000104770BD89B211F053BF89B211F08CBF43
:105410000AF0E0BE70B515460E46044606E020468A
:10542000641CA4B200F006F806F8010B6D1EADB2C4
:10543000F5D270BD10B504460AF080FF200AA02105
:1054400001EB4000C0B20AF049FF0AF0BDFFE0B234
:105450000AF044FF0AF0B8FF0AF070FFA1200AF03A
:105460003DFF0AF0B1FF00200AF004FF04460AF0F5
:105470008BFF204610BD70B514460D46064606E06B
:105480002978304600F007F8761CB6B26D1C641E11
:10549000A4B2F5D270BD70B50D4604460AF04EFFB9
:1054A000200AA02101EB4000C0B20AF017FF0AF069
:1054B0008BFFE0B20AF012FF0AF086FF28460AF0DE
:1054C0000DFF0AF081FF0AF05FFFBDE870400A207F
:1054D00001F024BC70B50D46044600F04DF800B153
:1054E000FEE76868616820F00300001D0844606002
:1054F000204600F049F8204670BD4068103120F089
:105500000300884201D301207047002070472DE935
:10551000FC47054648680C4620F0030001AA69468E
:1055200022F019F8DDE9006005EBC61101EB8009F6
:105530008046D9F8340060B164B1C4E9020504F1D1
:105540000807C46038460421FFF74CFD874202D0AB
:10555000FEE7FEE7FEE7C9F834400123286903FAB5
:1055600006F10843286105EB860003FA08F1426959
:105570000A434261BDE8FC87406830F0030001D077
:10558000002070470120704710B5044600F08CF8E9
:10559000046010BD2DE9FC474FF0000780460E0067
:1055A00001973D46009745D00C460DF1040AE946A7
:1055B000802907D3084626F061FC411F012088405E
:1055C000401E04444A465146204621F0C4FF019C37
:1055D000082C2FDA08EB8400009940694FF0FF3265
:1055E00002FA01F1454608400CD1641C2869A2402A
:1055F000104016D026F03AFC0446019005EB8000DE
:10560000406980B126F032FC05EBC411009001EB3B
:105610008000456B75B1686820F00300B04203D28A
:10562000FEE73D46F6E7FEE7DDE900322946404663
:1056300023F096FB2846BDE8FC8710B50446FFF72B
:10564000A3FF416841F002014160606840F0010041
:10565000606010BD10B5044600F026F8416821F0E6
:1056600002014160606820F00100606010BD70B50B
:1056700006460D46084600F017F8040008D02079C9
:1056800010F0010F0ED02846FFF776FF08B1FEE7B5
:10569000FEE72146304600F03EF821462846FFF757
:1056A00019FF0546284670BD10B5426800F1080193
:1056B00022F00302121F8C18FFF75EFF00B1FEE715
:1056C000204610BD70B506460C004FF000001FD0FC
:1056D000FAB12079154610F0010F1BD01146204673
:1056E000FFF70BFF78B12946204600F025F8054664
:1056F0002046FFF749FF6868294640F002006860CD
:105700003046FFF704FF2046FFF7A4FF04F108002E
:1057100070BDFEE7FEE77CB5054648680C4620F004
:1057200003006A4601A921F016FFDDE90032214697
:10573000284623F015FB7CBD2DE9F0410D460446BB
:105740000830091F4618606806F1080720F00300BA
:10575000401BA0F1040838460421FFF743FC8742B0
:1057600000D0FEE7606808EB050120F00300091D8A
:10577000884200D0FEE7307900F0030040EA0800DC
:10578000706020F003000C2800D2FEE7207900F0C2
:105790000300284360603046FFF74FFF3046BDE806
:1057A000F08138B5044618F069FA054618F09FFAFA
:1057B0000028204605D0218FE1861DF01DF801202C
:1057C00038BD16F01EFC002820461ED016F0EFFA59
:1057D000218FE08E81420CD02087E08E00906A46B7
:1057E0001C21204616F048FE0128E9D120461DF074
:1057F00003F8284618F087FA0428E0D120461BF069
:1058000001FC002117F0CDFAD9E716F057FCD6E7D6
:10581000F8B5064616F0EDFD0446304616F027FEB4
:105820001BF033FC05461A2C2BD1304616F01DFE1A
:10583000044640690028A06B24D0C0F38F0100F01B
:10584000030005EBC10101EB400090F82C10012092
:105850008840216985B203200880284609F06EFE41
:1058600000902069BDF80010082D818001D20E48FB
:1058700000E00E4813F0BFFA00906069BDF8001018
:105880008181F8BD0028FCD12169052008800848E5
:1058900013F0B1FA00902069BDF8001081802169F1
:1058A00000200884F8BD00005B636C00F0F5F80090
:1058B00097A3B30070B516F0DAFD05461BF0E5FBC3
:1058C0000446284612F06EFB01462046BDE87040B3
:1058D000012220F08BB900002DE9F04F0C4687B073
:1058E000054600211BF0C1FA60B32146284600F0AE
:1058F00051FA2146284600F06FF8002128461CF096
:10590000E7F90590002128461CF0B4FA0490002124
:1059100028461CF0A9F8012800D00020804600216C
:1059200028461CF03AFC0646002128461CF01AF9CD
:1059300042F2D17907464E450BD1688C400508D418
:10594000012607E007B02046BDE8F04F1C2119F002
:1059500065BF002628461BF006FBDFF878A08346CB
:1059600028460021BAF802201CF0F4FAD4F810C03E
:10597000A3682168CDF800C0CDF80C80CDE90131D5
:10598000C2B231465846059B0AF0C2F820834F4503
:1059900004D1688C800501D4012600E00026284649
:1059A0001BF0C7FA074628460021BAF806201CF06B
:1059B000D1FAC2B2606900256368E1688DE82B0006
:1059C00031463846049B0AF0A3F8608307B0BDE86F
:1059D000F08F0000380200202DE9F34F81B00C4613
:1059E000019809F0B5FA804601981BF0BCFA83468D
:1059F000404600F003FF2061400019F06BFD20607D
:105A00002069400019F066FD002541F69A79A060F2
:105A100035E038F91510454E49452FD10027DFF8FC
:105A200010A11CE0394601981BF01FFA5146009066
:105A30001CF023FC90B9009809F09CFA01280DD1C4
:105A4000009809F08DFAA84208D100981CF0C8FB14
:105A5000B04203DB00981CF0C3FB06467F1C019894
:105A60001BF015FAB842DDD8002E03DBA06820F841
:105A7000156003E0A168002021F815006D1C206965
:105A8000A842C6D800252F46284641F69B764A46AE
:105A900015E038F91010B14204DB0D44A5F5F855B6
:105AA0009B3D0BE0914204D1A16831F810103944BC
:105AB00003E0A36823F8101039440FB2401C216999
:105AC0008142E6D8002101981CF002F92169C1F158
:105AD000010200FB02B0C01B01B2002900DA002164
