:020000040800F2
:1000000050150020C5020008471A0008431A0008CE
:10001000451A0008C10700086D1D00080000000017
:100020000000000000000000000000002D02000899
:10003000C30700080000000071020008491A000808
:10004000DF020008DF020008DF020008DF0200080C
:10005000DF020008DF020008DF020008DF020008FC
:10006000DF020008DF020008DF020008DF020008EC
:10007000DF020008DF020008DF020008DF020008DC
:10008000DF020008DF020008DF020008DF020008CC
:10009000DF020008DF020008DF020008DF020008BC
:1000A000DF020008DF020008DF020008DF020008AC
:1000B000DF020008DF020008651A0008DF020008FE
:1000C000DF020008DF020008DF020008DF0200088C
:1000D000DF020008611D0008DF020008DF020008DF
:1000E000DF020008DF020008DF020008DF0200086C
:1000F000DF020008DF020008DF020008DF0200085C
:10010000DF020008DF020008991A0008DF02000879
:10011000DF020008DF020008DF020008DF0200083B
:10012000DF020008DF020008DF020008DF0200082B
:1001300000F002F800F06BF80AA090E8000C82448E
:100140008344AAF10107DA4501D100F060F8AFF26B
:10015000090EBAE80F0013F0010F18BFFB1A43F0A5
:1001600001031847CCAE0000ECAE00000A444FF08B
:10017000000C10F8013B13F0070408BF10F8014B06
:100180001D1108BF10F8015B641E05D010F8016B4B
:10019000641E01F8016BF9D113F0080F1EBF10F8AF
:1001A000014BAD1C0C1B09D16D1E58BF01F801CBD2
:1001B000FAD505E014F8016B01F8016B6D1EF9D555
:1001C0009142D6D37047000000230024002500266A
:1001D000103A28BF78C1FBD8520728BF30C148BFAA
:1001E0000B607047642900F0EB80752900F0E8800F
:1001F000782900F02181632900F08E82732900F0B4
:100200009382002070471FB51FBD10B510BD00F0D0
:10021000A9FA1146FFF7F7FF06F0E4F900F0C7FA74
:1002200003B4FFF7F2FF03BC01F0B8FD224B1968DD
:100230000868B0E8F00F80F30988BFF36F8F4FF0C4
:10024000000080F311884EF00D0E70470000000092
:1002500006480068006880F3088862B661B6BFF39C
:100260004F8FBFF36F8F00DF00BF00BF08ED00E0CE
:10027000EFF30980BFF36F8F0F4B1A6820E9F00F7F
:10028000106008B54FF0500080F31188BFF34F8F16
:10029000BFF36F8F07F004FC4FF0000080F311886C
:1002A000BDE8084019680868B0E8F00F80F30988D5
:1002B000BFF36F8F704700BF7C010020EFF3058014
:1002C000704700000948804709480047FEE7FEE7FD
:1002D000FEE7FEE7FEE7FEE7FEE7FEE7FEE7FEE7F6
:1002E00004480549054A064B70470000611A00089A
:1002F00031010008500F002050150020501100203F
:1003000050110020704700000FB4044910B503AA33
:10031000029800F00DFA10BC5DF814FB0C000020F0
:1003200070B5044685690068C10601D5302600E035
:100330002026C00707D070BDD4E901213046904780
:10034000206A401C20626D1EF6D570BD70B5044653
:1003500085690078C00707D170BDD4E9012120204C
:100360009047206A401C20626D1EF6D570BD70B5A6
:100370000C460546012A05D02878800600D5EA6992
:10038000002302E0012305E05B1C934202D2E05C03
:100390000028F9D1A869E618C01AA861286A18448B
:1003A00028622846FFF7BCFF04E0D5E9012114F8D4
:1003B000010B9047B442F8D32846FFF7C7FF70BD42
:1003C0002DE9F0410646002410687529314616A52E
:1003D00010D0AFF30080002802DA404213A507E0F6
:1003E00031688A0701D512A502E0490704D511A595
:1003F000012401E0AFF3008000210A2206F1240766
:1004000009E0B0FBF2FCB0FBF2F302FB1C00303061
:1004100078541846491C0028F3D123462A46304612
:10042000BDE8F04100F0FCB8000000002D00000025
:100430002B0000002000000070B504460D46214648
:100440001068AFF300802188090502D50F4A7A446D
:1004500002E00E4A7A440E32002104F1240305E042
:1004600000F00F060009965D5E54491C0028F7D184
:1004700020780023000704D5702D02D009B1022393
:1004800011322046BDE8704000F0CAB89EAA0000B4
:100490002DE9F05F894604464FF0000ADFF874B199
:1004A000FB44C0F820A02046E1688847002874D0AB
:1004B000252806D0D4E901219047206A401C2062FB
:1004C000F1E700265F462046E16888472028054678
:1004D00007DB312D05D2781910F8200C08B106433E
:1004E000F1E7B00701D526F00406C4F81CA00027E8
:1004F000C4F818A02A2D09D0284601F048FC38B3CA
:1005000004EB8708303DC8F8185019E059F8041B6F
:10051000204604EB87029161E1688847012F054678
:1005200018D1E069002820DA26F020061DE0D8F86E
:10053000180000EB800005EB40003038C8F81800C8
:100540002046E1688847054601F021FC0028EED1ED
:10055000012F0AD02E2D08D12046E16888477F1C44
:100560000546022F46F02006C4DBA069002803DA06
:10057000404246F00106A061F00701D026F01006C7
:100580006C2D0BD0682D09D04C2D39D06A2D35D06B
:10059000742D35D07A2D33D016E038E0E1682F463F
:1005A00020468847B842054609D16C2F26D04FF423
:1005B0008060E168064320468847054604E06C2FCA
:1005C0001AD04FF4807006430DB3A5F141001928ED
:1005D00002D8203546F400664A4629462046266061
:1005E0004E46FFF7FFFD80B101280BD0F61D26F027
:1005F000070000F1080956E74020E4E78020D8E72B
:100600000020D6E706F104094DE7284652E7206AA4
:10061000BDE8F09F74AA00007047704770477047AC
:100620002DE9F0470D4699469246044600F124080C
:100630000168880604D5E06921F01001216000E01E
:100640000120A84201DD471B00E00027A1697A19BB
:1006500002EB0900081AA0612078C00602D42046E7
:10066000FFF75EFE002608E0D4E901211AF8060033
:100670009047206A401C761C20624E45F4DB2078AF
:10068000C0060AD52046FFF74BFE06E0D4E901215B
:1006900030209047206A401C2062381EA7F10107D5
:1006A000F4DC07E0D4E9012118F805009047206A3E
:1006B000401C2062281EA5F10105F3DC2046FFF74F
:1006C00045FE2078000602D50220BDE8F087012013
:1006D000FBE7000001694A1C02610878704700B519
:1006E0008FB0CDE901310021059105497944CDE96B
:1006F000031011466846FFF7CBFE0FB000BD0000A7
:10070000E5FFFFFF10B5436913B1AFF3008001E0CF
:10071000FFF72DFE012010BD127800F124010A70B0
:1007200000224A700122EDE711684FF0FF32E9E73D
:10073000074B70B50D467B44FFF7D1FF04462846B2
:1007400000F00CF810B14FF0FF3070BD204670BDC6
:10075000EF16000000487047EC0E0020007B00F010
:10076000800070477546FFF7F5FFAE460500694605
:10077000534620F00700854618B020B5FFF7B0FDBE
:10078000BDE820404FF000064FF000074FF0000892
:100790004FF0000B21F00701AC46ACE8C009ACE813
:1007A000C009ACE8C009ACE8C0098D46704710B577
:1007B0000446AFF300802046BDE81040FFF730BD8F
:1007C000FEE770472DE9F05F90F821100024022920
:1007D00003D004218163012485E001680A6822F0C6
:1007E0000E020A6001680A6822F001020A603F4EA8
:1007F0003E4FB215DFF8F4C0DFF8F090DFF8ECA060
:10080000DFF8E8B0DFF8E4E00168783F1301150293
:10081000ACF1640CA9F15009AAF13C0AABF1280B28
:10082000AEF1140E4FF48018B14227D9B9420ED060
:10083000614512D049451DD0514518D0594518D0B1
:10084000714501D1424615E0294EB14201D1012244
:1008500010E0274E1436B14201D110220AE0244E96
:100860002836B14206D0224A3C32914201D11A4682
:1008700000E02A461E49091F0A602BE0B94213D046
:10088000614517D0494522D051451DD059451DD04D
:10089000714501D142461AE0B14202D14FF0807257
:1008A00015E0134EB14201D1012210E0104E143672
:1008B000B14201D110220AE00D4E2836B14206D0D5
:1008C0000B4A3C32914201D11A4600E02A460749C0
:1008D00080394A60012180F82110002180F8201021
:1008E000416B01B188472046BDE8F09F800002407F
:1008F000080402402DE9F84FDFF8C091002409F107
:10090000040A0AF1040B23464FF00F080BF1040E02
:10091000CCE00127A7403A40BA4272D1DFF8A0C12B
:100920004D68A5EB0C0665452BD00DDC032D34D0AE
:1009300005DC35B3012D19D0022D2FD11BE0112D6F
:1009400016D0122D2AD119E0B6F5881F19D006DC71
:10095000B6F5803F15D0B6F5801F1FD111E0B6F572
:10096000001F0ED0B6F5041F18D10AE0CB6815E0C1
:10097000CB681B1D12E0CB6808330FE0CB680C334B
:100980000CE08B682BB1012B4FF0080303D04761BB
:1009900004E0042302E0076100E00023FF2A01D8FD
:1009A000064601E000F104064FEA840501D9A5F1ED
:1009B0002005376808FA05FC27EA0C0703FA05F555
:1009C00047EA050737604D68ED006ED53D4DAE69CD
:1009D00046F00106AE61AD6924F0030605F001059D
:1009E0000095394D7719BE68A5072D0F08FA05FC4B
:1009F00026EA0C06DFF8D4C0604503D14FF0000CA6
:100A000025E052E0DFF8C8C0604502D14FF0010C8C
:100A10001DE0DFF8C0C0604502D14FF0020C16E0C7
:100A2000DFF8B4C0604502D14FF0030C0FE0DFF8EF
:100A3000ACC0604502D14FF0040C08E0DFF8A0C064
:100A4000604502D14FF0050C01E04FF0060C0CFAA6
:100A500005FC4CEA060CC7F808C04D68D9F80060E0
:100A6000ED034D4601D5164300E096432E604D68D8
:100A7000DAF80060AD03554601D5164300E0964311
:100A80002E604D68DBF80060ED025D4601D516432F
:100A900000E096432E604D68DEF80060AD027546BA
:100AA00001D5164300E096432E60641C0A6832FAB2
:100AB00004F57FF42EAFBDE8F88F0000000401407C
:100AC0000000111000100240000001400008014029
:100AD000000C0140001001400014014000180140CA
:100AE000001C01408068084000D001207047C268A7
:100AF00021EA02030A4043EA0241016170470AB158
:100B0000016170470904FBE70148806870470000F5
:100B1000100000200248816802781144816070470B
:100B200010000020074810B5016841F01001016075
:100B3000052000F057F80F2000F006F800F024F828
:100B4000002010BD0020024070B50D4D04464FF44A
:100B50007A712878B1FBF0F00A490968B1FBF0F02E
:100B600000F0DCFA48B9102C07D200222146501EB2
:100B700000F018F800206C6070BD012070BD00000E
:100B800010000020000000207047002809DB00F062
:100B90001F02012191404009800000F1E020C0F8CF
:100BA00000117047F0B40E4B1B68C3F30223C3F16E
:100BB0000704042C00D904241D1D072D01D2002395
:100BC00000E0DB1E012606FA04F56D1E0D409D4077
:100BD0009E40761E164045EA0601F0BC01F0C7B8FB
:100BE0000CED00E0064A00F0070110684FF6FF0325
:100BF000184040EA01200349084310607047000094
:100C00000CED00E00000FA052DE9F0470D46040068
:100C100067D0DFF81881D8F8000000F00700A8427C
:100C20000CD2D8F8001021F007012943C8F80010B1
:100C3000D8F8000000F00700A84252D120683C4ECE
:100C4000810712D5400703D5706840F4E0607060FA
:100C50002078000703D5706840F4605070607068B9
:100C6000A16820F0F000084370602078C00727D00A
:100C70006068012810D03168022810D08907002947
:100C80002FDA716821F0030101437160FFF73CFF27
:100C9000074641F288390CE031688903EFE78901A2
:100CA000EDE7FFF731FFC11B494502D90320BDE83D
:100CB000F0877068616800F00C00B0EB810FF0D134
:100CC000D8F80010404601F00701A9420BD901688D
:100CD00021F0070129430160006800F00700A842E5
:100CE00001D00120E3E72078400705D57068E1686E
:100CF00020F4E060084370602078000706D5706833
:100D0000216920F4605040EAC100706000F038F8BA
:100D10007168084AC1F30311515CC8400649086074
:100D200006480068FFF710FF0020C0E700200240DF
:100D3000001002404C7F000800000020140000203A
:100D40000448054900684968044AC1F30221515C1E
:100D5000C840704700000020001002405C7F00087F
:100D60000448054900684968044AC1F3C221515C3E
:100D7000C840704700000020001002405C7F00085F
:100D800012A085B00FC88DE80F0014A0144B0068A6
:100D900004905968134801F00C02042A10D0082A64
:100DA0000ED1C1F38342C9031DF802000AD5596868
:100DB00004AAC1F34041515C0A4A5043B0FBF1F030
:100DC00005B0704708494843FAE7000002030405EC
:100DD000060708090A0B0C0D0E0F10100102000087
:100DE0000010024000127A0000093D002DE9F84F82
:100DF00004006FD02078BE4DC00747D06868C0F3AC
:100E00008100012807D06868C0F38100022809D159
:100E10006868C00306D52868800337D56068002855
:100E2000E7D033E06068B0F5803F0BD010B1B0F58B
:100E3000A02F11D0286820F480302860286820F482
:100E4000802002E0286840F480302860606888B123
:100E5000FFF75AFE064609E0286840F48020286023
:100E6000F0E7FFF751FE801B642873D828688003E1
:100E7000F7D50BE0FFF748FE064604E0FFF744FE17
:100E8000801B6428F1D828688003F7D42078DFF825
:100E9000648280074FF0010A4FF0000939D5686875
:100EA00010F00C0F07D06868C0F38100022809D148
:100EB0006868C00306D42868800714D52069012813
:100EC00008D110E02069B0B1C8F800A0FFF71CFEFF
:100ED000064605E007E1FFF717FE801B0228C4D88D
:100EE00028688007F7D52868616920F0F80040EA93
:100EF000C10028600DE0C8F80090FFF705FE064627
:100F000004E0FFF701FE801B022823D82868800731
:100F1000F7D4207800072CD57748A169D9B1C0F85B
:100F200000A0FFF7F1FD064604E0FFF7EDFD801B92
:100F300002280FD8686A8007F7D570484FF4FA5135
:100F40000068B0FBF1F0009000BF0098411E0091D6
:100F5000FAD20EE07CE0C0F80090FFF7D5FD06461F
:100F600004E0FFF7D1FD801B022871D8686A800772
:100F7000F7D4207840075BD5E8690027C00008D483
:100F8000E86940F08050E861E869012700F080508E
:100F900000905B480168C90511D40168834641F49B
:100FA00080710160FFF7B0FD064604E0FFF7ACFD7D
:100FB000801B64284CD8DBF80000C005F6D5E0683B
:100FC00001280AD008B1052813D0286A20F00100B2
:100FD0002862286A20F0040002E0286A40F001003C
:100FE0002862E06841F2883B88B1FFF78DFD064634
:100FF00009E0286A40F004002862EEE7FFF784FD6C
:10100000811B59455BD8286A8007F7D50BE0FFF7AD
:101010007BFD064604E0FFF777FD811B59454ED85E
:10102000286A8007F7D41FB1E86920F08050E86192
:10103000E069A8B36968C1F38101022946D002289A
:10104000484606D0C8F86000FFF75EFD044639E068
:1010500035E04746C8F86000FFF756FD064604E055
:10106000FFF752FD801B022829D828688001F7D499
:10107000206AB0F5803F05D16868A16820F400308F
:1010800008436860D4E908010843696821F47411D1
:1010900008436860C7F860A0FFF736FD044605E026
:1010A00023E0FFF731FD001B022808D828688001E3
:1010B000F7D51AE0FFF728FD001B022802D903200C
:1010C000BDE8F88F28688001F4D40EE00128F7D03D
:1010D0006868226A00F48031914204D1616A00F4A8
:1010E0007010884201D00120EAE70020E8E7000004
:1010F00000100240000042428004424200000020F2
:10110000007000404FF0E0210428086903D020F06F
:1011100004000861704740F00400FAE710B5401E73
:10112000B0F1807F01D3012010BD4FF0E024606159
:101130000F21601700F01BFE0020A0610720206136
:10114000002010BD7047704710B5040003D094F81C
:101150003D0010B107E0012010BD002084F83C00E4
:10116000204600F01EF8022084F83D00211D206872
:1011700000F098FC012084F8460084F83E0084F8D2
:101180003F0084F8400084F8410084F8420084F86D
:10119000430084F8440084F8450084F83D000020B2
:1011A00010BD704790F83D10012901D00120704713
:1011B000022180F83D100168CA6842F00102CA604D
:1011C00000680E4988420ED00D4988420BD0B0F11C
:1011D000804F08D00B49884205D00B49884202D085
:1011E0000A49884204D1816801F00701062903D029
:1011F000016841F00101016000207047002C0140AE
:10120000003401400004004000080040000C004091
:1012100070B501682D48814257D102212C48FFF753
:1012200061FC2C4E2C4C002578B13068016A21F00D
:10123000A00101623068016A41F02001016230685A
:101240004562207840F010003EE00421214800F083
:1012500063FA316880B20A6A22F0A0020A62316839
:101260000A6A0A622178CA062BD50A064FF4F97376
:101270001ED5A0F22D129A4202D86068400808E0FC
:10128000A0F27952B2F5C77F05D86068400840F0F7
:101290000040606015E040F2E732A0F2D170904269
:1012A0000FD26078401C607001F0F000207008E000
:1012B000A0F580506938984203D841F08000207032
:1012C0006570207820F01000207070BD000C004088
:1012D00000080140D4020020200000202DE9F04148
:1012E000054690F83C000C46012836D0012085F8D0
:1012F0003C008AB3042A42D02868082A51D0D4E995
:101300000031E268066A26F480560662C769066AFA
:1013100027F4407747EA01214FF6FF7721F4704127
:1013200007EA02320A434FF4005126F4005601EA5C
:1013300003313143C26101622868C16921F440610F
:10134000C1612868C169A26841EA0221C161002027
:1013500085F83C00BDE8F08101E00220FAE7D4E91D
:101360000012E368286800F0F1FB2868816921F029
:101370000C01816128688169A26811430FE0D4E9FA
:101380000012E368286800F017FC2868816921F4DE
:101390004061816128688169A26841EA0221816116
:1013A000D5E7D4E90027267B016A21F48071016228
:1013B000C169036A21F00301394321F0F0073107C5
:1013C0004FF4007647EA116123F4007306EA022223
:1013D0001A43C16102622868C16921F00C01C16130
:1013E0002868C169A2681143B0E710B5040003D0B2
:1013F00094F83D0010B107E0012010BD002084F8F2
:101400003C00204600F01EF8022084F83D00211D1B
:10141000206800F047FB012084F8460084F83E0075
:1014200084F83F0084F8400084F8410084F84200CA
:1014300084F8430084F8440084F8450084F83D00B3
:10144000002010BD00B50068154985B0884224D140
:101450001448816941F004018161816901F004014E
:101460000491C16941F00801C161C069694600F099
:1014700008000490022000900020019001200290BA
:10148000032003900848FFF735FA03220121322098
:10149000FFF788FB3220FFF778FB05B000BD0000A6
:1014A000000C0040001002400008014010B5044646
:1014B000022081B1042913D0082916D084F84100F4
:1014C00084F845002068A9B1042917D008293BD029
:1014D0000C2917D13CE084F83E0084F84200F1E783
:1014E00084F83F0084F84300ECE784F8400084F877
:1014F0004400E7E7C26842F0020202E0C26842F03C
:101500000402C2600122206800F012FB1249206828
:1015100088420ED0114988420BD0B0F1804F08D0DC
:101520000F49884205D00F49884202D00E498842AF
:1015300004D1816801F00701062903D0016841F058
:1015400001010160002010BDC26842F00802D8E726
:10155000C26842F01002D4E7002C01400034014080
:101560000004004000080040000C004070B5044634
:10157000006801694FF00005C943890715D4C168A7
:10158000C943890711D4E91E016101202077206831
:1015900080698007204602D0FFF73AFE04E000F0A1
:1015A00098F8204600F096F8257720680169C9432D
:1015B000490717D4C168C943490713D46FF0040120
:1015C0000161022020772068806910F4407F204666
:1015D00002D0FFF71DFE04E000F07BF8204600F08B
:1015E00079F8257720680169C943090716D4C168CD
:1015F000C943090712D46FF0080101610420207764
:101600002068C0698007204602D0FFF701FE04E091
:1016100000F05FF8204600F05DF82577206801694A
:10162000C943C90617D4C168C943C90613D46FF0AA
:1016300010010161082020772068C06910F4407F04
:10164000204602D0FFF7E4FD04E000F042F8204617
:1016500000F040F8257720680169C943C90708D11F
:10166000C168C943C90704D1891E0161204600F041
:1016700033F820680169C943090609D4C168C94320
:10168000090605D46FF0800101612046FFF75AFD7D
:1016900020680169C943490609D4C168C94349069C
:1016A00005D46FF040010161204600F04AF820683F
:1016B0000169C94389060BD4C168C943890607D4A7
:1016C0006FF0200101612046BDE87040FFF73BBD8F
:1016D00070BD70477047000000680D49884215D101
:1016E0000C490878020611D520F010000870020796
:1016F00002D140F040000870C0B200F00F020E2A84
:1017000001D2401C01E000F070000870704700003A
:10171000000C0040200000200246002041B10429B6
:1017200009D008290AD00C2901D11068006C704733
:101730001068406B70471068806B70471068C06B12
:10174000704770477047000070B502680446106823
:10175000D168536910F00F0F52D003F0010501F466
:1017600090762E435FD0C20705D0CA0503D5E26B41
:1017700042F00102E263420705D5DA0703D0E26BCB
:1017800042F00202E263820705D5DA0703D0E26B7A
:1017900042F00402E263020707D501F020022A4367
:1017A00003D0E26B42F00802E263E26B002A33D01E
:1017B000800604D5880602D5204600F02EFA20685F
:1017C0004069E16BC0F38010090700D428B32046BC
:1017D00000F015FA2068416949061AD5416921F0DF
:1017E00040014161606BA0B12D494163606BFEF720
:1017F000E9FF002810D0606B416BBDE870400847DE
:10180000830610D58B060ED52046BDE8704000F04B
:1018100004BA2046FFF796FF70BD2046FFF792FFFF
:101820000020E06370BD03062BD50B0629D594F884
:1018300039002128F6D1A068B0F5805F01D1206978
:10184000B0B1206A411C2162216800784860E08CB8
:10185000401E0004000CE084E4D12068C16821F03F
:101860008001C1602068C16841F04001C16070BD65
:10187000206A0088C0F308005060206A801C206243
:10188000E5E74006F3D54806F1D5D168204621F0BA
:101890004001D160202184F8391000F0D1F870BDEA
:1018A000EF1B000870B5040004D094F8390000253F
:1018B00010B106E0012070BD84F83850204600F0D9
:1018C00023F8242084F839002068C16821F40051ED
:1018D000C160204600F0E8F92068016921F49041D8
:1018E00001612068416921F02A0141612068C168D5
:1018F00041F40051C160E563202084F8390084F888
:101900003A00002070BD000010B500681A4986B08A
:1019100088422ED11948816941F0040181618169B1
:1019200001F004010491816941F004018161816940
:1019300001F004010491816941F480418161806971
:101940000F4C00F4804004904FF40070009002208F
:101950000190012002900320039069462046FEF783
:10196000C9FF211500910021019169462046FEF72B
:10197000C1FF06B010BD0000003801400010024059
:101980000008014090F83A30202B22D1F9B1F2B191
:1019900090F83830012B1CD081628285C2850021ED
:1019A000C163222280F83A2080F838100168CA68A2
:1019B00042F48072CA6001684A6942F001024A61D9
:1019C0000068C16841F02001C1600020704701201B
:1019D000704702207047000030B400681549884203
:1019E00025D1154A5088010416D4114644040978BB
:1019F0004FF0000304D50A290DD140F4004014E053
:101A00000D2910D0C0F30D040C4D401C80B2295597
:101A10005080C72800D953800848012230BC0649AD
:101A2000C830FFF7AFBF40F480405080F4E730BCCF
:101A3000704700000038014006000020BC01002073
:101A40007047FEE7FEE7704710B5FFF763F806F052
:101A500085F8012803D0BDE8104006F069B810BD34
:101A60007047000010B50A4C2068C068C043C0072A
:101A700009D1084800698047216800204862216830
:101A80006420C862E06021686FF00100086110BD49
:101A9000C00B0020880000200148FFF767BD000050
:101AA000D4020020F0B502681C4D1D4E1D4FDFF81A
:101AB00078C01E4B4FF0804EA84209D0984207D004
:101AC000704505D0B04203D0B84201D0604503D183
:101AD00022F070044A682243A84209D0984207D0F5
:101AE000704505D0B04203D0B84201D0604503D163
:101AF00022F44074CA6822434C6922F080022243D7
:101B000002608A68C2620A688262A84201D0984272
:101B100001D10969016301214161F0BD002C01403F
:101B20000004004000080040000C00400034014068
:101B300010B501F01F010123046A8B409C4304622D
:101B4000036A8A401343036210BD000070B5046A43
:101B500024F0010404628469056A124EB0420ED07A
:101B6000114EB0420BD0B0F1804F08D00F4EB042B2
:101B700005D00F4EB04202D00E4EB04203D124F039
:101B80000304144301E044F001041A0724F0F004B4
:101B900044EA126225F00A0301F00A011943826146
:101BA000016270BD002C014000340140000400407F
:101BB00000080040000C004030B5046A24F0100416
:101BC00004628569046A25F4407545EA022222F41C
:101BD00070454FF6FF7202EA033224F0A0032A4355
:101BE000A02404EA011119438261016230BD10B5DD
:101BF000406A0021C185C184FFF7A4FD10BD0168C2
:101C0000CA6822F49072CA6001684A6922F001022F
:101C10004A61202180F83A10704710B590F83A10C8
:101C2000222901D0022010BD81684FF480539942CF
:101C300001D1026922B1826A99421BD049B10AE0FE
:101C40000268816A5268C2F308020A80816A891CAC
:101C500008E0016971B10168496801F07F01117004
:101C6000816A491C8162C18D491E0904090CC18524
:101C700003D016E001684968F1E70168CA6822F0FC
:101C80002002CA600168CA6822F48072CA600168D2
:101C90004A6922F001024A61202180F83A10FFF7D8
:101CA0009BFE002010BD000070B50446006801696D
:101CB000E26821F4405111430161A16820690143A8
:101CC000606901432068C26841F20C639A430A4389
:101CD000C26020684169A26921F4407111434161E9
:101CE0001E492068884202D1FFF73AF801E0FFF769
:101CF00027F800EBC00101EB00116068642280004E
:101D0000B1FBF0F3B3FBF2F36FF018067343B1FBD2
:101D1000F0F5B1FBF0F605EB8305322303EB051577
:101D2000B5FBF2F5B6FBF2F605F0F00505EB06158E
:101D3000B1FBF0F6B1FBF0F0B0FBF2F06FF0180180
:101D4000484306EB800003EB0010B0FBF2F0216883
:101D500000F00F002844886070BD0000003801408A
:101D60000148FFF7F1BC000084020020FEE70907EC
:101D7000090E002804DB00F1E02080F80014704711
:101D800000F00F0000F1E02080F8141D704730389B
:101D90000A2801D2012070470020704770470000D8
:101DA00070B54FF0E0240021054621610846FFF799
:101DB000A9F90849E80808804FF47A714843216975
:101DC00041F0020121616061206940F00100206161
:101DD00070BD00000400002070B5054600244FF4DB
:101DE0007A7603E0304600F005F8641CAC42F9D383
:101DF00070BD000070B54FF0E02500216C69094A04
:101E0000AB6912885043AA699A42FCD002D2A3EB74
:101E1000020302E0A4EB0206334419441346814254
:101E2000F1D370BD0400002004490A685206FCD5B5
:101E3000024AC1B2121D1160704700000038014013
:101E4000F0B51B4885B0816941F01001816181695D
:101E500001F010010491816941F0040181618169FF
:101E600001F004010491816941F0040181618069FC
:101E7000002400F0040004902020012503268DE8B2
:101E8000710069460B48FEF735FDE8038DE87100E7
:101E9000094F69463846FEF72DFD0220039600954E
:101EA000CDE9014069463846FEF724FD05B0F0BD96
:101EB000001002400010014000080140F8B5184F22
:101EC0000646002438887D8821464543204604F094
:101ED0006DF83889ADF8000012494FF08070086144
:101EE0004FF0007CC1F810C0BDF800000E4A106031
:101EF0004FF400030B6180270F614FF4007EC1F89F
:101F000010E088150861C1F810C003E016600B618D
:101F10000F61641CAC42F9D3C1F810E0F8BD0000B9
:101F2000C4020020001001400C0C01402DE9F04FCC
:101F3000374B2C27194698712B2589884FF4305A36
:101F40004FF4285B41F6631E2A264FF0F00845F255
:101F500010594FF448744FF4A07C4FF4F07260B104
:101F6000A3F800C0A3F80280494530D1A3F808A027
:101F7000A3F80AB0280298813EE0A3F80080A3F8F5
:101F800002C0494507D1A3F808A0A3F80AB04FF44E
:101F90002C50988104E071451F8104D15D819E81A0
:101FA0001A805C8001E05E819D81A1F5A640103819
:101FB00003D0A1F5EE40963802D1A3F800C05A80B4
:101FC000A1F5184006381DD11A805C801AE07145D1
:101FD0000FD0A1F5184006380BD01F815E819D817E
:101FE000A1F5A64010380AD0A1F5EE40963806D0EB
:101FF00008E01F815E819D811C805A80F0E71A8075
:10200000A3F802C0BDE8F04F002003F037BE000087
:10201000C4020020F8B5144603F0C8FF0D4800893B
:10202000ADF800000C484FF0807101614A00026178
:10203000BDF80010094D29609610066180210161EC
:10204000431503618715076102612C600661016118
:102050000361F8BDC4020020001001400C0C0140D7
:102060002DE9F84FCF20ADF80000FF4C4FF0807500
:1020700025616E002661BDF80010DFF8F0A3CAF8F4
:1020800000106F1027614FF08008C4F810804FF4E3
:102090000079C4F81090002004F036FAC12004F052
:1020A00033FA302004F030FAED20ADF8000025615D
:1020B0002661BDF80010CAF800102761C4F810802E
:1020C000C4F81090642004F01FFA032004F01CFAF6
:1020D000122004F019FA812004F016FAE820ADF875
:1020E000000025612661BDF80010CAF800102761C4
:1020F000C4F81080C4F81090852004F005FA102070
:1021000004F002FA7A2004F0FFF9CB20ADF80000C9
:1021100025612661BDF80010CAF800102761C4F8D7
:102120001080C4F81090392004F0EEF92C2004F04F
:10213000EBF9002004F0E8F9342004F0E5F902207E
:1021400004F0E2F9F720ADF8000025612661BDF842
:102150000010CAF800102761C4F81080C4F810906D
:10216000202004F0D1F9EA20ADF8000025612661B5
:10217000BDF80010CAF800102761C4F81080C4F838
:102180001090002004F0C0F9002004F0BDF9C02038
:10219000ADF8000025612661BDF80010CAF80010F6
:1021A0002761C4F81080C4F810901B2004F0ACF92B
:1021B000C120ADF8000025612661BDF80010CAF805
:1021C00000102761C4F81080C4F81090012004F0BA
:1021D0009BF9C520ADF8000025612661BDF800100F
:1021E000CAF800102761C4F81080C4F8109030209D
:1021F00004F08AF9302004F087F9C720ADF8000018
:1022000025612661BDF80010CAF800102761C4F8E6
:102210001080C4F81090B72004F076F93620ADF89D
:10222000000025612661BDF80010CAF80010276182
:10223000C4F81080C4F81090482004F065F93A20E2
:10224000ADF8000025612661BDF80010CAF8001045
:102250002761C4F81080C4F81090552004F054F998
:10226000B120ADF8000025612661BDF80010CAF864
:1022700000102761C4F81080C4F81090002004F00A
:1022800043F91A2004F040F9B620ADF800002561AA
:102290002661BDF80010CAF800102761C4F810804C
:1022A000C4F810900A2004F02FF9A22004F02CF9B1
:1022B000F220ADF8000025612661BDF80010CAF8D3
:1022C00000102761C4F81080C4F81090002004F0BA
:1022D0001BF92620ADF8000025612661BDF800102D
:1022E000CAF800102761C4F81080C4F810900120CB
:1022F00004F00AF9E020ADF8000025612661BDF880
:102300000010CAF800102761C4F81080C4F81090BB
:102310000F2004F0F9F82A2004F0F6F8282004F041
:10232000F3F8082004F0F0F80E2004F0EDF808208F
:1023300004F0EAF8542004F0E7F8A92004F0E4F8E7
:10234000432004F0E1F80A2004F0DEF80F2004F046
:10235000DBF8002004F0D8F8002004F0D5F80020C5
:1023600004F0D2F8002004F0CFF8E120ADF800002E
:1023700025612661BDF80010CAF800102761C4F875
:102380001080C4F81090002004F0BEF8152004F06E
:10239000BBF8172004F0B8F8072004F0B5F81120B6
:1023A00004F0B2F8062004F0AFF82B2004F0ACF8EB
:1023B000562004F0A9F83C2004F0A6F8052004F00B
:1023C000A3F8102004F0A0F80F2004F09DF83F209F
:1023D00004F09AF83F2004F097F80F2004F094F8E6
:1023E0002B20ADF8000025612661BDF80010CAF869
:1023F00000102761C4F81080C4F81090002004F089
:1024000083F8002004F080F8012004F07DF83F20DC
:1024100004F07AF82A20ADF8000025612661BDF8A5
:102420000010CAF800102761C4F81080C4F810909A
:10243000002004F069F8002004F066F8002004F0A1
:1024400063F8EF2004F060F81120ADF8000025617A
:102450002661BDF80010CAF800102761C4F810808A
:10246000C4F81090782003E0001001400C0C0140EB
:10247000FFF7B2FC2920ADF8000025612661BDF808
:102480000010CAF800102761C4F81080C4F810903A
:10249000BDE8F88F2DE9F84FFF20ADF80000FF4CA4
:1024A0004FF0807525616E002661BDF80010DFF8E1
:1024B000F0A3CAF800106F1027614FF08008C4F82D
:1024C00010804FF40079C4F8109004F01DF89820A3
:1024D00004F01AF8062004F017F8BC20ADF800004C
:1024E00025612661BDF80010CAF800102761C4F804
:1024F0001080C4F81090012004F006F80F2004F0BA
:1025000003F8612004F000F8FF2003F0FDFF012034
:1025100003F0FAFF012003F0F7FF0B2003F0F4FFB4
:10252000102003F0F1FF372003F0EEFF632003F0EB
:10253000EBFFFF2003F0E8FFFF2003F0E5FF0120A1
:1025400003F0E2FF012003F0DFFF002003F0DCFFD7
:10255000002003F0D9FFFF2003F0D6FF522003F044
:10256000D3FF012003F0D0FF002003F0CDFF402077
:1025700003F0CAFFBD20ADF8000025612661BDF85B
:102580000010CAF800102761C4F81080C4F8109039
:10259000012003F0B9FF232003F0B6FF452003F02C
:1025A000B3FF672003F0B0FF012003F0ADFF23204D
:1025B00003F0AAFF452003F0A7FF672003F0A4FF64
:1025C000BE20ADF8000025612661BDF80010CAF8F4
:1025D00000102761C4F81080C4F81090002003F0A8
:1025E00093FF012003F090FFAB2003F08DFF6020EC
:1025F00003F08AFF222003F087FF222003F084FFEC
:10260000222003F081FF222003F07EFF222003F02E
:102610007BFFC720ADF8000025612661BDF80010E2
:10262000CAF800102761C4F81080C4F81090362052
:1026300003F06AFFED20ADF8000025612661BDF8CA
:102640000010CAF800102761C4F81080C4F8109078
:102650007F2003F059FF0F2003F056FFC020ADF894
:10266000000025612661BDF80010CAF8001027613E
:10267000C4F81080C4F810900F2003F045FF0B2021
:1026800003F042FF0A2003F03FFFFC20ADF80000FA
:1026900025612661BDF80010CAF800102761C4F852
:1026A0001080C4F81090082003F02EFFDF20ADF852
:1026B000000025612661BDF80010CAF800102761EE
:1026C000C4F81080C4F81090002003F01DFF002013
:1026D00003F01AFF002003F017FF002003F014FF9F
:1026E000002003F011FF202003F00EFFF320ADF8CF
:1026F000000025612661BDF80010CAF800102761AE
:10270000C4F81080C4F81090742003F0FDFEB420CB
:10271000ADF8000025612661BDF80010CAF8001070
:102720002761C4F81080C4F81090002003F0ECFE7C
:10273000002003F0E9FE002003F0E6FEF720ADF8EC
:10274000000025612661BDF80010CAF8001027615D
:10275000C4F81080C4F81090822003F0D5FEB12098
:10276000ADF8000025612661BDF80010CAF8001020
:102770002761C4F81080C4F81090002003F0C4FE54
:10278000132003F0C1FE132003F0BEFEF220ADF8CB
:10279000000025612661BDF80010CAF8001027610D
:1027A000C4F81080C4F81090802003F0ADFE04201F
:1027B00003F0AAFE402003F0A7FE282003F0A4FEA9
:1027C000C120ADF8000025612661BDF80010CAF8EF
:1027D00000102761C4F81080C4F81090172003F08F
:1027E00093FE882003F090FE882003F08DFE2020C9
:1027F00003F08AFEE020ADF8000025612661BDF8F7
:102800000010CAF800102761C4F81080C4F81090B6
:10281000002003F079FE0A2003F076FE122003F078
:1028200073FE102003F070FE0E2003F06DFE2020DA
:1028300003F06AFECC2003F067FE072003F064FE7D
:10284000062003F061FE0B2003F05EFE0E2003F075
:102850005BFE0F2003F058FE0D2003F055FE1520FF
:1028600003F052FE102003F04FFE002003F04CFE58
:10287000E120ADF8000025612661BDF80010CAF81E
:1028800000102761C4F81080C4F81090002003F0F5
:102890003BFE0B2003F038FE132003E00010014044
:1028A0000C0C014003F030FE0D2003F02DFE0E2035
:1028B00003F02AFE1B2003F027FE712003F024FE04
:1028C000062003F021FE062003F01EFE0A2003F07E
:1028D0001BFE0F2003F018FE0E2003F015FE0F2044
:1028E00003F012FE152003F00FFE0C2003F00CFE87
:1028F000002003F009FE2A20ADF8000025612661C2
:10290000BDF80010CAF800102761C4F81080C4F8A0
:102910001090002003F0F8FD002003F0F5FD0120E9
:1029200003F0F2FDDF2003F0EFFD2B20ADF80000F7
:1029300025612661BDF80010CAF800102761C4F8AF
:102940001080C4F81090002003F0DEFD002003F09A
:10295000DBFD032003F0D8FD1F2003F0D5FD3A2056
:10296000ADF8000025612661BDF80010CAF800101E
:102970002761C4F81080C4F81090552003F0C4FDFE
:102980003620ADF8000025612661BDF80010CAF8B8
:1029900000102761C4F81080C4F81090002003F0E4
:1029A000B3FD1120ADF8000025612661BDF80010CF
:1029B000CAF800102761C4F81080C4F8109078207D
:1029C000FFF70AFA2920ADF8000025612661BDF85D
:1029D0000010CAF800102761C4F81080C4F81090E5
:1029E0001420FFF7F9F92C20ADF8000025612661CD
:1029F000BDF80010CAF800102761C4F81080C4F8B0
:102A00001090BDE8F88F00002DE9F84FED20ADF8EB
:102A10000000DFF80C844FF08076C8F81060740076
:102A2000C8F81040BDF80000FE4D2860A310C8F89B
:102A300010304FF08009C8F810909F13C8F810703C
:102A4000012003F061FDFE2003F05EFDEE20ADF8F5
:102A50000000C8F81060C8F81040BDF800002860F9
:102A6000C8F81030C8F81090C8F81070DE2003F0D5
:102A70004BFD212003F048FDF120ADF80000C8F81F
:102A80001060C8F81040BDF800002860C8F8103089
:102A9000C8F81090C8F81070012003F035FDDF2051
:102AA000ADF80000C8F81060C8F81040BDF800008C
:102AB0002860C8F81030C8F81090C8F810701020BE
:102AC00003F022FD4FF0C40AADF800A0C8F8106072
:102AD000C8F81040BDF800002860C8F81030C8F8E9
:102AE0001090C8F810708F2003F00EFD4FF0C60B49
:102AF000ADF800B0C8F81060C8F81040BDF800008C
:102B00002860C8F81030C8F81090C8F8107000207D
:102B100003F0FAFCE22003F0F7FCE22003F0F4FCFF
:102B2000E22003F0F1FCBF20ADF80000C8F810600F
:102B3000C8F81040BDF800002860C8F81030C8F888
:102B40001090C8F81070AA2003F0DEFCB020ADF899
:102B50000000C8F81060C8F81040BDF800002860F8
:102B6000C8F81030C8F81090C8F810700D2003F0A5
:102B7000CBFC002003F0C8FC0D2003F0C5FC0020B6
:102B800003F0C2FC112003F0BFFC002003F0BCFCEA
:102B9000192003F0B9FC002003F0B6FC212003F05B
:102BA000B3FC002003F0B0FC2D2003F0ADFC0020AE
:102BB00003F0AAFC3D2003F0A7FC002003F0A4FCD6
:102BC0005D2003F0A1FC002003F09EFC5D2003F0DB
:102BD0009BFC002003F098FCB120ADF80000C8F881
:102BE0001060C8F81040BDF800002860C8F8103028
:102BF000C8F81090C8F81070802003F085FC002001
:102C000003F082FC8B2003F07FFC002003F07CFCAF
:102C1000962003F079FC002003F076FCB220ADF89A
:102C20000000C8F81060C8F81040BDF80000286027
:102C3000C8F81030C8F81090C8F81070002003F0E1
:102C400063FC002003F060FC022003F05DFC002028
:102C500003F05AFC032003F057FC002003F054FC5F
:102C6000B320ADF80000C8F81060C8F81040BDF8F7
:102C700000002860C8F81030C8F81090C8F810702C
:102C8000002003F041FC002003F03EFC002003F094
:102C90003BFC002003F038FC002003F035FC002052
:102CA00003F032FC002003F02FFC002003F02CFC8A
:102CB000002003F029FC002003F026FC002003F094
:102CC00023FC002003F020FC002003F01DFC00206A
:102CD00003F01AFC002003F017FC002003F014FCA2
:102CE000002003F011FC002003F00EFC002003F094
:102CF0000BFC002003F008FC002003F005FC002082
:102D000003F002FC002003F0FFFB002003F0FCFBBB
:102D1000B420ADF80000C8F81060C8F81040BDF845
:102D200000002860C8F81030C8F81090C8F810707B
:102D30008B2003F0E9FB002003F0E6FB962003F074
:102D4000E3FB002003F0E0FBA12003F0DDFB00200B
:102D500003F0DAFBB520ADF80000C8F81060C8F841
:102D60001040BDF800002860C8F81030C8F8109076
:102D7000C8F81070022003F0C7FB002003F0C4FB6A
:102D8000032003F0C1FB002003F0BEFB042003F08E
:102D9000BBFB002003F0B8FBB620ADF80000C8F87C
:102DA0001060C8F81040BDF800002860C8F8103066
:102DB000C8F81090C8F81070002003F0A5FB0020A0
:102DC00003F0A2FBB720ADF80000C8F81060C8F807
:102DD0001040BDF800002860C8F81030C8F8109006
:102DE000C8F81070002003F08FFB002003F08CFB6C
:102DF0003F2003F089FB002003F086FB5E2003F0F8
:102E000083FB002003F080FB642003F07DFB0020A7
:102E100003F07AFB8C2003F077FB002004E0000035
:102E2000001001400C0C014003F06EFBAC2003F0DD
:102E30006BFB002003F068FBDC2003F065FB002047
:102E400003F062FB702003F05FFB002003F05CFBEB
:102E5000902003F059FB002003F056FBEB2003F019
:102E600053FB002003F050FBDC2003F04DFB00205F
:102E700003F04AFBB820ADF80000C8F81060C8F8AD
:102E80001040BDF800002860C8F81030C8F8109055
:102E9000C8F81070002003F037FB002003F034FB6B
:102EA000002003F031FB002003F02EFB002003F094
:102EB0002BFB002003F028FB002003F025FB002063
:102EC00003F022FBBA20ADF80000C8F81060C8F883
:102ED0001040BDF800002860C8F81030C8F8109005
:102EE000C8F81070242003F00FFB002003F00CFB47
:102EF000002003F009FB002003F006FBC120ADF821
:102F00000000C8F81060C8F81040BDF80000286044
:102F1000C8F81030C8F81090C8F81070202003F0DE
:102F2000F3FA002003F0F0FA542003F0EDFA002049
:102F300003F0EAFAFF2003F0E7FA002003F0E4FAD6
:102F4000C220ADF80000C8F81060C8F81040BDF805
:102F500000002860C8F81030C8F81090C8F8107049
:102F60000A2003F0D1FA002003F0CEFA042003F087
:102F7000CBFA002003F0C8FAC320ADF80000C8F86F
:102F80001060C8F81040BDF800002860C8F8103084
:102F9000C8F81090C8F810703C2003F0B5FA002073
:102FA00003F0B2FA3A2003F0AFFA002003F0ACFAD3
:102FB000392003F0A9FA002003F0A6FA372003F025
:102FC000A3FA002003F0A0FA3C2003F09DFA0020B1
:102FD00003F09AFA362003F097FA002003F094FAEF
:102FE000322003F091FA002003F08EFA2F2003F034
:102FF0008BFA002003F088FA2C2003F085FA0020D9
:1030000003F082FA292003F07FFA002003F07CFA13
:10301000262003F079FA002003F076FA242003F04A
:1030200073FA002003F070FA242003F06DFA0020F8
:1030300003F06AFA232003F067FA002003F064FA31
:103040003C2003F061FA002003F05EFA362003F022
:103050005BFA002003F058FA322003F055FA002002
:1030600003F052FA2F2003F04FFA002003F04CFA3D
:103070002C2003F049FA002003F046FA292003F03F
:1030800043FA002003F040FA262003F03DFA002026
:1030900003F03AFA242003F037FA002003F034FA60
:1030A000242003F031FA002003F02EFA232003F04D
:1030B0002BFA002003F028FAADF800A0C8F8106041
:1030C000C8F81040BDF800002860C8F81030C8F8F3
:1030D0001090C8F81070622003F016FA002003F078
:1030E00013FA052003F010FA002003F00DFA8420F3
:1030F00003F00AFA002003F007FAF02003F004FAC4
:10310000002003F001FA182003F0FEF9002003F07C
:10311000FBF9A42003F0F8F9002003F0F5F91820DA
:1031200003F0F2F9002003F0EFF9502003F0ECF97E
:10313000002003F0E9F90C2003F0E6F9002003F089
:10314000E3F9172003F0E0F9002003F0DDF9952002
:1031500003F0DAF9002003F0D7F9F32003F0D4F9F3
:10316000002003F0D1F9E62003F0CEF9002003F0AF
:10317000CBF9C520ADF80000C8F81060C8F81040C1
:10318000BDF800002860C8F81030C8F81090C8F8E2
:103190001070322003F0B8F9002003F0B5F9442094
:1031A00003F0B2F9002003F0AFF9652003F0ACF9A9
:1031B000002003F0A9F9762003F0A6F9002003F01F
:1031C000A3F9882003F0A0F9002003F09DF9ADF8E1
:1031D00000B0C8F81060C8F81040BDF800002860C2
:1031E000C8F81030C8F81090C8F81070202003F00C
:1031F0008BF9002003F088F9172003F085F90020EF
:1032000003F082F9012003F07FF9002003F07CF93C
:10321000C720ADF80000C8F81060C8F81040BDF82D
:1032200000002860C8F81030C8F81090C8F8107076
:10323000002003F069F9002003F066F9002003F094
:1032400063F9002003F060F9C820ADF80000C8F869
:103250001060C8F81040BDF800002860C8F81030B1
:10326000C8F81090C8F81070002003F04DF9002045
:1032700003F04AF9002003F047F9002003F044F975
:10328000C920ADF80000C8F81060C8F81040BDF8BB
:1032900000002860C8F81030C8F81090C8F8107006
:1032A000002003F031F9002003F02EF9002003F094
:1032B0002BF9002003F028F9002003F025F9002065
:1032C00003F022F9002003F01FF9002003F01CF99D
:1032D000002003F019F9002003F016F9002003F094
:1032E00013F9002003F010F9002003F00DF900207D
:1032F00003F00AF9002003F007F9002003F004F9B5
:10330000E020ADF800004346C8F81060C8F810404F
:10331000BDF8000028604FF4000AC8F810A0CB46A2
:10332000C8F81090C8F81070162003F0EDF80020CF
:1033300003F0EAF81C2003F0E7F8002003F0E4F8BB
:10334000212003F0E1F8002003F0DEF8362003F03E
:10335000DBF8002003F0D8F8462003F0D5F8002071
:1033600003F0D2F8522003F0CFF8002003F0CCF89D
:10337000642003F0C9F8002003F0C6F87A2003F0B7
:10338000C3F8002003F0C0F88B2003F0BDF8002044
:1033900003F0BAF8992003F0B7F8002003F0B4F86E
:1033A000A82003F0B1F8002003F0AEF8B92003F034
:1033B000ABF8002003F0A8F8C42003F0A5F8002023
:1033C00003F0A2F8CA2003F09FF8002003F09CF855
:1033D000D22003F099F8002003F096F8D92003F0EA
:1033E00093F8002003F090F8E02003F08DF800201F
:1033F00003F08AF8F32003F087F8002003F084F844
:10340000E120ADF800001E611C61BDF800002860DD
:10341000C3F810A0C3F810901F61162003F074F8D1
:10342000002003F071F81C2003F06EF8002003F078
:103430006BF8222003F068F8002003F065F83620CE
:1034400003F062F8002003F05FF8452003F05CF819
:10345000002003F059F8522003F056F8002003F042
:1034600053F8642003F050F8002003F04DF87A2060
:1034700003F04AF8002003F047F88B2003F044F8EB
:10348000002003F041F8992003F03EF8002003F0FB
:103490003BF8A82003F038F8002003F035F8B920F5
:1034A00003F032F8002003F02FF8C42003F02CF8CA
:1034B000002003F029F8CA2003F026F8002003F0CA
:1034C00023F8D22003F020F8002003F01DF8D820C4
:1034D00003F01AF8002003F017F8E02003F014F8C6
:1034E000002003F011F8F32003F00EF8002003F0A1
:1034F0000BF8E220ADF800001E611C61BDF8000071
:103500002860C3F810A0C3F810901F61052002F0D6
:10351000FBFF002002F0F8FF0B2002F0F5FF002077
:1035200002F0F2FF1B2002F0EFFF002002F0ECFFA0
:10353000342002F0E9FF002002F0E6FF442002F010
:10354000E3FF002002F0E0FF4F2002F0DDFF00204B
:1035500002F0DAFF612002F0D7FF002002F0D4FF72
:10356000792002F0D1FF002002F0CEFF882002F087
:10357000CBFF002002F0C8FF972002F0C5FF00201B
:1035800002F0C2FFA62002F0BFFF002002F0BCFF45
:10359000B72002F0B9FF002002F0B6FFC22002F00F
:1035A000B3FF002002F0B0FFC72002F0ADFF002003
:1035B00002F0AAFFD12002F0A7FF002002F0A4FF32
:1035C000D62002F0A1FF002002F09EFFDD2002F0D5
:1035D0009BFF002002F098FFF32002F095FF0020EF
:1035E00002F092FFE320ADF800001E611C61BDF8FF
:1035F00000002860C3F810A0C3F810901F610520D8
:1036000002F082FF002002F07FFF0A2002F07CFF20
:10361000002002F079FF1C2002F076FF002002F06B
:1036200073FF332002F070FF002002F06DFF442092
:1036300002F06AFF002002F067FF502002F064FFF2
:10364000002002F061FF622002F05EFF002002F025
:103650005BFF782002F058FF002002F055FF882021
:1036600002F052FF002002F04FFF972002F04CFFC3
:10367000002002F049FFA62002F046FF002002F0E1
:1036800043FFB72002F040FF002002F03DFFC220C0
:1036900002F03AFF002002F037FFC72002F034FFAB
:1036A000002002F031FFD12002F02EFF002002F0B6
:1036B0002BFFD52002F028FF002002F025FFDD209F
:1036C00002F022FF002002F01FFFF32002F01CFF97
:1036D000002002F019FFE420ADF800001E611C611B
:1036E000BDF800002860C3F810A0C3F810901F6157
:1036F000012002F009FF002002F006FF012002F085
:1037000003FF002002F000FF022002F0FDFE002077
:1037100002F0FAFE2A2002F0F7FE002002F0F4FE8A
:103720003C2002F0F1FE002002F0EEFE4B2002F001
:10373000EBFE002002F0E8FE5D2002F0E5FE002036
:1037400002F0E2FE742002F0DFFE002002F0DCFE58
:10375000842002F0D9FE002002F0D6FE932002F071
:10376000D3FE002002F0D0FEA22002F0CDFE002009
:1037700002F0CAFEB32002F0C7FE002002F0C4FE31
:10378000BE2002F0C1FE002002F0BEFEC42002F006
:10379000BBFE002002F0B8FECD2002F0B5FE0020F6
:1037A00002F0B2FED32002F0AFFE002002F0ACFE29
:1037B000DD2002F0A9FE002002F0A6FEF32002F0B8
:1037C000A3FE002002F0A0FEE520ADF800001E617F
:1037D0001C61BDF800002860C3F810A0C3F8109069
:1037E0001F61002002F090FE002002F08DFE0020FC
:1037F00002F08AFE002002F087FE022002F084FE22
:10380000002002F081FE292002F07EFE002002F05E
:103810007BFE3C2002F078FE002002F075FE4B207B
:1038200002F072FE002002F06FFE5D2002F06CFEDE
:10383000002002F069FE742002F066FE002002F013
:1038400063FE842002F060FE002002F05DFE932003
:1038500002F05AFE002002F057FEA22002F054FEB1
:10386000002002F051FEB32002F04EFE002002F0D4
:103870004BFEBE2002F048FE002002F045FEC420B0
:1038800002F042FE002002F03FFECD2002F03CFE9E
:10389000002002F039FED32002F036FE002002F0B4
:1038A00033FEDC2002F030FE002002F02DFEF3207B
:1038B00002F02AFE002002F027FEE620ADF800000C
:1038C000C8F81060A246C8F81040BDF80010A9461C
:1038D0002960A410C8F810405D46C8F810B0C8F8B8
:1038E0001070112002F010FE002002F00DFE3420B6
:1038F00002F00AFE002002F007FE562002F004FE4D
:10390000002002F001FE762002F0FEFD002002F011
:10391000FBFD772002F0F8FD002002F0F5FD6620A7
:1039200002F0F2FD002002F0EFFD882002F0ECFD35
:10393000002002F0E9FD992002F0E6FD002002F0EF
:10394000E3FDBB2002F0E0FD002002F0DDFD992048
:1039500002F0DAFD002002F0D7FD662002F0D4FD6F
:10396000002002F0D1FD552002F0CEFD002002F033
:10397000CBFD552002F0C8FD002002F0C5FD45201A
:1039800002F0C2FD002002F0BFFD432002F0BCFDAA
:10399000002002F0B9FD442002F0B6FD002002F044
:1039A000B3FDE720ADF80000C8F81060C8F810A01B
:1039B000BDF80010C9F80010C8F81040C8F8105041
:1039C000C8F81070322002F09FFD002002F09CFD2C
:1039D000552002F099FD002002F096FD762002F0BD
:1039E00093FD002002F090FD662002F08DFD002086
:1039F00002F08AFD672002F087FD002002F084FDBE
:103A0000672002F081FD002002F07EFD872002F099
:103A10007BFD002002F078FD992002F075FD00206A
:103A200002F072FDBB2002F06FFD002002F06CFD81
:103A3000992002F069FD002002F066FD772002F077
:103A400063FD002002F060FD442002F05DFD0020D7
:103A500002F05AFD562002F057FD002002F054FDFE
:103A6000232002F051FD002002F04EFD332002F031
:103A70004BFD002002F048FD452002F045FD0020EE
:103A800002F042FDE820ADF80000C8F81060C8F868
:103A900010A0BDF80010C9F80010C8F81040C8F810
:103AA0001050C8F81070002002F02EFD002002F027
:103AB0002BFD992002F028FD002002F025FD872033
:103AC00002F022FD002002F01FFD882002F01CFD04
:103AD000002002F019FD772002F016FD002002F010
:103AE00013FD662002F010FD002002F00DFD88207D
:103AF00002F00AFD002002F007FDAA2002F004FDFA
:103B0000002002F001FDBB2002F0FEFC002002F0CC
:103B1000FBFC992002F0F8FC002002F0F5FC662086
:103B200002F0F2FC002002F0EFFC552002F0ECFC69
:103B3000002002F0E9FC552002F0E6FC002002F033
:103B4000E3FC442002F0E0FC002002F0DDFC442015
:103B500002F0DAFC002002F0D7FC552002F0D4FC81
:103B6000002002F0D1FCE920ADF80000C8F8106098
:103B7000C8F810A0BDF80010C9F80010C8F810402F
:103B8000C8F81050C8F81070AA2002F0BDFC002040
:103B900002F0BAFC002002F0B7FC002002F0B4FCF6
:103BA0000020ADF80000C8F81060C8F810A0BDF8FB
:103BB0000010C9F80010C8F81040C8F81050C8F834
:103BC0001070AA2002F0A0FCCF20ADF80000C8F8C9
:103BD0001060C8F810A0BDF80010C9F80010C8F8AF
:103BE0001040C8F81050C8F81070002002F08CFC8B
:103BF000002002F089FC002002F086FC002002F088
:103C000083FC002002F080FC002002F07DFC0020FC
:103C100002F07AFC002002F077FC002002F074FC35
:103C2000002002F071FC002002F06EFC002002F087
:103C30006BFC002002F068FC002002F065FC002014
:103C400002F062FC002002F05FFC002002F05CFC4D
:103C5000F020ADF80000C8F81060C8F810A0BDF85A
:103C60000010C9F80010C8F81040C8F81050C8F883
:103C70001070002002F048FC502002F045FC0020AB
:103C800002F042FC002002F03FFC002002F03CFC6D
:103C9000F320ADF80000C8F81060C8F810A0BDF817
:103CA0000010C9F80010C8F81040C8F81050C8F843
:103CB0001070002002F028FCF920ADF80000C8F8D0
:103CC0001060C8F810A0BDF80010C9F80010C8F8BE
:103CD0001040C8F81050C8F81070062002F014FC0C
:103CE000102002F011FC292002F00EFC002002F04E
:103CF0000BFC3A20ADF80000C8F81060C8F810A01E
:103D0000BDF80010C9F80010C8F81040C8F81050ED
:103D1000C8F81070552002F0F7FB1120ADF8000034
:103D2000C8F81060C8F810A0BDF80010C9F800105D
:103D3000C8F81040C8F81050C8F810706420FEF79A
:103D40004BF82920ADF80000C8F81060C8F810A0A2
:103D5000BDF80010C9F80010C8F81040C8F810509D
:103D6000C8F810703520ADF80000C8F81060C8F829
:103D700010A0BDF80010C9F80010C8F81040C8F82D
:103D80001050C8F81070002002F0BEFB5120ADF8B2
:103D90000000C8F81060C8F810A0BDF80010C9F8FD
:103DA0000010C8F81040C8F81050C8F81070FF2074
:103DB00002F0AAFB5320ADF80000C8F81060C8F864
:103DC00010A0BDF80010C9F80010C8F81040C8F8DD
:103DD0001050C8F810702C2002F096FB5520ADF85A
:103DE0000000C8F81060C8F810A0BDF80010C9F8AD
:103DF0000010C8F81040C8F81050C8F810708220A1
:103E000002F082FB2C20ADF80000C8F81060C8F862
:103E100010A0BDF80010C9F80010C8F81040C8F88C
:103E20001050C8F81070BDE8F88F00002DE9F84F69
:103E30004FF470445521204602F07AFB651CAA21FC
:103E4000284602F075FBA61C5221304602F070FB9A
:103E5000E71C0821384602F06BFB4FF204080121F1
:103E6000404602F065FB0D214FF4304002F060FB4C
:103E70000D214BF2010002F05BFB0D214BF2020021
:103E800002F056FB4FF436493421484602F050FB0D
:103E900034214BF2016002F04BFB34214BF2026003
:103EA00002F046FB4FF4314A0D21504602F040FB30
:103EB0004BF2011B0D21584602F03AFB0D214BF24B
:103EC000021002F035FB34214FF4374002F030FB92
:103ED00034214BF2017002F02BFB34214BF20270C3
:103EE00002F026FB00214FF4324002F021FB0021BA
:103EF0004BF2012002F01CFB00214BF2022002F0E9
:103F000017FB24214FF4384002F012FB24214BF61A
:103F1000010002F00DFB24214BF6020002F008FB29
:103F200001214FF43F4002F003FB0F214FF43340D7
:103F300002F0FEFA0F214BF2013002F0F9FA0F21E4
:103F40004BF2023002F0F4FA34214FF4394002F01F
:103F5000EFFA34214BF6011002F0EAFA34214BF665
:103F6000021002F0E5FA08214FF4354002F0E0FAC1
:103F700008214BF2015002F0DBFA08214BF202500B
:103F800002F0D6FA03214FF4424002F0D1FA242184
:103F90004FF43A4002F0CCFA24214BF6012002F013
:103FA000C7FA24214BF6022002F0C2FA00214FF496
:103FB0003C4002F0BDFA78214BF6014002F0B8FA1D
:103FC00000214BF6024002F0B3FA00214FF43D40CD
:103FD00002F0AEFA78214BF6015002F0A9FA002166
:103FE0004BF6025002F0A4FA00214FF43E4002F0DA
:103FF0009FFA64214BF6016002F09AFA00214FF417
:10400000514002F095FA33214DF2011002F090FA7E
:1040100000214DF2021002F08BFA34214DF2031010
:1040200002F086FA00214DF2041002F081FA3A21E2
:104030004DF2051002F07CFA00214DF2061002F05C
:1040400077FA4A214DF2071002F072FA00214DF280
:10405000081002F06DFA5C214DF2091002F068FAC6
:1040600000214DF20A1002F063FA81214DF20B108B
:1040700002F05EFA00214DF20C1002F059FAA6216E
:104080004DF20D1002F054FA00214DF20E1002F024
:104090004FFAE5214DF20F1002F04AFA01214DF2DC
:1040A000101002F045FA13214DF2111002F040FAFF
:1040B00001214DF2121002F03BFA54214DF213107F
:1040C00002F036FA01214DF2141002F031FA822189
:1040D0004DF2151002F02CFA01214DF2161002F0EB
:1040E00027FACA214DF2171002F022FA02214DF2EE
:1040F000181002F01DFA00214DF2191002F018FA02
:1041000002214DF21A1002F013FA01214DF21B1098
:1041100002F00EFA02214DF21C1002F009FA3421CD
:104120004DF21D1002F004FA02214DF21E1002F0B1
:10413000FFF967214DF21F1002F0FAF902214DF24A
:10414000201002F0F5F984214DF2211002F0F0F96F
:1041500002214DF2221002F0EBF9A4214DF22310BE
:1041600002F0E6F902214DF2241002F0E1F9B72144
:104170004DF2251002F0DCF902214DF2261002F07A
:10418000D7F9CF214DF2271002F0D2F902214DF2DA
:10419000281002F0CDF9DE214DF2291002F0C8F905
:1041A00002214DF22A1002F0C3F9F2214DF22B1038
:1041B00002F0BEF902214DF22C1002F0B9F9FE21F5
:1041C0004DF22D1002F0B4F903214DF22E1002F041
:1041D000AFF910214DF22F1002F0AAF903214DF290
:1041E000301002F0A5F933214DF2311002F0A0F9A0
:1041F00003214DF2321002F09BF96D214DF2331084
:1042000002F096F900214FF4524002F091F9332167
:104210004DF2012002F08CF900214DF2022002F053
:1042200087F934214DF2032002F082F900214DF28A
:10423000042002F07DF93A214DF2052002F078F9D0
:1042400000214DF2062002F073F94A214DF20720B9
:1042500002F06EF900214DF2082002F069F95C21AC
:104260004DF2092002F064F900214DF20A2002F01B
:104270005FF981214DF20B2002F05AF900214DF235
:104280000C2002F055F9A6214DF20D2002F050F954
:1042900000214DF20E2002F04BF9E5214DF20F20E6
:1042A00002F046F901214DF2102002F041F91321EC
:1042B0004DF2112002F03CF901214DF2122002F0E2
:1042C00037F954214DF2132002F032F901214DF259
:1042D000142002F02DF982214DF2152002F028F968
:1042E00001214DF2162002F023F9CA214DF21720C8
:1042F00002F01EF902214DF2182002F019F90021F6
:104300004DF2192002F014F902214DF21A2002F0A8
:104310000FF901214DF21B2002F00AF902214DF2A2
:104320001C2002F005F934214DF21D2002F000F9A5
:1043300002214DF21E2002F0FBF867214DF21F20F2
:1043400002F0F6F802214DF2202002F0F1F884216B
:104350004DF2212002F0ECF802214DF2222002F071
:10436000E7F8A4214DF2232002F0E2F802214DF2F9
:10437000242002F0DDF8B7214DF2252002F0D8F814
:1043800002214DF2262002F0D3F8CF214DF2272052
:1043900002F0CEF802214DF2282002F0C9F8DE2109
:1043A0004DF2292002F0C4F802214DF22A2002F039
:1043B000BFF8F2214DF22B2002F0BAF802214DF2A3
:1043C0002C2002F0B5F8FE214DF22D2002F0B0F8BD
:1043D00003214DF22E2002F0ABF810214DF22F20D8
:1043E00002F0A6F803214DF2302002F0A1F83321AB
:1043F0004DF2312002F09CF803214DF2322002F000
:1044000097F86D214DF2332002F092F800214FF41D
:10441000534002F08DF833214DF2013002F088F85C
:1044200000214DF2023002F083F834214DF20330C6
:1044300002F07EF800214DF2043002F079F83A21C2
:104440004DF2053002F074F800214DF2063002F012
:104450006FF84A214DF2073002F06AF800214DF260
:10446000083002F065F85C214DF2093002F060F886
:1044700000214DF20A3002F05BF881214DF20B3041
:1044800002F056F800214DF20C3002F051F8A6214E
:104490004DF20D3002F04CF800214DF20E3002F0DA
:1044A00047F8E5214DF20F3002F042F801214DF2BC
:1044B000103002F03DF813214DF2113002F038F8BF
:1044C00001214DF2123002F033F854214DF2133035
:1044D00002F02EF801214DF2143002F029F8822169
:1044E0004DF2153002F024F801214DF2163002F0A1
:1044F0001FF8CA214DF2173002F01AF802214DF2CE
:10450000183002F015F800214DF2193002F010F8C1
:1045100002214DF21A3002F00BF801214DF21B304E
:1045200002F006F802214DF21C3002F001F83421AD
:104530004DF21D3001F0FCFF02214DF21E3001F062
:10454000F7FF67214DF21F3001F0F2FF02214DF21B
:10455000203001F0EDFF84214DF2213001F0E8FF21
:1045600002214DF2223001F0E3FFA4214DF223306D
:1045700001F0DEFF02214DF2243001F0D9FFB72116
:104580004DF2253001F0D4FF02214DF2263001F02A
:10459000CFFFCF214DF2273001F0CAFF02214DF2AB
:1045A000283001F0C5FFDE214DF2293001F0C0FFB7
:1045B00002214DF22A3001F0BBFFF2214DF22B30E7
:1045C00001F0B6FF02214DF22C3001F0B1FFFE21C7
:1045D0004DF22D3001F0ACFF03214DF22E3001F0F1
:1045E000A7FF10214DF22F3001F0A2FF03214DF261
:1045F000303001F09DFF33214DF2313001F098FF52
:1046000003214DF2323001F093FF6D214DF2333032
:1046100001F08EFF00214FF4544001F089FF332157
:104620004DF2014001F084FF00214DF2024001F003
:104630007FFF34214DF2034001F07AFF00214DF25B
:10464000044001F075FF3A214DF2054001F070FF82
:1046500000214DF2064001F06BFF4A214DF2074068
:1046600001F066FF00214DF2084001F061FF5C217E
:104670004DF2094001F05CFF00214DF20A4001F0CB
:1046800057FF81214DF20B4001F052FF00214DF206
:104690000C4001F04DFFA6214DF20D4001F048FF06
:1046A00000214DF20E4001F043FFE5214DF20F4095
:1046B00001F03EFF01214DF2104001F039FF1321BE
:1046C0004DF2114001F034FF01214DF2124001F092
:1046D0002FFF54214DF2134001F02AFF01214DF22A
:1046E000144001F025FF82214DF2154001F020FF1A
:1046F00001214DF2164001F01BFFCA214DF2174077
:1047000001F016FF02214DF2184001F011FF0021C7
:104710004DF2194001F00CFF02214DF21A4001F058
:1047200007FF01214DF21B4001F002FF02214DF273
:104730001C4001F0FDFE34214DF21D4001F0F8FE59
:1047400002214DF21E4001F0F3FE67214DF21F40A1
:1047500001F0EEFE02214DF2204001F0E9FE84213D
:104760004DF2214001F0E4FE02214DF2224001F021
:10477000DFFEA4214DF2234001F0DAFE02214DF2CA
:10478000244001F0D5FEB7214DF2254001F0D0FEC6
:1047900002214DF2264001F0CBFECF214DF2274001
:1047A00001F0C6FE02214DF2284001F0C1FEDE21DB
:1047B0004DF2294001F0BCFE02214DF22A4001F0E9
:1047C000B7FEF2214DF22B4001F0B2FE02214DF274
:1047D0002C4001F0ADFEFE214DF22D4001F0A8FE6F
:1047E00003214DF22E4001F0A3FE10214DF22F4087
:1047F00001F09EFE03214DF2304001F099FE33217D
:104800004DF2314001F094FE03214DF2324001F0AF
:104810008FFE6D214DF2334001F08AFE00214FF4EE
:10482000554001F085FE33214DF2015001F080FE2C
:1048300000214DF2025001F07BFE34214DF2035075
:1048400001F076FE00214DF2045001F071FE3A2194
:104850004DF2055001F06CFE00214DF2065001F0C2
:1048600067FE4A214DF2075001F062FE00214DF231
:10487000085001F05DFE5C214DF2095001F058FE38
:1048800000214DF20A5001F053FE81214DF20B50F0
:1048900001F04EFE00214DF20C5001F049FEA62120
:1048A0004DF20D5001F044FE00214DF20E5001F08A
:1048B0003FFEE5214DF20F5001F03AFE01214DF28D
:1048C000105001F035FE13214DF2115001F030FE71
:1048D00001214DF2125001F02BFE54214DF21350E4
:1048E00001F026FE01214DF2145001F021FE82213B
:1048F0004DF2155001F01CFE01214DF2165001F051
:1049000017FECA214DF2175001F012FE02214DF29E
:10491000185001F00DFE00214DF2195001F008FE73
:1049200002214DF21A5001F003FE01214DF21B50FD
:1049300001F0FEFD02214DF21C5001F0F9FD342181
:104940004DF21D5001F0F4FD02214DF21E5001F018
:10495000EFFD67214DF21F5001F0EAFD02214DF2FB
:10496000205001F0E5FD84214DF2215001F0E0FDE1
:1049700002214DF2225001F0DBFDA4214DF2235023
:1049800001F0D6FD02214DF2245001F0D1FDB721F6
:104990004DF2255001F0CCFD02214DF2265001F0E0
:1049A000C7FDCF214DF2275001F0C2FD02214DF28B
:1049B000285001F0BDFDDE214DF2295001F0B8FD77
:1049C00002214DF22A5001F0B3FDF2214DF22B509D
:1049D00001F0AEFD02214DF22C5001F0A9FDFE21A7
:1049E0004DF22D5001F0A4FD03214DF22E5001F0A7
:1049F0009FFD10214DF22F5001F09AFD03214DF241
:104A0000305001F095FD33214DF2315001F090FD11
:104A100003214DF2325001F08BFD6D214DF23350E8
:104A200001F086FD00214FF4564001F081FD332155
:104A30004DF2016001F07CFD00214DF2026001F0B9
:104A400077FD34214DF2036001F072FD00214DF23B
:104A5000046001F06DFD3A214DF2056001F068FD42
:104A600000214DF2066001F063FD4A214DF207601E
:104A700001F05EFD00214DF2086001F059FD5C215E
:104A80004DF2096001F054FD00214DF20A6001F081
:104A90004FFD81214DF20B6001F04AFD00214DF2E6
:104AA0000C6001F045FDA6214DF20D6001F040FDC6
:104AB00000214DF20E6001F03BFDE5214DF20F604B
:104AC00001F036FD01214DF2106001F031FD13219E
:104AD0004DF2116001F02CFD01214DF2126001F048
:104AE00027FD54214DF2136001F022FD01214DF20A
:104AF000146001F01DFD82214DF2156001F018FDDA
:104B000001214DF2166001F013FDCA214DF217602C
:104B100001F00EFD02214DF2186001F009FD0021A7
:104B20004DF2196001F004FD02214DF21A6001F00E
:104B3000FFFC01214DF21B6001F0FAFC02214DF255
:104B40001C6001F0F5FC34214DF21D6001F0F0FC19
:104B500002214DF21E6001F0EBFC67214DF21F6057
:104B600001F0E6FC02214DF2206001F0E1FC84211D
:104B70004DF2216001F0DCFC02214DF2226001F0D7
:104B8000D7FCA4214DF2236001F0D2FC02214DF2AA
:104B9000246001F0CDFCB7214DF2256001F0C8FC86
:104BA00002214DF2266001F0C3FCCF214DF22760B7
:104BB00001F0BEFC02214DF2286001F0B9FCDE21BB
:104BC0004DF2296001F0B4FC02214DF22A6001F09F
:104BD000AFFCF2214DF22B6001F0AAFC02214DF254
:104BE0002C6001F0A5FCFE214DF22D6001F0A0FC2F
:104BF00003214DF22E6001F09BFC10214DF22F603D
:104C000001F096FC03214DF2306001F091FC33215C
:104C10004DF2316001F08CFC03214DF2326001F065
:104C200087FC6D214DF2336001F082FC5521204656
:104C300001F07EFCAA21284601F07AFC5221304680
:104C400001F076FC0821384601F072FC0021404654
:104C500001F06EFCCC21504601F06AFC0021584660
:104C600001F066FC0521484601F062FC70214FF41A
:104C7000374001F05DFC70214BF2017001F058FCEF
:104C800001214FF4384001F053FC03214BF60100A1
:104C900001F04EFC03214BF6020001F049FC032118
:104CA0004BF6030001F044FC02214FF43C4001F0BC
:104CB0003FFC00214BF6014001F03AFC00214BF68D
:104CC000024001F035FCD0214FF4494001F030FCA6
:104CD00002214CF6011001F02BFC50214CF6021081
:104CE00001F026FC50214CF6031001F021FC50216C
:104CF0004CF6041001F01CFC00214FF4545001F05C
:104D000017FC55214FF4685001F012FC4FF4885005
:104D1000ADF80000144C2D0625616E002661BDF82B
:104D20000000124F38604FF40008C4F810804FF0B4
:104D30008009C4F810904FF4007AC4F810A07820CD
:104D4000FDF758F84FF42450ADF8000025612661B6
:104D5000BDF800003860C4F81080C4F81090C4F8A2
:104D600010A0BDE8F88F0000001001400C0C0140BD
:104D70002DE9F84FE220ADF80000AC4C4FF0807503
:104D800025616E002661BDF80010DFF8A482C8F826
:104D900000106F1027614FF08009C4F810904FF495
:104DA000007AC4F810A01D2001F0AEFB022001F033
:104DB000ABFB042001F0A8FB6420FDF71BF84FF0CB
:104DC000E00BADF800B025612661BDF80010C8F811
:104DD00000102761C4F81090C4F810A0012001F061
:104DE00093FB0A20FCF7F8FFADF800B025612661BF
:104DF000BDF80010C8F800102761C4F81090C4F87E
:104E000010A0032001F080FB0C20FCF7E5FF01203F
:104E1000ADF8000025612661BDF80010C8F800104B
:104E20002761C4F81090C4F810A00A20FCF7D4FF42
:104E3000E620ADF8000025612661BDF80010C8F835
:104E400000102761C4F81090C4F810A02F2001F0C2
:104E50005BFBFF2001F058FBFF2001F055FBB02069
:104E6000ADF8000025612661BDF80010C8F80010FB
:104E70002761C4F81090C4F810A0202001F044FB72
:104E8000002001F041FB032001F03EFB40F21F3007
:104E900001F03AFB012001F037FB40F2DF1001F096
:104EA00033FB002001F030FBB420ADF80000256199
:104EB0002661BDF80010C8F800102761C4F81090F2
:104EC000C4F810A0042001F01FFB40F21F4001F0C5
:104ED0001BFB002001F018FB2E2001F015FB002029
:104EE00001F012FB002001F00FFB002001F00CFB91
:104EF000002001F009FBB620ADF800002561266115
:104F0000BDF80010C8F800102761C4F81090C4F86C
:104F100010A0022001F0F8FA4FF4037001F0F4FA47
:104F2000002001F0F1FA172001F0EEFA152001F04F
:104F3000EBFA002001F0E8FA002001F0E5FAF02099
:104F4000ADF8000025612661BDF80010C8F800101A
:104F50002761C4F81090C4F810A0032001F0D4FA1F
:104F60002920ADF8000025612661BDF80010C8F8C1
:104F700000102761C4F81090C4F810A0D020ADF83C
:104F8000000025612661BDF80010C8F800102761F7
:104F9000C4F81090C4F810A0002001F0B5FABE20AB
:104FA000ADF8000025612661BDF80010C8F80010BA
:104FB0002761C4F81090C4F810A0052001F0A4FAED
:104FC000FE2001F0A1FA012001F09EFA002001F07C
:104FD0009BFA002001F098FA002001F095FAB82021
:104FE000ADF8000025612661BDF80010C8F800107A
:104FF0002761C4F81090C4F810A0032001F084FACF
:10500000012001F081FABA20ADF800002561266187
:10501000BDF80010C8F800102761C4F81090C4F85B
:1050200010A0BDE8F84F012001F06EBA0010014059
:105030000C0C01402DE9F84F1120ADF80000CB4CCD
:105040004FF0807525616E002661BDF80010DFF815
:1050500020A3CAF800106F1027614FF08008C4F831
:1050600010804FF40079C4F810907820FCF7B4FE5B
:105070003620ADF8000025612661BDF80010CAF8A1
:1050800000102761C4F81080C4F81090002001F0CF
:105090003BFA3A20ADF8000025612661BDF800100A
:1050A000CAF800102761C4F81080C4F810900520D9
:1050B00001F02AFAB220ADF8000025612661BDF8A2
:1050C0000010CAF800102761C4F81080C4F81090CE
:1050D0000C2001F019FA0C2001F016FA002001F062
:1050E00013FA332001F010FA332001F00DFAB72043
:1050F000ADF8000025612661BDF80010CAF8001067
:105100002761C4F81080C4F81090352001F0FCF934
:10511000BB20ADF8000025612661BDF80010CAF87B
:1051200000102761C4F81080C4F81090322001F0FC
:10513000EBF9C020ADF8000025612661BDF8001034
:10514000CAF800102761C4F81080C4F810900C2031
:1051500001F0DAF9C220ADF8000025612661BDF842
:105160000010CAF800102761C4F81080C4F810902D
:10517000012001F0C9F9C320ADF8000025612661C6
:10518000BDF80010CAF800102761C4F81080C4F8F8
:105190001090102001F0B8F9C420ADF8000025618E
:1051A0002661BDF80010CAF800102761C4F810800D
:1051B000C4F81090202001F0A7F9C620ADF8000037
:1051C00025612661BDF80010CAF800102761C4F8F7
:1051D0001080C4F810900F2001F096F9D020ADF89F
:1051E000000025612661BDF80010CAF80010276193
:1051F000C4F81080C4F81090A42001F085F9A12013
:1052000001F082F9E020ADF8000025612661BDF8CB
:105210000010CAF800102761C4F81080C4F810907C
:10522000D02001F071F9002001F06EF9022001F0A8
:105230006BF9072001F068F90A2001F065F92820D0
:1052400001F062F9322001F05FF9442001F05CF9CD
:10525000422001F059F9062001F056F90E2001F024
:1052600053F9122001F050F9142001F04DF91720E4
:1052700001F04AF9E120ADF8000025612661BDF892
:105280000010CAF800102761C4F81080C4F810900C
:10529000D02001F039F9002001F036F9022001F0A8
:1052A00033F9072001F030F90A2001F02DF9282008
:1052B00001F02AF9312001F027F9542001F024F9F6
:1052C000472001F021F90E2001F01EF91C2001F009
:1052D0001BF9172001F018F91B2001F015F91E2009
:1052E00001F012F92A20ADF8000025612661BDF811
:1052F0000010CAF800102761C4F81080C4F810909C
:10530000002001F001F9002001F0FEF8002001F07A
:10531000FBF8EF2001F0F8F82B20ADF80000256134
:105320002661BDF80010CAF800102761C4F810808B
:10533000C4F81090002001F0E7F8002001F0E4F834
:10534000012001F0E1F83F2001F0DEF82920ADF85E
:10535000000025612661BDF80010CAF80010276121
:10536000C4F81080C4F81090BDE8F88F0010014018
:105370000C0C01402DE9F84F1120ADF80000E24C73
:105380004FF0807525616E002661BDF80010DFF8D2
:105390007C83C8F800106F1027614FF08009C4F8B3
:1053A00010904FF4007AC4F810A07820FCF714FD98
:1053B0003620ADF8000025612661BDF80010C8F860
:1053C00000102761C4F81090C4F810A0482001F024
:1053D0009BF83A20ADF8000025612661BDF8001069
:1053E000C8F800102761C4F81090C4F810A0552028
:1053F00001F08AF8F023ADF8003025612661BDF890
:105400000010C8F800102761C4F81090C4F810A06C
:10541000C32001F079F8ADF8003025612661BDF8B0
:105420000010C8F800102761C4F81090C4F810A04C
:10543000962001F069F8B420ADF8000025612661DE
:10544000BDF80010C8F800102761C4F81090C4F827
:1054500010A0012001F058F8B620ADF80000256139
:105460002661BDF80010C8F800102761C4F810903C
:10547000C4F810A00A2001F047F8A22001F044F877
:10548000B720ADF8000025612661BDF80010C8F80E
:1054900000102761C4F81090C4F810A0C62001F0D5
:1054A00033F8B920ADF8000025612661BDF8001081
:1054B000C8F800102761C4F81090C4F810A00220AA
:1054C00001F022F8E02001F01FF8C020ADF8000044
:1054D00025612661BDF80010C8F800102761C4F8E6
:1054E0001090C4F810A0802001F00EF8162001F0F2
:1054F0000BF8C120ADF8000025612661BDF8001051
:10550000C8F800102761C4F81090C4F810A0192042
:1055100000F0FAFFC220ADF8000025612661BDF859
:105520000010C8F800102761C4F81090C4F810A04B
:10553000A72000F0E9FFC520ADF800002561266135
:10554000BDF80010C8F800102761C4F81090C4F826
:1055500010A0162000F0D8FFE820ADF8000025616B
:105560002661BDF80010C8F800102761C4F810903B
:10557000C4F810A0402000F0C7FF8A2000F0C4FF4C
:10558000002000F0C1FF002000F0BEFF292000F045
:10559000BBFF192000F0B8FFA52000F0B5FF3320B5
:1055A00000F0B2FFE020ADF8000025612661BDF8F3
:1055B0000010C8F800102761C4F81090C4F810A0BB
:1055C000F02000F0A1FF072000F09EFF0D2000F06A
:1055D0009BFF042000F098FF052000F095FF1420A9
:1055E00000F092FF362000F08FFF542000F08CFF77
:1055F0004C2000F089FF382000F086FF132000F0D7
:1056000083FF142000F080FF2E2000F07DFF342067
:1056100000F07AFFE120ADF8000025612661BDF8B9
:105620000010C8F800102761C4F81090C4F810A04A
:10563000F02000F069FF102000F066FF142000F059
:1056400063FF0E2000F060FF0C2000F05DFF0820DB
:1056500000F05AFF352000F057FF442000F054FFBF
:105660004C2000F051FF262000F04EFF102000F0EB
:105670004BFF122000F048FF2C2000F045FF3220A5
:1056800000F042FFADF8003025612661BDF8001042
:10569000C8F800102761C4F81090C4F810A03C208E
:1056A00000F032FFADF8003025612661BDF8001032
:1056B000C8F800102761C4F81090C4F810A0692041
:1056C00000F022FF7820FCF787FB2120ADF80000D6
:1056D00025612661BDF80010C8F800102761C4F8E4
:1056E0001090C4F810A02920ADF8000025612661B3
:1056F000BDF80010C8F800102761C4F81090C4F875
:1057000010A0BDE8F88F0000001001400C0C014013
:105710002DE9FF4F81B09B4601980D46101A401CA1
:1057200086B21C4C4FF400074FF40079DDF838A026
:105730002BE02946019800F039FC17480089ADF8A4
:1057400000004FF08070206143002361BDF800002D
:105750001249086027614FF0800CC4F810C0C4F8EB
:10576000109000204FF480780BE0C4F81080236183
:10577000C1F800A02761C4F810C0C4F81090401C04
:1057800080B2B042F1D36D1CADB25D45D1D905B048
:10579000BDE8F08F00100140C40200200C0C014055
:1057A0002DE9F04FFC4885B0816941F0100181611D
:1057B000816901F010010491816941F0100181615A
:1057C000816901F010010491816941F0100181614A
:1057D000816901F010010491816941F0100181613A
:1057E000816901F010010491816941F0100181612A
:1057F000816901F010010491816941F00801816122
:10580000816901F008010491816941F00101816120
:105810008069E24900F001000490486820F0E060EF
:1058200040F00070486001260815CDE90006032409
:10583000DB4DCDE9026469462846FBF75BF86F153E
:10584000CDE90076CDE9026469462846FBF752F8B7
:105850008024694628460094FBF74CF84FF0400935
:1058600069462846CDF80090FBF744F84FF4807A5B
:1058700069462846CDF800A0FBF73CF84FF6FF78C4
:10588000CDE900866946C748FBF734F82C61C5F8B6
:1058900010902F61C5F810A0C24A0C32C2F80080E7
:1058A000C148401EFDD2D320ADF810004FF0807BE0
:1058B000C5F810B04FF00079C5F81090BDF8101081
:1058C000924611604FF4000028612C61B8462F61A8
:1058D00000F0A0F9B54FB88000F09CF9B88000F056
:1058E00099F94FF6FF7606EA0020B88000F092F9A9
:1058F000B9880843A0F51341B88041397ED004200F
:10590000ADF81000C5F810B0C5F81090BDF8101033
:10591000CAF800104005286180202861C5F8108071
:1059200000F078F93C46A08000F074F9A08000F007
:1059300071F906EA0020A08000F06CF9A188084304
:10594000A0F50541A08052397ED0A0F5EE418939FD
:10595000D4D0D420ADF810004FF080702861400002
:105960002861BDF810108F480C3001604FF4000022
:10597000286180272F61C5F8108000F04BF9A080C6
:1059800000F048F9A08000F045F906EA0020A08068
:1059900000F040F9A1880843A0F5A641A080103985
:1059A000ACD0D320ADF810004FF08079C5F810903E
:1059B0004FF0007AC5F810A0BDF81000DFF8E481C0
:1059C00008F10C08C8F80000380428612F61801322
:1059D000286100F01FF9A08000F01CF9A08000F001
:1059E00019F906EA0020A08000F014F9A188084304
:1059F000A0F5EE41A080963900D000E0A1E055214D
:105A00004FF4704000F094FDAA214FF2010000F025
:105A10008FFD52214FF2020000F08AFD08214FF263
:105A2000030000F085FD01214FF2040000F080FD2D
:105A30004FF44540ADF81000CB46C5F81090C5F8BE
:105A400010A0BDF8101000E07CE0C146C9F80010BD
:105A50004FF40008C5F810803C462F61BF002F614D
:105A600000F0D8F8514906EA002088804CF2015035
:105A7000ADF81000C5F810B0C5F810A0BDF81010B2
:105A8000C9F80010C5F810802C612F6100F0C2F831
:105A9000464989880843454988800520FCF79CF9D8
:105AA00042488188A1F5AA40103851D0D320ADF8E2
:105AB0001000C5F810B0D146C5F810A0BDF8101000
:105AC000DFF8E0A00AF10C0ACAF80010B803286158
:105AD000A0462C612F6100F09DF8344CA08000F0AE
