:020000040800F2
:1000000088930020E9020008973B0008933B000812
:10001000953B00088D2B0008FD3D00080000000006
:100020000000000000000000000000005102000875
:100030008F2B00080000000095020008993B000883
:100040000303000803030008030300080303000878
:100050000303000803030008030300080303000868
:100060000303000803030008030300080303000858
:100070000303000803030008030300080303000848
:100080000303000803030008030300080303000838
:100090000303000803030008030300080303000828
:1000A0000303000803030008030300080303000818
:1000B0000303000803030008B53B0008030300081E
:1000C00003030008030300080303000803030008F8
:1000D00003030008F13D00080303000803030008C0
:1000E00003030008030300080303000803030008D8
:1000F00003030008030300080303000803030008C8
:100100000303000803030008E93B00080303000899
:1001100003030008030300080303000803030008A7
:100120000303000803030008030300080303000897
:1001300000F002F800F07CF80AA090E8000C82447D
:100140008344AAF10107DA4501D100F071F8AFF25A
:10015000090EBAE80F0013F0010F18BFFB1A43F0A5
:1001600001031847C8820300E88203000A444FF0E5
:10017000000C10F8013B13F0070408BF10F8014B06
:100180001D1108BF10F8015B641E05D010F8016B4B
:10019000641E01F8016BF9D113F0080F1EBF10F8AF
:1001A000014BAD1C0C1B09D16D1E58BF01F801CBD2
:1001B000FAD505E014F8016B01F8016B6D1EF9D555
:1001C0009142D6D37047000000230024002500266A
:1001D000103A28BF78C1FBD8520728BF30C148BFAA
:1001E0000B607047662930F03B84642900F08E81F3
:1001F000752900F08B81782900F0C481632900F013
:10020000CC87732900F0D187002070471FB500F01C
:100210002DFD0400002000212FF064FD401C6060D3
:10022000002000212FF074FDE0601FBD10B510BD4F
:1002300001F002FE1146FFF7E9FF27F03FFF02F051
:1002400055F803B4FFF7F2FF03BC05F0D9FB00003B
:10025000224B19680868B0E8F00F80F30988BFF3F3
:100260006F8F4FF0000080F311884EF00D0E704735
:100270000000000006480068006880F3088862B645
:1002800061B6BFF34F8FBFF36F8F00DF00BF00BFBA
:1002900008ED00E0EFF30980BFF36F8F0F4B1A6892
:1002A00020E9F00F106008B54FF0500080F311887E
:1002B000BFF34F8FBFF36F8F2EF0DEFE4FF00000C5
:1002C00080F31188BDE8084019680868B0E8F00FAD
:1002D00080F30988BFF36F8F704700BFC003002011
:1002E000EFF3058070470000094880470948004740
:1002F000FEE7FEE7FEE7FEE7FEE7FEE7FEE7FEE7D6
:10030000FEE7FEE704480549054A064B7047000032
:10031000B13B000831010008888D0020889300203F
:10032000888F0020888F00207047000010B500F0F3
:100330009DFC001D10BD00BFADF9020053EA020C88
:1003400000F069802DE9F04B4FF00006002B1FBF35
:10035000B3FA83F503FA05F424FA05F65E4012BFFA
:100360001643B2FA82F502FA05F4C5F120051EBF64
:1003700022FA05FC44EA0C04203556EA044C4FEA04
:10038000144418BF641C4FF000084FF0000990425D
:1003900071EB030C39D3002919BFB1FA81F701FAC7
:1003A00007F6B0FA80F700FA07F6C7F120071EBF7C
:1003B00020FA07FC46EA0C062037B6FBF4FCA7EB54
:1003C0000507103F07F01F0BCBF120060CFA0BFBC3
:1003D0002CFA06F644BFB3460026202FA4BF5E4683
:1003E0004FF0000B5BEA060C08BF4FF0010B19EB56
:1003F0000B09ABFB027C48EB0608C01B06FB02CCDA
:100400000BFB03CC71EB0C01C1E70B4602464146E6
:100410004846BDE8F08B13B54FF000004FF00001E7
:10042000AFF30080BDE81C40704700000FB40449E2
:1004300010B503AA029800F0BDFE10BC5DF814FBD5
:10044000180000200FB41CB5074B06AA7B44694670
:100450000090059800F07FFE0020694600F08EFEB7
:100460001CBC5DF814FB00002D0D000070B50446A7
:1004700085690068C10601D5302600E02026C00746
:1004800007D070BDD4E9012130469047206A401C56
:1004900020626D1EF6D570BD70B504468569007882
:1004A000C00707D170BDD4E9012120209047206A00
:1004B000401C20626D1EF6D570BD70B50C46054619
:1004C000012A05D02878800600D5EA69002302E0D9
:1004D000012305E05B1C934202D2E05C0028F9D1C5
:1004E000A869E618C01AA861286A18442862284634
:1004F000FFF7BCFF04E0D5E9012114F8010B904798
:10050000B442F8D32846FFF7C7FF70BD2DE9F0418C
:100510000646002410687529314616A510D0AFF3A1
:100520000080002802DA404213A507E031688A07FC
:1005300001D512A502E0490704D511A5012401E067
:10054000AFF3008000210A2206F1240709E0B0FB86
:10055000F2FCB0FBF2F302FB1C003030785418467A
:10056000491C0028F3D123462A463046BDE8F04115
:1005700000F084BB000000002D0000002B000000F4
:100580002000000070B504460D4621461068AFF308
:1005900000802188090502D50F4A7A4402E00E4AFC
:1005A0007A440E32002104F1240305E000F00F0626
:1005B0000009965D5E54491C0028F7D1207800237D
:1005C000000704D5702D02D009B102231132204654
:1005D000BDE8704000F052BB5A7703002DE9F05F90
:1005E000894604464FF0000ADFF874B1FB44C0F8B6
:1005F00020A02046E1688847002874D0252806D02E
:10060000D4E901219047206A401C2062F1E70026CE
:100610005F462046E16888472028054607DB312DE4
:1006200005D2781910F8200C08B10643F1E7B0079D
:1006300001D526F00406C4F81CA00027C4F818A0B1
:100640002A2D09D0284603F09CFC38B304EB870818
:10065000303DC8F8185019E059F8041B204604EB47
:1006600087029161E1688847012F054618D1E0694A
:10067000002820DA26F020061DE0D8F8180000EB4C
:10068000800005EB40003038C8F818002046E168CB
:100690008847054603F075FC0028EED1012F0AD0EB
:1006A0002E2D08D12046E16888477F1C0546022F81
:1006B00046F02006C4DBA069002803DA404246F079
:1006C0000106A061F00701D026F010066C2D0BD0BA
:1006D000682D09D04C2D39D06A2D35D0742D35D0E8
:1006E0007A2D33D016E038E0E1682F46204688475F
:1006F000B842054609D16C2F26D04FF48060E168DE
:10070000064320468847054604E06C2F1AD04FF474
:10071000807006430DB3A5F14100192802D8203599
:1007200046F400664A462946204626604E46FFF7B4
:1007300059FD80B101280BD0F61D26F0070000F10D
:10074000080956E74020E4E78020D8E70020D6E7F4
:1007500006F104094DE7284652E7206ABDE8F09FFC
:10076000307703000FB400B58DB010A90990009147
:100770000B904FF0FF300A9000200C900648784410
:100780000690064878446A4607900F9909A800F039
:10079000B3FF0DB05DF814FB970F0000AF0F000022
:1007A0002DE9FF5F1D464FF0FF3B91464FF00008DB
:1007B0005F46D5E90146A96901987F1C8847296AE7
:1007C000824688470028F6D1BAF1FF3F0CD0002EB0
:1007D00024F4C06419DD600614D5BAF12B0F09D0DA
:1007E000BAF12D0F0ED103E0584604B0BDE8F09FDA
:1007F00044F48064A96901987F1C8847761E82466C
:10080000002E02DDBAF1300F03D0B9F1000F26D06F
:1008100032E0A969761E01987F1C44F40074884771
:10082000002E824605DDBAF1780F06D0BAF1580FD6
:1008300003D0B9F1000F10D01EE0B9F1000F02D0C3
:10084000B9F1100F18D1A969761E01987F1C24F404
:10085000007488478246102002E0082000E00A2049
:10086000814609E0A96908FB0908761E01987F1CEA
:1008700044F4007488478246002E05DD4946504600
:1008800000F0AAFC0028EDDAE96901988847A00584
:1008900002D46FF00100A8E7E00725D1600613D568
:1008A000600502D5C8F1000000E0404629680A1D35
:1008B0002A600968220501D5087015E0220701D5D4
:1008C000088011E008600FE02868011D29600068B9
:1008D000210502D580F8008006E0210702D5A0F8A6
:1008E000008001E0C0F8008038467EE770B506461B
:1008F00000F0C0F90468054630460A22002100F0E5
:1009000002F82C6070BD2DE9F04791460F468046F5
:100910000446002614F8015B2DB1FFF707FD0068BF
:10092000405DC007F6D12B2D02D02D2D18D0641EAE
:100930004A463946204600F00FFF27B13968A142E8
:1009400001D1C7F800804FF0020471050BD5404279
:10095000002803DD00F08EF90460A007BDE8F087F1
:1009600046F48066E4E70028F8DA00F083F90460D2
:100970006FF00040F2E740EA0103024630B59B0702
:1009800010D14FF0013400E008C208C91D1B9D437F
:1009900015EAC41FF8D013F0FF0102F8011B0DD0B7
:1009A0001B0AF8E711F8013B002B02F8013B05D0C8
:1009B00011F8013B002B02F8013BF3D130BD10B51B
:1009C000431C02E010F8011B71B18107FAD14FF00E
:1009D000013202C88C1A8C4314EAC211F9D0C01A31
:1009E0000A0603D0C01E10BDC01A10BD0A0401D0F3
:1009F000801E10BD0902FCD0401E10BD421E12F820
:100A0000013F002BFBD111F8013B002B02F8013B09
:100A1000F9D17047032A40F2308010F0030C00F047
:100A2000158011F8013BBCF1020F624498BF11F828
:100A300001CB00F8013B38BF11F8013BA2F10402E1
:100A400098BF00F801CB38BF00F8013B11F0030359
:100A500000F06780083AC0F0088051F8043B083A7B
:100A600051F804CBA0E80810F5E7121D5CBF51F85F
:100A7000043B40F8043BAFF30080D20724BF11F8D9
:100A8000013B11F801CB48BF11F8012B24BF00F83E
:100A9000013B00F801CB48BF00F8012B7047431A17
:100AA00028BF9A427FF6B6AF032A1044114440F2A1
:100AB000268010F0030F1EBF11F8013D521E00F8F2
:100AC000013D10F0030F7FF4F6AF11F0030300F0C7
:100AD000A586083AC0F00B8051F8043D083A51F859
:100AE00004CD40F8043D40F804CDFFF7F3BF121DDC
:100AF0005CBF51F8043D40F8043DAFF30080D207DD
:100B000024BF11F8013D11F801CD48BF11F8012CA7
:100B100024BF00F8013D00F801CD48BF00F8012CCA
:100B2000704710B5203AC0F00B80B1E81850203A59
:100B3000A0E81850B1E81850A0E81850BFF4F5AF7D
:100B40005FEA027C24BFB1E81850A0E8185044BF07
:100B500018C918C0BDE810405FEA827C24BF51F874
:100B6000043B40F8043B08BF7047D20728BF31F868
:100B7000023B48BF11F8012B28BF20F8023B48BFB9
:100B800000F8012B704702F0FF0343EA032242EA18
:100B9000024200F06FBE4FF0000200B513469446CB
:100BA0009646203922BFA0E80C50A0E80C50B1F1C5
:100BB0002001BFF4F7AF090728BFA0E80C5048BFD9
:100BC0000CC05DF804EB890028BF40F8042B08BF77
:100BD000704748BF20F8022B11F0804F18BF00F873
:100BE000012B70474FF0013C50F8042B51F8043BA7
:100BF0009A4221D1A2EB0C03934313EACC1317D1F1
:100C000050F8042B51F8043B9A4215D1A2EB0C0387
:100C1000934313EACC130BD150F8042B51F8043B47
:100C20009A4209D1A2EB0C03934313EACC13DBD015
:100C30004FF00000704700BFD01A01BAB1FA81F13D
:100C400001F0180122FA01F0CB40C1F12001DBB222
:100C5000C0B2C01A2CFA01F3D11A914311EAC311A0
:100C6000E6D170477047704770477047004870473B
:100C7000448D002000487047248D00202DE9F04766
:100C80000D4699469246044600F1240801688806FC
:100C900004D5E06921F01001216000E00120A842A4
:100CA00001DD471B00E00027A1697A1902EB09006A
:100CB000081AA0612078C00602D42046FFF7D6FBB0
:100CC000002608E0D4E901211AF806009047206ABE
:100CD000401C761C20624E45F4DB2078C0060AD505
:100CE0002046FFF7C3FB06E0D4E9012130209047FE
:100CF000206A401C2062381EA7F10107F4DC07E0DF
:100D0000D4E9012118F805009047206A401C2062B0
:100D1000281EA5F10105F3DC2046FFF7BDFB207876
:100D2000000602D50220BDE8F0870120FBE77047EE
:100D30002DE9FF4F0C461E464FF0FF378BB0D2E92E
:100D40000001DDF860800A908A46C1F30A5505B9B2
:100D50003D46002108464FF00000BAF1000F00F4B4
:100D6000400005DA00EB80004FF4400101EA50003A
:100D70004FEA9059B9F1010F00DDB9460A9850EADF
:100D80004A000ED044F61050A5F2FF3545432F140B
:100D9000B8F1000F1ED07542291E1EDDC9F10002F8
:100DA0001CE0B8F1010F4FF0000001D0302103E04A
:100DB000F24305E02154401CB042FBDB30460022E8
:100DC000002121540B99C1F80880C1E900200FB01F
:100DD000BDE8F08FBD1B6D1CDEE74A4600DA6942B4
:100DE00006A800F0B3FF06AB93E8070003AB83E867
:100DF000070050460A9901F095FA8DE80700A0F522
:100E000000501F3800900398002D0ADD42F21F01A8
:100E10004A460844002303A90390684601F040FDB8
:100E200009E0A0F500504A461F38002303A90390AB
:100E3000684601F05FFD8DE807000004000C03D058
:100E40004FF0FF30410800E01046B8F1000F03D02A
:100E50000022009215461EE0751E05D400F02EFDFE
:100E6000303262556D1EF9D5B3460122084302D0D7
:100E700000227F1C04E02078302801D100227F1E50
:100E8000002A099784D01DE0112D07DA00F016FD25
:100E9000303262556D1C50EA0102F5D1084302D090
:100EA0000098C8B10EE00021681E05E0235C625C7A
:100EB00063542254401E491C8142F7DBAB46A81BF9
:100EC000401E0990002004F80B000B98099AC0F806
:100ED0000880C0E9002B7AE711264FF0000857E799
:100EE0002DE9F04F88460446D21D22F0070191B04B
:100EF000D1E90001CDE90A0102F081FF02460B9819
:100F0000C00F01D02D2007E02068810701D52B20DC
:100F100002E0202101EAC000032A099001D0072A3B
:100F200005DB03464146204600F016FD0BE1207824
:100F3000800601D5E06900E00620B8F1650F814622
:100F400006D0B8F1660F18D0B8F1670F70D131E054
:100F50000020B9F1110F009001DB112301E009F12C
:100F600001030AAA01A90CA8FFF7E2FEDDE90C7053
:100F7000002609F10105834647E001204B46009019
:100F80004FF000470AAA01A90CA8FFF7D1FEDDE93E
:100F90000DB00C995D46002610B909F101000D183D
:100FA000B9EB050003D4C0F1FF3609F10105A5EB4B
:100FB00009002BE0B9F1010F01DA4FF0010900201F
:100FC000B9F1110F0090484601DD112300E00346FE
:100FD0000AAA01A90CA8FFF7ABFEDDE90C704D468B
:100FE00000268346207800070AD4AB4500DA5D4628
:100FF00001A8012D04DD411911F8011C302907D089
:101000004F4502DA17F1040F04DA012082460FE09F
:101010006D1EEEE7002F02DCED1B3E4403E0781C62
:10102000A84200DD7D1CB81B00F1010A4FF000470B
:101030002078000703D4AA4501DB4FF0FF3A0021D6
:10104000B7F1004F0DF143088DF8431024D0022072
:101050002B23002F01DA7F422D230A21021EA0F14B
:10106000010000DC5FB197FBF1FC97FBF1F201FBA3
:101070001C7C17460CF1300C08F801CDEEE7A8F106
:10108000010003702188090501D5452100E0652193
:10109000A0F1010800F8011C09980FA9A1EB0807AD
:1010A000FF1D00B10120411901EBEA70A16938442C
:1010B000081A401EA0612078C00602D42046FFF71F
:1010C000D5F9099828B1D4E901219047206A401C3C
:1010D00020622078C00622D52046FFF7C7F91EE01F
:1010E000002E04DBB34502DD01A8805D00E0302066
:1010F000D4E901219047206A401C2062761CAAF1A5
:1011000001005FEA000A0AD1FFF7B0FDC06801687C
:10111000405CD4E901219047206A401C2062281ECF
:10112000A5F10105DCDC07E0D4E9012118F8010B89
:101130009047206A401C2062381EA7F10107F3DCAB
:101140002046FFF7A9F9032011B041E601694A1CC6
:1011500002610878704700B58FB0CDE901310021F8
:10116000059105497944CDE9031011466846FFF71A
:1011700035FA0FB000BD0000E5FFFFFF0A6802F876
:10118000010B0A60704710B5436913B1AFF30080DB
:1011900001E0FFF792F9012010BD127800F124015F
:1011A0000A7000224A700122EDE711684FF0FF3209
:1011B000E9E70000074B70B50D467B44FFF7CBFF16
:1011C0000446284600F034FE10B14FF0FF3070BDE9
:1011D000204670BD1FE800003A2800D2303820F0C9
:1011E0002002412A01D3A2F13700884201D34FF0F7
:1011F000FF3070472DE9FF4F06468BB00878FF2877
:1012000006D0491C2D2805D000244FF0000908E025
:1012100000200CE00124F8E709EB8903491C00EBEE
:1012200043090878FF28F7D114B1C9F100008146BD
:10123000107800252C46AA4629462D2801D02B28B7
:1012400004D1521C2D2813D0002082468B461078E2
:10125000FF280FD04FF0000C0A21521CA5FB01788B
:1012600004FB018105FB0C11C5194BEB0104EEE7F2
:101270000120EAE7002108464FF00000BAF1000F14
:1012800002D000EB80004008C0F38157012F01DD40
:101290004FF0FF370E9955EA040009EB01080BD017
:1012A0004FF0020918F5FA7F16DA4FEACA70002FDC
:1012B000706008DD012007E04FEACA70C6E900B09F
:1012C0000FB0BDE8F08F00203060FFF7D3FCC0F80E
:1012D00000901821084616E0B8F5FA7F18DD002FB7
:1012E00002DAF748784401E0F6487844D0E9001083
:1012F000C6E9001040EACA707060FFF7BBFCC0F896
:101300000090142108460FB0BDE8F04F2FF0A5BBA8
:10131000002108464FF00000B8F10001099002DA00
:10132000C7F1000200E03A4601DAC8F1000106A860
:1013300000F00CFD06AB93E8070003AB83E8070061
:1013400044F23E005BEA04010090584604D144F2A6
:101350001E012C465D460091210C0904014306D173
:101360000099240444EA15442D041039009104F036
:101370007F41014306D10099240244EA15642D02FD
:101380000839009104F07041014306D1009924010D
:1013900044EA15742D01091F009104F040410143F6
:1013A00006D10099A40044EA9574AD00891E00910D
:1013B00004F00041084304D100986D196441401EB7
:1013C00000904FF001033A466846B8F1000FCDE9AE
:1013D000014503A902DD01F0A2FA01E001F075FA6E
:1013E000BAF1000F04460D4601D084F000440021FC
:1013F00008464FF00000099940F2FF77484010F08E
:101400000C0F07D124F00040284303D0C4F30A5046
:10141000B84212D1FFF72EFCC0F80090C4F30A5076
:10142000B8420AD1A8487844D0E90010C6E90010B3
:1014300004F000410843706042E7C6E900543FE70A
:101440002DE9FF4F1F464FF0000A4FF0FF38454689
:1014500091B0D7E90146CDF83CA0FFF707FCC06882
:101460000168405C1090B96912986D1C8847396A10
:10147000814688470028F6D1B9F1FF3F0AD0002EF7
:1014800024F4D06411DDB9F12B0F08D0B9F12D0F80
:101490000BD102E0404615B013E744F48064B9690B
:1014A00012986D1C8847761E8146600504A901D5F7
:1014B0002D2000E02B20002E01F1010B0DF1300852
:1014C0008DF810003FDDB9F1690F08D0B9F1490F6F
:1014D00005D0B9F16E0F02D0B9F14E0F1CD13B46C9
:1014E00001A8009580E85002DDE912126FF00200B9
:1014F0002FF042FBC11CCED10EE0B96912986D1CD1
:10150000884781461398761E44F4007405600F984E
:10151000401C002E0F9016DDB9F1300FEDD0B9F15F
:10152000780F02D0B9F1580F0DD10F9801280AD1C8
:101530003B46CDE90054DDE91212001F02962FF060
:1015400019FBC11CA7D1109989453ED144F08004F4
:1015500006E01399681CAAF1010A44F400740860BB
:10156000B9696D1C1298761E884730288146F0D0E4
:101570002BE01099894505D1200603D4761E44F04E
:10158000800418E0484602F0FCFC08B3761E0DF11A
:1015900023018B4544F4007408D2A9F130000BF804
:1015A000010B200607D5AAF1010003E0200602D4B2
:1015B0000AF101008246A00502D51399681C086053
:1015C000B96912986D1C88478146002ED1DC53E022
:1015D000002E51DDB9F1650F02D0B9F1450F4BD1A5
:1015E000A00549D5B9696D1C1298761E24F4407483
:1015F0008847002E81460CDD2B2804D0B9F12D0F31
:1016000007D144F48074B96912986D1C8847761E1E
:101610008146E00501D52D2100E02B2108F8011BB2
:10162000CDF8008021E0761E0DF13901884544F4A3
:1016300000740CD2A9F1300010F0FF0088F800000F
:1016400002D10099884509D908F1010806E0E005B2
:1016500001D51E4801E042F20F708246B969129826
:101660006D1C8847814613980560002E04DD4846AE
:1016700002F087FC0028D6D1F96912988847FF202C
:1016800053468BF8000088F8000000200A900B9069
:1016900004AA0CA90AA8FFF7ADFDA00502D46FF0BB
:1016A0000100F8E614F0240F12D0E0071CD13868CE
:1016B000DDE90A12031D3B600068C0E9001213E077
:1016C0006C7103005E71030022700300F1D8FFFF0C
:1016D0000AA9684602F0C6FBE00705D13868009AFF
:1016E000011D3960006802602846D4E60268114492
:1016F0001378016018467047D160054979445161FB
:1017000004497944116200211161114600F064B965
:10171000EDFFFFFF41020000426842B1016811F88D
:10172000013B23B1521EC0E9001218467047012147
:10173000C160881E704742685AB1C368016843B9E6
:1017400083688B4205D0491E521CC0E9001200205C
:1017500070474FF0FF3070472DE9F05F8246154625
:101760008B4600270AF10104B9460078302801D0E1
:101770009DB113E014F8010B0127782803D05828F5
:1017800001D045B10AE00DB1102D07D1002714F8A2
:10179000010B102502E0082500E00A250026B046CE
:1017A0000EE005FB080005FB06F101271FFA80F893
:1017B00001EB1046B6F5803F00D3B94614F8010B93
:1017C0002946FFF709FD0028EBDABBF1000F05D031
:1017D0000FB1641E00E05446CBF80040B9F1000F91
:1017E00006D0FFF747FA02210160C81EBDE8F09F4E
:1017F00048EA0640FAE7431A28BF9A427FF691A9C1
:10180000104410F0030F11441EBF11F8013D521E89
:1018100000F8013D10F0030F7FF4F6AF103AC0F06E
:101820000A8010B531E91850103A20E91850BFF479
:10183000F9AFBDE81040530724BF31E9081020E993
:10184000081044BF51F8043D40F8043D12F0030F66
:1018500008BF7047D20728BF31F8023D48BF11F8D2
:10186000012C28BF20F8023D48BF00F8012C70472A
:101870004FF000020429C0F0128010F0030C3FF476
:101880008CA9CCF1040CBCF1020F18BF00F8012B9D
:10189000A8BF20F8022BA1EB0C01FFF77EB95FEA8D
:1018A000C17C24BF00F8012B00F8012B48BF00F8D1
:1018B000012B704700487047248D002030B5B0F1EF
:1018C0000A024FEA900E71F100034EEA817EB0EBFE
:1018D0000E0061EB91014FEA101E4EEA017E10EB03
:1018E0000E0041EB11114FEA102E4EEA016E10EB83
:1018F0000E0041EB11214FEA104E4EEA014E10EB63
:101900000E0041EB1141401841F100014FEAD000B7
:1019100040EA41704FEAD10110EB80054FEA8104A3
:1019200044EA907444EB01046D1944EB0404521B27
:10193000A3414FF0000348BF0A3200D530BD401C20
:1019400041F1000130BD10B50446FEF7EFFC006820
:10195000005D00F0010010BD2DE9F0411F46044676
:1019600003260168072A01F4006004DB08B116A50C
:1019700005E016A503E008B115A500E015A521F0C6
:1019800010002060A069C01EA0610FB1401EA061C0
:101990002046FEF76BFD4FB1D4E901213846904750
:1019A000206A401C2062C01C206206E0206AFAE720
:1019B000D4E9012115F8010B9047761EF8D2204694
:1019C000FEF76AFDBDE8F0814E414E006E616E008B
:1019D000494E4600696E66002DE9F34F4FF0000A4C
:1019E0000C4656468DB001200C9001F10C000B9076
:1019F00062690B9801219047051E2DD0252D2CD012
:101A0000216A8847C0B162690B9801219047216A19
:101A100088470028F7D16269411E0B98904700E083
:101A2000761CA1690D988847216A88470028F7D15C
:101A3000E1690D988847DBE7A1690D988847A842BE
:101A4000074601D1761CD3E7E1690D9888477F1CD2
:101A500002D1BAF1000F6FD06CE162690B980027D8
:101A60003D46394690472A2804D162690B980121E6
:101A700090470125DFF8D08262690B9801219047D9
:101A8000A0F130010A290AD24745E5DC07EB8701BE
:101A900000EB4107303FDFD445F01005ECE7E906E5
:101AA00001D46FF000476C280AD04C2814D0682865
:101AB00015D06A280DD074281CD07A281AD01DE0C1
:101AC00062690B98012190476C2802D045F004050B
:101AD00014E045F002050DE045F020050AE06269DA
:101AE0000B9801219047682802D045F0080505E0D1
:101AF00045F4006562690B9801219047C4E90157DC
:101B000065283DD019DC58287AD00CDC452837D020
:101B100004DC252826D041289ED131E046282FD04C
:101B2000472899D12CE05B2877D0612828D06328FA
:101B30007CD0642823D15AE0F7E06F2848D008DC35
:101B400066281DD067281BD0692821D06E2816D1A1
:101B500027E0702845D0732868D0752847D07828AA
:101B60000DD14DE0A1690D988847252805463FF421
:101B700069AFE1690D9888476D1C3FF46AAFD9E001
:101B80000D9923466A466FF001002EF0F1FFC6E082
:101B900045F0400023464FF000026060A80736D4AD
:101BA0003EE0E8077FF447AF2068011D2160006830
:101BB000290501D506701BE7290701D5068017E71F
:101BC000A90703D5F117C0E9006111E706600FE727
:101BD00045F0400023464FF008026060A80716D485
:101BE0001EE040F60E0125EA0100606016E045F0B7
:101BF000400023464FF00A026060A80707D40FE0B8
:101C000045F040006060A80708D5234610220D99D2
:101C10006FF00100AFF3008081E007E0102223465F
:101C20000D996FF00100FEF7BBFD78E04FF0000961
:101C300063284F46C8464B46CB4602D05B2807D0A8
:101C400039E02079C00601D40120A060012732E0EC
:101C50006269D4F80CB00B98012190475E2807D137
:101C60004FF0010949466269D4F80CB00B989047CF
:101C7000216939B900210A4603AB43F82120491CE8
:101C80000829FADBD8B3216949B308F10108626970
:101C90000B98012190475D28F4D1B9F1000F09D0CC
:101CA000002003A951F82020D24341F82020401CF5
:101CB0000828F7DB03AB2069002820794FEA407041
:101CC0001ED05B462246CDF80080CDE901970D99E4
:101CD00000286FF0010020DAAFF300801FE0C11789
:101CE00003AA00EBD1614B1121F01F0102EB83022B
:101CF000411A13680120884003431360C7E719E0C5
:101D00000D99224600286FF00100009702DAAFF328
:101D1000008004E0AFF3008001E0AFF30080002812
:101D20000ADA401C06D10C9820B14FF0FF300FB0FA
:101D3000BDE8F08F5046FAE7E90701D10AF1010A40
:101D4000064400200C9053E6CCCCCC0C2DE9F04797
:101D5000814616468AB0354878440DC88DE80D0096
:101D600032487844801C03AC0DC884E80D0041F66D
:101D70009B300844372190FBF1F290FBF1F5A5F17F
:101D8000800501FB12041B3C02D56442012000E0E7
:101D90000020DFF898A080460027FA44AAF1BE0A86
:101DA0000EE0E0070AD03246684607EB4701012300
:101DB0000AEB810100F09EFD8DE8070064107F1C96
:101DC000002CEED1194F7F44AE3F19E0E80715D043
:101DD00007EB04100DF1180A90E80E008AE80E00D7
:101DE000C068F04201D1981908903246012306A933
:101DF00003A800F07FFD03AB83E807006D10641CAF
:101E0000002DE3D14FF0010332466946B8F1000FCF
:101E100003A802D000F044FD01E000F06BFDC9E929
:101E20000001C9F808200AB0BDE8F087546003003B
:101E3000007B00F0800070477546FFF73BFDAE4623
:101E400005006946534620F00700854618B020B5C6
:101E5000FEF758FABDE820404FF000064FF00007AB
:101E60004FF000084FF0000B21F00701AC46ACE842
:101E7000C009ACE8C009ACE8C009ACE8C0098D46AF
:101E8000704710B5FEF7F6FE006810BD10B50446A9
:101E9000FEF7F0FE046010BD2DE9FF4F1F464FF026
:101EA0003C0987B04FF00042DDE9141001F1010850
:101EB000DDF858A002EA40500390002005908346C8
:101EC000054604460490B969461E08988847AAF159
:101ED000010A0290BAF1000F3BDD02982E2815D0BE
:101EE0001021FFF779F900282EDB4FF0010B05993F
:101EF000014317D0B9F1000F0BDB4A46C11700F0C0
:101F0000FEF905430C43A9F1040905E00120049002
:101F10000BE008B145F0010501200590049820B9B7
:101F2000361D02E0049800B1361FB969089808F11F
:101F300001088847BBF1000FAAF1010A0290C9D03D
:101F40000999C1F80080C5E70298702808D0502888
:101F500006D0F96908988847BBF1000F14D04FE00C
:101F6000002002900120BBF1000F049009D0B96954
:101F7000089808F101088847AAF10109B9F1000F92
:101F800007DCF969089888476FF001000BB0BDE8DD
:101F9000F08F2B2804D02D280CD14FF0FF30049067
:101FA000B969089808F101088847A9F10109B9F150
:101FB000000FE6DD411CE4D00A21FFF70DF90028EF
:101FC000DFDB029908F1010801EB810100EB410020
:101FD0000290B969089888470A21FFF7FDF8099A25
:101FE000A9F10109B9F1000FC2F8008001DD002854
:101FF000E7DAF969089888470499029800FB0166B6
:1020000055EA040004D004F04041090002D006E083
:10201000039898E0A40044EA9574AD00B61E04F05D
:102020000041080002D16D196441761E159810F028
:10203000240F03D04FF00B095C4803E04FF0280950
:102040006FF07D008246564507DAAAEB0601894407
:10205000B9F1410F01DD4FF0410901200021A9F143
:10206000010200F04CF9024628400B46214008438B
:1020700001D0012100E00021501E029143F1FF3107
:1020800028402140084301D0012000E000200299AF
:10209000834651EA0B014FD0002108464FF0000063
:1020A000039900F4400039B100EB80004FF4400187
:1020B00000EBD07001EA60008015012802DD4FF0CE
:1020C000FF3000E013D0401C36D0029860B3BBF163
:1020D000000F0CD14A460120002100F010F92840E1
:1020E0002140084301D0012000E00020E0B10120A0
:1020F0004A46002100F003F9034640190A466141AF
:102100002D1A8C4111D3B9F1400F09DD159810F04B
:10211000240F02D0AAF1340603E0AAF1170600E06A
:10212000761C00254FF0004406E05B1E42F1FF32B2
:1021300020EA030521EA0204CAF10100B04206DAEE
:102140001B49039808430190002000900EE0039A79
:10215000C4F3D321E80A0A43164940EA44500A432B
:102160003146CDE90002684601F0E2FE159810F014
:10217000240F0BD01598C00715D13868DDE900127F
:10218000031D3B600068C0E900120CE002A869462C
:1021900001F068FE1598C00705D13868029A011D44
:1021A0003960006802604046F0E6000002FCFFFF74
:1021B0000000F07F0000F03F2DE9FF4F92461D46E2
:1021C00085B04FF00041DDE9124BDDE914727F1E4E
:1021D00001EA4B50414940F0FF4940EA0108002123
:1021E00022F020004928049102D04E2828D04CE04B
:1021F0003BA0012607C88DE80700A9690698641C62
:1022000088477F1E014606D41DF8060018B121F04C
:10221000200181420BD0E96906988847032E34D00B
:10222000082E32D06FF0010009B0BDE8F08F761CA7
:10223000032E01D0082EE0D1601CCAF80000DCE7B4
:10224000A9690698641C88477F1E2AD420F02000C4
:10225000412826D1A9690698641C88477F1E20D48E
:1022600020F020004E281CD1A9690698641C8847DC
:102270007F1E48F4002849F48009CAF8004001D4C0
:10228000282806D0E969069888475FEACB7012D003
:1022900022E0A9690698641C88477F1E01D40028A3
:1022A00003DAE96906988847BCE72928F1D1641C5C
:1022B000CAF80040E9E71BF0240F07D0286804990A
:1022C000031D2B600068C0E9001805E02868021DA6
:1022D0002A600068C0F800902046A5E70000F07F63
:1022E000494E46494E4954590000000010B5044675
:1022F000AFF300802046BDE81040FDF7A2BFB2F169
:1023000020030AD5C2F1200301FA02F120FA03F3F7
:1023100000FA02F041EA0301704700FA03F14FF0BE
:10232000000070475FEA400C08BF91F0000F4FEAD1
:102330008C234FEAC12243EA51514FEA1C5018BF87
:1023400000F5F0404FEA300018BF41F000415FEA6D
:102350006C5C00F02980BCF1FF3F08BF40F080407A
:102360007047130C06BF12044FF0100C4FF0000C16
:10237000130E04BF12020CF1080C130F04BF12015C
:102380000CF1040C930F04BF92000CF1020CD30F5C
:1023900004BF52000CF1010C11464FF00002A0F1F5
:1023A0001F00A0EB0C00704711F0004F08BF7047F2
:1023B00031F000413FF4D5AF0B0C06BF09044FF0DC
:1023C000100C4FF0000C0B0E04BF09020CF1080CAE
:1023D0000B0F04BF09010CF1040C8B0F04BF890023
:1023E0000CF1020CCB0F04BF49000CF1010CCCF135
:1023F0002003A0EB0C0022FA03F302FA0CF241EAEC
:10240000030100F10100704720F07F4C80EA0300D7
:1024100023F07F47ACEB070303F57C5300F000404B
:1024200003F1FF032DE980494FEA154B09B44FEA48
:10243000144325EA0B4E24EA03480FF2042606EB68
:10244000132749083E785FEA320203FB0667C7F5A7
:10245000000707FB06F64FEA54374FEAD64606F167
:10246000020607FB066CCCF1005C4FEA1C472CEA25
:10247000074C07FB06F40CFB06F504EB15464FEA88
:10248000961634BF00204FF000404FEAD13706FBCC
:1024900007FC4FEA1C4C0CFB0BF7D21B03FB0CF7A1
:1024A00061EB07010CFB0EF7B0EB074072EB174234
:1024B0000CFB08F734BFA2EB0742B2EB074261EB1B
:1024C00017414FEA0C444FEA910706FB07FC4FEA1D
:1024D0001C4C0CFB0BF7B0EBC74072EB573203FB05
:1024E0000CF734BFA2EBC742B2EBC74261EB5731E6
:1024F0000CFB0EF7B0EBC70072EB57720CFB08F742
:1025000034BFA2EBC702B2EBC70261EB5771039F66
:102510004FEA816141EA921104EBCC044FEAD137D2
:102520004FEA826206FB07FC42EA90124FEA8060A3
:102530004FEA1C4C0CFB0BF7D21B03FB0CF761EBB7
:1025400007010CFB0EF7B0EB074072EB17420CFBD8
:1025500008F734BFA2EB0742B2EB074261EB174129
:102560004FEA8C554FEA910704EB9C2406FB07FCCD
:102570004FEA1C4C0CFB0BF7B0EBC74072EB573229
:1025800003FB0CF734BFA2EBC742B2EBC74261EBCF
:1025900057310CFB0EF7B0EBC70072EB57720CFB18
:1025A00008F734BFA2EBC702B2EBC70261EB577169
:1025B00015EB4C254FEA816141EA92114FEA8262A4
:1025C0004FEAD13742EA901206FB07FC44F10004BF
:1025D0004FEA80604FEA1C4C0CFB0BF7D21B03FB4D
:1025E0000CF761EB07010CFB0EF7B0EB074072EB49
:1025F00017420CFB08F734BFA2EB0742B2EB0742CD
:1026000061EB174115EB1C154FEA813141EA92410C
:102610004FEA823242EA90424FEA80304FEA0C762B
:1026200044F1000448EA03434EEA0B484FF0000E21
:10263000B2EB080C71EB030724BF624639464EEB40
:102640000E0E4FF0000B0018524149414BEB0B0BA3
:10265000B2EB080C71EB03077BF1000B24BF624661
:1026600039464EEB0E0E4FF0000B00185241494117
:102670004BEB0B0BB2EB080C71EB03077BF1000B80
:1026800024BF624639464EEB0E0E51EA020718BFD0
:1026900046F0010616EB0E7655F1000254F10001EA
:1026A00003D5BDE88901BDE80088BDE88901BDE822
:1026B0000048B619524141EB0101A3F101037047F3
:1026C00080807F7E7D7C7B7A79787776767574736F
:1026D000727171706F6E6E6D6C6C6B6A6A6968682E
:1026E000676666656464636362616160605F5F5EC4
:1026F0005E5D5D5C5C5B5B5A5A595958585757563A
:10270000565555555454535352525251515050509E
:102710004F4F4F4E4E4D4D4D4C4C4C4B4B4B4A4AF0
:102720004A49494948484847474747464646454534
:10273000454444444443434343424242424141416D
:1027400046EA0646A3F570534FEA164646EA425655
:102750004FEAD22242EA415210B54FEAD121A3F109
:10276000010300F02FF820F0004000F1020C00F00F
:10277000004701EB00501146BCF5006F40EA07002E
:1027800000D210BDBAF1000F0AD01CB503B44FF04F
:1027900004004FF004014FF000000FBCBDE81040F2
:1027A0004FF00001BBF1010FB9BF04484FF0FF31FA
:1027B0000348002140EA070010BD00BFFFFFEF7F84
:1027C0000000F07F002B9C4630D477002BD01CB546
:1027D0004FEA370703B44FF010004FF01001BAF181
:1027E000000F06D0BCF1000FDCBF40F0080040F045
:1027F00008014FF000000FBCBDE810400BF1010BC9
:10280000BBF1010F08BF5FEA170722BF12F10102F7
:1028100011F101014FF0004143F1000300F00040CD
:1028200043EA00007047F9D35708D0E746EA064666
:1028300013F1400F4FEA16461FDD13F1200FDFBFE3
:1028400016430A46002120335B42BED0C3F1200765
:1028500046EA064602FA07F74FEA164646EA070630
:10286000C3F1200722FA03F201FA07F721FA03F174
:102870004FF0000342EA0702A7E746EA020646EAEB
:1028800006464FEA164646EA0106BCBF46EA064639
:10289000360C4FF000034FF000024FF0000194E7B8
:1028A0002DE9804C9A46934670B491E8380007C8E9
:1028B00031EA400C48BF34EA430C03D5FFF7A4FDCE
:1028C000FFF780FFF0BCBDE8008C2DE9804C9A46F4
:1028D000934670B491E8380007C831EA400C48BF0D
:1028E00034EA430C03D5FFF78FFDFFF729FFF0BC57
:1028F000BDE8008C2DE9804C9A46934670B491E86F
:10290000380007C810F0804F08BF13F0804F03D184
:1029100000F01AF8FFF756FFF0BCBDE8008C2DE977
:10292000804C9A46934670B491E8380007C810F07E
:10293000804F08BF13F0804F03D100F005F8FFF778
:10294000FFFEF0BCBDE8008C20F07F4780EA03006A
:1029500023F07F4C07EB0C03A3F57C5300F0004001
:10296000A3F1FE0392F0000F00F0B38095F0000F8A
:1029700000F077802DE901494FEA11404FEA1446F3
:1029800021EA004800FB06FC24EA064708FB06F69D
:1029900007FB08F800FB07F718EB06484CEB164C52
:1029A0004FEA124B18EB07484FEA15464CEB17401D
:1029B00022EA0B4E0BFB06FC25EA06470EFB06F649
:1029C00007FB0EFE0BFB07F71EEB064E4CEB164CFF
:1029D0004FF000061EEB074E4CEB174B18EB0B08A5
:1029E00040F1000018EB0E0B58EB000840F100001E
:1029F0008F1A4FF000013CBFC943661B14BFB5EBF3
:102A0000040C00213CBFC943F61B4FEA17444EEAB1
:102A10008E0E27EA04454FEA1C4704FB07622CEAA6
:102A2000074C05FB07F70CFB05F604FB0CFC16EB4B
:102A3000074642EB174216EB0C4642EB1C421BEBDF
:102A4000060658EB0202414146EA9E0601D5BDE862
:102A50000189B619524141EB0101A3F10103BDE81F
:102A600001894FEA14454FEA114724EA054621EA55
:102A7000074C05FB07F406FB07F70CFB06F105FB0B
:102A80000CFC11EB074144EB17444FEA124711EBE2
:102A90000C4144EB1C4422EA074C05FB07F206FB01
:102AA00007F70CFB06F605FB0CFC16EB074642EBA2
:102AB000174216EB0C4642EB1C456A1854F1000114
:102AC00048BF7047B619524141EB0101A3F1010320
:102AD000704795F0000F37D04FEA11424FEA144784
:102AE00021EA024624EA074C02FB07F106FB07F73E
:102AF0000CFB06F402FB0CFC14EB074441EB174102
:102B00004FEA154714EB0C4441EB1C4125EA074CF6
:102B100002FB07F506FB07F70CFB06F602FB0CFCB5
:102B200016EB074645EB174516EB0C4645EB1C42EA
:102B3000121951F1000148BF7047B619524141EBDB
:102B40000101A3F1010370474FEA14454FEA114711
:102B500024EA054621EA074C05FB07F106FB07F7C7
:102B60000CFB06F24FF0000605FB0CFC12EB0742D3
:102B700041EB174112EB0C4251EB1C4148BF70472F
:102B8000921841EB0101A3F101037047FEE7704782
:102B90002DE9F05F90F821100024022903D00421D0
:102BA0008163012485E001680A6822F00E020A6050
:102BB00001680A6822F001020A603F4E3E4FB215DA
:102BC000DFF8F4C0DFF8F090DFF8ECA0DFF8E8B051
:102BD000DFF8E4E00168783F13011502ACF1640C02
:102BE000A9F15009AAF13C0AABF1280BAEF1140E81
:102BF0004FF48018B14227D9B9420ED0614512D0A6
:102C000049451DD0514518D0594518D0714501D1BD
:102C1000424615E0294EB14201D1012210E0274E73
:102C20001436B14201D110220AE0244E2836B142B6
:102C300006D0224A3C32914201D11A4600E02A468F
:102C40001E49091F0A602BE0B94213D0614517D015
:102C5000494522D051451DD059451DD0714501D15E
:102C600042461AE0B14202D14FF0807215E0134E95
:102C7000B14201D1012210E0104E1436B14201D10F
:102C800010220AE00D4E2836B14206D00B4A3C32E3
:102C9000914201D11A4600E02A46074980394A602C
:102CA000012180F82110002180F82010416B01B132
:102CB00088472046BDE8F09F80000240080402409B
:102CC00070B5044600F010F90546601C02D00448B7
:102CD0000078044400F008F9401BA042FAD370BD0C
:102CE0001C0000202DE9F84FDFF8C091002409F105
:102CF000040A0AF1040B23464FF00F080BF1040EEF
:102D0000CCE00127A7403A40BA4272D1DFF8A0C117
:102D10004D68A5EB0C0665452BD00DDC032D34D09A
:102D200005DC35B3012D19D0022D2FD11BE0112D5B
:102D300016D0122D2AD119E0B6F5881F19D006DC5D
:102D4000B6F5803F15D0B6F5801F1FD111E0B6F55E
:102D5000001F0ED0B6F5041F18D10AE0CB6815E0AD
:102D6000CB681B1D12E0CB6808330FE0CB680C3337
:102D70000CE08B682BB1012B4FF0080303D04761A7
:102D800004E0042302E0076100E00023FF2A01D8E9
:102D9000064601E000F104064FEA840501D9A5F1D9
:102DA0002005376808FA05FC27EA0C0703FA05F541
:102DB00047EA050737604D68ED006ED53D4DAE69B9
:102DC00046F00106AE61AD6924F0030605F0010589
:102DD0000095394D7719BE68A5072D0F08FA05FC37
:102DE00026EA0C06DFF8D4C0604503D14FF0000C92
:102DF00025E052E0DFF8C8C0604502D14FF0010C79
:102E00001DE0DFF8C0C0604502D14FF0020C16E0B3
:102E1000DFF8B4C0604502D14FF0030C0FE0DFF8DB
:102E2000ACC0604502D14FF0040C08E0DFF8A0C050
:102E3000604502D14FF0050C01E04FF0060C0CFA92
:102E400005FC4CEA060CC7F808C04D68D9F80060CC
:102E5000ED034D4601D5164300E096432E604D68C4
:102E6000DAF80060AD03554601D5164300E09643FD
:102E70002E604D68DBF80060ED025D4601D516431B
:102E800000E096432E604D68DEF80060AD027546A6
:102E900001D5164300E096432E60641C0A6832FA9E
:102EA00004F57FF42EAFBDE8F88F00000004014068
:102EB0000000111000100240000001400008014015
:102EC000000C0140001001400014014000180140B6
:102ED000001C01408068084000D0012070470AB102
:102EE000016170470904FBE70148806870470000F2
:102EF0001C000020024881680278114481607047FC
:102F00001C000020074810B5016841F01001016065
:102F1000052000F057F80F2000F006F800F024F824
:102F2000002010BD0020024070B50D4D04464FF446
:102F30007A712878B1FBF0F00A490968B1FBF0F02A
:102F400000F0DCFA48B9102C07D200222146501EAE
:102F500000F018F800206C6070BD012070BD00000A
:102F60001C000020000000207047002809DB00F052
:102F70001F02012191404009800000F1E020C0F8CB
:102F800000117047F0B40E4B1B68C3F30223C3F16A
:102F90000704042C00D904241D1D072D01D2002391
:102FA00000E0DB1E012606FA04F56D1E0D409D4073
:102FB0009E40761E164045EA0601F0BC00F033BF85
:102FC0000CED00E0064A00F0070110684FF6FF0321
:102FD000184040EA01200349084310607047000090
:102FE0000CED00E00000FA052DE9F0470D46040065
:102FF00067D0DFF81881D8F8000000F00700A84279
:103000000CD2D8F8001021F007012943C8F80010AD
:10301000D8F8000000F00700A84252D120683C4ECA
:10302000810712D5400703D5706840F4E0607060F6
:103030002078000703D5706840F4605070607068B5
:10304000A16820F0F000084370602078C00727D006
:103050006068012810D03168022810D08907002943
:103060002FDA716821F0030101437160FFF73CFF23
:10307000074641F288390CE031688903EFE789019E
:10308000EDE7FFF731FFC11B494502D90320BDE839
:10309000F0877068616800F00C00B0EB810FF0D130
:1030A000D8F80010404601F00701A9420BD9016889
:1030B00021F0070129430160006800F00700A842E1
:1030C00001D00120E3E72078400705D57068E1686A
:1030D00020F4E060084370602078000706D570682F
:1030E000216920F4605040EAC100706000F038F8B7
:1030F0007168084AC1F30311515CC8400649086071
:1031000006480068FFF710FF0020C0E700200240DB
:1031100000100240AC0B030800000020200000203B
:103120000448054900684968044AC1F30221515C1A
:10313000C84070470000002000100240BC0B03088C
:103140000448054900684968044AC1F3C221515C3A
:10315000C84070470000002000100240BC0B03086C
:1031600012A085B00FC88DE80F0014A0144B0068A2
:1031700004905968134801F00C02042A10D0082A60
:103180000ED1C1F38342C9031DF802000AD5596864
:1031900004AAC1F34041515C0A4A5043B0FBF1F02C
:1031A00005B0704708494843FAE7000002030405E8
:1031B000060708090A0B0C0D0E0F10100102000083
:1031C0000010024000127A0000093D002DE9F84F7E
:1031D00004006FD02078BE4DC00747D06868C0F3A8
:1031E0008100012807D06868C0F38100022809D156
:1031F0006868C00306D52868800337D56068002852
:10320000E7D033E06068B0F5803F0BD010B1B0F587
:10321000A02F11D0286820F480302860286820F47E
:10322000802002E0286840F480302860606888B11F
:10323000FFF75AFE064609E0286840F4802028601F
:10324000F0E7FFF751FE801B642873D828688003DD
:10325000F7D50BE0FFF748FE064604E0FFF744FE13
:10326000801B6428F1D828688003F7D42078DFF821
:10327000648280074FF0010A4FF0000939D5686871
:1032800010F00C0F07D06868C0F38100022809D144
:103290006868C00306D42868800714D5206901280F
:1032A00008D110E02069B0B1C8F800A0FFF71CFEFB
:1032B000064605E007E1FFF717FE801B0228C4D889
:1032C00028688007F7D52868616920F0F80040EA8F
:1032D000C10028600DE0C8F80090FFF705FE064623
:1032E00004E0FFF701FE801B022823D8286880072E
:1032F000F7D4207800072CD57748A169D9B1C0F858
:1033000000A0FFF7F1FD064604E0FFF7EDFD801B8E
:1033100002280FD8686A8007F7D570484FF4FA5131
:103320000068B0FBF1F0009000BF0098411E0091D2
:10333000FAD20EE07CE0C0F80090FFF7D5FD06461B
:1033400004E0FFF7D1FD801B022871D8686A80076E
:10335000F7D4207840075BD5E8690027C00008D47F
:10336000E86940F08050E861E869012700F080508A
:1033700000905B480168C90511D40168834641F497
:1033800080710160FFF7B0FD064604E0FFF7ACFD79
:10339000801B64284CD8DBF80000C005F6D5E06837
:1033A00001280AD008B1052813D0286A20F00100AE
:1033B0002862286A20F0040002E0286A40F0010038
:1033C0002862E06841F2883B88B1FFF78DFD064630
:1033D00009E0286A40F004002862EEE7FFF784FD68
:1033E000811B59455BD8286A8007F7D50BE0FFF7AA
:1033F0007BFD064604E0FFF777FD811B59454ED85B
:10340000286A8007F7D41FB1E86920F08050E8618E
:10341000E069A8B36968C1F38101022946D0022896
:10342000484606D0C8F86000FFF75EFD044639E064
:1034300035E04746C8F86000FFF756FD064604E051
:10344000FFF752FD801B022829D828688001F7D495
:10345000206AB0F5803F05D16868A16820F400308B
:1034600008436860D4E908010843696821F47411CD
:1034700008436860C7F860A0FFF736FD044605E022
:1034800023E0FFF731FD001B022808D828688001DF
:10349000F7D51AE0FFF728FD001B022802D9032008
:1034A000BDE8F88F28688001F4D40EE00128F7D039
:1034B0006868226A00F48031914204D1616A00F4A4
:1034C0007010884201D00120EAE70020E8E7000000
:1034D00000100240000042428004424200000020EE
:1034E000007000404FF0E0210428086903D020F06C
:1034F00004000861704740F00400FAE710B5401E70
:10350000B0F1807F01D3012010BD4FF0E024606155
:103510000F21601700F087FC0020A06107202061C8
:10352000002010BD7047704710B5040003D094F818
:103530003D0010B107E0012010BD002084F83C00E0
:10354000204600F01EF8022084F83D00211D20686E
:1035500000F050FB012084F8460084F83E0084F817
:103560003F0084F8400084F8410084F8420084F869
:10357000430084F8440084F8450084F83D000020AE
:1035800010BD704790F83D10012901D0012070470F
:10359000022180F83D100168CA6842F00102CA6049
:1035A00000680E4988420ED00D4988420BD0B0F118
:1035B000804F08D00B49884205D00B49884202D081
:1035C0000A49884204D1816801F00701062903D025
:1035D000016841F00101016000207047002C0140AA
:1035E000003401400004004000080040000C00408E
:1035F00070B501682D48814257D102212C48FFF750
:1036000069FC2C4E2C4C002578B13068016A21F001
:10361000A00101623068016A41F020010162306856
:103620004562207840F010003EE00421214800F07F
:103630001BF9316880B20A6A22F0A0020A6231687E
:103640000A6A0A622178CA062BD50A064FF4F97372
:103650001ED5A0F22D129A4202D86068400808E0F8
:10366000A0F27952B2F5C77F05D86068400840F0F3
:103670000040606015E040F2E732A0F2D170904265
:103680000FD26078401C607001F0F000207008E0FC
:10369000A0F580506938984203D841F0800020702E
:1036A0006570207820F01000207070BD000C004084
:1036B00000080140380600207800002070B504465C
:1036C000006801694FF00005C943890715D4C16836
:1036D000C943890711D4E91E0161012020772068C0
:1036E00080698007204602D0FFF782FF04E000F0E7
:1036F00098F8204600F096F8257720680169C943BC
:10370000490717D4C168C943490713D46FF00401AE
:103710000161022020772068806910F4407F2046F4
:1037200002D0FFF765FF04E000F07BF8204600F0D0
:1037300079F8257720680169C943090716D4C1685B
:10374000C943090712D46FF00801016104202077F2
:103750002068C0698007204602D0FFF749FF04E0D7
:1037600000F05FF8204600F05DF8257720680169D9
:10377000C943C90617D4C168C943C90613D46FF039
:1037800010010161082020772068C06910F4407F93
:10379000204602D0FFF72CFF04E000F042F820465C
:1037A00000F040F8257720680169C943C90708D1AE
:1037B000C168C943C90704D1891E0161204600F0D0
:1037C00033F820680169C943090609D4C168C943AF
:1037D000090605D46FF0800101612046FFF7A2FEC3
:1037E00020680169C943490609D4C168C94349062B
:1037F00005D46FF040010161204600F04AF82068CE
:103800000169C94389060BD4C168C943890607D435
:103810006FF0200101612046BDE87040FFF783BED4
:1038200070BD70477047000000680D49884215D18F
:103830000C490878020611D520F010000870020724
:1038400002D140F040000870C0B200F00F020E2A12
:1038500001D2401C01E000F07000087070470000C9
:10386000000C0040780000200246002041B10429ED
:1038700009D008290AD00C2901D11068006C7047C2
:103880001068406B70471068806B70471068C06BA1
:10389000704770477047000070B5026804461068B2
:1038A000D168536910F00F0F52D003F0010501F4F5
:1038B00090762E435FD0C20705D0CA0503D5E26BD0
:1038C00042F00102E263420705D5DA0703D0E26B5A
:1038D00042F00202E263820705D5DA0703D0E26B09
:1038E00042F00402E263020707D501F020022A43F6
:1038F00003D0E26B42F00802E263E26B002A33D0AD
:10390000800604D5880602D5204600F0CFF920684D
:103910004069E16BC0F38010090700D428B320464A
:1039200000F0B6F92068416949061AD5416921F0CD
:1039300040014161606BA0B12D494163606BFFF7AD
:1039400027F9002810D0606B416BBDE87040084734
:10395000830610D58B060ED52046BDE8704000F0DA
:10396000A5B92046FFF796FF70BD2046FFF792FFEE
:103970000020E06370BD03062BD50B0629D594F813
:1039800039002128F6D1A068B0F5805F01D1206907
:10399000B0B1206A411C2162216800784860E08C47
:1039A000401E0004000CE084E4D12068C16821F0CE
:1039B0008001C1602068C16841F04001C16070BDF4
:1039C000206A0088C0F308005060206A801C2062D2
:1039D000E5E74006F3D54806F1D5D168204621F049
:1039E0004001D160202184F8391000F0D1F870BD79
:1039F000813C000870B5040004D094F8390000251B
:103A000010B106E0012070BD84F83850204600F067
:103A100023F8242084F839002068C16821F400517B
:103A2000C160204600F088F92068016921F49041C6
:103A300001612068416921F02A0141612068C16863
:103A400041F40051C160E563202084F8390084F816
:103A50003A00002070BD000010B500681A4986B019
:103A600088422ED11948816941F004018161816940
:103A700001F004010491816941F0040181618169CF
:103A800001F004010491816941F480418161806900
:103A90000F4C00F4804004904FF40070009002201E
:103AA0000190012002900320039069462046FFF711
:103AB00019F9211500910021019169462046FFF76F
:103AC00011F906B010BD000000380140001002409E
:103AD0000008014090F83A30202B22D1F9B1F2B120
:103AE00090F83830012B1CD081628285C28500217C
:103AF000C163222280F83A2080F838100168CA6831
:103B000042F48072CA6001684A6942F001024A6167
:103B10000068C16841F02001C160002070470120A9
:103B2000704702207047000030B400681549884291
:103B300025D1154A5088010416D411464404097849
:103B40004FF0000304D50A290DD140F4004014E0E1
:103B50000D2910D0C0F30D040C4D401C80B2295526
:103B60005080C72800D953800848012230BC06493C
:103B7000C830FFF7AFBF40F480405080F4E730BC5E
:103B8000704700000038014012000020200500208E
:103B90007047FEE7FEE7704710B5FFF7ABF92BF073
:103BA000DFFD012803D0BDE810402BF0CFBB10BDD6
:103BB0007047000010B50A4C2068C068C043C007B9
:103BC00009D10848006980472168002048622168BF
:103BD0006420C862E06021686FF00100086110BDD8
:103BE000000F0020E00000200148FFF767BD000043
:103BF00038060020F0B502681C4D1D4E1D4FDFF841
:103C000078C01E4B4FF0804EA84209D0984207D092
:103C1000704505D0B04203D0B84201D0604503D111
:103C200022F070044A682243A84209D0984207D083
:103C3000704505D0B04203D0B84201D0604503D1F1
:103C400022F44074CA6822434C6922F08002224365
:103C500002608A68C2620A688262A84201D0984201
:103C600001D10969016301214161F0BD002C0140CE
:103C70000004004000080040000C004000340140F7
:103C800010B5406A0021C185C184FFF703FE10BD55
:103C90000168CA6822F49072CA6001684A6922F019
:103CA00001024A61202180F83A10704710B590F85F
:103CB0003A10222901D0022010BD81684FF48053B0
:103CC000994201D1026922B1826A99421BD049B15D
:103CD0000AE00268816A5268C2F308020A80816AB7
:103CE000891C08E0016971B10168496801F07F0130
:103CF0001170816A491C8162C18D491E0904090C39
:103D0000C18503D016E001684968F1E70168CA6817
:103D100022F02002CA600168CA6822F48072CA6078
:103D200001684A6922F001024A61202180F83A10B4
:103D3000FFF7FAFE002010BD70B504460068016967
:103D4000E26821F4405111430161A16820690143F7
:103D5000606901432068C26841F20C639A430A43D8
:103D6000C26020684169A26921F440711143416138
:103D70001E492068884202D1FFF7E2F901E0FFF70F
:103D8000CFF900EBC00101EB0011606864228000F4
:103D9000B1FBF0F3B3FBF2F36FF018067343B1FB22
:103DA000F0F5B1FBF0F605EB8305322303EB0515C7
:103DB000B5FBF2F5B6FBF2F605F0F00505EB0615DE
:103DC000B1FBF0F6B1FBF0F0B0FBF2F06FF01801D0
:103DD000484306EB800003EB0010B0FBF2F02168D3
:103DE00000F00F002844886070BD000000380140DA
:103DF0000148FFF751BD0000E8050020FEE749003B
:103E000050EAC12018BF04204A0D18BF40F001003D
:103E100040F2FF72B2EB515F08BF40F00200012890
:103E200008BF052070470907090E002804DB00F1D0
:103E3000E02080F80014704700F00F0000F1E0204F
:103E400080F8141D704740F2013200204FF0E0412D
:103E50002CF03ABE024A002011072CF035BE0000BB
:103E600001FDFFFF10B50446D1E9000100F002F8A2
:103E7000206010BDF8B504460D466A460BF0BAFD49
:103E800000987E30009000281EDC00221346204659
:103E900029462CF0F1F817D0002140F608004FF029
:103EA00000000646204629462BF048FF044640F60F
:103EB000080006EA00014FF0000034F0004004BFA3
:103EC0000220FDF7E3FF29E00098FF2828DB00210E
:103ED00008464FF0000000F440060022134620463A
:103EE00029462CF097FA8CBF002501250220FDF70A
:103EF000CDFF4FF0FF4446B1002D0CBF4FF4000042
:103F00004FF48000B04218BF084C042108464FF01F
:103F10000000002D04BF84F00040F8BD2046F8BD2D
:103F200020462946BDE8F8402BF008BFFFFF7F7F01
:103F300010B504460A46D4E90003194613F0C8F840
:103F4000C4E9000110BD70B5044600256FF02F06CE
:103F500008E02068411C2160007805EB850106EB34
:103F6000410145182068007800F004F80028F0D1DD
:103F7000284670BD3038092801D80120704700203C
:103F8000704730380A2801D201207047002070475E
:103F900010B54021074801F079F8002204210648B5
:103FA00023F09AFB054CA06002F092F800202070EC
:103FB00010BD00000C24002079610008440300209B
:103FC00070B5B1F90040B2F900309C4200DD2346E3
:103FD0000380B1F90240B2F90250AC4200DC2C4639
:103FE0004480B1F90450B2F90460B54200DB3546B3
:103FF0008580B1F90610B2F90620914200DB114626
:10400000C1800120AB4201DC8C4200DD002070BD8C
:10401000F8B50D460446B0F90000B1F90010164697
:10402000884247DBB4F90210B5F90220914241DB26
:10403000B4F90410B5F9042091423BDCB4F9061040
:10404000B5F90620914235DC96B3ADF800006088E2
:10405000ADF8020032466946284600F099F800287B
:1040600027D0A088ADF800006088ADF80200324685
:104070006946284600F08CF800281AD02088ADF850
:104080000000E088ADF8020032466946284600F09C
:104090007FF800280DD0A088ADF80000E088ADF8CA
:1040A000020032466946284600F072F8002800D027
:1040B0000120F8BD0020F8BDB0F90020B1F90430AE
:1040C0009A4213DCB0F90420B1F900309A420DDBBA
:1040D000B0F90220B1F906309A4207DCB0F90600C7
:1040E000B1F90210884201DB0120704700207047BF
:1040F000F8B50D460446B0F90400B1F900101646B3
:10410000884243DBB4F90600B5F9021088423DDB72
:10411000B4F90000B5F90410884237DCB4F9021094
:10412000B5F90620914231DC76B3ADF80000608825
:10413000ADF8020032466946284600F029F818BB5F
:10414000A088ADF800006088ADF8020032466946EC
:10415000284600F01DF8B8B92088ADF80000E088C6
:10416000ADF8020032466946284600F011F858B909
:10417000A088ADF80000E088ADF80200324669463C
:10418000284600F005F808B10020F8BD0120F8BD70
:104190002DE9FC4105460F46B1F90000B5F90010C4
:1041A000144688423BDBB5F90410884237DCB7F986
:1041B0000200B5F90210884231DBB5F906108842D9
:1041C0002DDC002C76DD284614F01CFA00EBD070B4
:1041D0004610284614F0CCF900EBD070401086420F
:1041E00000DA3046844200DD04462888ADF800003D
:1041F000288800222044ADF804006888ADF8020049
:10420000688839462044ADF806006846FFF7C0FFCD
:1042100040B1BDF804002044ADF804003FE00020A8
:10422000BDE8FC81E8880022001BADF80200E888A8
:10423000ADF8060039466846FFF7AAFF28B1BDF879
:1042400004002044ADF8040011E0A8880022001BFF
:10425000ADF80000A888ADF8040039466846FFF7BD
:1042600097FF50B1BDF80000001BADF80000BDF88D
:104270000200001BADF8020016E06888ADF80200ED
:10428000688800222044ADF8060039466846FFF7EA
:104290007FFF70B1BDF80000001BADF80000BDF855
:1042A00006002044ADF806003946684620F020FD9F
:1042B000B6E7FFE70120B3E710B5B1F90030B2F976
:1042C0000040A34200DB23460380B1F90230B2F97B
:1042D0000240A34200DB23464380B1F90430B2F927
:1042E0000440A34200DC23468380B1F90610B2F9F2
:1042F0000620914200DC1146C18010BDFEB5054686
:1043000023F098F90024354E0746009435B1E8684B
:104310007060284623F0AEFA706802E016F0E8FA02
:104320007060006920F080FC7068406908B120F07E
:104330007BFC7068C06920F077FC7068006A20F030
:1043400073FC70680169E1B320F02AFF20F0A4FE3D
:104350007068B0F8501199B30168097C890715D5C8
:1043600016F024FB401E05B2706816F0D9FA401E04
:1043700003B20022114601A8009514F075F9706887
:1043800001A90268926B516004F0BAFC70684FF4A6
:10439000807130301CF05EFA7068202100F5987052
:1043A0001CF058FA7068A0F85041384623F03CF9E8
:1043B000009070680068436A13B1326800999847AA
:1043C00000E007E01CF08CF800F034F8BDE8FE4097
:1043D00000F006B8A0F85041FEBD00000802002021
:1043E00070B5094E0024C4EBC40556F8250008B189
:1043F0001CF0EAF806EB85001C211CF02BFA641C6B
:10440000E4B2042CEFD370BDE824002008494968C9
:104410000AE04A68824202D00A68824203D10A7ED8
:1044200042F001020A7649690029F2D17047000082
:10443000DC010020704700000421014800F026BE86
:10444000002400201C21014800F020BE1824002078
:104450002DE9FE4F0446DDE90C0513B9B0F5807F68
:104460007ED0B5F900604FF0FF3C764246430CEB3E
:10447000262636B22680B5F902707F4247430CEB00
:1044800027273FB26780B5F900C0A1EB0C0141437B
:104490004FF0020C0CEB212109B2A180B5F902808A
:1044A000A2EB080242430CEB222000B2E080002B7A
:1044B0007ED04FF00A0A93FBFAF6704200EB8000C0
:1044C00003EB400706F1010930B223F01FFB009017
:1044D0000FFA89F023F01AFB83465A3630B223F0E4
:1044E00015FB804609F15A0000B223F00FFB01468C
:1044F000009AC7F10A0000FB02F300FB08F001FB81
:1045000007010BFB073393FBFAF291FBFAF1501111
:10451000B4F900204FEA611BB4F902100BFB02F65C
:10452000B5F800C000FB11630CEBA323E646B5F819
:1045300002C00FFA83FACDF800C0B4F9043000FBD2
:1045400002F90BFB01920BFB03F800FB11850CEB4E
:10455000A2220EEBA52512B22DB200FB03FC00E057
:104560002EE0CDE901C80BFB01C1DDF800C0B4F9B4
:1045700006700CEBA1210BB200FB17610EEBA12121
:104580000EB2DDF808800BFB079100FB17800CEBE7
:10459000A121DDF804C00EEBA0200BFB07C7DDF85E
:1045A00000C009B20CEBA72700B23FB2D44600E02E
:1045B0000FE0564500DAB446A84217DA804616E006
:1045C00000202080491E6080A180521EE280BDE84C
:1045D000FE8F2A88324422806A883A4462802A8880
:1045E0001144A18069880844E080F0E7A846C445EA
:1045F00004DAD446564506DAB44604E0A84201DAA5
:10460000844600E0AC46A4F800C0D446564500DD20
:10461000B446A84201DD804600E0A846C44504DD5A
:104620005046564504DD304602E0A84200DC2846EC
:10463000A080914201DA084600E010469F4201DA6C
:104640003D4600E01D46A84205DA914201DA0846DF
:1046500006E0104604E09F4201DA384600E01846C2
:104660006080914201DD084600E010469F4201DD76
:104670003D4600E01D46A84203DD914206DC11469E
:1046800004E09F4201DD394600E01946E1809EE7E3
:104690002DE9FE4F0446D0F800B0B0F90800E589D6
:1046A000081AB4F90A10511AD4E90932B5F5807F15
:1046B0003AD0A589002DA56B05FB00F005FB01F59F
:1046C0004FEA60104FEA65113CD0256BE66A05FBA6
:1046D00000F706FB1177464305FB016003EBA729B2
:1046E00002EBA020B4F904104FEA292706128046F5
:1046F000B94246DD002F44DBB4F90600B04240DD8C
:10470000002E3EDB94F8340042073DD5820704F1C9
:1047100014001BD401FB067102224D0092460BEBE4
:1047200005011CF050F821E0256BE66A05FB00F757
:1047300006FB1177464305FB016003EBA70902EB7B
:10474000A000CFE703EB00095018CBE701FB06718F
:1047500001EB41054FF0030A0BEB050102221CF0AF
:1047600032F8E81C584410F8010CA07594F8340095
:10477000C0071FD04FF4FC60ADF80000A18A814251
:1047800018D10020BDE8FE8F32B204F11800236971
:10479000CDE90102002539B2AA468B4619F0B6FBD5
:1047A0000090BDF80000A082DDE90102594619F031
:1047B00045FBDAE7E07C78B1A4F83C90A4F83E80B1
:1047C000A4F84070A4F84260656484F848A02046CC
:1047D000BDE8FE4F00F002B80120D3E72DE9F04F0D
:1047E000044690F83C10D0F8009090F83E0087B056
:1047F0004FF0FF36702907DAB4F940203546012A18
:1048000000D5002580310DE0902916DDB4F9402057
:10481000B4F904300125521C9A4200DB0025A1F2B4
:104820007F114942C9B28846702809DAB4F94210AA
:10483000012900D50026803010E00025FF21F2E795
:1048400090280DDDB4F94210B4F906200126491C68
:10485000914200DB0026A0F27F104042C7B201E087
:104860000026FF2760690590A07D01900020824608
:104870008346009094F83400400744D594F84810DB
:10488000606C022201FB0501494404A81BF09BFF58
:10489000B4F9040094F8481002224843616C06FB06
:1048A0000011494403A81BF08EFFB4F9041094F8DA
:1048B0004800626C414306FB012200FB0590111881
:1048C000022202A81BF07FFF94F83400800761D514
:1048D00094F84800626C00EB090100FB05230B44CF
:1048E00013F8013C0093B4F90430434306FB032260
:1048F000114400FB050011F801AC111801EB09008F
:1049000010F8010C45E0B4F84000B4F94220284406
:1049100001B204F118008146236919F0F7FA0490F6
:10492000B4F84200B4F94010304402B254F8103FD9
:10493000484619F0EBFA0390608E2368304402B2C7
:10494000208E284401B2484619F0E0FA029094F80B
:104950002400103C80071DD5B4F9422034F8400FE4
:10496000284401B2484619F069FA00906088B4F909
:104970000010304402B2484619F060FA824660885E
:10498000304402B234F84009284401B2484619F0D4
:1049900055FA834694F8340042464546800735D59B
:1049A0000199009B01FB08F1C8F1FF0003FB001116
:1049B0000AFB08F30BFB0030C1F30721C0F307200B
:1049C00001FB07F3C7F1FF0600FB06331B0AA375C3
:1049D000022907D8022803D8002007B0BDE8F08FCD
:1049E000002702E0022800D8FF270198022800D8FB
:1049F00000220098022800D8FF22BAF1020F00D846
:104A00000025BBF1020F03D8FF2501E0FF20A075B0
:104A1000DAB1FF2A1BD0DDE9041015F041FB01904B
:104A2000BDB1FF2D17D0DDE902102A4615F038FB85
:104A300000903FB1FF2F10D001463A46019815F083
:104A40002FFB0090BDF8000009E00498E7E7059807
:104A5000E5E70298ECE70398EAE7BDF80400A082D6
:104A60000120BAE72DE9F0470446B0F908000A270B
:104A700000026062B4F90A000002A062B4F90C00FE
:104A800090FBF7F5694201EB810100EB41066842BA
:104A900005F1010800B223F039F88246E84300B27C
:104AA00023F034F88146C5F15A0000B223F02EF805
:104AB0000546C8F15A0000B223F028F80146C6F1B5
:104AC0000A0000FB0AF3684301FB060009FB0632FB
:104AD00092FBF7F290FBF7F051114011C4E90B1073
:104AE000A07C19F0BFFA94F8341060F3000184F848
:104AF0003410A07C19F0A6FA94F8341060F3410148
:104B000084F83410A07C042823D0052821D006285E
:104B10001FD021F0040184F8341021682162A169BA
:104B200021F0E00160F30401A08860F39421E088A3
:104B300060F35F51A161E0894FF4001101EB500176
:104B4000B1FBF0F0A063FF20A075208AA082BDE831
:104B5000F08741F00401DEE72DE9F04115460E46ED
:104B60000746114C22F066FD80462B4632463946F8
:104B7000204619F0F5FD20B10020A062E06950B197
:104B800010E02C2120461BF065FE4FF00040A06293
:104B90000020BDE8F081404622F046FDE06108B902
:104BA0000120E0612046F4E73C24002010B51421E8
:104BB000074800F06BFA19F099FD40B10549016012
:104BC00005494160054981600549C16010BDFEE7A6
:104BD0002424002021E1010895E401080DE60108E4
:104BE000EDE0010870B50D460446102128461BF083
:104BF00031FE20680078012804D0022807D004285C
:104C000007D008E0208A2880608A688003E0E06896
:104C100000E00A20686020684268002A03D0294624
:104C2000BDE87040104770BDFEB5856A0446BDB949
:104C3000A08A218A0844A082E08A618A0844E0822E
:104C400020460AF0EBF9050079D020460DF000F976
:104C500000220921284618F03BFC607880076ED4BA
:104C6000208A10B9608A002869D00026ADF8086053
:104C7000ADF8046094F83C0000F00F0003282846CB
:104C800016D01DF06DFB074628461DF023FA03469B
:104C90000C200090B4F912103A46284609F05AFD4B
:104CA000ADF8040028461DF067FAC10712D017E0DE
:104CB0001DF0EAFA074628461DF086FA0246032050
:104CC0000090B4F910103B46284609F043FDADF8BA
:104CD0000800E7E7BDF90810002901DDADF808601C
:104CE000810705D4BDF90810002901DAADF8086084
:104CF000410705D4BDF90410002901DDADF80460B9
:104D0000000705D4BDF90400002801DAADF80460FD
:104D100001AA02A9204625F068FA0023BDF9042063
:104D2000BDF9081028461FF009FBA08ABDF808103D
:104D30000844A082E08ABDF804100844E082FEBD69
:104D40002DE9FC5F0446806A5FEA000B71D094F89D
:104D50003C0000076DD019F0BDFF019000684021B4
:104D6000457E58461EF09AFA4FF0000818B9A4F88C
:104D70001A80A4F8188058461DF0E4FA8246584676
:104D80001DF0E7FA064694F83C004FF0640900F085
:104D90000F000C2802D003284CD09AE0A4F8188009
:104DA00056B1B4F91A50002719F094FF006849462B
:104DB000407EC0F1640222E0B4F91A00C5F164013A
:104DC000484390FBF9F0608358461DF083F905468F
:104DD00058461DF0C5FA02460C200090B4F91A108E
:104DE0002B46584609F0B6FC6083024600231EE0BD
:104DF000781907B202FB05F090FBF1F005B2002D27
:104E0000F6D1ADF80070A4F81A806A460021204659
:104E100025F0EBF941F6FF72BDF9003051425846DA
:104E20000AF060FABDF800100123084402B2002124
:104E30004CE09AE0A4F81A80BAF1000F0AD0B4F955
:104E40001850002719F046FF00684946407EC0F11F
:104E5000640222E0B4F91800C5F16401484390FBF4
:104E6000F9F0208358461DF0AFF9054658461DF06D
:104E70000BFA034603200090B4F918102A4658464E
:104E800009F068FC2083014600231EE0781907B270
:104E900002FB05F090FBF1F005B2002DF6D1ADF864
:104EA0000070A4F8188000226946204625F09DF97C
:104EB00041F6FF72BDF90030514258460AF090F9B0
:104EC000BDF800100123084401B2002258461FF02B
:104ED00035FA208B002848D1608B002845D1C6B90F
:104EE00058461DF03DFA054658461DF0F3F8002DD2
:104EF00006DC00280DDD002D02DA01232A4604E03D
:104F0000002806DA0123404202B2002158461FF071
:104F100015FABAF1000F19D158461DF055F905469A
:104F200058461DF0B1F9002D07DC00280EDD002DDC
:104F300003DA01230022294605E0002806DA0123CE
:104F40000022404201B258461FF0F8F90A215846A3
:104F5000019A18F0BDFA6078800706D414F83C0F67
:104F600020F00F00207044F8148CBDE8FC9F7FB542
:104F70000D46040003D115F0BBFC040023D000262D
:104F8000FDB1ADF80060ADF8026015F0C9FC401E3F
:104F9000ADF80400204615F009FD401EADF80600EE
:104FA0006A46294602A8FFF70BF800280BD02068B4
:104FB000017C890708D5DDE90001C4E90C01012065
:104FC00029E0A0F850617FBD82690AB102A990472B
:104FD00000250AE004EBC501002202A83031FFF7EA
:104FE00017F80028EFD16D1CADB2B4F85001A842FB
:104FF000F0D880B2202804D204EBC00002A93030DF
:1050000004E0A4F8506104F13000694613F041FA5D
:10501000B4F85001401CA4F8500160680028D2D0B8
:1050200022F034FC7FBD70B5054600F012F804464E
:105030000CE02146284600F01EF806462146284688
:1050400000F071F820461BF0BFFA3446002CF0D176
:1050500070BD002800D04068704700B503460022AC
:10506000FFF7F7FF03E01846521C00F004F80100B8
:10507000F9D1104600BD0068091D4058704700680E
:1050800040587047002800D0806870470022426076
:10509000C91C21F0030182600160704770B50446AD
:1050A000006808301BF006FA050013D00146002204
:1050B000204623F0B2FC29462046626823F0A4FC77
:1050C000616819B12A46204623F0A7FC6560A068F4
:1050D00000B9A560284670BD70B504460068083068
:1050E0001BF0E8F9050013D001460022204623F00A
:1050F0008BFC29462046A26823F08FFCA16819B1D9
:105100002A46204623F080FCA560606800B96560EF
:10511000284670BD28B1416809B9806808B10020EF
:1051200070470120704770B504000DD0FFF791FF64
:1051300000228842204608D1FFF79DFF606010B131
:10514000002201461EE0A26070BDFFF79BFF88426F
:10515000206808440AD10168A16029B12046BDE851
:105160007040002223F050BC626070BD056820468C
:10517000FFF781FF064602462946204623F044FCFD
:105180002A4631462046BDE8704023F046BC10B5A3
:105190000446006882680AB121469047206800688A
:1051A000002801D02060F5E710BD8068002801D0FC
:1051B000B0F91600704700002DE9F047054690B0A1
:1051C000408C189C40F00400688490462A849946DC
:1051D0008A46228928461DF0D5FE0646A5F820906D
:1051E0002289514628461DF0CDFE0746688CBE42F6
:1051F00020F00400688403D13104B1EB074F68D07C
:10520000A5F820802289514628461DF0BBFE06469F
:105210008046A5F82090514628460BF0C0FB218916
:105220000068324621F030F92089602823D147F602
:10523000FF794E4501D04F451DD128461DF0E8FFAE
:1052400000EBD070461028461DF0E2FF00EBD07056
:105250004010C84506D1711C431C994200DA00E099
:10526000194688464F4506D1711C421C914201DA0D
:105270000F4600E017461948FFF710FF06002BD035
:105280003560C6E903872089B0806846C6F808A063
:1052900012F016FC1248FF21CDE90060114802907F
:1052A0001148039000200790CDE9080120880A905A
:1052B00060889DF83E1040420B90E0680690002008
:1052C00060F300018DF83E1020690590684612F0E9
:1052D0006FFC10B0BDE8F087FEE70000302400202E
:1052E00035D6020825D802087DD7020814210148C6
:1052F000FFF7CCBE302400202DE9F84F0024904663
:1053000089460646254643F60F0A43F60E0B00E192
:105310000420F16800EBC500085881017ED480B2FA
:1053200030EA090112D0002130EA080010D0002034
:10533000814273D0F0686A4641F6100150F835702A
:10534000384620F08BFE002869D103E00121EBE70D
:105350000120EDE76A4641F61101384620F07EFE55
:10536000002873D16A4641F61201384620F076FED5
:1053700000286BD16A4641F61301384620F06EFED4
:10538000002863D16A4641F61501384620F066FED2
:1053900000285BD16A4641F61401384620F05EFED3
:1053A000E8BB6A4641F26901384620F057FEB0BBBF
:1053B0006A4643F20C01384620F050FE78BB6A463C
:1053C00043F20D01384620F049FE40BB6A4641F2E7
:1053D0000101384620F042FE08BB6A4641F2040152
:1053E000384620F03BFED0B96A4641F20201384609
:1053F00020F034FE98B96A4641F20301384620F0A5
:105400002DFE60B96A4641F20501384620F026FEBD
:1054100028B96A4641F20601384601E078E015E015
:1054200020F01CFE90B96A4641F23201384620F065
:1054300015FE58B96A465146384620F00FFE28B985
:105440006A465946384620F009FE10B10320BDE8EF
:10545000F88F6A4640F60A01384620F0FFFDE8BBA7
:105460006A4640F60B01384620F0F8FDB0BB6A46AC
:105470005146384620F0F2FD80BB6A465946384610
:1054800020F0ECFD50BB6A4640F63C01384620F067
:10549000E5FD18BB6A4640F63D01384620F0DEFDCA
:1054A000E0B96A4640F63A01384620F0D7FDA8B97F
:1054B0006A464FF40461384620F0D0FD70B96A4660
:1054C00040F64501384620F0C9FD38B96A4640F635
:1054D0004101384620F0C2FD00B900E014E06A4600
:1054E00040F64201384620F0B9FD68B96A4640F6F8
:1054F0004301384620F0B2FD30B96A4640F6490112
:10550000384620F0ABFD08B1022401E004B90124C3
:105510006D1C708CC0F3C500A8423FF6F9AE204662
:1055200095E700000148406870470000080200202D
:105530007047C0F30410072800D907207047000007
:1055400010B518210348FFF7A1FD03490120087099
:1055500010BD0000DC230020700300202DE9F04185
:1055600090460D46040016D0FBF729FA29460B4D4C
:1055700006462046AA6890470746AA68E0194146B1
:10558000904701463846721A03E04318E35C2354FF
:10559000401C8242F9D2BDE8F08100008403002063
:1055A0002DE9F041094C90460E4662681D460746BB
:1055B00019469047306020B128686268384400215D
:1055C0009047C8F80000BDE8F08100008403002087
:1055D0002DE9F04F87B08A46DDE910581F46934603
:1055E0000446002105B129805CB12078002809D04B
:1055F000BAF1000F05D0002618F0060F15D00020D4
:1056000004E0002007B0BDE8F08F401C215C0A29AF
:1056100004D00D2902D00029F7D100E0401C002D54
:10562000F0D04FF0FF312980ECE75FEA887001D5B8
:1056300041F6FF77894608468DF81010059125E060
:105640000598CDF8189058B3002104ABCDE902318C
:105650000DF1180CCDE9008C20443B465A465146CA
:1056600022F07EFA06997A1A314417B20EB288B146
:1056700005990844059021780A290BD00D2909D0F5
:10568000205C0A280ED00D280CD00598205C08B1AB
:10569000002FD5DC059848B105B12E800598B1E7FB
:1056A0000121D2E70598401C0590F3E7064A05A9B9
:1056B0002046526890470146002DEFD00022504608
:1056C00017F0DFFF06B2E8E7840300202DE9F04180
:1056D0001746884606001ED0002F1CD0FBF76FF936
:1056E00004463846FBF76BF9050014D00B4A2C44EE
:1056F0004146926830469047411903E0621BB25C14
:105700003255641EA142F9D930442A463946BDE8D3
:10571000F0411BF063B8BDE8F08100008403002075
:1057200000230278232902D0012A0DD00FE02AB1EC
:105730000021012A04D0022A04D008E0012101E05E
:10574000017004E0017001E0202902D00123184615
:1057500070470221F6E72DE9F0410B460F468046DF
:1057600002460021084622F041FC05460026401C66
:105770001AF0A0FE040008D066553B464246691C5C
:1057800022F034FC2046BDE8F081FEE72DE9F04729
:10579000984614460D468246DDF8209013E06608D0
:1057A00006FB0857394650464A469047002808DD10
:1057B00044F30000C0EB540407EB0805A4F1010416
:1057C00001E005DA3446002CE9D12046BDE8F08737
:1057D0003846FBE72DE9FC5F0CAD9E4692468B46B2
:1057E00095E81201DDE91132DDE90F7C96074FF0F3
:1057F000300519D453B1D60708D002F00C0656EA8A
:10580000080603D05B1E01E00D55641C644504D2FC
:10581000202CF9D301E00D55641C5FEAC27903D056
:105820009C4201D2202CF6D3D60624D556050AD4A4
:105830004CB1644501D09C4205D1641E03D0102FA9
:1058400003D1641E04E0102F02D0022F0AD00EE014
:10585000960603D4202C1ED2782606E0202C1AD2DD
:10586000582602E0202C16D262260E55641C202CED
:1058700011D20D55641C202C0DD2B8F1000F01D0AF
:105880002D2506E0550701D52B2502E0150702D589
:1058900020250D55641CCDE900EB064655468B4688
:1058A00098469146900713D1274606E02A46DDE93F
:1058B00000316D1C2020B0477F1C4745F6D307E020
:1058C0002A466D1C641EDDE900311BF80400B04758
:1058D000002CF5D15FEA897006D409E02A46DDE99B
:1058E00000316D1C2020B047A5EB0A014145F5D3DE
:1058F0002846BDE8FC9F2DE9F04F8FB099468B46B6
:10590000DDE91818DDE91C63DDE91A478646924691
:10591000002009B923F010035A0507AD00D5C9B11D
:10592000B1FBF4F204FB1212D2B20A2A01D23032D5
:1059300009E05FEA836C02D54FF0410C01E04FF0C3
:10594000610C62440A3AB1FBF4F12A54401C09B1DB
:105950002028E5D3CDF80880CDE90563CDE90050D6
:10596000CDE903474B46524659467046FFF732FF92
:105970000FB0BDE8F08F2DE9FF4F8FB01CACDDE913
:10598000239594E8030820AC94E8C004002450EA6E
:10599000010201D125F010056A050DF11C0802D5A0
:1059A00050EA010217D032463B46FAF7C7FCD2B2A2
:1059B0000A2A01D2303206E0AB0601D5412300E0CD
:1059C00061231A440A3A08F80420641C50EA0102D0
:1059D00001D0202CE7D3CDE90084CDF808B0CDE983
:1059E0000595CDE9036A0FAF97E80F00FFF7F2FEC8
:1059F00013B0BDE8F08F9A4200D2885470477047C8
:105A0000704700002DE9FF4F89B082460A980024B4
:105A1000169D002801D1DFF8F0A367E1252802D008
:105A20002246641CE2E1491C002608460C910178DC
:105A30002B291BD004DC20291BD0232904D11BE0F7
:105A40002D290ED0302909D00027C8B2FEF792FACE
:105A5000A8B10CA8FEF777FA07461CE046F001064D
:105A600001E046F00206401C0C90E0E746F0040618
:105A7000F9E746F00806F6E746F01006F3E70C985B
:105A800001782A2907D180CD002F02DA46F00206DC
:105A90007F42401C0C900C984FF0000801782E2992
:105AA00017D1401C0C9046F480660078FEF762FA2D
:105AB00020B10CA8FEF747FA80460AE00C99087856
:105AC0002A2806D101CD002800DC0020491C804690
:105AD0000C910C9801786C290AD004DC68290FD04D
