:020000040800F2
:1000000070B90020DD020008C72F0008C32F0008C8
:10001000C52F00089D190008C53300080000000026
:100020000000000000000000000000004502000881
:100030009F1900080000000089020008A130000894
:10004000F7020008F7020008F7020008F7020008AC
:10005000F7020008F7020008F7020008F70200089C
:10006000F7020008F7020008F7020008F70200088C
:10007000F7020008F7020008F7020008F70200087C
:10008000F7020008F7020008F7020008F70200086C
:10009000F7020008F7020008F7020008F70200085C
:1000A000F7020008F7020008F7020008F70200084C
:1000B000F7020008F7020008BD300008F702000848
:1000C000F7020008F7020008F7020008F70200082C
:1000D000F7020008B9330008F7020008F702000829
:1000E000F7020008F7020008F7020008F70200080C
:1000F000F7020008F7020008F7020008F7020008FC
:10010000F7020008F7020008F1300008F7020008C3
:10011000F7020008F7020008F7020008F7020008DB
:10012000F7020008F7020008F7020008F7020008CB
:1001300000F002F800F076F80AA090E8000C824483
:100140008344AAF10107DA4501D100F06BF8AFF260
:10015000090EBAE80F0013F0010F18BFFB1A43F0A5
:10016000010318475C4D01007C4D01000A444FF02B
:10017000000C10F8013B13F0070408BF10F8014B06
:100180001D1108BF10F8015B641E05D010F8016B4B
:10019000641E01F8016BF9D113F0080F1EBF10F8AF
:1001A000014BAD1C0C1B09D16D1E58BF01F801CBD2
:1001B000FAD505E014F8016B01F8016B6D1EF9D555
:1001C0009142D6D37047000000230024002500266A
:1001D000103A28BF78C1FBD8520728BF30C148BFAA
:1001E0000B607047662911F02680642900F0908129
:1001F000752900F08D81782900F0C681632900F00F
:10020000FE86732900F00387002070471FB500F0B9
:100210001DFC04000020002110F0D4F9E0601FBD97
:1002200010B510BD00F0C4FF1146FFF7EFFF0CF052
:10023000D1F900F0E2FF03B4FFF7F2FF03BC03F0D3
:10024000EDF80000224B19680868B0E8F00F80F361
:100250000988BFF36F8F4FF0000080F311884EF0D4
:100260000D0E70470000000006480068006880F32B
:10027000088862B661B6BFF34F8FBFF36F8F00DFA0
:1002800000BF00BF08ED00E0EFF30980BFF36F8F00
:100290000F4B1A6820E9F00F106008B54FF05000BE
:1002A00080F31188BFF34F8FBFF36F8F10F01EF8EC
:1002B0004FF0000080F31188BDE808401968086815
:1002C000B0E8F00F80F30988BFF36F8F704700BF6D
:1002D000F0010020EFF305807047000009488047D7
:1002E00009480047FEE7FEE7FEE7FEE7FEE7FEE718
:1002F000FEE7FEE7FEE7FEE704480549054A064B30
:1003000070470000B93000083101000870B30020C8
:1003100070B9002070B5002070B50020704753EA16
:10032000020C00F069802DE9F04B4FF00006002B25
:100330001FBFB3FA83F503FA05F424FA05F65E400D
:1003400012BF1643B2FA82F502FA05F4C5F1200590
:100350001EBF22FA05FC44EA0C04203556EA044C80
:100360004FEA144418BF641C4FF000084FF0000916
:10037000904271EB030C39D3002919BFB1FA81F710
:1003800001FA07F6B0FA80F700FA07F6C7F120077E
:100390001EBF20FA07FC46EA0C062037B6FBF4FC29
:1003A000A7EB0507103F07F01F0BCBF120060CFA57
:1003B0000BFB2CFA06F644BFB3460026202FA4BF41
:1003C0005E464FF0000B5BEA060C08BF4FF0010BD6
:1003D00019EB0B09ABFB027C48EB0608C01B06FBC4
:1003E00002CC0BFB03CC71EB0C01C1E70B460246C0
:1003F00041464846BDE8F08B13B54FF000004FF082
:100400000001AFF30080BDE81C4070470FB4044901
:1004100010B503AA029800F0FFFD10BC5DF814FBB4
:100420000C0000200FB41CB5074B06AA7B4469469C
:100430000090059800F0C1FD0020694600F0D0FD55
:100440001CBC5DF814FB0000B10B000070B5044645
:1004500085690068C10601D5302600E02026C00766
:1004600007D070BDD4E9012130469047206A401C76
:1004700020626D1EF6D570BD70B5044685690078A2
:10048000C00707D170BDD4E9012120209047206A20
:10049000401C20626D1EF6D570BD09684A0501D565
:1004A00040B27047C905FCD500B2704709684A05DB
:1004B00001D5C0B27047C905FCD580B2704770B590
:1004C0000C460546012A05D02878800600D5EA6941
:1004D000002302E0012305E05B1C934202D2E05CB2
:1004E0000028F9D1A869E618C01AA861286A18443A
:1004F00028622846FFF7AAFF04E0D5E9012114F895
:10050000010B9047B442F8D32846FFF7B5FF70BD02
:100510002DE9F0410646002410687529314616A5DC
:1005200010D0FFF7BAFF002802DA404213A507E017
:1005300031688A0701D512A502E0490704D511A543
:10054000012401E0FFF7B2FF00210A2206F124078F
:1005500009E0B0FBF2FCB0FBF2F302FB1C00303010
:1005600078541846491C0028F3D123462A463046C1
:10057000BDE8F04100F0B3BA000000002D0000001B
:100580002B0000002000000070B504460D462146F7
:100590001068FFF78BFF2188090502D50F4A7A44BE
:1005A00002E00E4A7A440E32002104F1240305E0F1
:1005B00000F00F060009965D5E54491C0028F7D133
:1005C00020780023000704D5702D02D009B1022342
:1005D00011322046BDE8704000F081BAE4450100C8
:1005E0002DE9F05F894604464FF0000ADFF874B148
:1005F000FB44C0F820A02046E1688847002874D05A
:10060000252806D0D4E901219047206A401C2062A9
:10061000F1E700265F462046E16888472028054626
:1006200007DB312D05D2781910F8200C08B10643EC
:10063000F1E7B00701D526F00406C4F81CA0002796
:10064000C4F818A02A2D09D0284602F0E0FE38B3DD
:1006500004EB8708303DC8F8185019E059F8041B1E
:10066000204604EB87029161E1688847012F054627
:1006700018D1E069002820DA26F020061DE0D8F81D
:10068000180000EB800005EB40003038C8F8180077
:100690002046E1688847054602F0B9FE0028EED101
:1006A000012F0AD02E2D08D12046E16888477F1CF3
:1006B0000546022F46F02006C4DBA069002803DAB5
:1006C000404246F00106A061F00701D026F0100676
:1006D0006C2D0BD0682D09D04C2D39D06A2D35D01A
:1006E000742D35D07A2D33D016E038E0E1682F46EE
:1006F00020468847B842054609D16C2F26D04FF4D2
:100700008060E168064320468847054604E06C2F78
:100710001AD04FF4807006430DB3A5F1410019289B
:1007200002D8203546F400664A462946204626600F
:100730004E46FFF757FD80B101280BD0F61D26F07D
:10074000070000F1080956E74020E4E78020D8E7D9
:100750000020D6E706F104094DE7284652E7206A53
:10076000BDE8F09FBA450100401ECAB210F8011F53
:100770008A4202D00029F9D10020704740EA0103E3
:1007800010B59B070FD1042A0DD310C808C9121F3A
:100790009C42F8D020BA19BA884201D9012010BD74
:1007A0004FF0FF3010BD1AB1D30703D0521C07E041
:1007B000002010BD10F8013B11F8014B1B1B07D1A5
:1007C00010F8013B11F8014B1B1B01D1921EF1D116
:1007D000184610BD40EA0103024630B59B0710D110
:1007E0004FF0013400E008C208C91D1B9D4315EA03
:1007F000C41FF8D013F0FF0102F8011B0DD01B0A33
:10080000F8E711F8013B002B02F8013B05D011F885
:10081000013B002B02F8013BF3D130BD421E12F820
:10082000013F002BFBD111F8013B002B02F8013BEB
:10083000F9D17047032A40F2308010F0030C00F029
:10084000158011F8013BBCF1020F624498BF11F80A
:1008500001CB00F8013B38BF11F8013BA2F10402C3
:1008600098BF00F801CB38BF00F8013B11F003033B
:1008700000F02580083AC0F0088051F8043B083A9F
:1008800051F804CBA0E80810F5E7121D5CBF51F841
:10089000043B40F8043BAFF30080D20724BF11F8BB
:1008A000013B11F801CB48BF11F8012B24BF00F820
:1008B000013B00F801CB48BF00F8012B704710B591
:1008C000203AC0F00B80B1E81850203AA0E8185048
:1008D000B1E81850A0E81850BFF4F5AF5FEA027C09
:1008E00024BFB1E81850A0E8185044BF18C918C078
:1008F000BDE810405FEA827C24BF51F8043B40F819
:10090000043B08BF7047D20728BF31F8023B48BFFD
:1009100011F8012B28BF20F8023B48BF00F8012B3B
:10092000704702F0FF0343EA032242EA024200F06A
:1009300002B84FF000020429C0F0128010F0030C3E
:1009400000F01B80CCF1040CBCF1020F18BF00F8C2
:10095000012BA8BF20F8022BA1EB0C0100F00DB871
:100960005FEAC17C24BF00F8012B00F8012B48BFCF
:1009700000F8012B70474FF0000200B51346944673
:100980009646203922BFA0E80C50A0E80C50B1F1E7
:100990002001BFF4F7AF090728BFA0E80C5048BFFB
:1009A0000CC05DF804EB890028BF40F8042B08BF99
:1009B000704748BF20F8022B11F0804F18BF00F895
:1009C000012B70474FF0013C50F8042B51F8043BC9
:1009D0009A4221D1A2EB0C03934313EACC1317D113
:1009E00050F8042B51F8043B9A4215D1A2EB0C03AA
:1009F000934313EACC130BD150F8042B51F8043B6A
:100A00009A4209D1A2EB0C03934313EACC13DBD037
:100A10004FF00000704700BFD01A01BAB1FA81F15F
:100A200001F0180122FA01F0CB40C1F12001DBB244
:100A3000C0B2C01A2CFA01F3D11A914311EAC311C2
:100A4000E6D170477047704770477047004870475D
:100A50002CB3002030B5B0F10A024FEA900E71F1CC
:100A600000034EEA817EB0EB0E0061EB91014FEA8C
:100A7000101E4EEA017E10EB0E0041EB11114FEA01
:100A8000102E4EEA016E10EB0E0041EB11214FEAE1
:100A9000104E4EEA014E10EB0E0041EB1141401892
:100AA00041F100014FEAD00040EA41704FEAD10124
:100AB00010EB80054FEA810444EA907444EB010492
:100AC0006D1944EB0404521BA3414FF0000348BFCF
:100AD0000A3200D530BD401C41F1000130BD2DE986
:100AE000F0470D4699469246044600F124080168F5
:100AF000880604D5E06921F01001216000E00120A2
:100B0000A84201DD471B00E00027A1697A1902EB2A
:100B10000900081AA0612078C00602D42046FFF719
:100B200095FC002608E0D4E901211AF80600904758
:100B3000206A401C761C20624E45F4DB2078C006FB
:100B40000AD52046FFF782FC06E0D4E901213020D7
:100B50009047206A401C2062381EA7F10107F4DC90
:100B600007E0D4E9012118F805009047206A401CED
:100B70002062281EA5F10105F3DC2046FFF77CFC6E
:100B80002078000602D50220BDE8F0870120FBE7AF
:100B900070472DE9FF4F0C461E464FF0FF378BB0D4
:100BA000D2E90001DDF860800A908A46C1F30A5557
:100BB00005B93D46002108464FF00000BAF1000F8C
:100BC00000F4400005DA00EB80004FF4400101EA38
:100BD00050004FEA9059B9F1010F00DDB9460A986B
:100BE00050EA4A000ED044F61050A5F2FF354543B6
:100BF0002F14B8F1000F1ED07542291E1EDDC9F159
:100C000000021CE0B8F1010F4FF0000001D03021CC
:100C100003E0F24305E02154401CB042FBDB3046C8
:100C20000022002121540B99C1F80880C1E900205D
:100C30000FB0BDE8F08FBD1B6D1CDEE74A4600DA41
:100C4000694206A800F03EFA06AB93E8070003AB42
:100C500083E8070050460A9900F0D8FA8DE80700AB
:100C6000A0F500501F3800900398002D0ADD42F2D5
:100C70001F014A460844002303A90390684600F078
:100C800041FD09E0A0F500504A461F38002303A9A2
:100C90000390684600F04BFD8DE807000004000C4F
:100CA00003D04FF0FF30410800E01046B8F1000FCC
:100CB00003D00022009215461EE0751E05D4FFF7F2
:100CC000C9FE303262556D1EF9D5B3460122084384
:100CD00002D000227F1C04E02078302801D10022BD
:100CE0007F1E002A099784D01DE0112D07DAFFF737
:100CF000B1FE303262556D1C50EA0102F5D1084355
:100D000002D00098C8B10EE00021681E05E0235C07
:100D1000625C63542254401E491C8142F7DBAB469F
:100D2000A81B401E0990002004F80B000B98099A9C
:100D3000C0F80880C0E9002B7AE711264FF00008C0
:100D400057E72DE9F04F88460446D21D22F00701EF
:100D500091B0D1E90001CDE90A0102F034FB02466D
:100D60000B98C00F01D02D2007E02068810701D526
:100D70002B2002E0202101EAC000032A099001D0C3
:100D8000072A05DB03464146204600F05BF90BE1EC
:100D90002078800601D5E06900E00620B8F1650FF3
:100DA000814606D0B8F1660F18D0B8F1670F70D140
:100DB00031E00020B9F1110F009001DB112301E0B7
:100DC00009F101030AAA01A90CA8FFF7E2FEDDE977
:100DD0000C70002609F10105834647E001204B46CF
:100DE00000904FF000470AAA01A90CA8FFF7D1FE16
:100DF000DDE90DB00C995D46002610B909F101003E
:100E00000D18B9EB050003D4C0F1FF3609F1010557
:100E1000A5EB09002BE0B9F1010F01DA4FF0010950
:100E20000020B9F1110F0090484601DD112300E0C8
:100E300003460AAA01A90CA8FFF7ABFEDDE90C7076
:100E40004D4600268346207800070AD4AB4500DAD9
:100E50005D4601A8012D04DD411911F8011C30295E
:100E600007D04F4502DA17F1040F04DA0120824659
:100E70000FE06D1EEEE7002F02DCED1B3E4403E0A9
:100E8000781CA84200DD7D1CB81B00F1010A4FF060
:100E900000472078000703D4AA4501DB4FF0FF3A52
:100EA0000021B7F1004F0DF143088DF8431024D015
:100EB00002202B23002F01DA7F422D230A21021E5C
:100EC000A0F1010000DC5FB197FBF1FC97FBF1F2B0
:100ED00001FB1C7C17460CF1300C08F801CDEEE745
:100EE000A8F1010003702188090501D5452100E022
:100EF0006521A0F1010800F8011C09980FA9A1EBD8
:100F00000807FF1D00B10120411901EBEA70A1693A
:100F10003844081A401EA0612078C00602D420463A
:100F2000FFF794FA099828B1D4E901219047206A83
:100F3000401C20622078C00622D52046FFF786FAA2
:100F40001EE0002E04DBB34502DD01A8805D00E059
:100F50003020D4E901219047206A401C2062761C91
:100F6000AAF101005FEA000A0AD1FFF76FFDC0682D
:100F70000168405CD4E901219047206A401C20624E
:100F8000281EA5F10105DCDC07E0D4E9012118F8F1
:100F9000010B9047206A401C2062381EA7F1010710
:100FA000F3DC2046FFF768FA032011B041E60000A9
:100FB00001694A1C02610878704700B58FB0CDE91D
:100FC00001310021059105497944CDE9031011460D
:100FD0006846FFF705FB0FB000BD0000E5FFFFFF0F
:100FE0000A6802F8010B0A60704710B5436913B133
:100FF000AFF3008001E0FFF762FA012010BD127824
:1010000000F124010A7000224A700122EDE7116804
:101010004FF0FF32E9E70000074B70B50D467B4407
:10102000FFF7CBFF0446284600F0BEF810B14FF0A2
:10103000FF3070BD204670BD7F4B000000487047F8
:101040000CB300202DE9F0411F4604460326016839
:10105000072A01F4006004DB08B116A505E016A517
:1010600003E008B115A500E015A521F010002060EF
:10107000A069C01EA0610FB1401EA0612046FFF70D
:10108000E5F94FB1D4E9012138469047206A401C68
:101090002062C01C206206E0206AFAE7D4E9012140
:1010A00015F8010B9047761EF8D22046FFF7E4F9B9
:1010B000BDE8F0814E414E006E616E00494E460023
:1010C000696E66002DE9F047814616468AB03548BC
:1010D00078440DC88DE80D0032487844801C03AC7C
:1010E0000DC884E80D0041F69B300844372190FB81
:1010F000F1F290FBF1F5A5F1800501FB12041B3C18
:1011000002D56442012000E00020DFF898A080466C
:101110000027FA44AAF1BE0A0EE0E0070AD03246E0
:10112000684607EB470101230AEB810100F0FFFA53
:101130008DE8070064107F1C002CEED1194F7F440E
:10114000AE3F19E0E80715D007EB04100DF1180ABF
:1011500090E80E008AE80E00C068F04201D19819AC
:1011600008903246012306A903A800F0E0FA03AB79
:1011700083E807006D10641C002DE3D14FF00103DC
:1011800032466946B8F1000F03A802D000F0BAFA5F
:1011900001E000F0CCFAC9E90001C9F808200AB062
:1011A000BDE8F087683B0100007B00F080007047DD
:1011B0007546FFF743FFAE4605006946534620F0EB
:1011C0000700854618B020B5FFF796F8BDE8204027
:1011D0004FF000064FF000074FF000084FF0000BF3
:1011E00021F00701AC46ACE8C009ACE8C009ACE8A6
:1011F000C009ACE8C0098D46704710B50446AFF38E
:1012000000802046BDE81040FFF715B85FEA400CAB
:1012100008BF91F0000F4FEA8C234FEAC12243EA46
:1012200051514FEA1C5018BF00F5F0404FEA300012
:1012300018BF41F000415FEA6C5C00F02980BCF10E
:10124000FF3F08BF40F080407047130C06BF1204F8
:101250004FF0100C4FF0000C130E04BF12020CF1F3
:10126000080C130F04BF12010CF1040C930F04BF00
:1012700092000CF1020CD30F04BF52000CF1010CD0
:1012800011464FF00002A0F11F00A0EB0C007047C8
:1012900011F0004F08BF704731F000413FF4D5AF67
:1012A0000B0C06BF09044FF0100C4FF0000C0B0E96
:1012B00004BF09020CF1080C0B0F04BF09010CF16B
:1012C000040C8B0F04BF89000CF1020CCB0F04BF80
:1012D00049000CF1010CCCF12003A0EB0C0022FA28
:1012E00003F302FA0CF241EA030100F10100704736
:1012F00020F07F4C80EA030023F07F47ACEB07032C
:1013000003F57C5300F0004003F1FF032DE9804911
:101310004FEA154B09B44FEA144325EA0B4E24EA71
:1013200003480FF2042606EB132749083E785FEACC
:10133000320203FB0667C7F5000707FB06F64FEA14
:1013400054374FEAD64606F1020607FB066CCCF18D
:10135000005C4FEA1C472CEA074C07FB06F40CFB29
:1013600006F504EB15464FEA961634BF00204FF001
:1013700000404FEAD13706FB07FC4FEA1C4C0CFB40
:101380000BF7D21B03FB0CF761EB07010CFB0EF70D
:10139000B0EB074072EB17420CFB08F734BFA2EB2F
:1013A0000742B2EB074261EB17414FEA0C444FEAA8
:1013B000910706FB07FC4FEA1C4C0CFB0BF7B0EB4C
:1013C000C74072EB573203FB0CF734BFA2EBC742A6
:1013D000B2EBC74261EB57310CFB0EF7B0EBC70025
:1013E00072EB57720CFB08F734BFA2EBC702B2EBEB
:1013F000C70261EB5771039F4FEA816141EA921185
:1014000004EBCC044FEAD1374FEA826206FB07FCBB
:1014100042EA90124FEA80604FEA1C4C0CFB0BF73B
:10142000D21B03FB0CF761EB07010CFB0EF7B0EBD3
:10143000074072EB17420CFB08F734BFA2EB0742E0
:10144000B2EB074261EB17414FEA8C554FEA910727
:1014500004EB9C2406FB07FC4FEA1C4C0CFB0BF72F
:10146000B0EBC74072EB573203FB0CF734BFA2EB73
:10147000C742B2EBC74261EB57310CFB0EF7B0EB42
:10148000C70072EB57720CFB08F734BFA2EBC70220
:10149000B2EBC70261EB577115EB4C254FEA816146
:1014A00041EA92114FEA82624FEAD13742EA901242
:1014B00006FB07FC44F100044FEA80604FEA1C4C35
:1014C0000CFB0BF7D21B03FB0CF761EB07010CFBCA
:1014D0000EF7B0EB074072EB17420CFB08F734BF76
:1014E000A2EB0742B2EB074261EB174115EB1C156B
:1014F0004FEA813141EA92414FEA823242EA904218
:101500004FEA80304FEA0C7644F1000448EA034386
:101510004EEA0B484FF0000EB2EB080C71EB0307DC
:1015200024BF624639464EEB0E0E4FF0000B0018FA
:10153000524149414BEB0B0BB2EB080C71EB03072B
:101540007BF1000B24BF624639464EEB0E0E4FF086
:10155000000B0018524149414BEB0B0BB2EB080C4E
:1015600071EB03077BF1000B24BF624639464EEB5B
:101570000E0E51EA020718BF46F0010616EB0E7672
:1015800055F1000254F1000103D5BDE88901BDE821
:101590000088BDE88901BDE80048B619524141EB19
:1015A0000101A3F10103704780807F7E7D7C7B7AFF
:1015B0007978777676757473727171706F6E6E6DFF
:1015C0006C6C6B6A6A6968686766666564646363A5
:1015D00062616160605F5F5E5E5D5D5C5C5B5B5A2B
:1015E0005A59595858575756565555555454535398
:1015F00052525251515050504F4F4F4E4E4D4D4DF3
:101600004C4C4C4B4B4B4A4A4A494949484848473D
:10161000474747464646454545444444444343437B
:101620004342424242414141002B9C4630D4770024
:101630002BD01CB54FEA370703B44FF010004FF022
:101640001001BAF1000F06D0BCF1000FDCBF40F072
:10165000080040F008014FF000000FBCBDE810404A
:101660000BF1010BBBF1010F08BF5FEA170722BFA7
:1016700012F1010211F101014FF0004143F10003A9
:1016800000F0004043EA00007047F9D35708D0E764
:1016900046EA064613F1400F4FEA16461FDD13F1E6
:1016A000200FDFBF16430A46002120335B42BED025
:1016B000C3F1200746EA064602FA07F74FEA164644
:1016C00046EA0706C3F1200722FA03F201FA07F7F8
:1016D00021FA03F14FF0000342EA0702A7E746EAC6
:1016E000020646EA06464FEA164646EA0106BCBF2F
:1016F00046EA0646360C4FF000034FF000024FF06A
:10170000000194E72DE9804C9A46934670B491E825
:10171000380007C831EA400C48BF34EA430C03D50F
:10172000FFF7E6FDFFF780FFF0BCBDE8008C2DE978
:10173000804C9A46934670B491E8380007C810F080
:10174000804F08BF13F0804F03D100F005F8FFF77A
:101750006BFFF0BCBDE8008C20F07F4780EA0300FF
:1017600023F07F4C07EB0C03A3F57C5300F0004003
:10177000A3F1FE0392F0000F00F0B38095F0000F8C
:1017800000F077802DE901494FEA11404FEA1446F5
:1017900021EA004800FB06FC24EA064708FB06F69F
:1017A00007FB08F800FB07F718EB06484CEB164C54
:1017B0004FEA124B18EB07484FEA15464CEB17401F
:1017C00022EA0B4E0BFB06FC25EA06470EFB06F64B
:1017D00007FB0EFE0BFB07F71EEB064E4CEB164C01
:1017E0004FF000061EEB074E4CEB174B18EB0B08A7
:1017F00040F1000018EB0E0B58EB000840F1000020
:101800008F1A4FF000013CBFC943661B14BFB5EBF4
:10181000040C00213CBFC943F61B4FEA17444EEAB3
:101820008E0E27EA04454FEA1C4704FB07622CEAA8
:10183000074C05FB07F70CFB05F604FB0CFC16EB4D
:10184000074642EB174216EB0C4642EB1C421BEBE1
:10185000060658EB0202414146EA9E0601D5BDE864
:101860000189B619524141EB0101A3F10103BDE821
:1018700001894FEA14454FEA114724EA054621EA57
:10188000074C05FB07F406FB07F70CFB06F105FB0D
:101890000CFC11EB074144EB17444FEA124711EBE4
:1018A0000C4144EB1C4422EA074C05FB07F206FB03
:1018B00007F70CFB06F605FB0CFC16EB074642EBA4
:1018C000174216EB0C4642EB1C456A1854F1000116
:1018D00048BF7047B619524141EB0101A3F1010322
:1018E000704795F0000F37D04FEA11424FEA144786
:1018F00021EA024624EA074C02FB07F106FB07F740
:101900000CFB06F402FB0CFC14EB074441EB174103
:101910004FEA154714EB0C4441EB1C4125EA074CF8
:1019200002FB07F506FB07F70CFB06F602FB0CFCB7
:1019300016EB074645EB174516EB0C4645EB1C42EC
:10194000121951F1000148BF7047B619524141EBDD
:101950000101A3F1010370474FEA14454FEA114713
:1019600024EA054621EA074C05FB07F106FB07F7C9
:101970000CFB06F24FF0000605FB0CFC12EB0742D5
:1019800041EB174112EB0C4251EB1C4148BF704731
:10199000921841EB0101A3F101037047FEE7704784
:1019A0002DE9F05F90F821100024022903D00421D2
:1019B0008163012485E001680A6822F00E020A6052
:1019C00001680A6822F001020A603F4E3E4FB215DC
:1019D000DFF8F4C0DFF8F090DFF8ECA0DFF8E8B053
:1019E000DFF8E4E00168783F13011502ACF1640C04
:1019F000A9F15009AAF13C0AABF1280BAEF1140E83
:101A00004FF48018B14227D9B9420ED0614512D0A7
:101A100049451DD0514518D0594518D0714501D1BF
:101A2000424615E0294EB14201D1012210E0274E75
:101A30001436B14201D110220AE0244E2836B142B8
:101A400006D0224A3C32914201D11A4600E02A4691
:101A50001E49091F0A602BE0B94213D0614517D017
:101A6000494522D051451DD059451DD0714501D160
:101A700042461AE0B14202D14FF0807215E0134E97
:101A8000B14201D1012210E0104E1436B14201D111
:101A900010220AE00D4E2836B14206D00B4A3C32E5
:101AA000914201D11A4600E02A46074980394A602E
:101AB000012180F82110002180F82010416B01B134
:101AC00088472046BDE8F09F80000240080402409D
:101AD0002DE9F84FDFF8C091002409F1040A0AF15A
:101AE000040B23464FF00F080BF1040ECCE0012746
:101AF000A7403A40BA4272D1DFF8A0C14D68A5EBC9
:101B00000C0665452BD00DDC032D34D005DC35B338
:101B1000012D19D0022D2FD11BE0112D16D0122D21
:101B20002AD119E0B6F5881F19D006DCB6F5803F3A
:101B300015D0B6F5801F1FD111E0B6F5001F0ED0ED
:101B4000B6F5041F18D10AE0CB6815E0CB681B1D61
:101B500012E0CB6808330FE0CB680C330CE08B68E5
:101B60002BB1012B4FF0080303D0476104E004239D
:101B700002E0076100E00023FF2A01D8064601E0E9
:101B800000F104064FEA840501D9A5F12005376864
:101B900008FA05FC27EA0C0703FA05F547EA0507EA
:101BA00037604D68ED006ED53D4DAE6946F00106DB
:101BB000AE61AD6924F0030605F001050095394DCD
:101BC0007719BE68A5072D0F08FA05FC26EA0C0652
:101BD000DFF8D4C0604503D14FF0000C25E052E09F
:101BE000DFF8C8C0604502D14FF0010C1DE0DFF8FE
:101BF000C0C0604502D14FF0020C16E0DFF8B4C05F
:101C0000604502D14FF0030C0FE0DFF8ACC0604537
:101C100002D14FF0040C08E0DFF8A0C0604502D10B
:101C20004FF0050C01E04FF0060C0CFA05FC4CEAF5
:101C3000060CC7F808C04D68D9F80060ED034D46A2
:101C400001D5164300E096432E604D68DAF8006037
:101C5000AD03554601D5164300E096432E604D680E
:101C6000DBF80060ED025D4601D5164300E09643C7
:101C70002E604D68DEF80060AD02754601D5164352
:101C800000E096432E60641C0A6832FA04F57FF483
:101C90002EAFBDE8F88F00000004014000001110D5
:101CA000001002400000014000080140000C01400B
:101CB000001001400014014000180140001C0140C8
:101CC0008068084000D0012070470AB10161704768
:101CD0000904FBE7014880687047000010000020FD
:101CE000024881680278114481607047100000202A
:101CF000074810B5016841F010010160052000F0AF
:101D000057F80F2000F006F800F024F8002010BD6E
:101D10000020024070B50D4D04464FF47A712878CA
:101D2000B1FBF0F00A490968B1FBF0F000F0B5FC36
:101D300048B9102C07D200222146501E00F018F896
:101D400000206C6070BD012070BD000010000020FC
:101D5000000000207047002809DB00F01F0201216D
:101D600091404009800000F1E020C0F80011704768
:101D7000F0B40E4B1B68C3F30223C3F10704042C19
:101D800000D904241D1D072D01D2002300E0DB1E15
:101D9000012606FA04F56D1E0D409D409E40761EFC
:101DA000164045EA0601F0BC01F021BB0CED00E055
:101DB000064A00F0070110684FF6FF03184040EA9A
:101DC0000120034908431060704700000CED00E05B
:101DD0000000FA052DE9F0470D46040067D0DFF852
:101DE0001881D8F8000000F00700A8420CD2D8F8FB
:101DF000001021F007012943C8F80010D8F80000AE
:101E000000F00700A84252D120683C4E810712D54D
:101E1000400703D5706840F4E060706020780007E8
:101E200003D5706840F4605070607068A16820F05D
:101E3000F000084370602078C00727D06068012850
:101E400010D03168022810D0890700292FDA716874
:101E500021F0030101437160FFF73CFF074641F2A7
:101E600088390CE031688903EFE78901EDE7FFF776
:101E700031FFC11B494502D90320BDE8F0877068D6
:101E8000616800F00C00B0EB810FF0D1D8F80010C1
:101E9000404601F00701A9420BD9016821F0070172
:101EA00029430160006800F00700A84201D001202A
:101EB000E3E72078400705D57068E16820F4E0602A
:101EC000084370602078000706D57068216920F407
:101ED000605040EAC100706000F038F87168084A4C
:101EE000C1F30311515CC840064908600648006808
:101EF000FFF710FF0020C0E7002002400010024062
:101F00001A130108000000201400002004480549AD
:101F100000684968044AC1F30221515CC840704717
:101F200000000020001002402A130108044805495F
:101F300000684968044AC1F3C221515CC840704737
:101F400000000020001002402A13010812A085B0F2
:101F50000FC88DE80F0014A0144B00680490596856
:101F6000134801F00C02042A10D0082A0ED1C1F344
:101F70008342C9031DF802000AD5596804AAC1F3B7
:101F80004041515C0A4A5043B0FBF1F005B0704744
:101F900008494843FAE70000020304050607080958
:101FA0000A0B0C0D0E0F1010010200000010024071
:101FB00000127A0000093D002DE9F84F04006FD0AF
:101FC0002078BE4DC00747D06868C0F38100012863
:101FD00007D06868C0F38100022809D16868C0038F
:101FE00006D52868800337D560680028E7D033E03D
:101FF0006068B0F5803F0BD010B1B0F5A02F11D0C4
:10200000286820F480302860286820F4802002E0CE
:10201000286840F480302860606888B1FFF75AFE75
:10202000064609E0286840F480202860F0E7FFF7C2
:1020300051FE801B642873D828688003F7D50BE015
:10204000FFF748FE064604E0FFF744FE801B6428C5
:10205000F1D828688003F7D42078DFF864828007FD
:102060004FF0010A4FF0000939D5686810F00C0FE5
:1020700007D06868C0F38100022809D16868C003EE
:1020800006D42868800714D52069012808D110E0FB
:102090002069B0B1C8F800A0FFF71CFE064605E0B5
:1020A00007E1FFF717FE801B0228C4D828688007C5
:1020B000F7D52868616920F0F80040EAC10028607F
:1020C0000DE0C8F80090FFF705FE064604E0FFF7B4
:1020D00001FE801B022823D828688007F7D42078C7
:1020E00000072CD57748A169D9B1C0F800A0FFF747
:1020F000F1FD064604E0FFF7EDFD801B02280FD836
:10210000686A8007F7D570484FF4FA510068B0FB51
:10211000F1F0009000BF0098411E0091FAD20EE04D
:102120007CE0C0F80090FFF7D5FD064604E0FFF71D
:10213000D1FD801B022871D8686A8007F7D4207807
:1021400040075BD5E8690027C00008D4E86940F083
:102150008050E861E869012700F0805000905B48FA
:102160000168C90511D40168834641F4807101609A
:10217000FFF7B0FD064604E0FFF7ACFD801B6428C6
:102180004CD8DBF80000C005F6D5E06801280AD07D
:1021900008B1052813D0286A20F001002862286AB7
:1021A00020F0040002E0286A40F001002862E068A4
:1021B00041F2883B88B1FFF78DFD064609E0286AA9
:1021C00040F004002862EEE7FFF784FD811B5945CB
:1021D0005BD8286A8007F7D50BE0FFF77BFD064642
:1021E00004E0FFF777FD811B59454ED8286A800728
:1021F000F7D41FB1E86920F08050E861E069A8B326
:102200006968C1F38101022946D00228484606D0F8
:10221000C8F86000FFF75EFD044639E035E0474648
:10222000C8F86000FFF756FD064604E0FFF752FDD0
:10223000801B022829D828688001F7D4206AB0F5CD
:10224000803F05D16868A16820F4003008436860C9
:10225000D4E908010843696821F4741108436860EF
:10226000C7F860A0FFF736FD044605E023E0FFF75E
:1022700031FD001B022808D828688001F7D51AE034
:10228000FFF728FD001B022802D90320BDE8F88FC4
:1022900028688001F4D40EE00128F7D06868226A2B
:1022A00000F48031914204D1616A00F470108842D8
:1022B00001D00120EAE70020E8E70000001002401A
:1022C00000004242800442420000002000700040B2
:1022D00070B5040008D0606A002538B125616561D9
:1022E00094F8510040B10CE0012070BD6068B0F579
:1022F000827FF5D0E561F3E784F85050204600F086
:1023000047F8022084F851002068016821F040015C
:102310000160A088218900F4827001F4044108431F
:10232000A18901F400610843217C01F00201084306
:10233000217D01F001010843218B01F40071084364
:10234000217F01F03801084394F8201001F080014A
:102350000843218D01F40051084321680860A069F9
:10236000042101EA104021684860A06AB0F5005FCE
:1023700003D1A08D216880B208612068C16921F471
:102380000061C1616565012084F85100002070BDC5
:1023900010B500681B4986B0884231D11A4881695E
:1023A00041F004018161816901F0040104918169B6
:1023B00041F004018161816901F0040104918169A6
:1023C00041F0040181618069104C00F00400049028
:1023D0002020009002200190012002900320039011
:1023E00069462046FFF774FB40210091694620466C
:1023F000FFF76EFB8021009169462046FFF768FBDE
:1024000006B010BD0030014000100240000801403D
:102410002DE9F84F044690F85000012500270A9E48
:10242000984692468B4601280FD0012084F8500030
:10243000FFF750FC94F8511081466268404601292C
:102440000CD0B2F5827F07D102E00220BDE8F88F00
:10245000A2680AB9042901D002270AE1BBF1000FE2
:102460003CD0BAF1000F39D0B8F1000F36D094F853
:102470005110042902D0052184F851100021616512
:10248000C4F838A0A4F83E80A4F83C80C4F830B06A
:10249000A4F83680A4F8348021646164A16A4FF402
:1024A0000058414509D121680A6822F400520A60A7
:1024B00021680A6842F400520A6021680A685206DC
:1024C00003D40A6842F040020A60E168B1F5006F87
:1024D000616805D0F1B301284DD08DE00127C8E037
:1024E00009B1012840D1206B21680088C860206BA9
:1024F000801C2063E08E401EE08635E02068816805
:10250000890717D5E18EA9B1012D13D1216B098857
:10251000C160206B801C2063E08E401EE086E08E50
:10252000002538B9A06A404504D12068016841F40B
:102530008051016020688168C9070DD0E18F59B1D1
:10254000C068A16B0880A06B801CA063E08F401E58
:10255000E08700E00FE00125FFF7BCFBA0EB0900DE
:10256000B04201D3701C5DD1E08E0028C6D1E08F4F
:102570000028C3D146E0206B216800780873206BE7
:10258000401C2063E08E401EE08635E020688168B4
:10259000890717D5E18EA9B1012D13D1216B0978D7
:1025A0000173206B401C2063E08E401EE086E08EAD
:1025B000002538B9A06A404504D12068016841F47B
:1025C0008051016020688168C9070BD0E18F49B153
:1025D000C068A16B0870A06B401CA063E08F401E18
:1025E000E0870125FFF776FBA0EB0900B04202D39C
:1025F000701C01D016E0AEB1E08E0028C6D1E08F8D
:102600000028C3D1A06A404510D1012233461146AB
:102610002046CDF8009000F0E7FC28B1606D40F056
:1026200002006065032724E02068C0682068816894
:10263000C943C9060DD4616D41F0020161650168AD
:1026400021F4005101602068016841F400510160EB
:1026500001274A463146204600F0B6FC18B1012752
:102660002020606505E0A06818B92068C16880680E
:102670000090012084F85100002084F85000384672
:10268000E4E64FF0E0210428086903D020F00400BC
:102690000861704740F00400FAE710B5401EB0F141
:1026A000807F01D3012010BD4FF0E02460610F2135
:1026B000601700F09CFE0020A06107202061002030
:1026C00010BD7047704710B5040003D094F83D006A
:1026D00010B107E0012010BD002084F83C00204626
:1026E00000F01EF8022084F83D00211D206800F053
:1026F00005FD012084F8460084F83E0084F83F0080
:1027000084F8400084F8410084F8420084F84300D3
:1027100084F8440084F8450084F83D00002010BD92
:102720007047000090F83D10012901D0012070474A
:10273000022180F83D100168CA6842F00102CA60B7
:1027400000680E4988420ED00D4988420BD0B0F186
:10275000804F08D00B49884205D00B49884202D0EF
:102760000A49884204D1816801F00701062903D093
:10277000016841F00101016000207047002C014018
:10278000003401400004004000080040000C0040FC
:1027900070B501682D48814257D102212C48FFF7BE
:1027A0008FFA2C4E2C4C002578B13068016A21F04C
:1027B000A00101623068016A41F0200101623068C5
:1027C0004562207840F010003EE00421214800F0EE
:1027D00063FA316880B20A6A22F0A0020A623168A4
:1027E0000A6A0A622178CA062BD50A064FF4F973E1
:1027F0001ED5A0F22D129A4202D86068400808E067
:10280000A0F27952B2F5C77F05D86068400840F061
:102810000040606015E040F2E732A0F2D1709042D3
:102820000FD26078401C607001F0F000207008E06A
:10283000A0F580506938984203D841F0800020709C
:102840006570207820F01000207070BD000C0040F2
:102850000008014048030020200000202DE9F0413D
:10286000054690F83C000C46012836D0012085F83A
:102870003C008AB3042A42D02868082A51D0D4E9FF
:102880000031E268066A26F480560662C769066A65
:1028900027F4407747EA01214FF6FF7721F4704192
:1028A00007EA02320A434FF4005126F4005601EAC7
:1028B00003313143C26101622868C16921F440617A
:1028C000C1612868C169A26841EA0221C161002092
:1028D00085F83C00BDE8F08101E00220FAE7D4E988
:1028E0000012E368286800F05DFC2868816921F027
:1028F0000C01816128688169A26811430FE0D4E965
:102900000012E368286800F083FC2868816921F4DC
:102910004061816128688169A26841EA0221816180
:10292000D5E7D4E90027267B016A21F48071016292
:10293000C169036A21F00301394321F0F00731072F
:102940004FF4007647EA116123F4007306EA02228D
:102950001A43C16102622868C16921F00C01C1619A
:102960002868C169A2681143B0E710B5040003D01C
:1029700094F83D0010B107E0012010BD002084F85C
:102980003C00204600F01EF8022084F83D00211D86
:10299000206800F0B3FB012084F8460084F83E0074
:1029A00084F83F0084F8400084F8410084F8420035
:1029B00084F8430084F8440084F8450084F83D001E
:1029C000002010BD00B50068154985B0884224D1AB
:1029D0001448816941F004018161816901F00401B9
:1029E0000491C16941F00801C161C069694600F004
:1029F0000800049002200090002001900120029025
:102A0000032003900848FFF763F8032201213220D6
:102A1000FFF7AEF93220FFF79EF905B000BD0000C8
:102A2000000C0040001002400008014010B50446B0
:102A3000022081B1042913D0082916D084F841005E
:102A400084F845002068A9B1042917D008293BD093
:102A50000C2917D13CE084F83E0084F84200F1E7ED
:102A600084F83F0084F84300ECE784F8400084F8E1
:102A70004400E7E7C26842F0020202E0C26842F0A6
:102A80000402C2600122206800F07EFB1249206827
:102A900088420ED0114988420BD0B0F1804F08D047
:102AA0000F49884205D00F49884202D00E4988421A
:102AB00004D1816801F00701062903D0016841F0C3
:102AC00001010160002010BDC26842F00802D8E791
:102AD000C26842F01002D4E7002C014000340140EB
:102AE0000004004000080040000C004070B504469F
:102AF000006801694FF00005C943890715D4C16812
:102B0000C943890711D4E91E01610120207720689B
:102B100080698007204602D0FFF73AFE04E000F00B
:102B200098F8204600F096F8257720680169C94397
:102B3000490717D4C168C943490713D46FF004018A
:102B40000161022020772068806910F4407F2046D0
:102B500002D0FFF71DFE04E000F07BF8204600F0F5
:102B600079F8257720680169C943090716D4C16837
:102B7000C943090712D46FF00801016104202077CE
:102B80002068C0698007204602D0FFF701FE04E0FC
:102B900000F05FF8204600F05DF8257720680169B5
:102BA000C943C90617D4C168C943C90613D46FF015
:102BB00010010161082020772068C06910F4407F6F
:102BC000204602D0FFF7E4FD04E000F042F8204682
:102BD00000F040F8257720680169C943C90708D18A
:102BE000C168C943C90704D1891E0161204600F0AC
:102BF00033F820680169C943090609D4C168C9438B
:102C0000090605D46FF0800101612046FFF759FDE8
:102C100020680169C943490609D4C168C943490606
:102C200005D46FF040010161204600F04AF82068A9
:102C30000169C94389060BD4C168C943890607D411
:102C40006FF0200101612046BDE87040FFF73ABDFA
:102C500070BD70477047000000680D49884215D16B
:102C60000C490878020611D520F010000870020700
:102C700002D140F040000870C0B200F00F020E2AEE
:102C800001D2401C01E000F07000087070470000A5
:102C9000000C0040200000200246002041B1042921
:102CA00009D008290AD00C2901D11068006C70479E
:102CB0001068406B70471068806B70471068C06B7D
:102CC000704770477047000070B50268044610688E
:102CD000D168536910F00F0F52D003F0010501F4D1
:102CE00090762E435FD0C20705D0CA0503D5E26BAC
:102CF00042F00102E263420705D5DA0703D0E26B36
:102D000042F00202E263820705D5DA0703D0E26BE4
:102D100042F00402E263020707D501F020022A43D1
:102D200003D0E26B42F00802E263E26B002A33D088
:102D3000800604D5880602D5204600F09AFA20685D
:102D40004069E16BC0F38010090700D428B3204626
:102D500000F081FA2068416949061AD5416921F0DD
:102D600040014161606BA0B12D494163606BFEF78A
:102D700017FE002810D0606B416BBDE8704008471B
:102D8000830610D58B060ED52046BDE8704000F0B6
:102D900070BA2046FFF796FF70BD2046FFF792FFFE
:102DA0000020E06370BD03062BD50B0629D594F8EF
:102DB00039002128F6D1A068B0F5805F01D12069E3
:102DC000B0B1206A411C2162216800784860E08C23
:102DD000401E0004000CE084E4D12068C16821F0AA
:102DE0008001C1602068C16841F04001C16070BDD0
:102DF000206A0088C0F308005060206A801C2062AE
:102E0000E5E74006F3D54806F1D5D168204621F024
:102E10004001D160202184F8391000F0D1F870BD54
:102E20004732000870B5040004D094F8390000253A
:102E300010B106E0012070BD84F83850204600F043
:102E400023F8242084F839002068C16821F4005157
:102E5000C160204600F054FA2068016921F49041D5
:102E600001612068416921F02A0141612068C1683F
:102E700041F40051C160E563202084F8390084F8F2
:102E80003A00002070BD000010B500681A4986B0F5
:102E900088422ED11948816941F00401816181691C
:102EA00001F004010491816941F0040181618169AB
:102EB00001F004010491816941F4804181618069DC
:102EC0000F4C00F4804004904FF4007000900220FA
:102ED0000190012002900320039069462046FEF7EE
:102EE000F7FD211500910021019169462046FEF76A
:102EF000EFFD06B010BD0000003801400010024098
:102F00000008014090F83A30202B22D1F9B1F2B1FB
:102F100090F83830012B1CD081628285C285002157
:102F2000C163222280F83A2080F838100168CA680C
:102F300042F48072CA6001684A6942F001024A6143
:102F40000068C16841F02001C16000207047012085
:102F5000704702207047000030B40068154988426D
:102F600025D1154A5088010416D411464404097825
:102F70004FF0000304D50A290DD140F4004014E0BD
:102F80000D2910D0C0F30D040C4D401C80B2295502
:102F90005080C72800D953800848012230BC064918
:102FA000C830FFF7AFBF40F480405080F4E730BC3A
:102FB0007047000000380140060000203002002069
:102FC0007047FEE7FEE7704738B50B4600920446AF
:102FD0000022802100F008F8002804D0606D40F045
:102FE00020006065032038BD2DE9F8431E46914658
:102FF00088460446089DFEF76DFE401B351AFEF715
:1030000069FE074625480068C0F3CB30684338E0C6
:10301000701C37D0FEF75EFEC01BA84203D215B16C
:10302000009860B32CE02068416821F0E001416025
:103030006068B0F5827F0BD1A068B0F5004F02D078
:10304000B0F5806F04D12068016821F04001016073
:10305000A06AB0F5005F09D12068016821F4005131
:1030600001602068016841F400510160012084F88A
:103070005100002084F850000320BDE8F8830025AB
:10308000401E00902068816838EA010004D00020CA
:103090004845BDD10020F0E70120F9E700000020FD
:1030A00010B5FEF71DFE0DF099F9012803D0BDE81B
:1030B00010400DF07DB910BD7047000010B50A4CEE
:1030C0002068C068C043C00709D10848006980472C
:1030D00021680020486221686420C862E06021689D
:1030E0006FF00100086110BDE0AF0020FC0000207F
:1030F0000148FFF7FBBC000048030020F0B5026860
:103100001C4D1D4E1D4FDFF878C01E4B4FF0804EFA
:10311000A84209D0984207D0704505D0B04203D0EC
:10312000B84201D0604503D122F070044A682243BE
:10313000A84209D0984207D0704505D0B04203D0CC
:10314000B84201D0604503D122F44074CA682243DA
:103150004C6922F08002224302608A68C2620A68D7
:103160008262A84201D0984201D10969016301211C
:103170004161F0BD002C0140000400400008004007
:10318000000C00400034014010B501F01F01012384
:10319000046A8B409C430462036A8A4013430362BF
:1031A00010BD000070B5046A24F001040462846953
:1031B000056A124EB0420ED0114EB0420BD0B0F1A3
:1031C000804F08D00F4EB04205D00F4EB04202D013
:1031D0000E4EB04203D124F00304144301E044F046
:1031E00001041A0724F0F00444EA126225F00A03ED
:1031F00001F00A0119438261016270BD002C014097
:10320000003401400004004000080040000C004071
:1032100030B5046A24F0100404628569046A25F458
:10322000407545EA022222F470454FF6FF7202EA29
:10323000033224F0A0032A43A02404EA0111194315
:103240008261016230BD10B5406A0021C185C18430
:10325000FFF738FD10BD0168CA6822F49072CA6099
:1032600001684A6922F001024A61202180F83A107F
:10327000704710B590F83A10222901D0022010BDF5
:1032800081684FF48053994201D1026922B1826A68
:1032900099421BD049B10AE00268816A5268C2F3C0
:1032A00008020A80816A891C08E0016971B101681D
:1032B000496801F07F011170816A491C8162C18DEA
:1032C000491E0904090CC18503D016E0016849684C
:1032D000F1E70168CA6822F02002CA600168CA6882
:1032E00022F48072CA6001684A6922F001024A61D0
:1032F000202180F83A10FFF72FFE002010BD0000BB
:1033000070B5044600680169E26821F44051114338
:103310000161A16820690143606901432068C268B6
:1033200041F20C639A430A43C26020684169A26972
:1033300021F44071114341611E492068884202D145
:10334000FEF7F4FD01E0FEF7E1FD00EBC00101EB4B
:103350000011606864228000B1FBF0F3B3FBF2F36C
:103360006FF018067343B1FBF0F5B1FBF0F605EB17
:103370008305322303EB0515B5FBF2F5B6FBF2F638
:1033800005F0F00505EB0615B1FBF0F6B1FBF0F02A
:10339000B0FBF2F06FF01801484306EB800003EB3E
:1033A0000010B0FBF2F0216800F00F0028448860A4
:1033B00070BD0000003801400148FFF785BC0000E7
:1033C000F8020020FEE7490050EAC12018BF04209F
:1033D0004A0D18BF40F0010040F2FF72B2EB515F9E
:1033E00008BF40F00200012808BF05207047090708
:1033F000090E002804DB00F1E02080F8001470477B
:1034000000F00F0000F1E02080F8141D7047303804
:103410000A2801D201207047002070477047C91C5C
:10342000D0F88830002221F003018B4206D35A1ACB
:10343000C0F8882050F8842F11440160104670476E
:1034400003F000BF70B515460E46044606E0204660
:10345000641CA4B200F006F806F8010B6D1EADB2B4
:10346000F5D270BD10B5044603F0A0FF200AA021DC
:1034700001EB4000C0B203F069FF03F0DDFFE0B2F2
:1034800003F064FF03F0D8FF03F090FFA12003F0E6
:103490005DFF03F0D1FF002003F024FF044603F09A
:1034A000ABFF204610BD70B514460D46064606E03B
:1034B0002978304600F007F8761CB6B26D1C641E01
:1034C000A4B2F5D270BD70B50D46044603F06EFF90
:1034D000200AA02101EB4000C0B203F037FF03F047
:1034E000ABFFE0B203F032FF03F0A6FF284603F083
:1034F0002DFF03F0A1FF03F07FFFBDE870400A201D
:1035000000F052BF2DE9F0470446007B894600F0E9
:103510001F060120D4E90015B040276E401E4FF071
:103520000008074023E094F86400A8B949B9A568E9
:10353000D4F88C304FF48062294620469847010029
:103540000CD015F8010B491EB8F1000F0AD04FF04E
:10355000000808B184F86400FF2005E06FF0010066
:10356000BDE8F087FF280FD040EA072708364E4510
:10357000D9D3A6EB090027662073C4E9001500F033
:103580001F0027FA00F0EBE74FF00108EFE72DE905
:10359000F04F002350F8404B4FF4B55C50F8402BEF
:1035A0004FF4B5580768066CE519E41B971B3244C5
:1035B00007FB0CF7C2EB273605EB0209A5EB020B64
:1035C00006EB040A50F860CC056EA61B50F8207C70
:1035D000ACEB0504026AAC44D51B3A44ACEB0207E1
:1035E00007FB08F7624404EB050C41F690580CFB0E
:1035F00008FC41F2511804FB08F44FEA2C3C42F657
:10360000CF1805FB08F5ACEB2535ACEB2434AD1A2F
:1036100009EB020C40F880CCA9EB020202660AEB2F
:10362000050240F8602CC5EB2737AAEB05020264BF
:10363000F21940F8402CF21BE41B02620BEB04026F
:1036400040F8202CABEB04025B1C40F87C29082BD3
:10365000A0DB002320384FF4B55850F8082B5B1C32
:1036600050F8085B02F5004250F8106B50F808CC97
:103670009419971BA5EB0C024FF4B5567243161321
:103680000CEB0502B51A05EB070AA7EB0509A6180E
:10369000A4EB020B50F8045C50F81CCC50F80C2C36
:1036A00050F8147CACEB0504AC44D51B3A44ACEBAD
:1036B000020707FB08F7624404EB050C41F690583B
:1036C0000CFB08FC41F2511804FB08F44FEA2C3CB7
:1036D00042F6CF1805FB08F5ACEB2535ACEB2434EE
:1036E000AD1A06EB020C4FEA2C2C21F80ECBB21AC5
:1036F000121221F80C290AEB0502121221F8022BF2
:10370000AAEB0502C5EB273712120A8109EB070263
:10371000121221F8042BA9EB07021212E41B4A80B3
:103720000BEB0402121221F8022CABEB0402121272
:1037300021F8082B082B8EDBBDE8F08F2DE9F04F28
:1037400095B08146DDE91E784FF000001E008B46E3
:10375000044612900DD067B163490BEB0600401E82
:103760000B88984205DCD019401E13904988884286
:1037700003DD292015B0BDE8F08F4FF4006009F09B
:1037800077FF050045D04FF4167009F071FF1190D6
:10379000F0B34FF0420A52460021684609F00AFC95
:1037A0002820CDF80E00CDF81260CDF8167001205B
:1037B000ADF81A001020ADF81C000320CDF81E0053
:1037C00007FB06F00001C11700EB5170C010CDF8E7
:1037D000220044F64250ADF80000DDF822004230ED
:1037E000CDF80200CDF80AA04FF47840CDF83600AD
:1037F0004FF4FC60CDF83A001F20CDF83E00B8F140
:10380000010F0CD0B8F1000F10D0042C0ED013E033
:1038100001E01120AEE7284609F026FFF9E7032270
:103820004946119801F0F2FB0446EEE706224946AC
:10383000119801F0EBFB04469DF812004FF6FF795A
:10384000C0070AD0DDF812004000C11700EB9170EC
:1038500080108000001D80B203E0DDF8121009EA3C
:1038600041008046C4BB12AB52466946119801F034
:1038700014FF0446139887B227E000245E46DFF861
:103880006CA011E0DDF81200A04207DDDAF800209C
:1038900039463046904725F8140001E025F8149089
:1038A000641C761CA4B2B6B2B4EB580FEAD1DDF8B2
:1038B000160012AB401ECDF816004246294611985C
:1038C00001F0EBFE7F1E0446BFB2DDF816000028B3
:1038D000D3D1119801F0E8F9284609F0C5FE1198F6
:1038E00009F0C2FE204645E738030020CCAF002097
:1038F0002DE9F0470746406B891E00EB1136C1F3F6
:10390000C80501F007014FF0010A0AFA01F09846D4
:103910009146C4B23146761C384609F0B7FA10B168
:103920000120BDE8F08752464FF40073791991F8F1
:103930003C0010EA040C01D04FF0010CC44501D149
:103940000220EEE7604081F83C00B9F10100FA7016
:103950008146E6D0600010F0FF04E7D101246D1C21
:103960009D42E3D30025D5E770B504460020E07002
:10397000401EA063204609F089FA08B1042070BDFA
:1039800004F23A2008F061FD4AF655260546B04299
:1039900006D10B222BA104F13C00FCF7EFFE40B155
:1039A00094F83C00EB2806D0E92804D0E82802D09F
:1039B00041E0012070BDB54207D1082224A104F1E5
:1039C0008E00FCF7DBFE0028F4D004F1470008F07D
:1039D0003CFD94F84910421E10422CD14FF4007265
:1039E000904228D3904226D829B3481E014222D1C2
:1039F00004F14A0008F029FDE8B194F84C00401E9B
:103A0000012818D804F14D0008F01FFD98B104F109
:103A10004F0008F01AFD802806D204F15C0008F07F
:103A2000DEFCB0F5803F06D304F1520008F00DFD36
:103A300008B1002070BDB54201D1022070BD032045
:103A400070BD0000EB769045584641542020200080
:103A500046415433322020200000000070B5154646
:103A60000168046D680A4A8940EAC350590A002374
:103A7000241DFCF754FC02CC21B1884204D3401A27
:103A8000241DF8E7002070BD2168084470BDC2699C
:103A9000891E921E8A4201D800207047026B40891D
:103AA00000FB0120704700002DE9F05F8146884649
:103AB00001F11A0008F0C9FC88BB98F80000012742
:103AC00000F03F00401E00EB8001DFF85CA001EB3E
:103AD000C00400254FF6FF7B1AF8051001EB080023
:103AE00008F0B3FC06466FB1FF2C18D801F030FF88
:103AF000074639F81400641C01F02AFF87420ED1F2
:103B0000374601E05E450AD16D1C0D2DE4D398F8CF
:103B10000000400606D52FB139F8140010B100207E
:103B2000BDE8F09F0120FBE7E04201082DE9F047E6
:103B300005685FEA010807462BD04146384602F087
:103B4000FDF9022846D3411C45D0E969814242D89B
:103B50004646A86900283ED028784FF0FF3904284F
:103B60001ED046455FD1E869741CA04200D80224EB
:103B70002146384602F0E2F901282CD0411C2AD017
:103B800080B3686902284ED3E96981424BD9064661
:103B900049E06E6916B1E869B042DAD80126D8E783
:103BA00001223146284601F047FF040062D0601C24
:103BB00060D001231A4621462846FFF799FE0228C5
:103BC00008D0012809D0B8F1000F08D0F9790229EE
:103BD00009D010E00120BDE8F0874846FBE702214C
:103BE000F97143E01EE0711C8C423FD0B968711A34
:103BF000B9610321F97108F101018C4206D1F9691B
:103C000009B1491C00E00221F9612FE0F8690126A1
:103C100000B9FE6122464146384601F0F4FE30BB51
:103C2000FE6129E0A4B93446E869641CA04202D8C8
:103C30000224022E0AD32146384602F07FF938B119
:103C40000128C8D0411CC6D0B442EDD10020C2E743
:103C50004A462146284609F071FF40B9B8F10000F4
:103C60000AD001462246284609F068FF20B1012803
:103C70000FD001242046AEE76C61D5E90601891E0C
:103C8000884201D8401EA861287940F001002871BF
:103C9000F0E74C46EEE72DE9F74F84B00C46D5E04F
:103CA000112854D3A0F1110814F8010B10F0EE0FF5
:103CB0004DD14FEA101900F00F0001901021049827
:103CC000FFF7ADFB06007ED00199049800EBC1011F
:103CD00001EB890B00200746CBF8206014F8011B8C
:103CE0003154401C0F441028F8D379000498FFF792
:103CF00096FB5FEA000A66D0002001460A464FF6AE
:103D0000FF75CBF830A0735C04E02AF81200401C69
:103D100080B2521C5B1EF8D2491C05EA40001029F3
:103D2000F1D3B84513D3A8EB0700069039460498A1
:103D3000FFF775FB050060D00020CBF840500CE089
:103D400014F8011BB9F1000F05D10B2903D9062086
:103D500007B0BDE8F08F2954401CB842F0D34FF0B3
:103D6000000BCDF800B0B9F1000F12D04FF400678E
:103D700039460498FFF753FB5FEA000B3DD0019AE8
:103D80000499584601EB8201FF22C1F86CB0394614
:103D90000FE04FF4806739460498FFF740FB00902E
:103DA00088B1019A049901EB8201FF2248673946E4
:103DB0000098FCF7B6FD00200146775C87B3C1F19F
:103DC0000903012200E018E002FA03FE02933AF828
:103DD0001020029B15F800C09A40C2F30902B9F105
:103DE000000F13D04FF4807303EB01234CEA030C54
:103DF00073461FFA8CFC401C05E00320A8E72BF853
:103E000012C0521C5B1E002BF9D112E0102303EBF1
:103E100001134CEA030C73460CF0FF0C401C06E047
:103E200009E0DDF8008008F802C0521C5B1E002B80
:103E3000F7D17F1ECBD1491C0A29BED3019A049920
:103E400001EB420202EB090181F8650006980028A7
:103E50007FF426AF7CE700002DE9F34F81B00868BE
:103E6000009001980E46002400684FF48037D0F887
:103E70000CA068460AF0BDFC411C3AD0B84203D3FE
:103E8000020C2AF81420641C85B2202D1CD32F2D7F
:103E900010D05C2D0ED0802D04D229466DA0FCF7E9
:103EA00063FC30BBFF2C24D22AF81450641CE0E7DA
:103EB000491C0091009908782F28F9D05C28F7D088
:103EC00008780025202800D204250098306008E0FA
:103ED0000AEB440030F8020C202801D02E2802D131
:103EE000641E002CF4D100212AF814100CB1002714
:103EF00003E00620BDE8FE8F7F1C3AF8170020285B
:103F0000FAD01FB9BAF800002E2803D145F00305F6
:103F100000E0641E2CB10AEB440030F8020C2E289D
:103F2000F7D1019820220B214030FCF7FAFC4FF02A
:103F30000009C8464FF0080B3AF817607F1C06B31B
:103F4000202E03D02E2E04D1A74202D045F0030527
:103F5000F2E7D84501D2A74219D1BBF10B0F0ED021
:103F6000A74201D045F003050BD84FEA89602746E8
:103F70004FF008084FF00B0B4FEA1069DCE745F0F3
:103F80000305019890F84000E5283DD040E0802EE0
:103F900009D345F00205304601F0DAFC4FF46A71AE
:103FA00001F09EFC0646FF2E0FD9ABF101008045C3
:103FB00003D345F00305D846BEE70198320A4044D2
:103FC00008F1010880F8402017E026B1314624A00E
:103FD000FCF7CAFB18B15F2645F003050DE0A6F11A
:103FE0004100192801D849F00209A6F161001928F9
:103FF00003D8203E49F00109B6B20198404408F1C7
:10400000010880F8406097E70198052180F840108A
:10401000BBF1080F03D14FEA89604FEA1069C9F379
:104020008100032803D06FEA0900800701D145F021
:104030000205A80709D45FEAC97001D045F0100550
:104040005FEA497001D545F00805019880F84B50AA
:1040500000204FE72A3A3C3E7C223F7F00000000D0
:104060002B2C3B3D5B5D00002DE9F05F8946064649
:104070004021FCF75EFC852030700025C0204024E4
:1040800086F82000A8460127AA464FF0C10B06F883
:1040900004B0641C06F804A0641C27B139F815703C
:1040A0000FB16D1CEDB2301939460AF0CCF9A41CE1
:1040B000E006F2D108F1010000F0FF0839F8150020
:1040C0000028E4D186F8235008F1010070704846BA
:1040D0000CF058FA014606F12400BDE8F05F0AF042
:1040E000B2B9000010B5114C002208212046FDF79E
:1040F000ECFD022000F066F9012211462046FDF792
:10410000E4FD022000F05EF9002201212046FDF7C7
:10411000DCFD022000F056F9012208212046FDF7BF
:10412000D4FDBDE81040022000F04CB90010014061
:10413000144810B5816986B041F010018161816930
:1041400001F010010491816941F0100181618069E1
:104150000D4C00F01000049001200090019002909E
:104160000320039069462046FDF7B2FC0821009128
:104170001121019169462046FDF7AAFC00F0A2F842
:1041800006B010BD001002400010014010B50D4CEB
:10419000012208212046FDF798FD022000F012F9C7
:1041A000012211462046FDF790FD022000F00AF999
:1041B000002201212046FDF788FDBDE810400220C5
:1041C00000F000B9001001402DE9F0410024144E28
:1041D000074625466006040E012211463046FDF7CB
:1041E00074FD022000F0EEF808213046FDF768FD6E
:1041F00008B1641CE4B2002201213046FDF765FDE0
:10420000022000F0DFF86D1CEDB2082DE2D327B1DB
:10421000FFF768FF2046BDE8F081FFF7B7FFF9E739
:104220000010014070B5144E05460024280601D543
:10423000012200E0002208213046FDF746FD022061
:1042400000F0C0F8012211463046FDF73EFD022085
:1042500000F0B8F8002201213046FDF736FD68066F
:10426000641C050EE4B2082CE0D33046BDE8704073
:1042700001220821FDF729BD0010014010B5104CA6
:10428000012208212046FDF720FD0122114620468B
:10429000FDF71BFD022000F095F8002208212046C2
:1042A000FDF713FD022000F08DF8002201212046C9
:1042B000FDF70BFDBDE81040022000F083B80000C0
:1042C0000010014010B50D4C002208212046FDF7DA
:1042D000FCFC022000F076F8012211462046FDF792
:1042E000F4FC022000F06EF8012208212046FDF7C0
:1042F000ECFCBDE81040022000F064B80010014062
:1043000070B5164E00242546012208213046FDF7DF
:10431000DCFC022000F056F8012211463046FDF781
:10432000D4FC07E0641CE4B2FA2C03D9FFF7CAFFFF
:10433000012508E0022000F045F808213046FDF78D
:10434000BFFC0028EED1002201213046FDF7BDFC64
:10435000022000F037F8284670BD00000010014030
:10436000812803D3FE2801D8012070470020704720
:1043700070B54FF0E0240021054621610846FEF7A4
:1043800080F90849E80808804FF47A7148432169A8
:1043900041F0020121616061206940F0010020616B
:1043A00070BD00000400002070B5054600244FF4E5
:1043B0007A7603E0304600F005F8641CAC42F9D38D
:1043C00070BD000070B54FF0E02500216C69094A0E
:1043D000AB6912885043AA699A42FCD002D2A3EB7F
:1043E000020302E0A4EB020633441944134681425F
:1043F000F1D370BD040000202DE9F0410F460446C2
:104400000021066800F010FBE8B900253046A16BDA
:1044100008F03CFDB8B931780429E16B097803D084
:10442000E52905D021B107E041F3C011491C03D0B3
:104430006D1CBD420AD000E000250121204600F09D
:10444000FDF80028E2D0042800D10720BDE8F08163
:104450002DE9F0470C4605460AF086F998BB21463F
:104460002846FFF714FB0646A8634FF4007705F1D2
:104470003C0039468146FCF77EFA6889BC01B4EB02
:10448000402F02D9440200E06408BC421CD92046F7
:1044900001F0E6F95FEA0008F6D02146FCF749FA98
:1044A000670A002400E03C446889A04207D9321919
:1044B00068783B46414600F066FB0028F3D0404652
:1044C00001F0D2F90FE011E00127002400E03C44A4
:1044D0006889A04207D9321968783B46494600F0FE
:1044E00052FB0028F3D06889A04202D00120BDE829
:1044F000F0870020FBE72DE9F05F04460021066805
:1045000000F092FA00284CD1307804280CD0FF2516
:104510004FF0FF39A846C4F84C903046A16B08F024
:10452000B5FC07004ED13EE0F0680CF02BF8824657
:104530002FE03069243007F088FF504529D13069D9
:1045400040254FF0000990F8238017E0E80600D1DD
:10455000AD1C3069284407F078FF01F0F9F9F168E3
:10456000074631F8190001F0F3F987420AD1A8F1A2
:10457000010000F0FF0809F10109AD1CB8F1000FBE
:10458000E4D102E0B8F1000F03D1F16831F819006D
:1045900030B10021204600F0B3F85FEA000BC8D02C
:1045A0005846BDE8F09FE16B087850B1CA7AE5281B
:1045B00002F03F02A27135D0130704D50F2A31D182
:1045C00005E0042738E00F2A01D0DDB11FE094F8A0
:1045D0004B20520629D4420606D591F80D8000F0F2
:1045E000BF00226B0546E264A84208D14A7B4245DF
:1045F00005D1F068FFF758FA08B16D1E00E0FF25FD
:10460000EDB212E008460AF060F8404514D094F884
:104610004B00C00706D10B2204F14001E06BFCF710
:10462000ADF848B1FF25C4F84C900021204600F0B9
:1046300005F807003FF471AF3846B2E72DE9F047BF
:1046400007680446066B38782036894604280AD065
:104650004FF400104FF00008B04238D9A06B28B1D9
:10466000F10506D044E04FF08050F3E70420BDE8A8
:10467000F087401CA063616B29B17889401E10EA65
:10468000562F05D034E03889B0EB561F1FD92FE0E4
:10469000204601F053FC054601281DD9681C14D0A2
:1046A000F869A8421ED8B9F1000F10D02046616BFE
:1046B000FFF73CFA05000DD0012D0DD0681C04D089
:1046C00029463846FFF7C4FE40B10120CFE7C4F8C1
:1046D0003880CBE70720CAE70220C8E7E07940F03E
:1046E0000400E071294638466563FFF7D0F9A063FE
:1046F000C6F3080038443C302663E0630020B6E788
:104700002DE9F0470426FF2589460446A846076898
:104710005EE0384608F0BAFB06005DD1E16B087830
:1047200098B13A78042A12D0CA7AE52802F03F02FA
:10473000A27108D02E2806D022F02003082B1BD00F
:1047400000234B451AD0FF2532E0042644E0B9F19E
:10475000000F02D0832841D02AE0852828D1206B81
:10476000E064204607F0CDFE060035D138690079B7
:1047700000F03F00A07131E00123E2E70F2A01D0F1
:1047800015BB1CE0420606D591F80D8000F0BF0075
:10479000226B0546E264A84208D14A7B424505D116
:1047A000F86808F033FE08B16D1E00E0FF25EDB299
:1047B00000212046FFF742FF060009D00CE0084622
:1047C00009F083FF404509D04FF0FF30E06405E079
:1047D000A16B00299DD10EB10020A0633046BDE839
:1047E000F08700002DE9F04F0446066890F84B0072
:1047F00097B010F0A00F03D0062017B0BDE8F08FDF
:104800000025F06800E06D1C30F815100029FAD181
:10481000307804281AD004F1400014AB07C883E8AC
:1048200007009DF85B0004F14008C1076BD04020F1
:1048300084F84B0001273B4614A94046F26801F07A
:104840002FFB2046FFF757FEF0BB51E00F200E353F
:10485000B5FBF0F5AD1C29462046FFF7CDFD00283D
:10486000CBD169422022206B02EB41110844E06465
:10487000E079410736D520F00400E071204601F0D0
:10488000ABF80028B9D1421E2046616B01F0BBF89D
:104890000028B2D1A06828B32146684607F014FE6C
:1048A0000028AAD17089D4E904234102521843F1A7
:1048B0000003C4E904233069383009F09FFDD4E9CE
:1048C00004233069283000E015E009F097FDE07915
:1048D000316940F0010081F82100684609F0C0FE0E
:1048E00000288AD1D6E90310FFF7BEFB002084E739
:1048F0007F1C642F9FD3642F0FD00428F7D19DF81D
:104900005B0084F84B009DF85B00800707D50D2005
:104910000C35B5FBF0F77F1C02E007206DE701279F
:1049200039462046FFF768FD050079D17F1E5FEA12
:10493000070B5AD0216BCBF1000001EB4011204650
:1049400000F072F805006BD1404609F0BEFE019000
:104950003046A16B08F09AFA050061D1F06800902A
:10496000E76B01980BF0FF0A78730F20F8720020B4
:104970003873014607F11A0009F065FDAAF101003C
:1049800000EB800101EBC009A84601E0854204D09C
:10499000009830F8195009F101092248294610F809
:1049A0000800384409F04FFD0DB94FF6FF7508F1C6
:1049B0000108B8F10D0F4FF6FF70E7D3854203D021
:1049C000009830F8190008B94AF0400A87F800A0AA
:1049D0000120F07000212046FFF730FE05001FD1B6
:1049E000ABF101005FEA000BB2D13046A16B08F0D9
:1049F0004DFA050014D154F83C0F2021FBF799FF24
:104A0000206861680160A1684160A1890181A17B82
:104A10008172E07B216800F0180008730120F070BB
:104A20002846EAE6E04201082DE9F041076806461B
:104A30000D463878042806D04FF40010A8423CD91F
:104A4000E8063AD102E04FF08050F7E73563B468EA
:104A500034B93878032807D30020FC6AF0711CB100
:104A600078894FEA402812E03889B0EB551F24D9E5
:104A7000F86A12E0304601F061FA0446401C1AD090
:104A8000022C1AD3F869A04217D9A5EB08054545B1
:104A90002146EFD23846FEF7FAFFC6E90D4060B175
:104AA00000EB5520B063C5F3080038443C30F06398
:104AB0000020BDE8F0810120FBE70220F9E710B5F6
:104AC00010B1012803D104E009F038FA18B101202F
:104AD00010BD08F0CFFA002010BD10B514464FF4F9
:104AE0000073082218B1012810D0012010BD21B197
:104AF000012906D002290FD101E0002010BD23605A
:104B0000FBE709F0E0F90FE0042010BD0029F4D024
:104B1000012907D0022903D00329F5D12280ECE72F
:104B20002380EAE742F299102060E6E72DE9F041A0
:104B30001C0015460E4605D030B1012812D00120C8
:104B4000BDE8F0810420FBE71A4604E0022801D00A
:104B500009F0F4F922462946304609F07DFA00288A
:104B6000F4D10CE04FF4007769023A46304608F081
:104B7000CDFA641E05F1010506F50076F4D100209A
:104B8000DEE7002070472DE9F0411C0015460E4677
:104B900005D030B1012810D00120BDE8F0810420FB
:104BA000FBE71A4602E009F0C9F9224629463046D9
:104BB00009F06CFB0028F6D10CE04FF40077690295
:104BC0003A46304608F02FFB641E05F1010506F554
:104BD0000076F4D10020E0E7412803D3612801D317
:104BE0002038C0B2704700002DE9FC4100210A4680
:104BF000521C0378D2B213B1401CFA2AF8D3FA2A15
:104C00002DD0002210F8013D2E2B2BD0521CD2B2F9
:104C1000052AF7D319B36846FBF7DCFD00216A4685
:104C2000505CFFF7D9FF5054491CC9B20429F7D38F
:104C30000F4F0025C5EBC500002407EB800656F892
:104C40002400017839B16946FBF7BCFE60B1641CF1
:104C5000E4B2072CF3D36D1CEDB2072DEAD3FF208D
:104C6000BDE8FC81411CD5E744EA0510C0B2F7E776
:104C70002C43010870B50B4D00244FF40F763146DC
:104C8000002008F0C9F945F8240018B1641CE4B20A
:104C9000022CF4D307F00AFF022C01D1002800D027
:104CA000012070BD9800002038B5044600F042FC99
:104CB000002806D1694620460BF05EFB002800D193
:104CC000206038BD2DE9F04F87B01746984604465E
:104CD00069460BF051FB5FEA000A77D194F831A0E6
:104CE0005FEA0A00F9D100980078042807D1421F32
:104CF0002046216C00F087FE5FEA000AEDD1266DA8
:104D000004F154004FF0010B0290002E74D0F943CF
:104D100071EA080135D0D4E90401C31B71EB080224
:104D200001D207468846C4E90E7857EA08004DD0FC
:104D30007A1E48F1FF3316461D462046FEF78EFECA
:104D4000014620640098FEF7A2FE00287ED000995C
:104D5000720A42EAC5524B895B1E1A401518208F11
:104D6000C005E4D0626CAA42E1D094F8300000069D
:104D700036D5487801230299FFF705FF002866D150
:104D800028E056F8049BA1680227C9B10025BF1C82
:104D90000191884620466D1C01F0D0F8014601289B
:104DA00054D9481C53D008F101008142F1D04F453D
:104DB00002D820C6019801C60098C0698842E5D88B
:104DC000206D4F45076002D800203060F7E04FF0BB
:104DD000110AF4E094F8300000F07F0084F830000D
:104DE000009801232A4640780299FFF79FFE002889
:104DF000C5D16564E3E0FFE7009A1078042806D087
:104E0000B8F1010F03D34FF0FF374FF00008D4E99A
:104E10000410CD1B70EB080305D294F830309B07CB
:104E200001D40F468046D4E90E01CDE904010020EB
:104E30000190C4E90E0057EA08003BD050894FEAC0
:104E40004029DDE90401084326D001E09CE0A1E00F
:104E5000781E48F1FF314A460023FBF760FA054609
:104E60000E46DDE90401401E41F1FF314A460023B0
:104E7000CDE90401FBF753FA281A8E410CD3DDE982
:104E80000410A9F10102D5432940C4E90E107F1A8C
:104E900068EB0008216C0CE0A16849B900212046AC
:104EA000FEF744FE014601286ED0481C72D0A16076
:104EB000216479BB46E04A46D4E90E50BF1A68EB3C
:104EC000030815EB09025841C4E90E2094F830306C
:104ED0009D0712D5D4E90465B61A854105D2C4E907
:104EE000042043F0400084F830002046FEF71EFE08
:104EF000010006D10027B84612E0204601F01EF856
:104F00000146481C55D001293ED90098C069884205
:104F10003AD921640023B9EB070073EB0800CAD328
:104F2000D4E90E30DB1940EB0800C4E90E30F80577
:104F300008D00098FEF7ABFD30B3790A41EAC851BA
:104F400008440190D4E90E01D4E90423121A8B41DC
:104F500007D2C4E9040194F8300040F0400084F81E
:104F60003000208FC0052AD0626C0198824226D082
:104F700094F83000000614D5009801230299407877
:104F8000FFF701FE30B906E0022084F8310007B0D7
:104F9000BDE8F08F0DE094F8300000F07F0084F859
:104FA00030000098DDE9012140780123FFF7BEFDC4
:104FB00018B184F831B00120E9E7019860645046E7
:104FC000E5E7000017B581B01446029800906846E6
:104FD00001F036F9002802DA0B2004B010BD0A4BAC
:104FE000002253F8201001B10A70019901B10A7032
:104FF00043F820102CB1002201A902A807F070FD8F
:10500000EBE70020E9E70000900000202DE9F74FD2
:1050100096B005000BD002F03F06324601A917A852
:1050200007F05EFD04004FF0000A04D033E10920D0
:1050300019B0BDE8F08F019802904FF48C6000F039
:105040000FFC5FEA00090BD0019809F50071C0E977
:10505000039102A8179900F037FD040002D006E082
:105060001120E5E79DF85300000600D5062416F050
:105070001C0F7CD04CB1042C03D102A8FFF7B2FB6B
:10508000044646F008064CB101E19DF80E0010F010
:10509000110F6ED1700701D50824F8E0300769D5EB
:1050A00001984FF020084FF0010B017804292CD013
:1050B00000F0DDFF0746119839460E3009F096F9E9
:1050C00011983946163009F091F91199019807F0B5
:1050D00073F911990746002281F80B801199019804
:1050E00009F070F9119800211C3009F07FF901983E
:1050F00080F803B0E7B3D0F838800022394602A820
:1051000008F0FAFD040036D0C1E028602946019875
:1051100002F0C6F901981E210069801CFBF709FC0A
:1051200001981A2100692630FBF703FC01990969EF
:1051300081F8048000F09BFF014601980069083067
:1051400009F054F9019902A8096981F821B009F020
:1051500087FA040018D1A96851B10022284608F046
:10516000CBFD0446A8680199401E48610BE00CE0A5
:105170001BE016E01BE04146019807F087FE04465D
:1051800001987F1E476174B181E0002C7FD19DF8AA
:105190000E00C10601D5042479E0B10703D5C0078C
:1051A00001D0072473E0300701D546F0400601988E
:1051B000816BA9641199E964017804292FD01199B0
:1051C00007F0FAF8A86011981C3007F008F9C5E953
:1051D000040AC5F850A00199296001990020C988E6
:1051E000A98085F8306085F831A0C5F844A0C5E9EC
:1051F0000E0005F154004FF400718346FBF7BBFB32
:10520000B00644D5D5E9046756EA07003FD0C5E9A2
:105210000E670198A9684089400280461DE0049904
:10522000296206999DF80F2021F0FF011143696260
:105230001599A962294602F033F9CAE7284600F019
:105240007DFE0146012800D80224481C00D101241B
:105250004046361A67EB0A0724B90246921B7AEBDE
:105260000700EBD3296494B9F00510D00198FEF73C
:105270000EFCA0B1710A41EAC7510A186A6401988C
:10528000012359464078FFF751FC00B101244846FC
:1052900000F0EAFA0CB1C5F800A02046C8E60224E6
:1052A000F5E773B582B0040007D00022694603A871
:1052B00007F016FC050003D043E0092004B070BDE0
:1052C000009820604FF48C6000F0CAFA06000BD002
:1052D000009806F50071C0E903612046039900F0CB
:1052E000F3FB050002D026E01120E7E794F84B001D
:1052F000000618D4A079C00627D5009801780429A3
:1053000004D0E16B07F058F8A0600CE0A1682162BE
:105310002169E27921F0FF0111436162E16CA16230
:10532000214602F0BDF800980021C088A0802046E8
:10533000FFF77AFB0546304600F096FA042D06D0BA
:105340000DB1002020602846B8E70525F3E70525C4
:10535000F7E72DE9FC5F894600259A461646044684
:1053600069461D600BF008F800281AD194F8310046
:10537000002816D194F83000C00711D0D4E90E02ED
:10538000D4E90431181A04F1540361EB02010193CA
:10539000831B4FF0010B71F1000100D206468EE035
:1053A0000720BDE8FC9F208FC0056CD1D4E90E23F7
:1053B0000098550A45EAC3554089401E054013D15F
:1053C00052EA030005D0206D28B12046FEF746FBC7
:1053D00005E0A06803E02046216C00F0AFFD022844
:1053E00019D3411C49D02064216C0098FEF74FFB73
:1053F00088B100EB0508770A23D00098EA194189A3
:105400008A4200D94F1B40783B4642464946FFF747
:105410008DFB90BB03E0022084F83100C1E794F8D3
:10542000300000060BD5616CA1EB0800B84206D233
:1054300009EB40204FF400720199FBF7FBF97D0264
:105440002FE0626C42451CD094F8300000060CD569
:105450000098012301994078FFF795FB68B994F80B
:10546000300000F07F0084F83000009801234246AD
:1054700040780199FFF75AFB18B184F831B0012048
:105480008FE7C4F84480208FC0F30800C0F5007592
:10549000B54200D9354601192A4648465431FBF732
:1054A000C9F9DAF80000761B4119CAF80010D4E9EE
:1054B0000E20521940F10000C4E90E20A944002E2C
:1054C0007FF471AF00206CE7F8B50E4607466946D9
:1054D0000AF052FF04002BD19EB14FF48C6000F013
:1054E000BFF9050013D0009805F50071C0E903511C
:1054F00000213846FFF704F90446042809D044B1D6
:1055000013E000213846FFF78FFA044610E011201F
:10551000F8BD3146384600F0ACFD00213846FFF7B3
:105520008DF80446042800D10024284600F09CF998
:105530002046F8BDF0B595B0044614A90AF01CFF4A
:10554000050023D194F8300041061FD5000611D57F
:105550001498626C0123407804F15401FFF713FBA7
:1055600010B1012015B0F0BD94F8300000F07F00BC
:1055700084F8300000F07BFD064614980178042979
:1055800005D0A16C07F082FC05005FD083E02046C7
:1055900000F022FA05007ED1421E2046216C00F068
:1055A00032FA050077D14FF48C6000F059F907000A
:1055B0000BD0149807F50071C0E9037121466846C5
:1055C00006F082FF050002D03CE01120CAE71498E3
:1055D00001690A7942F020020A71E179026941F019
:1055E000010182F821100069A168343008F0FEFE44
:1055F000D4E9042314980069383008F0FFFED4E998
:10560000042314980069283008F0F8FE14983146F5
:1056100000690C3008F0EAFE149800210269517507
:105620000069103008F0E2FE684609F019F805003C
:1056300008D1149809F056F8054614F8300F00F018
:10564000BF002070384600F00FF924E0E56C2946D1
:10565000E87A40F02000E872A268206808F0B2FE04
:1056600005F11C00216908F0C1FE314605F1160064
:1056700008F0BCFE002105F1120008F0E4FE1498C9
:105680000121C17009F02EF8054694F8300000F0B1
:10569000BF0084F83000284664E72DE9FC5F04462B
:1056A0000020894618609A461646694620460AF048
:1056B00063FE002808D194F83100002804D194F842
:1056C0003000800702D40720BDE8FC9F00984FF00F
:1056D000010B017804F154000190042904D0A06B5F
:1056E0008119814200D2C643B0E0208FC0057FD12E
:1056F000D4E90E230098550A45EAC3554089401E57
:1057000005401AD152EA030005D0206D38B1204679
:10571000FEF7A4F907E0A06838B9002100E0216C89
:105720002046FEF703FA00287CD001282ED0411C29
:1057300057D02064A16801B9A06094F83000000639
:105740000DD50098626C012340780199FFF71BFA90
:10575000A0BB94F8300000F07F0084F83000216C8A
:105760000098FEF794F988B100EB0508770A26D077
:105770000098EA1941898A4200D94F1B40783B467C
:1057800042464946FFF7FFF9C0B903E0022084F81A
:10579000310099E7616CA1EB0800B8420CD209EB2B
:1057A00040214FF400720198FBF744F894F8300060
:1057B00000F07F0084F830007D022DE011E0616C84
:1057C000414513D0D4E90E10D4E90423891A984135
:1057D0000CD200980123424640780199FFF7A6F9C0
:1057E00020B184F831B001206EE701E0C4F84480B4
:1057F000208FC0F30800C0F50075B54200D93546CA
:1058000020442A4649465430FBF714F894F83000F7
:1058100040F0800084F83000DAF80000761B41196F
:10582000A94400E015E0CAF80010D4E90E134A19A3
:1058300043F10003C4E90E23D4E904108D1A70EB80
:10584000030501D211461846C4E90410002E7FF466
:105850004CAF14F8300F40F040002070002033E7C8
:105860000146002007F0D8BB0146002007F0A8BB86
:105870002DE9F84F194A80464146D2F80500B8F1A3
:10588000800F4FEA500902D20846BDE8F88F4FF06A
:10589000FF31002601EB990710259246B81B06EB55
:1058A0005004DAF8011009EB840001440422684630
:1058B00007F02CFCBDF80010414509D001D2264666
:1058C00000E02746A5F101052D042D0CE6D103E0EB
:1058D00015B1BDF80200D8E70020D6E780AF002060
:1058E0002DE9F84F80464FF00009802803D21FFAB7
:1058F00088F0BDE8F88F15494FF0FF320026D1F847
:105900000500102502EBD0078A46B81B06EB5004B1
:10591000DAF8011009EB840001440422684607F01C
:10592000F5FBBDF80010414509D001D2264600E044
:105930002746A5F101052D042D0CE6D103E015B194
:10594000BDF80200D5E70020D3E7000080AF0020BB
:1059500030B5B0F5803F1FD280B2B0F5805F01D284
:105960001B4900E01B4931F8022B002A14D0904259
:1059700012D331F8023B1C0ADBB2D518854221D97B
:10598000092C09D2DFE804F005090E1012141618CC
:105990001A00801A31F8100030BD811A01F001019F
:1059A000401A0DE010380BE0203809E0303807E0ED
:1059B0001A3805E0083003E0503801E0A0F5E35064
:1059C00080B230BD002CCED101EB4301CBE700000B
:1059D000F0430108E245010870B50646C079032886
:1059E0000FD1B569B46808E0621C2146306808F040
:1059F000A5F8002806D1641C6D1E002DF4D10020EE
:105A0000F071002070BD70B5044616460D46C069A1
:105A10000FE0012802D92A1A921C00E03246291A06
:105A2000491C206808F08AF8002804D1E069401E6B
:105A3000E0610028EDD170BD2DE9F0470646C06950
:105A40008F1E801E9146B84200D800273C46B846BB
:105A500000254FF4007A706B00EB1431304607F0EC
:105A600015FA18B14FF0FF30BDE8F08704F00702D7
:105A700001209040F269C4F3C801C0B25346921E9F
:105A800006EB010C641C9CF83CC00CEA000C4006C0
:105A9000000E944202D3002420461946BCF1000FA8
:105AA00005D0A0460025BC4207D10020DCE76D1CD4
:105AB0004D45F8D108F10200D6E70028E0D10120D9
:105AC000491C9942DCD3C6E773B5044605680198C2
:105AD00001E0401C019001782F29FAD05C29F8D010
